:100000000C945E030C9486030C9486030C94860374
:100010000C9486030C9486030C9486030C9486033C
:100020000C9486030C9486030C94101D0C94821D72
:100030000C9486030C9486030C9486030C9486031C
:100040000C9486030C9486030C9486030C9486030C
:100050000C9486030C9486030C9486030C94B113C1
:100060000C9486030C94D6120C94B0120C94860354
:100070000C9486030C9486030C9486030C948603DC
:100080000C9486030C9486030C9486030C948603CC
:100090000C9468190C9486030C9486030C948603C4
:1000A0000C9486030C9486030C948603DB0ADE0A08
:1000B000E10AE10AE10AE10AE10AE10AEE0AF10ACB
:1000C000F40AF40AF40AF40AF40AF40A020B020B22
:1000D000050B050B050B050B050B050B3313361331
:1000E000251329132D135713571357133A133E1380
:1000F000421348134C135713521300407A10F35A0B
:1001000000A0724E18090010A5D4E80000E8764857
:10011000170000E40B54020000CA9A3B000000E103
:10012000F505000080969800000040420F00000096
:10013000A08601000000102700000000E803000076
:1001400000006400000000000A0000000000010040
:10015000000000002C76D888DC674F0823DFC1DF61
:10016000AE59E1B1B796E5E3E453C63AE651997664
:1001700096E8E6C28426EB898C9B62ED407C6FFC9E
:10018000EFBC9C9F40F2BAA56FA5F490055A2AF7E0
:100190005C936B6CF9676DC11BFCE0E40D47FEF5E9
:1001A00020E6B500D0ED902E030094357705008051
:1001B000841E080000204E0A000000C80C333333B0
:1001C000330F986E12831141EF8D2114893BE65550
:1001D00016CFFEE6DB18D1844B381BF77C1D901D33
:1001E000A4BBE424203284725E228100C9F124EC95
:1001F000A1E53D275265666572656E6369612030D1
:100200002C302C3130302C3130302E2E2E2E2E2E04
:1002100000436F6E736F6C612E2E2E2E2E2E2E2E9F
:100220002E2E2E2E2E2E2E2E2E2E2E2E003D3D3DEF
:100230003D3D3D3D3D3D3D3D3D3D3D3D3D3D3D3DEE
:100240003D3D3D3D3D3D3D3D3D3D3D3D3D3D3D0A11
:100250000056414C554520000A0023003D3D3D3DE0
:100260003D3D3D3D3D3D3D3D3D3D3D3D3D3D3D3DBE
:100270003D3D3D3D3D3D3D3D3D3D3D3D3D3D0A001E
:100280000A003D3D3D3D3D3D3D3D3D3D3D3D3D3D0E
:100290003D3D3D3D3D3D3D3D3D3D3D3D3D3D3D3D8E
:1002A0003D3D3D3D0A003D3D3D3D3D3D3D3D3D3DEE
:1002B0003D3D3D3D3D3D3D3D3D3D3D3D3D3D3D3D6E
:1002C0003D3D3D3D3D3D3D3D0A000A0020646576D3
:1002D0006963652873292E00466F756E642000449B
:1002E0006F6E652E00466F756E6420693263204420
:1002F000657669636520416464726573733A2000B2
:100300004932432041646472657373205363616EA4
:100310006E65722E200A5363616E6E696E67202EC1
:100320002E2E2E2E2E2E2E2E2E2E002E000A006D5C
:10033000696E75746F730A00496E74726F64757AB2
:100340006361206C6F73206D696E75746F732064C8
:100350006520736572766963696F0A003D3D3D3DB6
:100360003D3D3D3D3D3D3D3D3D3D3D3D3D3D3D3DBD
:100370003D3D3D3D3D3D3D3D3D3D3D3D3D3D0A001D
:1003800020202020202020202050726573732045DB
:100390006E74657220746F20457869740A0020209D
:1003A0002020202020202053657276696365205428
:1003B000696D650A003D3D3D3D3D3D3D3D3D3D3D59
:1003C0003D3D3D3D3D3D3D3D3D3D3D3D3D3D3D3D5D
:1003D0003D3D3D3D3D3D3D0A0072657365742D6DAB
:1003E0006375007265626F6F74003D3D3D3D3D3D3C
:1003F0003D3D3D3D3D3D3D3D3D3D3D3D3D3D3D3D2D
:100400003D3D3D3D3D3D3D3D3D3D3D3D0A00436F54
:100410006E736F6C612064652053657276696369E1
:100420006F003D3D3D3D3D3D3D3D3D3D3D3D3D3D07
:100430003D3D3D3D3D3D3D3D3D3D3D3D3D3D3D3DEC
:100440003D3D3D3D0A000A2053656E7420456D61B7
:10045000696C2066726F6D20507974686F6E2E2EF5
:100460002E0A007375646F20707974686F6E202F88
:10047000726F6F742F69665F6D61696C2E707900A1
:100480003D3D3D3D3D3D3D3D3D3D3D5265736574CA
:1004900020496E6963696F3D3D3D3D3D3D3D3D3DBC
:1004A0003D0A0072657365742D6D63750073756424
:1004B0006F20707974686F6E202F726F6F742F7356
:1004C0006572766963652E7079003D3D3D3D3D3D29
:1004D0003D3D3D3D3D3D3D3D3D3D3D3D3D3D3D3D4C
:1004E0003D3D3D3D3D3D3D3D3D3D3D3D0A003D3DAC
:1004F0003D3D3D3D3D3D3D3D3D3D3D3D3D3D3D3D2C
:100500003D3D3D3D3D3D3D3D3D3D3D3D3D3D3D3D1B
:100510000A004D616E74656E696D69656E746F2059
:10052000416374697661646F003D3D3D3D3D3D3DF5
:100530003D3D3D3D3D3D3D3D3D3D3D3D3D3D3D3DEB
:100540003D3D3D3D3D3D3D3D3D3D3D0A003D3D3D4B
:100550003D3D3D3D3D3D3D3D3D3D3D3D3D3D3D3DCB
:100560003D3D3D3D3D3D3D3D3D3D3D3D3D3D3D0AEE
:10057000007375646F20707974686F6E202F726FCE
:100580006F742F736572766963652E7079000A2027
:10059000506F737420446174612044422E2E2E0AE1
:1005A000007375646F20707974686F6E202F726F9E
:1005B0006F742F706F7374446174612E70790000D2
:1005C00000000200090F0000030401000C000000FD
:1005D0000000000000000000000000000000727534
:1005E0006E2D6272696467650A000A000A00080BD2
:1005F00000020202010009040000010202000005DD
:10060000240010010524010101042402060524062A
:1006100000010705810310004009040100020A00DF
:1006200000000705020240000007058302400000A9
:100630000403090412010002EF020140412341803A
:1006400000010102030141726475696E6F204C4C18
:10065000430041726475696E6F2059756E00000029
:100660000000250028002B002E00310000000000B3
:10067000240027002A002D00300004040404040391
:100680000405020202020403020202020606060632
:100690000606040402020204040408020110408059
:1006A0004010204080408008020401804020100259
:1006B0000110801020404020BF24892411241FBE37
:1006C000CFEFDAE0DEBFCDBF25E0ACE0B3E001C0A4
:1006D0001D92AF3DB207E1F713E0A0E0B1E0ECE01E
:1006E000FBE502C005900D92AC30B107D9F713E0DD
:1006F000CDE5D3E004C02197FE010E94302BCC351C
:10070000D107C9F70E9419230C94792D0C9400008D
:10071000089580E090E008956BE18EE695E00E94F8
:10072000431889EB91E00C948F1C6BE18EE695E009
:100730000E9443188DEB91E00C948F1C6BE18EE6C8
:1007400095E00E94431889EB91E00E948F1C6BE1B9
:100750008EE695E00E9443188DEB91E00E948F1C7D
:1007600081E192E00E94B62284EF91E00C94B622DF
:100770006F927F928F929F92AF92BF92CF92DF92B1
:10078000EF92FF920F931F93CF93DF93CDB7DEB716
:1007900068970FB6F894DEBF0FBECDBF8CEE94E025
:1007A0000E948F168111CBC060EC71E0CE010196E2
:1007B0000E9431128CEE94E00E948B1786E090E04C
:1007C0000E944A2B8C01BE016F5F7F4F0E9428124E
:1007D0001093FC040093FB04CE0101960E948F113C
:1007E00065EC71E0CE0101960E943112BE016F5F8F
:1007F0007F4F8CEE94E00E94B315CE0101960E94CB
:100800008F118CEE94E00E9460158CEE94E00E94B3
:100810008F16882339F064E670E080E090E00E9453
:100820006B13F3CF8CEE94E00E94641688C0CE0167
:1008300043960E94082365ED71E0CE0101960E9467
:1008400031128F89988D892B09F492C00B891C89EC
:1008500069817A81C8010E945F2D009709F488C0E0
:100860007C01E01AF10ACE0101960E948F1165ED1C
:1008700071E0CE0101960E9431128F89988D2D81F1
:100880003E818C01021B130B2115310509F074C048
:100890000FEF1FEFCE0101960E948F11970140E0EC
:1008A00050E0BE016D5E7F4FCE010D960E94461254
:1008B000A7014F5F5F4F9801BE016D5E7F4FCE0174
:1008C00007960E9446122F89388DA8014F5F5F4F0F
:1008D000BE016D5E7F4FCE0101960E944612CE0191
:1008E0000D960E94C0107093460360934503CE019D
:1008F00007960E94C0107093440360934303809155
:100900004103909142039093170180931601CE0109
:1009100001960E94C0107093420360934103CE0180
:1009200001960E948F11CE0107960E948F11CE0171
:100930000D960E948F11CE0143960E948F118CEE6E
:1009400094E00E94B7168091FE04882309F440C009
:1009500069EF71E0CE0143960E9431120E94B71CEC
:1009600097FD65CF682FCE0143960E94F910F6CF10
:10097000EE24EA94FE2C77CF009709F489CF8217F2
:10098000930708F485CF0817190718F08C01015058
:1009900011098B889C88A980BA80C40166246A9456
:1009A00077247A946401C00ED11EC816D90670F05F
:1009B000B5010E945F2D009749F09C012819390963
:1009C0000217130708F039010196EFCF830162CFB8
:1009D00068960FB6F894DEBF0FBECDBFDF91CF9102
:1009E0001F910F91FF90EF90DF90CF90BF90AF904D
:1009F0009F908F907F906F90089561E08DE00E94AE
:100A0000081364E670E080E090E00E946B1360E001
:100A10008DE00E94081364E670E080E090E00C94A2
:100A20006B13FC011382128288EE93E0A0E0B0E029
:100A300084839583A683B7838EE391E0918380833B
:100A400075876487118A128A138A0895CF93DF937A
:100A5000CDB7DEB7CA55D1090FB6F894DEBF0FBEC9
:100A6000CDBF60915103709152034AE0CE018B5A81
:100A70009F4F0E94C41167ED71E0CE0101960E9464
:100A80003112BE016B5A7F4FCE0101960E945C214C
:100A9000CE0101960E948F11CE018B5A9F4F0E946A
:100AA0008F1161EE74E0CE0101960E94110563E69C
:100AB00074E0CE018B5A9F4F0E94F011BE016B5A19
:100AC0007F4FCE0101960E94AD17CE018B5A9F4FEA
:100AD0000E948F1166E474E08EE695E00E948C120D
:100AE000CE0101960E940B18C65ADF4F0FB6F8943C
:100AF000DEBF0FBECDBFDF91CF910895E0913103EE
:100B0000F0913203EE0FFF1FE050FF4F8081918183
:100B1000019711F40E942605E0913103F091320310
:100B2000EE0FFF1FE050FF4F808191818F309105C4
:100B300061F481E090E09183808383EE91E00E94F4
:100B40009E2285EF91E00C949E22019691838083F2
:100B500008954F925F926F927F928F929F92AF9281
:100B6000BF92CF92DF92EF92FF920F931F93CF939A
:100B7000DF93CDB7DEB768970FB6F894DEBF0FBE30
:100B8000CDBF0E94FD046AEC72E0CE010D960E947A
:100B9000F0116BED74E0CE0101960E942812BE01A7
:100BA0006F5F7F4FCE0107960E942812BE01635FE0
:100BB0007F4FCE0107960E942D110E940823CE017F
:100BC00007960E948F11CE0101960E948F11CE01CF
:100BD0000D960E948F1166EA72E08EE695E00E9403
:100BE0008C12C12CD12C93E0892E912C80913F0343
:100BF00090914003039721F41092400310923F0319
:100C000000E410E0A0903F03B0904003A114B104B1
:100C100019F489E695E00DC081E0A816B10419F435
:100C200089E695E00FC082E0A816B10429F484E6B5
:100C300095E00E941F1408C083E0A816B10491F447
:100C400084E695E00E94FB13BC01990F880B990B79
:100C50000E94C72860932D0370932E0380932F0367
:100C60009093300360912D0370912E0380912F0398
:100C7000909130039B01AC010E94262960932903C7
:100C800070932A0380932B0390932C0320912503C8
:100C90003091260340912703509128030E941C2A7B
:100CA0006093250370932603809327039093280372
:100CB0000150110909F0A6CF20E030E040E85CE3E4
:100CC0000E9426292B013C0120E030E040E05FE358
:100CD0000E9426297B018C01B0E0A0E0F0E0E0E07A
:100CE0002B2F3A2F4F2F5E2FB701C8010E94C0282B
:100CF0008823C9F09701A801C301B2010E94882A84
:100D00009B01AC01B701C8010E941C2A20E030E021
:100D100040E05FE30E942629BE2DAF2DF02FE12F8A
:100D20007B018C01DDCF20E030E040E05EE3B701E5
:100D3000C8010E94262920E030E040E950E40E94EA
:100D400026296093210370932203809323039093B9
:100D50002403109225031092260310922703109269
:100D6000280320E030E048EC52E40E94882A2B015E
:100D70003C0168EF71E0CE0143960E9431124AE0D7
:100D8000B501CE010D960E94C4116AEF71E0CE014B
:100D900001960E943112BE016F5F7F4FCE01079610
:100DA0000E942812BE01635F7F4FCE0107960E940A
:100DB0002D11BE016D5E7F4F0E942D110E940823F0
:100DC000CE0107960E948F11CE0101960E948F11CD
:100DD000CE010D960E948F11CE0143960E948F1175
:100DE00060E072E0CE0107960E94311220E030E010
:100DF00042E053E4C301B2010E942629AB01BC01C9
:100E000022E0CE0101960E949411BE01695F7F4FDE
:100E1000CE0101960E942D110E940823CE01019659
:100E20000E948F11CE0107960E948F118EEF91E0E4
:100E30000E948F1C67E072E0CE0107960E9431127B
:100E400022E0B301A201CE0101960E949411BE01DD
:100E5000695F7F4FCE0101960E942D110E94811C77
:100E6000CE0101960E948F11CE0107960E948F112C
:100E7000E0913F03F0914003EE0FFF1FEE0FFF1FC5
:100E8000ED5CFC4F40825182628273822AE037ED32
:100E900043E25CE3C301B2010E94C02818163CF192
:100EA0009092520380925103C601089690933203A8
:100EB000809331034AE0B601CE0107960E94C41127
:100EC00063E372E0CE0101960E943112BE01695FB8
:100ED0007F4FCE0101960E945C21CE0101960E94B7
:100EE0008F11CE0107960E948F110E947E0522E08D
:100EF000B301A201CE0143960E94941160913F0379
:100F0000709140034AE0CE010D960E94C4116DE03D
:100F100072E0CE0101960E943112BE016F5F7F4FD9
:100F2000CE0107960E942812BE01635F7F4FCE015B
:100F300007960E942D11BE016D5E7F4F0E945C21BD
:100F4000CE0107960E948F11CE0101960E948F114B
:100F5000CE010D960E948F11CE0143960E948F11F3
:100F600080913F03909140030196909340038093BA
:100F70003F038FEFC81AD80A83E0C816D10409F0DE
:100F800035CE62E872E08EE695E00E948C126091A8
:100F90005103709152034AE0CE0107960E94C4119A
:100FA00067ED71E0CE0101960E943112BE01695FCA
:100FB0007F4FCE0101960E945C21CE0101960E94D6
:100FC0008F11CE0107960E948F1168960FB6F89484
:100FD000DEBF0FBECDBFDF91CF911F910F91FF906C
:100FE000EF90DF90CF90BF90AF909F908F907F90C9
:100FF0006F905F904F9008952F923F924F925F9223
:101000006F927F928F929F92AF92BF92CF92DF9218
:10101000EF92FF920F931F93CF93DF93CDB7DEB77D
:101020006A970FB6F894DEBF0FBECDBF0E94FD04D5
:101030001092200310921F0360E872E0CE010F9619
:101040000E94F0116BED74E08E010F5F1F4FC8011D
:101050000E942812B801CE0109960E942812BE01F2
:10106000615F7F4FCE0109960E942D110E940823D7
:10107000CE0109960E948F11C8010E948F11CE01E6
:101080000F960E948F116CE572E08EE695E00E944B
:101090008C12E0904B03F0904C033701660C771CE8
:1010A000C301845F9C4F2C01C12CD12CAA24A39492
:1010B000B12C62E0262E312C80914D0390914E038D
:1010C000E816F9060CF032C1E0911F03F0912003FD
:1010D000EE0FFF1FE45DFE4F61E080810E94D6218C
:1010E0001092AD038093AC03882331F083EC94E03D
:1010F0000E94861480931E036AE572E0CE01459635
:101100000E94F0116BED74E0CE0109960E94281246
:10111000BE01675F7F4FCE010F960E942812BE016D
:101120006B5E7F4FCE010F960E942D114C014AE05D
:10113000B801C7010E940826F80101900020E9F7D4
:101140003197AF01401B510BB801C4010E94CB1075
:10115000811103C0C4010E941B11C4010E94082315
:10116000CE010F960E948F11CE0109960E948F1119
:10117000CE0145960E948F1188EF91E00E948F1C4E
:1011800090911E0380914903892380931D03F201EE
:10119000EC0DFD1D81113EC010921C0311821082C6
:1011A000F601E60DF71DE050FF4FB182A0824AE044
:1011B00060E070E0CE0145960E94C4114AE0B7019C
:1011C000CE010F960E94C41160E172E0C8010E9436
:1011D0003112B801CE0109960E942812BE01615F4A
:1011E0007F4FCE0109960E942D11BE016B5E7F4F8D
:1011F0000E945C21CE0109960E948F11C8010E94B5
:101200008F11CE010F960E948F11CE0145960E943C
:101210008F1146C081E080931C03B182A0824AE016
:1012200061E070E0CE0145960E94C4114AE0B7012A
:10123000CE010F960E94C41160E172E0C8010E94C5
:101240003112B801CE0109960E942812BE01615FD9
:101250007F4FCE0109960E942D11BE016B5E7F4F1C
:101260000E945C21CE0109960E948F11C8010E9444
:101270008F11CE010F960E948F11CE0145960E94CC
:101280008F1196E0E916F1040CF071C0B092520390
:10129000A0925103F0923203E09231030E947E0546
:1012A00068E572E0CE0145960E94F01160911C0342
:1012B00070E04AE0CE010F960E94C41161E572E031
:1012C000C8010E94F011B801CE0109960E942812AF
:1012D000BE01615F7F4FCE0109960E942D11BE01B4
:1012E0006B5E7F4F0E942D110E940823CE0109964C
:1012F0000E948F11C8010E948F11CE010F960E948B
:101300008F11CE0145960E948F11809149039091D3
:101310004A03880F991F90934A03809349038FEFE4
:10132000E81AF80A92E0C90ED11CC6CE0E941A2211
:101330006DE272E08EE695E00E948C126A960FB61E
:10134000F894DEBF0FBECDBFDF91CF911F910F91FB
:10135000FF90EF90DF90CF90BF90AF909F908F90D5
:101360007F906F905F904F903F902F9008953092B4
:101370005203209251038ECF2F923F924F925F9251
:101380006F927F928F929F92AF92BF92CF92DF9295
:10139000EF92FF920F931F93CF93DF93CDB7DEB7FA
:1013A000CC55D1090FB6F894DEBF0FBECDBF0E9459
:1013B000B80381E090E09093500380934F034AE09C
:1013C00061E070E0CE018B5A9F4F0E94C41162E130
:1013D00072E0CE0101960E943112BE016B5A7F4F1E
:1013E000CE0101960E945C21CE0101960E948F11D0
:1013F000CE018B5A9F4F0E948F1162E274E08EE6FD
:1014000095E00E948C128EE094E00E94B6226AEE73
:1014100073E08EE695E00E948C1268EE73E080E047
:1014200090E00E946B138EE695E00E945C176C962C
:101430008FAF6C9706E010E090E4A92EB12C8824C1
:101440008394912C3CE3232E312C8EE695E00E9470
:101450001C1780917C05882309F402C38EE695E071
:101460000E945C178A3009F0F6C28FE192E00E9478
:10147000B21F882341F00E949E0369EF71E085ED61
:1014800094E00E94611183E292E00E94B21F8823DF
:1014900041F069EF71E085ED94E00E9461110E94D6
:1014A000500D88E292E00E94B21F8823F9F00E945A
:1014B0009E0361EE74E0CE0101960E94110563EE79
:1014C00073E0CE018B5A9F4F0E94F011BE016B5A00
:1014D0007F4FCE0101960E94AD17CE018B5A9F4FD0
:1014E0000E948F11CE0101960E940B188FE292E0AC
:1014F0000E94B21F8823E9F061EE74E0CE010196EC
:101500000E94110569ED73E0CE018B5A9F4F0E9436
:10151000F011BE016B5A7F4FCE0101960E94AD17AC
:10152000CE018B5A9F4F0E948F11CE0101960E94CF
:101530000B1885E392E00E94B21F882309F48FC044
:1015400080E093E00E94B6220E94911C412C512C15
:1015500032014394C12CDD24D394D092BB0340923A
:10156000DD031092BC031092DE030E941A22811147
:1015700051C065EE72E08EE695E00E948C124AE062
:10158000C301B2010E94C7228BE392E00E948F1C2C
:1015900040E1C301B2010E94C72281E492E00E94AF
:1015A0008F1C7201F201B097E830F10570F4EA5A2D
:1015B000FF4F0C94302B88E595E005C082E595E05F
:1015C00002C080E495E00E94811CF701F897E830A2
:1015D000F10570F4E25AFF4F0C94302B8CE495E047
:1015E00005C086E495E002C080E495E00E94811C7D
:1015F000F701E854F109E830F10558F4EA59FF4FD2
:101600000C94302B8CE495E002C080E495E00E94BD
:10161000811CC3948FEF481A580A680A780A98E721
:10162000491651046104710409F097CF8FED92E0DF
:101630000E94B62288ED92E00E94B6226C2D70E0E6
:1016400080E090E04AE00E94C7228CEC92E00E9489
:10165000B62269EF71E085ED94E00E94611184E4A7
:1016600092E00E94B21F882341F069EF71E085ED9E
:1016700094E00E9461110E94500D8BE592E00E945F
:10168000B21F882341F00E94B80369EF71E085ED35
:1016900094E00E94611189E492E00E94B21F8823C5
:1016A00071F085E090E090935203809351030E9483
:1016B000260569EF71E085ED94E00E9461118FE4E9
:1016C00092E00E94B21F882309F4CFC00E94B803A1
:1016D00065EB73E08EE695E00E948C126EE973E094
:1016E0008EE695E00E948C1260E873E08EE695E04D
:1016F0000E948C126CE573E08EE695E00E948C12DD
:1017000068E373E08EE695E00E948C128EE695E029
:101710000E945C1789EF91E06D968FAF6D97BC01C9
:1017200085ED94E00E9461118EE695E00E941C1701
:1017300080917C05882309F48CC08EE695E00E9498
:101740005C17F82E082E000C990BC0970A9728F406
:101750006F2D8FEC94E00E94F9109AE0F91274C09A
:101760008FEC94E00E94C0106B017C016FE273E08B
:101770008EE695E00E948C1226010D2C000C660866
:10178000770877FE14C0E0916E05F0916F05019027
:10179000F081E02D6DE28EE695E0099566277727CA
:1017A000CB0164197509860997094AE003C04AE02C
:1017B000C301B2010E94C72285EF91E00E949E22E0
:1017C00069EF71E08FEC94E00E9461118CE38C9DD5
:1017D00030018D9D700C1124E12CF12CE614F704DE
:1017E00054F568EE73E080E090E00E946B13C7014F
:1017F000B1010E94FA2A892B31F46DE273E08EE682
:1018000095E00E948C126BE273E08EE695E00E94F8
:101810008C128EE695E00E945C178A3041F469EFE5
:1018200071E085ED94E00E9461110E94500D9FEFE0
:10183000E91AF90AD3CF69EF71E085ED94E00E94CF
:1018400061110E94500D05C06F2D85ED94E00E943E
:10185000F9106D968FAD6D978A3009F065CF69EFFD
:1018600071E085ED94E00E94611187E592E00E94AD
:10187000B21F882309F44CC069EF71E085ED94E054
:101880000E9461110E948C030E9495030E948C03A8
:101890000E9495036EE575E08BED94E00E9478114F
:1018A00010934E0300934D0310924C0310924B0380
:1018B00090924A03809249030E94FC0762E575E01A
:1018C0008BED94E00E94781188E090E090934E03B5
:1018D00080934D0310934C0300934B03B0924A0343
:1018E000A09249030E94FC076CE475E08BED94E044
:1018F0000E9478110E94A9058EE695E00E945C176F
:101900008A3021F60E948C030E949E030E94BC092B
:1019100080E692E00E94B21F8823D1F06EE575E068
:101920008BED94E00E94781110934E0300934D03C9
:1019300010924C0310924B0390924A0380924903F9
:101940000E94FC0769EF71E085ED94E00E9461114F
:1019500087E692E00E94B21F8823E1F062E575E01D
:101960008BED94E00E94781188E090E090934E0314
:1019700080934D0310934C0300934B03B0924A03A2
:10198000A09249030E94FC0769EF71E085ED94E0A5
:101990000E9461118EE692E00E94B21F882371F0CE
:1019A0006CE475E08BED94E00E9478110E94A9052B
:1019B00069EF71E085ED94E00E94611184E792E0A7
:1019C0000E94B21F882351F061E087E00E94081353
:1019D00069EF71E085ED94E00E9461118AE792E081
:1019E0000E94B21F882351F060E087E00E94081334
:1019F00069EF71E085ED94E00E94611181E892E069
:101A00000E94B21F882351F061E086E00E94081313
:101A100069EF71E085ED94E00E9461118AE892E03F
:101A20000E94B21F882351F060E086E00E940813F4
:101A300069EF71E085ED94E00E94611180E090E033
:101A40000E94B21F81110CC069EF71E085ED94E036
:101A50000E94611105C0682F85ED94E00E94F91085
:101A60006C969FAD6C979A3009F0EFCCC45ADF4F5B
:101A70000FB6F894DEBF0FBECDBFDF91CF911F919F
:101A80000F91FF90EF90DF90CF90BF90AF909F901D
:101A90008F907F906F905F904F903F902F90089520
:101AA0000F931F93CF93DF93CDB7DEB7C250D140D2
:101AB0000FB6F894DEBF0FBECDBF60E086E00E9497
:101AC000081361E087E00E9408130E948C030E94C3
:101AD000950381E090E09093500380934F034AE098
:101AE00061E070E0CE0101960E94C41162E172E0F3
:101AF000CE018B5A9F4F0E943112BE016F5F7F4F04
:101B0000CE018B5A9F4F0E945C21CE018B5A9F4F72
:101B10000E948F11CE0101960E948F110E94B8037E
:101B200061EE74E0CE0187559F4F0E94110561E779
:101B300075E0CE0101960E94F011BE016F5F7F4FEC
:101B4000CE0187559F4F0E94AD17CE0101960E948E
:101B50008F110E94A42184E291E00E94A825909315
:101B60004803809347038091470390914803892B52
:101B700009F07AC00E948C030E9495030E94B8036A
:101B80006DE475E08EE695E00E948C1269E275E0E6
:101B90008EE695E00E948C1282E195E00E94B622CA
:101BA0006EEE74E08EE695E00E948C126AEC74E0B2
:101BB0008EE695E00E948C1260E08DE00E94081392
:101BC00060ED77E080E090E00E946B1361EE74E0DE
:101BD000CE018B5A9F4F0E9411056DEA74E0CE0131
:101BE00001960E94F011BE016F5F7F4FCE018B5AAC
:101BF0009F4F0E94AD17CE0101960E948F110E9447
:101C0000A42184E291E00E94A82590934803809348
:101C10004703019719F561EE74E0CE0101960E9429
:101C2000110563EA74E0CE0183509F4F0E94F011CA
:101C3000BE0163507F4FCE0101960E94AD17CE01C9
:101C400083509F4F0E948F1160E874E08EE695E00C
:101C50000E948C12CE0101960E940B18CE018B5A65
:101C60009F4F0E940B187FCFCE0187559F4F0E9438
:101C70000B186EE575E08BED94E00E94781106E09C
:101C800010E010934E0300934D0310924C031092FA
:101C90004B0381E090E090934A03809349030E94B4
:101CA000FC0762E575E08BED94E00E94781188E016
:101CB00090E090934E0380934D0310934C03009358
:101CC0004B0380E490E090934A03809349030E9481
:101CD000FC076CE475E08BED94E00E9478110E94A3
:101CE000A90561EE74E0CE0101960E94110561EA3A
:101CF00075E0CE018B5A9F4F0E94F011BE016B5AC6
:101D00007F4FCE0101960E94AD17CE018B5A9F4F97
:101D10000E948F116EE875E08EE695E00E948C12AD
:101D2000CE0101960E940B186091510370915203ED
:101D30004AE0CE0101960E94C41167ED71E0CE0128
:101D40008B5A9F4F0E943112BE016F5F7F4FCE01B1
:101D50008B5A9F4F0E945C21CE018B5A9F4F0E944D
:101D60008F11CE0101960E948F1110925203109292
:101D7000510361E086E00E94081360E087E00E9462
:101D800008131092500310924F034AE060E070E095
:101D9000CE0101960E94C41162E172E0CE018B5A1D
:101DA0009F4F0E943112BE016F5F7F4FCE018B5A51
:101DB0009F4F0E945C21CE018B5A9F4F0E948F1132
:101DC000CE0101960E948F1164EF71E080E090E0F7
:101DD0000E946B138EE695E00E945C178A3031F406
:101DE0000E948C030E9495030E94BC09CE5FDE4FC7
:101DF0000FB6F894DEBF0FBECDBFDF91CF911F911C
:101E00000F910895CF92DF92EF92FF920F931F935D
:101E1000CF93DF936C017A018B01C0E0D0E0CE1547
:101E2000DF0589F0D8016D918D01D601ED91FC910E
:101E30000190F081E02DC6010995892B11F47E01F6
:101E400002C02196ECCFC701DF91CF911F910F9176
:101E5000FF90EF90DF90CF900895FC01538D448D5B
:101E6000252F30E0842F90E0821B930B541710F045
:101E7000CF96089501970895FC01918D828D981752
:101E800061F0828DDF01A80FB11D5D968C91928D5E
:101E90009F5F9F73928F90E008958FEF9FEF08955B
:101EA000FC01918D828D981731F0828DE80FF11D24
:101EB000858D90E008958FEF9FEF0895FC01918D3F
:101EC000228D892F90E0805C9F4F821B91098F7338
:101ED0009927089586E294E00E945E0F21E0892B05
:101EE00009F420E0822F0895FC01848DDF01A80F02
:101EF000B11DA35ABF4F2C91848D90E001968F7332
:101F00009927848FA689B7892C93A089B1898C9150
:101F100080648C93938D848D981306C00288F38916
:101F2000E02D80818F7D80830895EF92FF920F9343
:101F30001F93CF93DF93EC0181E0888F9B8D8C8D75
:101F4000981305C0E889F989808185FD24C0F62EA3
:101F50000B8D10E00F5F1F4F0F731127E02E8C8D3C
:101F6000E8120CC00FB607FCFACFE889F989808126
:101F700085FFF5CFCE010E94740FF1CF8B8DFE014E
:101F8000E80FF11DE35AFF4FF0820B8FEA89FB89BE
:101F90008081806207C0EE89FF896083E889F989C2
:101FA00080818064808381E090E0DF91CF911F91F8
:101FB0000F91FF90EF900895CF93DF93EC01888D00
:101FC0008823C9F0EA89FB89808185FD05C0A8893D
:101FD000B9898C9186FD0FC00FB607FCF5CF8081C3
:101FE00085FFF2CFA889B9898C9185FFEDCFCE010D
:101FF0000E94740FE7CFDF91CF91089580E090E0C9
:10200000892B29F00E946A0F81110C940000089519
:102010003FB7F8948091580390915903A0915A03C7
:10202000B0915B0326B5A89B05C02F3F19F0019620
:10203000A11DB11D3FBFBA2FA92F982F8827820F4E
:10204000911DA11DB11DBC01CD0142E0660F771F9E
:10205000881F991F4A95D1F708950E94412D0F932B
:102060001F93CF93DF93EC0188819981009729F02A
:102070002A813B812617370788F48B016F5F7F4FDA
:102080000E94772C009761F0998388831B830A83D1
:102090002C813D81232B11F4FC01108281E001C0D1
:1020A00080E0DF91CF911F910F9108951F93CF93FF
:1020B000DF93182F81E08093BB031093DD03109210
:1020C000BC031092DE0360E083EC94E00E94D21423
:1020D0000E941A2262E0812F0E94D6211092AD0345
:1020E0008093AC0383EC94E00E948614182F83EC59
:1020F00094E00E948614D12F20E0C22F9E01282B4D
:10210000C901DF91CF911F9108954091A50350918E
:10211000A6032091A3033091A40342175307B4F4FC
:102120009091E8009570E1F39091E80092FD19C05C
:102130008093F1008091A5039091A60301968F737F
:102140009927892B19F48EEF8093E8008091A503DD
:102150009091A60301969093A6038093A50381E036
:10216000089580E00895615030F02091F100FC0165
:1021700020830196F8CF289884E68093AA030895D7
:10218000FC0180819181009711F00C94C62560E0DC
:1021900070E0CB010895EF92FF920F931F93CF93BE
:1021A000DF93FC01248135816115710511F480E014
:1021B00019C041155105A9F07B01EC018A01020FFC
:1021C000131FB8010E942F10882389F328813981B9
:1021D0008C819D81B701820F931F0E94582D1D8312
:1021E0000C8381E0DF91CF911F910F91FF90EF90D1
:1021F0000895CF93DF9300D0CDB7DEB769831A82FD
:1022000041E050E0BE016F5F7F4F0E94CB100F9006
:102210000F90DF91CF9108956115710551F0FB0189
:1022200001900020E9F73197AF01461B570B0C9442
:10223000CB1080E00895CF93DF93EC0188819981E2
:10224000009711F00E94DF2B198218821D821C82D8
:102250001B821A82DF91CF910895CF93DF93EC0117
:10226000FB0144815581608171810E94CB108111F5
:1022700003C0CE010E941B11CE01DF91CF910895C2
:10228000EF92FF920F931F93CF93DF93EC017B01AB
:102290008A01BA010E942F10811104C0CE010E9450
:1022A0001B1107C01D830C83B701888199810E948F
:1022B000582DCE01DF91CF911F910F91FF90EF909C
:1022C0000895CF93DF93EC016115710559F0FB017F
:1022D00001900020E9F73197AF01461B570B0E9490
:1022E000401102C00E941B11CE01DF91CF910895D1
:1022F000CF93DF93EC01FB018617970761F06081B4
:1023000071816115710529F0448155810E94401148
:1023100002C00E941B11CE01DF91CF910895FC01F4
:10232000808191810C94DF2BEF92FF920F931F938A
:10233000CF93DF93CDB7DEB7A1970FB6F894DEBF8A
:102340000FBECDBF7C01CB01BA01F7011182108213
:10235000138212821582148242E0420F8E010F5FB7
:102360001F4F0E948825BC01C7010E946111A196E0
:102370000FB6F894DEBF0FBECDBFDF91CF911F9196
:102380000F91FF90EF9008950F931F93CF93DF93DA
:10239000CDB7DEB762970FB6F894DEBF0FBECDBFE4
:1023A0008C01CB01F80111821082138212821582F6
:1023B000148250E0BE016F5F7F4F0E94FD25BE0179
:1023C0006F5F7F4FC8010E94611162960FB6F8944B
:1023D000DEBF0FBECDBFDF91CF911F910F9108954A
:1023E000EF92FF920F931F93CF93DF93EC0119822B
:1023F00018821B821A821D821C826115710509F1E7
:102400008B01CB010E94F4257C01BC01CE010E940E
:102410002F10811109C0CE01DF91CF911F910F9133
:10242000FF90EF900C941B11FD82EC82B801888123
:102430009981DF91CF911F910F91FF90EF900C94B4
:10244000ED25DF91CF911F910F91FF90EF900895AF
:10245000FC011182108213821282158214820C9464
:102460007811FC011182108213821282158214826B
:102470006115710551F0FB0101900020E9F73197DA
:10248000AF01461B570B0C9440110895BF92CF9299
:10249000DF92EF92FF920F931F93CF93DF937C0114
:1024A0006B018A01E9012417350720F4812F890186
:1024B000C42FD82F69EF71E0C7010E943112D601F5
:1024C00014968D919C91159708171907D0F48C17C5
:1024D0009D0708F4EC01D601ED91FC911197EC0FEA
:1024E000FD1FB08010824D915C91BA01600F711F89
:1024F000C7010E946111D601ED91FC91EC0FFD1F07
:10250000B082C701DF91CF911F910F91FF90EF90A3
:10251000DF90CF90BF900895EF92FF920F931F939B
:10252000CF93DF938C017B01C0E0D0E0F701EC0F8B
:10253000FD1F6491662361F0D801ED91FC9101903B
:10254000F081E02DC8010995892B11F02196EECF7D
:10255000CE01DF91CF911F910F91FF90EF900895E1
:102560001F920F920FB60F9211242F933F934F9308
:102570005F936F937F938F939F93AF93BF93EF93EB
:10258000FF9386E294E00E94740FFF91EF91BF9158
:10259000AF919F918F917F916F915F914F913F91FB
:1025A0002F910F900FBE0F901F9018951F920F92B2
:1025B0000FB60F9211242F938F939F93EF93FF9356
:1025C000E0913604F09137048081E0913C04F09171
:1025D0003D0482FD12C0908180913F048F5F8F7314
:1025E00020914004821751F0E0913F04F0E0EA5D51
:1025F000FB4F958F80933F0401C08081FF91EF9145
:102600009F918F912F910F900FBE0F901F90189553
:10261000362F90E0FC01E154FA4F4491FC01E7565B
:10262000F94F2491FC01E658F94F8491882309F46D
:1026300051C04423E1F150E0FA013197EF30F10548
:10264000B0F5E259FF4F0C94302B909180009F77AA
:1026500007C0909180009F7D03C090918000977F7C
:102660009093800024C094B59F7702C094B59F7D5D
:1026700094BD1DC0909190009F7707C090919000ED
:102680009F7D03C090919000977F909390000FC022
:102690009091C0009F7703C09091C0009F7D909360
:1026A000C00005C09091C200977F9093C200E82FB0
:1026B000F0E0EE0FFF1FE25AF94FA591B4918FB7EA
:1026C000F894EC91311103C020952E2301C02E2BDC
:1026D0002C938FBF08958F929F92AF92BF92CF920B
:1026E000DF92EF92FF926B017C010E9408104B0178
:1026F0005C01C114D104E104F104F1F00E9408105E
:10270000DC01CB0188199909AA09BB09883E9340CD
:10271000A105B10570F321E0C21AD108E108F10862
:1027200088EE880E83E0981EA11CB11CC114D10450
:10273000E104F10419F7DDCFFF90EF90DF90CF9027
:10274000BF90AF909F908F9008952FB7F8946091AD
:1027500054037091550380915603909157032FBFF6
:1027600008951F920F920FB60F9211242F933F934B
:102770008F939F93AF93BF93809154039091550390
:10278000A0915603B09157033091530323E0230FD8
:102790002D3720F40196A11DB11D05C026E8230F99
:1027A0000296A11DB11D209353038093540390936F
:1027B0005503A0935603B09357038091580390910B
:1027C0005903A0915A03B0915B030196A11DB11D5D
:1027D0008093580390935903A0935A03B0935B03DB
:1027E000BF91AF919F918F913F912F910F900FBE0D
:1027F0000F901F901895CF93DF93EC016B817C8134
:102800006368716B88810E947722698170E080E043
:1028100090E00E946B1388810E9456102A81022E3C
:1028200002C0969587950A94E2F7222329F0811534
:1028300028E0920708F0906FDF91CF910895CF9331
:10284000DF93EC016B817C816368716888810E94F1
:102850007722698170E080E090E00E946B138881AC
:102860000E9456102A81022E02C0969587950A94DE
:10287000E2F7222329F0811528E0920708F0906FF3
:10288000DF91CF910895089585ED8093BC008091EC
:10289000BC0084FDFCCF10922504089540917E0376
:1028A000262F30E0240F311D21323105DCF4209138
:1028B00025042430C9F4FC0180E090E0861758F428
:1028C00030917E032191DC01A45ABC4FA30FB11DAE
:1028D0002C930196F3CF80917E03680F60937E0363
:1028E00080E0089581E0089582E008950895E091E0
:1028F000AD038091AC03E81730F4F0E0E152FC4FF7
:10290000808190E008958FEF9FEF08959091AD033F
:102910008091AC03981750F4E92FF0E0E152FC4F9E
:10292000208130E09F5F9093AD0302C02FEF3FEF17
:10293000C90108958091AC0390E02091AD03821B02
:1029400091090895CF92DF92EF92FF920F931F9318
:10295000CF93DF937C01262F972F8A018091BB03B1
:10296000882391F0C62FD72F6E01C40ED51ECC152B
:10297000DD0571F06991D701ED91FC910190F08135
:10298000E02DC7010995F3CF642F822F0E944E14CA
:10299000C801DF91CF911F910F91FF90EF90DF90D1
:1029A000CF900895CF93DF931F92CDB7DEB76983A1
:1029B0002091BB032223D1F02091DE03203240F08E
:1029C00021E030E0FC013383228380E090E015C0F9
:1029D0008091BC03E82FF0E0E354FC4F9981908391
:1029E0008F5F8093BC038093DE0305C061E0CE015E
:1029F00001960E944E1481E090E00F90DF91CF91FC
:102A000008958F929F92AF92BF92CF92DF92EF92F2
:102A1000FF920F931F93CF93DF931F92CDB7DEB733
:102A20005C019B014A01DC0152968C91811105C029
:102A30007B018B01040F151F31C080E58983C12CF8
:102A4000D12CE12CF12C8A0141E050E0BE016F5FF6
:102A50007F4FF501848595850E94D21F22C0D50144
:102A60005596ED91FC91569753968C91539791E022
:102A7000980F53969C93D7019D917D01E80FF11D0E
:102A80009083F50193898489981308C00190F0819F
:102A9000E02D0680F781E02DC5010995E016F106CD
:102AA000F1F6C4010F90DF91CF911F910F91FF902C
:102AB000EF90DF90CF90BF90AF909F908F90089550
:102AC000AF92BF92CF92DF92EF92FF920F931F933C
:102AD000CF93DF9300D01F92CDB7DEB75C0182E5C4
:102AE0008B83D5011F96ED91FC9150970481158140
:102AF0002081318182E0C82ED12CFE0131967F01E8
:102B000041E050E0BE016D5F7F4F1C968D919C911E
:102B10001D970E94D21F8A81D5011E968C931E9705
:102B20001F960D911C9150970115110531F0C801A8
:102B30000E948F11C8010E94DF2BF501108A1786B1
:102B40008981811102C081E0818B0F900F900F90DD
:102B5000DF91CF911F910F91FF90EF90DF90CF9079
:102B6000BF90AF9008950F931F93CF93DF93EC0125
:102B70008B0166E972E08F8598890E940C11F8013B
:102B800044815581608171818F859889DF91CF91D2
:102B90001F910F910C94CB10CF93DF93EC018A8996
:102BA000811108C08D899E89009711F00E94DF2B4A
:102BB00081E08A8B88899989009721F00E94DF2B18
:102BC000198A188ADF91CF910895CF93DF93EC0192
:102BD0008D819E81DC01ED91FC910084F185E02DD9
:102BE00009951816190654F48D819E81DC01ED912A
:102BF000FC910284F385E02D0995EACFDF91CF9116
:102C000008958F929F92AF92BF92CF92DF92EF92F0
:102C1000FF92CF93DF93EC016B010E94A5134B0150
:102C20005C01E12CF12C8D819E81DC01ED91FC9108
:102C30000284F385E02D099597FF0FC00E94A5132C
:102C4000DC01CB0188199909AA09BB098C159D05DE
:102C5000AE05BF0540F38FEF9FEFDF91CF91FF905F
:102C6000EF90DF90CF90BF90AF909F908F9008959E
:102C7000FC01238134812627022E2295207F2025E6
:102C8000032E322F22952F700226269532272327D6
:102C9000220F220F220F2025348323830895CF9201
:102CA000DF92EF92FF920F931F936801790100E08A
:102CB00010E020E030E00E94D21F1F910F91FF90A2
:102CC000EF90DF90CF9008950F931F93CF93DF93F2
:102CD00000D000D0CDB7DEB727E52B83FC012685D9
:102CE0002C8302E010E09E012F5F3F4F42E050E056
:102CF000BE016D5F7F4F848595850E944F16898147
:102D000090E0982F88272A81820F911D0F900F90B5
:102D10000F900F90DF91CF911F910F9108950F9316
:102D20001F93CF93DF9300D01F92CDB7DEB722E77A
:102D30002983FC0126852A8301E010E09E012D5F96
:102D40003F4F42E050E0BE016F5F7F4F8485958525
:102D50000E944F1681E09B81913009F080E00F9036
:102D60000F900F90DF91CF911F910F910895EF92E7
:102D7000FF920F931F93CF93DF9300D01F92CDB795
:102D8000DEB7FC012289211118C07C01138A8FE46F
:102D9000898380E48B8386858A839F012C5E3F4FE5
:102DA00000E410E043E050E0BE016F5F7F4F848598
:102DB00095850E944F16F701828B0F900F900F9010
:102DC000DF91CF911F910F91FF90EF900895CF93D6
:102DD000DF93EC010E94B7168A89882331F08B8932
:102DE000C80FD11D8C8990E002C08FEF9FEFDF915B
:102DF000CF910895CF93DF93EC010E94B7168A8993
:102E0000882359F081508A8B8B8991E0980F9B8B96
:102E1000C80FD11D8C8990E002C08FEF9FEFDF912A
:102E2000CF910895CF93DF93EC010E94B7168A8962
:102E300090E0DF91CF910895EF92FF920F931F934F
:102E4000CF93DF9300D0CDB7DEB7FC0126852111EB
:102E500015C07C01178680E7898380E28A832089F8
:102E6000318900E210E042E050E0BE016F5F7F4F29
:102E7000848595850E944F16F70186870F900F90E5
:102E8000DF91CF911F910F91FF90EF900895CF9315
:102E9000DF93EC010E941C178E85882341F08F85FB
:102EA000E889F989E80FF11D808190E002C08FEF79
:102EB0009FEFDF91CF910895CF93DF93EC010E94B4
:102EC0001C178E85882369F081508E87E889F989DF
:102ED0008F8591E0980F9F87E80FF11D808190E02A
:102EE00002C08FEF9FEFDF91CF910895CF93DF93D3
:102EF000EC010E941C178E8590E0DF91CF91089520
:102F00000F931F9300E010E020E030E00E944F1686
:102F10001F910F9108950F931F93CF93DF9300D0CC
:102F2000CDB7DEB78C01FC018189882369F087E782
:102F3000898386858A8342E050E0BE016F5F7F4FC0
:102F4000848595850E948017F801118A0F900F9053
:102F5000DF91CF911F910F910895CF92DF92EF9261
:102F6000FF920F931F93CF93DF9300D000D000D038
:102F7000CDB7DEB78C016B0168E972E0CE01019636
:102F80000E943112C8010E948B1786E090E00E94D7
:102F90004A2B7C01BE016F5F7F4F0E942812F8010F
:102FA000F08AE786CE0101960E948F1161EA72E0F5
:102FB000CE0101960E943112BE016F5F7F4FC801A2
:102FC0000E94B315CE0101960E948F11B601C8016F
:102FD0000E94B315C8010E946015C8010E948F1697
:102FE000882339F064E670E080E090E00E946B1383
:102FF000F4CFC8010E94641626960FB6F894DEBF7F
:103000000FBECDBFDF91CF911F910F91FF90EF9039
:10301000DF90CF9008952EE331E0FC0131832083CF
:103020000C948B17CF93DF9300D01F92CDB7DEB7F0
:1030300029E42983FC0126852A836B8343E050E041
:10304000BE016F5F7F4F848595850E94801781E068
:1030500090E00F900F900F90DF91CF910895CF9354
:10306000DF93FC01228921110BC0EC01438950E060
:1030700065897689848595850E94801781E08B8B90
:10308000DF91CF910895CF93DF9300D0CDB7DEB716
:10309000DC0152968C915297882379F080E58983E0
:1030A0006A8342E050E0BE016F5F7F4F1C968D91B6
:1030B0009C911D970E9480171FC05596ED91FC9121
:1030C000569753968C91539791E0980F53969C93F3
:1030D0005397E80FF11D608353969C915397549634
:1030E0008C915497981308C0ED91FC91119706802C
:1030F000F781E02DCD01099581E090E00F900F90D0
:10310000DF91CF910895BF92CF92DF92EF92FF921D
:103110000F931F93CF93DF93CDB7DEB72E970FB6E4
:10312000F894DEBF0FBECDBF7C01C7010E94E5153C
:1031300068EE73E080E090E00E946B13D701159673
:103140008D919C911697DC01ED91FC910084F185A5
:10315000E02D09951816190644F385E0D82ECC24E5
:10316000C39492E3B92EE0E3F1E0DE0111968D2DD8
:1031700001900D928A95E1F7F701C08645E050E095
:10318000BE016F5F7F4FC7010E948017D701159660
:103190008D919C911697DC01ED91FC910190F0814D
:1031A000E02D63E009956AEF70E080E090E00E9416
:1031B0006B136CEE75E0F701858196810E948C128D
:1031C0006AEF70E080E090E00E946B136AEE75E0B9
:1031D000D70115968D919C9116970E948C1264EFE1
:1031E00071E080E090E00E946B136EED75E0F701F6
:1031F000858196810E948C1264EF71E080E090E0FE
:103200000E946B13C7010E94E515E5E3F1E0DE01C2
:1032100016968D2D01900D928A95E1F7D70118969B
:10322000BC9204E010E09E01255F3F4F45E050E076
:10323000BE016A5F7F4FC7010E944F168F3FBFEFED
:103240009B0739F468EE73E080E090E00E946B1316
:103250008ACF2B852111FFCF049701F52C8530E013
:103260002053310984E6829FA001839F500D1124D1
:103270002D8530E0205331096AE0629FC001639FD1
:10328000900D1124840F951F2E8530E020533109B5
:10329000820F931FF7019283818307C084E690E039
:1032A000D70112969C938E93119782E3F701808742
:1032B0002E960FB6F894DEBF0FBECDBFDF91CF9133
:1032C0001F910F91FF90EF90DF90CF90BF900895E6
:1032D0001F920F920FB60F9211242F933F934F938B
:1032E0005F936F937F938F939F93AF93BF93EF936E
:1032F000FF938091B900887F803609F49CC068F5FF
:10330000883209F45BC090F4803109F454C038F479
:10331000882309F4F6C0883009F44DC0F6C088311E
:1033200009F44CC0803209F45DC0EFC0803409F468
:1033300068C048F4803309F455C0883309F0E5C00B
:1033400080932304D8C0803509F44FC0883509F430
:103350005DC0883409F0D9C0D6C0883909F4C7C027
:10336000A8F4883709F467C038F4883609F463C0D4
:10337000803709F460C0C9C0883809F4B8C0803902
:1033800009F45FC0803809F0C0C05BC0803B09F41D
:1033900086C038F4803A09F466C0883A09F47FC0E0
:1033A000B4C0803C09F4A7C0883C09F4A4C0883BA1
:1033B00009F48AC0AAC08091200410C09091220410
:1033C00080912104981770F5E091220481E08E0F1E
:1033D00080932204F0E0E150FC4F80818093BB0099
:1033E00085EC86C0809323048EC0E091220481E0A6
:1033F0008E0F809322048091BB00F0E0E150FC4FDF
:10340000808390912204809121046EC0E091220477
:1034100081E08E0F809322048091BB00F0E0E150A8
:10342000FC4F80838091240481116DC081E08093E2
:103430001F0484EA61C083E0809325041092A203F4
:10344000CFCF8091A203803208F051C0E091A20357
:1034500081E08E0F8093A2038091BB00F0E0EE57D5
:10346000FC4F8083BDCF85EC8093BC001092250477
:103470008091A203803230F4E091A203F0E0EE5795
:10348000FC4F10826091A20370E0E0918003F09104
:10349000810382E893E009951092A20336C084E08C
:1034A0008093250410927F0310927E03E0917C03A9
:1034B000F0917D03099580917E03811105C081E023
:1034C00080937E0310925C03E0917F0381E08E0F76
:1034D00080937F03F0E0E45AFC4F80818093BB002F
:1034E00090917F0380917E03981708F479CF85E847
:1034F0008093BC000AC085EC8093BC001092250428
:1035000004C0109223040E944414FF91EF91BF91D4
:10351000AF919F918F917F916F915F914F913F916B
:103520002F910F900FBE0F901F901895FC01809166
:10353000AB03811103C08FEF9FEF08959FB7F894FD
:1035400082E08093E9002091F20030E01216130629
:1035500014F421E030E02115310559F0289884E673
:103560008093AA038091F10080838091F2008823E8
:1035700019F09FBFC90108958BE68093E800F9CF49
:103580002FB7F89483E08093E9009091E800892FA9
:10359000807295FF04C09091F20080E4891B2FBFD8
:1035A00008958091B30381110DC082E08093AF0331
:1035B00084E08093B0031092B2031092B10381E0D3
:1035C0008093B3038FEA93E00895CF93DF931F9224
:1035D000CDB7DEB76983DC01ED91FC910280F38108
:1035E000E02D41E050E0BE016F5F7F4F09950F90E5
:1035F000DF91CF91089583E08093E9008091F200FC
:10360000882319F08AE38093E80008950E94C01A85
:1036100090E00895CF93DF931F92CDB7DEB7FC0102
:103620008485958597FD05C02FEF3FEF358724876B
:103630000BC0CE0101960E94961A019719F4898158
:1036400090E002C08FEF9FEF0F90DF91CF91089530
:103650000F931F93CF93DF931F92CDB7DEB78C01EB
:10366000FC018485958597FF0EC0CE0101960E94CE
:10367000961A019719F4298130E002C02FEF3FEF2D
:10368000F80135872487F801848595850F90DF91AF
:10369000CF911F910F910895FC018485958597FD29
:1036A0000BC09FB7F89482E08093E9008091F2000C
:1036B0009FBF90E0019608959FB7F89482E08093B1
:1036C000E9008091F2009FBF90E008958F929F9251
:1036D000AF92BF92CF92DF92EF92FF920F931F9320
:1036E000CF93DF935C016B017A01809123018823E2
:1036F00009F45BC08091AB03882309F456C0809124
:10370000A90380FF05C08091E00082608093E00003
:10371000E70110E00AEF83E0882E9AE3992E2097C4
:10372000D9F10E94C01A81110AC0015009F43DC0AC
:1037300061E070E080E090E00E946B13F0CF282FF2
:1037400030E0C217D3070CF48C2F4FB7F894809257
:10375000E9009091E80095FF1DC0282F30E0C21BC2
:10376000D30BF601982F915020F081918093F100B6
:10377000FACFC20ED31E112319F09092E80009C0AF
:103780008091E80085FD06C09092E80011E0209746
:1037900009F010E04FBFC3CF1111C3CF5D9884E68D
:1037A0008093AE031E141F0444F081E090E0F50105
:1037B0009383828380E090E001C0C701DF91CF91C5
:1037C0001F910F91FF90EF90DF90CF90BF90AF903F
:1037D0009F908F900895CF92DF92EF92FF920F9378
:1037E0001F93CF93DF931F92CDB7DEB7182F062F0D
:1037F000E42E862F880F8E5F99830E94851083E0C8
:103800000E948510F12EC12E9981D92E8C2D8F19F1
:10381000801798F4F601E7FE02C0849101C0808110
:103820000E948510182F80E00E9485108123FFEFF1
:10383000CF1ADF0A8111EACF01C081E00F90DF913A
:10384000CF911F910F91FF90EF90DF90CF9008954F
:10385000DF92EF92FF920F931F93CF93DF93D82EB7
:103860008A017B01E40EF51EEB01CE15DF0571F038
:10387000D7FE03C0FE01849101C088810E9485109B
:1038800021968111F2CF8FEF9FEF01C0C801DF9128
:10389000CF911F910F91FF90EF90DF9008950F93BC
:1038A0001F93CF93DF931F92CDB7DEB782E089835A
:1038B00042E450E06EEE75E080E80E94281C0E9411
:1038C000D11ADC0112960D911C9113970115110567
:1038D00069F0D801ED91FC910280F381E02DBE01E9
:1038E0006F5F7F4FC801099597FF07C089810F90CF
:1038F000DF91CF911F910F910895F80100851185F7
:10390000E5CFCF93DF930E940823EC0185EF91E090
:103910000E949E228C0F9D1FDF91CF9108950C94E1
:103920009E221092AD031092AC031092BC03109231
:10393000DE031092250481E08093240410921F047A
:1039400061E082E00E94081361E083E00E940813B6
:10395000E9EBF0E080818E7F808380818D7F8083A2
:1039600088E48093B80085E48093BC0008950F93A9
:103970001F930E94A5136093F4047093F504809341
:10398000F6049093F704E091EC04F091ED040284C6
:10399000F385E02D8CEE94E0099597FF1FC00E94FF
:1039A000A5130091F4041091F5042091F6043091D0
:1039B000F704DC01CB01801B910BA20BB30B009130
:1039C000F0041091F1042091F2043091F304801777
:1039D0009107A207B307B8F28FEF9FEF1F910F91E6
:1039E000089590E0FC01E756F94F2491FC01E65858
:1039F000F94F8491882399F090E0880F991FFC017A
:103A0000E459F94FA591B491FC01E25AF94F85911F
:103A100094918FB7F894EC91E22BEC938FBF0895BB
:103A20001F920F920FB60F9211248F939F93809144
:103A3000E1009091E100937F9093E10083FF0FC03C
:103A40001092E90091E09093EB001092EC0092E369
:103A50009093ED001092AB0398E09093F00082FFFA
:103A600020C093E09093E9009091F200992319F01F
:103A70009AE39093E8009091AE03992339F09091E6
:103A8000AE0391509093AE03992389F19091AA03CC
:103A9000992339F09091AA0391509093AA03992306
:103AA00041F184FF10C08091E2008E7E816080939E
:103AB000E2008091E1008F7E8093E1008091A90374
:103AC0008E7E806111C080FF16C08091E2008E7EE4
:103AD00080618093E2008091E1008E7E8093E1001E
:103AE0008091A9038E7E81608093A90304C05D9AB2
:103AF000CDCF289AD6CF9F918F910F900FBE0F9068
:103B00001F9018951F920F920FB60F921124CF920B
:103B1000DF92EF92FF920F931F932F933F934F9358
:103B20005F936F937F938F939F93AF93BF93EF9325
:103B3000FF93CF93DF93CDB7DEB76C97DEBFCDBFDA
:103B40001092E9008091E80083FFEDC168E0CE01AA
:103B500045960E94B31082EF8093E8008D8987FF1D
:103B600005C09091E80090FFFCCF03C09EEF9093BA
:103B7000E800982F907609F0C6C09E892F89188D8D
:103B800091110CC0803829F48091A8038093F10032
:103B900002C01092F1001092F10048C1422F50E093
:103BA000512B913051F4811141C14130510509F03F
:103BB0003DC18091A8038D7F0BC0933061F48111CA
:103BC00035C14130510509F031C18091A8038260AF
:103BD0008093A8032BC1953041F48091E80080FFC9
:103BE000FCCF20682093E30021C1963009F05FC02C
:103BF000EB8CFC8C1092E9001092A6031092A503A6
:103C0000123091F51092A4031092A3030E944F1C4E
:103C100099E0BE016F5F7F4FDB01E92F1D92EA95AE
:103C2000E9F799831A8391E09E8390EA98879AEF47
:103C300099872091A5033091A603275F3F4F3C83CE
:103C40002B838D831092E9001092A6031092A50396
:103C5000F092A403E092A30349E050E080E00E94C8
:103C6000281C0E944F1CE2C0F092A403E092A30320
:103C70000E94D11ADC011296ED90FC901397E1148A
:103C8000F10409F4C0C0D701ED91FC910480F581E5
:103C9000E02DBE016B5E7F4FC7010995009719F0BB
:103CA0000CF0C4C0C7C0F701E084F184E8CF9730BE
:103CB00009F4C0C0983021F481E08093F100B6C0CF
:103CC000993009F0B3C0837009F0B4C0EDE4F1E0BD
:103CD00081E021E036E39081992361F08093E9004F
:103CE0002093EB0091919093EC003093ED008F5F67
:103CF000873089F78EE78093EA001092EA008F8977
:103D00008093AB0393C08B8D9C8D1092E900109231
:103D1000A6031092A5039093A4038093A303898D17
:103D2000811156C08E899D89913A59F4813209F0EA
:103D300081C047E050E06CE171E080E00E94281C07
:103D400075C0913209F076C0833289F4888D90E095
:103D5000982F88272F89822BA0E0B0E0809318014C
:103D600090931901A0931A01B0931B015FC0803298
:103D700069F48091E80082FFFCCF67E08CE191E07C
:103D80000E94B3108BEF8093E80006C0823209F0E6
:103D90004DC08F89809323018091A703882319F058
:103DA000EEEFFAE002C0E0E0F8E080911C019091B3
:103DB0001D01A0911E01B0911F01803B9440A105FF
:103DC000B10509F07BC08091230180FF93C076C0CC
:103DD0000E94D11ADC0112960D911C9113970115C6
:103DE000110541F1D801ED91FC910190F081E02D98
:103DF000BE016B5E7F4FC8010995811117C0F801A4
:103E000000851185ECCF113009F44EC0133091F4C8
:103E10008F89882309F445C0823081F440E86BE043
:103E200082E596E00E94EB1B882321F08EEF8093C1
:103E3000E80079C081E28093EB0075C0813029F4FD
:103E400040E86BE086E496E0EDCF833099F70E947E
:103E5000D11ADC011296ED90FC9013978E010F5F42
:103E60001F4F6801E114F10479F0D701ED91FC9145
:103E70000680F781E02DB801C7010995080F111DD3
:103E8000F701E084F184EECFD8011C92F601019095
:103E90000020E9F73197BF016C197D0940E0C601A8
:103EA000C1CF60E376E002C064E376E0611571059E
:103EB00009F2FB01449150E080E840CF0FB6F8943E
:103EC000A8958091600088618093600010926000E6
:103ED0000FBEA895EE3F2AE0F20739F08091FE0A66
:103EE0009091FF0A91838083A1CF1092FF0A1092D4
:103EF000FE0A9CCFEE3F8AE0F80731F08081918185
:103F00009093FF0A8093FE0A87E797E79183808367
:103F10009BE088E10FB6F894A895809360000FBEEF
:103F20009093600083CF6C960FB6F894DEBF0FBEFF
:103F3000CDBFDF91CF91FF91EF91BF91AF919F9155
:103F40008F917F916F915F914F913F912F911F9131
:103F50000F91FF90EF90DF90CF900F900FBE0F90DA
:103F60001F901895FC018091D9049091DA04892B57
:103F700021F421E0309749F413C08091D504909149
:103F8000D604309731F421E0FC018081882341F090
:103F900006C0BF010E944F2D21E0892B09F020E0CF
:103FA000822F08952F923F924F925F926F927F924D
:103FB0008F929F92AF92BF92CF92DF92EF92FF9239
:103FC0000F931F93CF93DF93CDB7DEB72B970FB629
:103FD000F894DEBF0FBECDBF9B878A875B011901B6
:103FE000FD82EC823A01600E711E872C7B82912C3F
:103FF00044244A94542C9B01240F351F3F832E8365
:104000009101200F311F39872887EA85FB8580853C
:10401000981608F036C1AA85BB8514965C924E921C
:10402000139715968D919C911697DC01ED91FC915B
:104030000190F081E02D6FEF09956FEF8A859B85E8
:104040000E943816EA85FB8585819681DC01ED9119
:10405000FC910190F081E02DAA85BB856C910995BA
:10406000EA85FB856081CF010E943816AA85BB8551
:1040700015968D919C911697DC01ED91FC91019024
:10408000F081E02D682D09956B818A859B850E94C2
:104090003816EA85FB8585819681DC01ED91FC91DE
:1040A0000190F081E02D662D0995662D8A859B850E
:1040B0000E94381675012E813F81E216F306B1F099
:1040C000EA85FB85858196818701DC01ED91FC9174
:1040D0000190F081E02DD7016D917D010995F801E6
:1040E00060818A859B850E943816E5CF7101AA857B
:1040F000BB8515968D919C91169728853985E2167A
:10410000F30691F08701DC01ED91FC910190F081C3
:10411000E02DD7016D917D010995F80160818A85B7
:104120009B850E943816E3CFDC01ED91FC91AA85B6
:10413000BB8514966C910190F081E02D0995EA857C
:10414000FB8585819681DC01ED91FC910190F081E8
:10415000E02DAA85BB8513966C91099564E670E005
:104160008A859B850E9401168F3F910509F07DC0CD
:10417000EA85FB85548243826FEFCF010E94381697
:1041800065E070E08A859B850E940116AA85BB8543
:104190006C91262F30E08217930709F066C0CD019D
:1041A0000E9438166AE070E08A859B850E9401169D
:1041B0007C0197FD5AC0682F8A859B850E9438161E
:1041C0006AE070E08A859B850E9401168C0197FD4C
:1041D0004CC0682F8A859B850E943816EA82198216
:1041E000E981FA810E0F1F1FE12CF12C65E070E0D0
:1041F0008A859B85E016F106A9F0EC14FD0491F088
:104200000E94011697FD0AC0EC81FD81EE0DFF1D95
:104210008083682F8A859B850E943816FFEFEF1AEE
:10422000FF0AE4CF0E9401167C0197FD1EC065E0E5
:1042300070E08A859B850E94011697FD16C0FE2CB2
:10424000EE248E0D9F1DAA85BB8513962D913C9162
:1042500014972817390749F48C918F5F8C93C80104
:10426000C016D10680F4C6010EC0939464E670E0D7
:1042700080E090E00E946B138A859B850E94E51583
:10428000C4CE8FEF9FEF2B960FB6F894DEBF0FBE14
:10429000CDBFDF91CF911F910F91FF90EF90DF90F5
:1042A000CF90BF90AF909F908F907F906F905F90D6
:1042B0004F903F902F900895EF92FF920F931F938E
:1042C000CF93DF93CDB7DEB727970FB6F894DEBF55
:1042D0000FBECDBFFB0100811181FC01E080F180A8
:1042E0006CEF72E0CE0101960E943112B701CE014F
:1042F00001960E940C1166E972E0CE0101960E94BF
:104300000C11B801CE0101960E940C114D815E8105
:1043100069817A8101E010E09E01295F3F4F81EEC3
:1043200094E00E944F16CE0101960E948F112796AD
:104330000FB6F894DEBF0FBECDBFDF91CF911F91B6
:104340000F91FF90EF900895CF92DF92EF92FF923E
:104350000F931F93CF93DF931F92CDB7DEB784E601
:10436000898382E0C82ED12C94E2E92E91E0F92EC7
:104370000DE010E02EEF32E041E050E0BE016F5F53
:104380007F4F81EE94E00E94D21F8230910520F48D
:10439000FC01EC5DFE4F10820F90DF91CF911F91D9
:1043A0000F91FF90EF90DF90CF90089590912504AA
:1043B0009111FCCF91E090932504909324042FEF6A
:1043C0002093230410922204260F2093210490931B
:1043D000200490912004880F892B809320048091E1
:1043E0001F04813061F410921F0480912004809397
:1043F000BB008091BC0083FDF8CF85EC01C085EE49
:104400008093BC00809125048130E1F380912204E7
:10441000861710F460912204AFEFB3E02FED33E084
:10442000F9018E2F821B861718F48D918193F9CF95
:10443000862F08952091DE039091DD03213208F04C
:104440004AC0809125048111FCCF32E030932504CD
:1044500031E0309324043FEF309323041092220480
:1044600020932104ADEBB3E04FEF53E0FA013E2F70
:10447000341B321718F43D913193F9CF1092200478
:1044800020912004990F922B9093200490911F0467
:10449000913061F410921F04909120049093BB001E
:1044A0009091BC0093FDF8CF95EC01C095EE9093F0
:1044B000BC00909125049230E1F3909123049F3F3A
:1044C00079F080912304803241F08091230480337D
:1044D00031F084E005C081E003C082E001C083E0E8
:1044E0001092BC031092DE031092BB0308951F9339
:1044F000CF93DF931F92CDB7DEB7162F91E0909345
:10450000BB038093DD031092BC031092DE0361E0D5
:1045100083EC94E079830E94D2147981672F83EC35
:1045200094E00E94D214612F83EC94E00E94D21494
:104530000F90DF91CF911F910C941A22BC0100972C
:1045400091F0FC0101900020E9F73197AF01481B81
:10455000590BE0916E05F0916F050280F381E02D1B
:104560008EE695E0099480E090E00895CF93DF9384
:10457000BC018EE695E00E948C12EC0185EF91E083
:104580000E949E228C0F9D1FDF91CF9108958F92E4
:104590009F92AF92BF920F931F93CF93DF93CDB7AC
:1045A000DEB7A1970FB6F894DEBF0FBECDBF19A23C
:1045B000423008F44AE08E010F5D1F4F842E912C8B
:1045C000A12CB12CA50194010E940E2BE62FB9015C
:1045D000CA0101501109EA3014F4E05D01C0E95C40
:1045E000D801EC93232B242B252B61F7C8010E94C3
:1045F0009E22A1960FB6F894DEBF0FBECDBFDF910D
:10460000CF911F910F91BF90AF909F908F90089581
:10461000E0916E05F0916F05DC0114964D915C916F
:1046200015976D917C910280F381E02D8EE695E0E7
:104630000994CF93DF93CDB7DEB72C970FB6F894DC
:10464000DEBF0FBECDBF789484B5826084BD84B5D3
:10465000816084BD85B5826085BD85B5816085BD7D
:1046600080916E00816080936E0010928100809135
:1046700081008260809381008091810081608093BD
:104680008100809180008160809380008091910002
:10469000826080939100809191008160809391006D
:1046A000809190008160809390008091C10084602F
:1046B0008093C1008091C10082608093C10080918D
:1046C000C10081608093C1008091C30081608093AC
:1046D000C3008091C00082608093C0008091C200BE
:1046E00081608093C20080917A00846080937A0018
:1046F00080917A00826080937A0080917A00816054
:1047000080937A0080917A00806880937A0010927A
:10471000AB031092A8031092A9038091D700816087
:104720008093D70080EA8093D80089B5806189BDE5
:1047300089B5826089BD09B400FEFDCF61E070E0FB
:1047400080E090E00E946B138091D8008F7C8061A4
:104750008093D8008091E000807F8093E00080917A
:10476000E1008E7E8093E1008DE08093E200559A17
:10477000209AEEEFFFE7859194918B3F9C4D19F4C1
:1047800081E08093A7038DE00E94F11C87E00E94E6
:10479000F11C86E00E94F11C0FE010E00E94FD0475
:1047A00001501109D9F70E94911CE091EA04F0919F
:1047B000EB04A089B18982E08C93A485B5851C9215
:1047C000A685B78587E08C93108EA489B58986E08D
:1047D0008C93A289B3898C9180618C93A289B389CF
:1047E0008C9188608C93A289B3898C9180688C931A
:1047F0000288F389E02D80818F7D80838091E80499
:10480000811107C081E08093E80481EE94E00E946A
:10481000831880917A0590917B05FC0127812111F5
:1048200004C021E027830E9483188EE695E00E9451
:10483000CC1580E290E00E944A2B90937F058093F4
:104840007E0500E012E010936D0500936C050E9458
:10485000911C10936805009367050E94911C60915C
:104860005103709152034AE0CE0101960E94C41197
:1048700067ED71E0CE0107960E943112BE016F5FB5
:104880007F4FCE0107960E945C21CE0107960E94C1
:104890008F11CE0101960E948F1164E972E0CE0162
:1048A00001960E94311263E372E0CE0107960E94E6
:1048B0003112BE016F5F7F4FCE0107960E945C21CF
:1048C000CE0107960E948F11CE0101960E948F1192
:1048D0004AE061E070E0CE0101960E94C41162E1FD
:1048E00072E0CE0107960E943112BE016F5F7F4FCA
:1048F000CE0107960E945C21CE0107960E948F117F
:10490000CE0101960E948F110E94500D0E94FE0F51
:10491000FBCF8FEC94E00E948F1185ED94E00E9414
:104920008F118BED94E00E948F118CEE94E00E9429
:104930000B1885ED95E00E948F1180E495E00E94B0
:104940008F1186E495E00E948F118CE495E00E941F
:104950008F1182E595E00E948F1188E595E00E9415
:104960008F118EE595E00E948F118BEA91E0909374
:104970006F0580936E058EE695E00C94CC15CF9371
:10498000DF93E5E8F5E01382128248EE53E060E041
:1049900070E0448355836683778387E591E0918354
:1049A00080838FEF9FEF95878487E6E2F4E01382A0
:1049B0001282448355836683778389E691E09183ED
:1049C00080838DEC90E0958784878CEC90E09787CE
:1049D000868788EC90E0918B808B89EC90E0938BBC
:1049E000828B8AEC90E0958B848B8EEC90E0978B99
:1049F000868B118E128E138E148EAEE6B5E0139652
:104A00001C921E92129714964D935D936D937C9316
:104A100017978BEA91E011969C938E93C1EED4E0A8
:104A20001D96DC93CE931C971E961C921E971F9684
:104A30001C921F9751961C921E92509781E052969D
:104A40008C931882FE83ED831F821886FA87E9878C
:104A5000E3ECF4E013821282448355836683778308
:104A60008BE791E091838083E9E6F5E088E4808339
:104A70001482138288E081831282E4E6F5E01482D6
:104A8000138299E490838183128264EA72E08EE556
:104A900095E00E94311263EB72E088E595E00E9498
:104AA000311264EC72E082E595E00E94311263ED10
:104AB00072E08CE495E00E94311261EE72E086E4CF
:104AC00095E00E9431126FEE72E080E495E00E9462
:104AD000311269EF71E085ED95E00E943112BE015F
:104AE0008CEE94E00E94110569EF71E08BED94E08B
:104AF0000E94311269EF71E085ED94E00E9431125D
:104B000069EF71E08FEC94E0DF91CF910C9431125A
:104B1000EF920F931F93CF93DF93E80147FD02C0FD
:104B200034E001C034E1E42F440FFF0BF7FF03C072
:104B3000F195E195F109E32E022F2E2FAE010E948F
:104B40004A26CE01DF91CF911F910F91EF900895EA
:104B5000FC0188279927E89421912032E9F3293034
:104B600010F02E30C8F32B3241F02D3239F4689416
:104B700004C00E942826820F911D219120532A30C3
:104B8000C0F31EF4909581959F4F08951F93FC01EB
:104B900099278827BC01E89411911032E9F3193064
:104BA00010F01E30C8F31B3251F01D3249F46894E6
:104BB00006C00E941326610F711D811D911D119168
:104BC00010531A30B0F33EF490958095709561952E
:104BD0007F4F8F4F9F4F1F910895FB01DC01059080
:104BE0000D920020E1F70895FC0105900020E9F7FF
:104BF000809590958E0F9F1F08954532510520F4A2
:104C0000423010F00C940826FB011082CB0108956D
:104C1000BB274A3031F4992322F4BDE29095819567
:104C20009F4F0C943126592F482F372F262F660F70
:104C3000771F881F991F660F771F881F991F620FA4
:104C4000731F841F951F660F771F881F991F089574
:104C50007AE0979F902D879F802D910D11240895C4
:104C6000BB27FB015527AA27880F991FAA1FA41746
:104C700010F0A41B83955051B9F7A05DAA3308F03A
:104C8000A95DA193009779F7B111B1931192CB016E
:104C90000C94B0284F925F926F927F929F92AF9246
:104CA000BF92CF92DF92EF92FF920F931F93CF9319
:104CB000DF93CDB7DEB729970FB6F894DEBF0FBEEE
:104CC000CDBF6A01122FB02E2BE3201720F0FF2456
:104CD000F394F00E02C0BCE3FB2E0F2D27E0AE01D3
:104CE0004F5F5F4F0E94D827AC018981982F997040
:104CF000913031F0E1FC06C0E0FE06C090E205C054
:104D00009DE203C09BE201C090E0EE2DE07183FFC5
:104D10003CC0911102C083E001C084E0811718F407
:104D2000212F281B01C020E0E1110BC0F601822FCA
:104D300030E2882319F031938150FBCFC20ED11C91
:104D400020E0992329F0D6019C93F60131966F015A
:104D5000C6010396E2FE0AC03EE4D6013C9341E45C
:104D600011964C93119712963C9306C03EE6F601BD
:104D7000308341E641833283FC01322F40E233230A
:104D800009F442C041933150FACF82FF44C09111DF
:104D900002C083E001C084E0811718F4212F281B92
:104DA00001C020E0E1110BC0F601822F30E2882320
:104DB00019F031938150FBCFC20ED11C20E0992312
:104DC00029F0D6019C93F60131966F01C601039636
:104DD000E2FE0BC039E4D6013C933EE411963C93CD
:104DE000119736E412963C9307C039E6F6013083FA
:104DF0003EE6318336E63283FC01322F40E2332334
:104E000019F041933150FBCFFC01E20FF11D1082EC
:104E10008EEF9FEFB7C0F1E0911101C0F0E06F2F6E
:104E200070E01416150624F49A012F5F3F4F02C05C
:104E300021E030E0260F371FBB2029F06B2D70E0FA
:104E40006F5F7F4F02C060E070E0260F371F612F59
:104E500070E0261737071CF4121B212F01C020E039
:104E60003E2D387159F4D601322F60E2332319F008
:104E70006D933150FBCFC20ED11C20E0FF2331F0E7
:104E8000D6019C93B6016F5F7F4F6B01E1110BC0A0
:104E9000F601922F30E3992319F031939150FBCF13
:104EA000C20ED11C20E09F2D940F3A81782F707193
:104EB000A72E84FF03C0313309F49150191624F44E
:104EC000993018F098E001C091E0E42F852F57FF4A
:104ED00002C0E0E080E06E2F782FE0E0F0E0AEE28C
:104EE0009A2E3A01691A71082A01461A570A0B2D9F
:104EF00010E01195019511096F3F8FEF780729F4A4
:104F0000D6019C92C60101966C014617570784F0A2
:104F1000661677066CF47F01E40CF51CA1E0B0E0A6
:104F2000AC0FBD1FEA0EFB1ED7011196BC9002C04C
:104F300090E3B92E615071093196C60101967C014A
:104F40006017710724F0D601BC926C01D5CF6417AD
:104F5000750741F4363320F4353321F4A11002C033
:104F600081E3B82EF601B082F701822F90E2882308
:104F700019F091938150FBCFF701E20FF11D1082E0
:104F800080E090E029960FB6F894DEBF0FBECDBF4B
:104F9000DF91CF911F910F91FF90EF90DF90CF9015
:104FA000BF90AF909F907F906F905F904F900895CB
:104FB000283008F027E03327DA01990F311D87FDEB
:104FC000916000966105710539F432602E5F3D9362
:104FD00030E32A95E1F708959F3F30F0803871055E
:104FE000610509F03C5F3C5F3D93913008F08068BB
:104FF000911DDF93CF931F930F93FF92EF92192F81
:10500000987F9695E92F96959695E90FFF27EC5A8C
:10501000FE4F99273327EE24FF24A701E7010590CF
:105020000894079428F4360FE71EF81E491F511DF7
:10503000660F771F881F991F0694A1F705900794A4
:1050400028F4E70EF81E491F561FC11D770F881F51
:10505000991F661F0694A1F70590079428F4F80E8F
:10506000491F561FC71FD11D880F991F661F771F25
:105070000694A1F70590079420F4490F561FC71F07
:10508000D81F990F661F771F881F0694A9F7849170
:105090001095177041F0D695C79557954795F79499
:1050A000E7941A95C1F7EAEFF0E06894159015912E
:1050B00035916591959105907FE27395E118F10A1C
:1050C000430B560BC90BD009C0F7E10CF11E431F6F
:1050D000561FC91FD01D7EF4703311F48A95E6CF98
:1050E000E894015030F0080F0AF40027021708F482
:1050F000202F2395022F7A3328F079E37D932A9588
:10510000E9F710C07D932A9589F6069497956795DF
:10511000379517951794E118F10A430B560BC90BF5
:10512000D00998F023957E9173957A3308F070E357
:105130007C932013B8F77E9170617D9330F0839556
:1051400071E37D9370E32A95E1F71124EF90FF90CE
:105150000F911F91CF91DF91992787FD9095089529
:10516000DC01FC01672F71917723E1F7329704C0CE
:105170007C916D9370836291AE17BF07C8F3089559
:105180000E94022908F481E00895E89409C097FB81
:105190003EF490958095709561957F4F8F4F9F4F0E
:1051A0009923A9F0F92F96E9BB279395F695879552
:1051B00077956795B795F111F8CFFAF4BB0F11F415
:1051C00060FF1BC06F5F7F4F8F4F9F4F16C08823BC
:1051D00011F096E911C0772321F09EE8872F762FF2
:1051E00005C0662371F096E8862F70E060E02AF033
:1051F0009A95660F771F881FDAF7880F969587951F
:1052000097F90895990F0008550FAA0BE0E8FEEFF3
:1052100016161706E807F907C0F012161306E4077A
:10522000F50798F0621B730B840B950B39F40A2673
:1052300061F0232B242B252B21F408950A2609F451
:10524000A140A6958FEF811D811D08950E943929E7
:105250000C94AA290E949C2938F00E94A32920F0CE
:10526000952311F00C9493290C94992911240C94F2
:10527000DE290E94BB2970F3959FC1F3950F50E082
:10528000551F629FF001729FBB27F00DB11D639FF8
:10529000AA27F00DB11DAA1F649F6627B00DA11D9E
:1052A000661F829F2227B00DA11D621F739FB00D44
:1052B000A11D621F839FA00D611D221F749F3327B4
:1052C000A00D611D231F849F600D211D822F762F4D
:1052D0006A2F11249F5750409AF0F1F088234AF02A
:1052E000EE0FFF1FBB1F661F771F881F9150504096
:1052F000A9F79E3F510580F00C9493290C94DE2968
:105300005F3FE4F3983ED4F3869577956795B7951C
:10531000F795E7959F5FC1F7FE2B880F911D969536
:10532000879597F9089597F99F6780E870E060E0A6
:1053300008959FEF80EC089500240A94161617062E
:1053400018060906089500240A9412161306140676
:1053500005060895092E0394000C11F4882352F0D9
:10536000BB0F40F4BF2B11F460FF04C06F5F7F4F91
:105370008F4F9F4F089557FD9058440F551F59F078
:105380005F3F71F04795880F97FB991F61F09F3F32
:1053900079F087950895121613061406551FF2CF5B
:1053A0004695F1DF08C0161617061806991FF1CFAB
:1053B00086957105610508940895E894BB276627D2
:1053C0007727CB0197F908952F923F924F925F92E2
:1053D0006F927F928F929F92AF92BF92CF92DF9205
:1053E000EF92FF920F931F93CF93DF93CDB7DEB76A
:1053F000CA1BDB0B0FB6F894DEBF0FBECDBF0994FE
:105400002A88398848885F846E847D848C849B8454
:10541000AA84B984C884DF80EE80FD800C811B8162
:10542000AA81B981CE0FD11D0FB6F894DEBF0FBE91
:10543000CDBFED0108955058BB27AA270E94332AFB
:105440000C94AA290E949C2938F00E94A32920F0DC
:1054500039F49F3F19F426F40C9499290EF4E09541
:10546000E7FB0C949329E92F0E94BB2958F3BA1744
:10547000620773078407950720F079F4A6F50C946A
:10548000DD290EF4E0950B2EBA2FA02D0B01B901EA
:1054900090010C01CA01A0011124FF27591B99F0AA
:1054A000593F50F4503E68F11A16F040A22F232FB6
:1054B000342F4427585FF3CF469537952795A79506
:1054C000F0405395C9F77EF41F16BA0B620B730BAD
:1054D000840BBAF09150A1F0FF0FBB1F661F771F1E
:1054E000881FC2F70EC0BA0F621F731F841F48F4D3
:1054F000879577956795B795F7959E3F08F0B0CF5C
:105500009395880F08F09927EE0F97958795089542
:105510000E949C2A0C94AA290E94A32958F00E9458
:105520009C2940F029F45F3F29F00C9493295111F4
:105530000C94DE290C9499290E94BB2968F39923C5
:10554000B1F3552391F3951B550BBB27AA2762177F
:105550007307840738F09F5F5F4F220F331F441F8C
:10556000AA1FA9F335D00E2E3AF0E0E832D09150C0
:105570005040E695001CCAF72BD0FE2F29D0660FAD
:10558000771F881FBB1F261737074807AB07B0E8F0
:1055900009F0BB0B802DBF01FF2793585F4F3AF0F6
:1055A0009E3F510578F00C9493290C94DE295F3FBF
:1055B000E4F3983ED4F3869577956795B795F7957C
:1055C0009F5FC9F7880F911D9695879597F9089564
:1055D000E1E0660F771F881FBB1F62177307840700
:1055E000BA0720F0621B730B840BBA0BEE1F88F70F
:1055F000E095089597FB072E16F4009407D077FDE9
:1056000009D00E94362B07FC05D03EF49095819579
:105610009F4F0895709561957F4F0895A1E21A2ECE
:10562000AA1BBB1BFD010DC0AA1FBB1FEE1FFF1F46
:10563000A217B307E407F50720F0A21BB30BE40B96
:10564000F50B661F771F881F991F1A9469F76095DD
:105650007095809590959B01AC01BD01CF01089597
:10566000EE0FFF1F0590F491E02D0994AA1BBB1BC0
:1056700051E107C0AA1FBB1FA617B70710F0A61B52
:10568000B70B881F991F5A95A9F780959095BC0173
:10569000CD010895CF93DF938230910510F482E01D
:1056A00090E0E091DD05F091DE0520E030E0C0E023
:1056B000D0E0309711F14081518148175907C0F06F
:1056C0004817590761F482819381209719F09B83D1
:1056D0008A832BC09093DE058093DD0526C02115BB
:1056E000310519F04217530718F49A01BE01DF0182
:1056F000EF010280F381E02DDCCF2115310509F1A6
:10570000281B390B2430310590F412968D919C9111
:1057100013976115710521F0FB019383828304C007
:105720009093DE058093DD05FD01329644C0FD01B6
:10573000E20FF31F81939193225031092D933C93F3
:105740003AC02091DB053091DC05232B41F42091F8
:105750002801309129013093DC052093DB0520914D
:105760002601309127012115310541F42DB73EB7AF
:1057700040912A0150912B01241B350BE091DB0550
:10578000F091DC05E217F307A0F42E1B3F0B28175E
:10579000390778F0AC014E5F5F4F2417350748F0AA
:1057A0004E0F5F1F5093DC054093DB05819391936F
:1057B00002C0E0E0F0E0CF01DF91CF9108950F93B8
:1057C0001F93CF93DF93009709F48CC0FC013297AD
:1057D000138212820091DD051091DE05011511057D
:1057E00081F420813181820F931F2091DB0530915C
:1057F000DC052817390779F5F093DC05E093DB0524
:1058000071C0D80140E050E0AE17BF0750F41296C7
:105810002D913C911397AD012115310509F1D90165
:10582000F3CF9D01DA013383228360817181860F7A
:10583000971F8217930769F4EC0128813981260F9D
:10584000371F2E5F3F4F318320838A819B81938353
:105850008283452B29F4F093DE05E093DD0542C0F9
:105860001396FC93EE931297ED01499159919E0185
:10587000240F351FE217F30771F480819181840FA3
:10588000951F029611969C938E9382819381139615
:105890009C938E931297E0E0F0E0D80112968D91E0
:1058A0009C911397009719F0F8018C01F6CF8D9118
:1058B0009C9198012E5F3F4F820F931F2091DB0533
:1058C0003091DC052817390769F4309729F41092D4
:1058D000DE051092DD0502C0138212821093DC05F2
:1058E0000093DB05DF91CF911F910F910895A0E008
:1058F000B0E0EDE7FCE20C94E829EC01009721F41C
:10590000CB010E944A2BB8C0FC01E60FF71F9C0197
:1059100022503109E217F30708F4ACC0D9010D9108
:105920001C91119706171707B0F00530110508F400
:105930009FC0C80104978617970708F499C00250C2
:105940001109061B170B019311936D937C93CF01E3
:105950000E94DF2B8DC05B01A01AB10A4C01800EA2
:10596000911EA091DD05B091DE0540E050E0E12CF4
:10597000F12C109709F44AC0A815B905D1F56D901E
:105980007C901197630182E0C80ED11CCA14DB041D
:1059900080F1A3014A195B096A0182E0C80ED11C9B
:1059A0001296BC9012971396AC91B5E0CB16D10429
:1059B00040F0B282A38351834083D9016D937C93DD
:1059C0000AC00E5F1F4FC301800F911FF901918321
:1059D0008083EB2DFA2FE114F10431F0D7011396F7
:1059E000FC93EE93129744C0F093DE05E093DD053F
:1059F0003FC08D919C9111974817590708F4AC014D
:105A00007D0112960D90BC91A02DB3CF8091DB0546
:105A10009091DC0588159905E1F446175707C8F4FD
:105A20008091260190912701009741F48DB79EB790
:105A300040912A0150912B01841B950BE817F9071F
:105A4000C8F4F093DC05E093DB05F9017183608312
:105A50000FC0CB010E944A2B7C01009759F0A8018E
:105A6000BE010E94462DCE010E94DF2BC70104C05B
:105A7000CE0102C080E090E0CDB7DEB7EEE00C943E
:105A8000042A81E090E0F8940C94792DFB01DC016C
:105A900002C001900D9241505040D8F70895FB018B
:105AA000DC018D91019080190110D9F3990B0895B3
:105AB000FB01DC0101900D920020E1F70895FB014C
:105AC00051915523A9F0BF01DC014D9145174111BA
:105AD000E1F759F4CD010190002049F04D914015B6
