:100000000C948E030C94B6030C94B6030C94B603B4
:100010000C94B6030C94B6030C94B6030C94B6037C
:100020000C94B6030C94B6030C949F170C941118FF
:100030000C94B6030C94B6030C94B6030C94B6035C
:100040000C94B6030C94B6030C94B6030C94B6034C
:100050000C94B6030C94B6030C94B6030C945D1484
:100060000C94B6030C9482130C945C130C94B6039A
:100070000C94B6030C94B6030C94B6030C94B6031C
:100080000C94B6030C94B6030C94B6030C94B6030C
:100090000C94DF1E0C94B6030C94B6030C94B603B8
:1000A0000C94B6030C94B6030C94B603CE05D1059C
:1000B000D405D405D405D405D405D405E105E4055B
:1000C000E705E705E705E705E705E705F505F505B4
:1000D000F805F805F805F805F805F805DF13E2134B
:1000E000D113D513D913031403140314E613EA131D
:1000F000EE13F413F8130314FE1300407A10F35AAE
:1001000000A0724E18090010A5D4E80000E8764857
:10011000170000E40B54020000CA9A3B000000E103
:10012000F505000080969800000040420F00000096
:10013000A08601000000102700000000E803000076
:1001400000006400000000000A0000000000010040
:10015000000000002C76D888DC674F0823DFC1DF61
:10016000AE59E1B1B796E5E3E453C63AE651997664
:1001700096E8E6C28426EB898C9B62ED407C6FFC9E
:10018000EFBC9C9F40F2BAA56FA5F490055A2AF7E0
:100190005C936B6CF9676DC11BFCE0E40D47FEF5E9
:1001A00020E6B500D0ED902E030094357705008051
:1001B000841E080000204E0A000000C80C333333B0
:1001C000330F986E12831141EF8D2114893BE65550
:1001D00016CFFEE6DB18D1844B381BF77C1D901D33
:1001E000A4BBE424203284725E228100C9F124EC95
:1001F000A1E53D275265666572656E6369612030D1
:100200002C302C3130302C3130302E2E2E2E2E2E04
:1002100000436F6E736F6C612E2E2E2E2E2E2E2E9F
:100220002E2E2E2E2E2E2E2E2E2E2E2E00206465BD
:10023000766963652873292E00466F756E64200009
:10024000446F6E652E00466F756E642069326320C0
:1002500044657669636520416464726573733A200E
:1002600000493243204164647265737320536361B3
:100270006E6E65722E200A5363616E6E696E672022
:100280002E2E2E2E2E2E2E2E2E2E2E003D3D3D3D80
:100290003D3D3D3D3D3D3D3D3D3D3D3D3D3D3D3D8E
:1002A0003D3D3D3D3D3D3D3D3D3D3D3D3D3D0A00EE
:1002B00056414C554520000A0023003D3D3D3D3D43
:1002C0003D3D3D3D3D3D3D3D3D3D3D3D3D3D3D3D5E
:1002D0003D3D3D3D3D3D3D3D3D3D3D3D3D0A000AF1
:1002E000003D3D3D3D3D3D3D3D3D3D3D3D3D3D3D7B
:1002F0003D3D3D3D3D3D3D3D3D3D3D3D3D3D3D3D2E
:100300003D3D3D0A003D3D3D3D3D3D3D3D3D3D3D8D
:100310003D3D3D3D3D3D3D3D3D3D3D3D3D3D3D3D0D
:100320003D3D3D3D3D3D3D0A000A000A2053656EBE
:100330007420456D61696C2066726F6D2050797410
:10034000686F6E2E2E2E0A007375646F207079749C
:10035000686F6E202F726F6F742F69665F6D6169B1
:100360006C2E7079003D3D3D3D3D3D3D3D3D3D3D6B
:10037000526573657420496E6963696F3D3D3D3D0B
:100380003D3D3D3D3D3D0A0072657365742D6D63D5
:1003900075007375646F20707974686F6E202F72AA
:1003A0006F6F742F736572766963652E7079003D87
:1003B0003D3D3D3D3D3D3D3D3D3D3D3D3D3D3D3D6D
:1003C0003D3D3D3D3D3D3D3D3D3D3D3D3D3D3D3D5D
:1003D0003D0A00307C317C327C337C347C357C3689
:1003E0007C377C00506F727473003D3D3D3D3D3D58
:1003F0003D3D3D3D3D3D3D3D3D3D3D3D3D3D3D3D2D
:100400003D3D3D3D3D3D3D3D3D3D3D3D0A003D3D8C
:100410003D3D3D3D3D3D3D3D3D3D3D3D3D3D3D3D0C
:100420003D3D3D3D3D3D3D3D3D3D3D3D3D3D3D3DFC
:100430000A003D3D3D3D3D3D3D3D3D3D3D3D3D3D5C
:100440003D3D3D3D3D3D3D3D3D3D3D3D3D3D3D3DDC
:100450003D3D3D3D0A004D616E74656E696D696597
:100460006E746F20416374697661646F003D3D3D39
:100470003D3D3D3D3D3D3D3D3D3D3D3D3D3D3D3DAC
:100480003D3D3D3D3D3D3D3D3D3D3D3D3D3D3D0ACF
:10049000003D3D3D3D3D3D3D3D3D3D3D3D3D3D3DC9
:1004A0003D3D3D3D3D3D3D3D3D3D3D3D3D3D3D3D7C
:1004B0003D3D3D0A007375646F20707974686F6EFE
:1004C000202F726F6F742F736572766963652E705B
:1004D00079000A20506F7374204461746120444293
:1004E0002E2E2E0A007375646F20707974686F6EFB
:1004F000202F726F6F742F706F7374446174612E4C
:100500007079002E000A006D696E75746F730A00B1
:10051000496E74726F64757A6361206C6F73206DBD
:10052000696E75746F732064652073657276696394
:10053000696F0A003D3D3D3D3D3D3D3D3D3D3D3DFD
:100540003D3D3D3D3D3D3D3D3D3D3D3D3D3D3D3DDB
:100550003D3D3D3D3D3D0A00202020202020202023
:1005600020507265737320456E74657220746F201D
:10057000457869740A002020202020202020205364
:100580006572766963652054696D650A003D3D3D7D
:100590003D3D3D3D3D3D3D3D3D3D3D3D3D3D3D3D8B
:1005A0003D3D3D3D3D3D3D3D3D3D3D3D3D3D3D0AAE
:1005B0000072657365742D6D6375007265626F6F8F
:1005C00074003D3D3D3D3D3D3D3D3D3D3D3D3D3D61
:1005D0003D3D3D3D3D3D3D3D3D3D3D3D3D3D3D3D4B
:1005E0003D3D3D3D0A00436F6E736F6C6120646555
:1005F00020536572766963696F003D3D3D3D3D3D29
:100600003D3D3D3D3D3D3D3D3D3D3D3D3D3D3D3D1A
:100610003D3D3D3D3D3D3D3D3D3D3D3D0A000000F4
:10062000000200090F0000030401000C000000009C
:1006300000000000000000000000000000080B00A7
:100640000202020100090400000102020000052468
:1006500000100105240101010424020605240600FE
:10066000010705810310004009040100020A00008F
:100670000007050202400000070583024000000455
:1006800003090412010002EF0201404123418000EE
:10069000010102030141726475696E6F204C4C4385
:1006A0000041726475696E6F2059756E000000001C
:1006B00000250028002B002E00310000000000243F
:1006C0000027002A002D0030000404040404030461
:1006D00005020202020403020202020606060606E0
:1006E00006040402020204040408020110408040CF
:1006F0001020408040800802040180402010020148
:100700001080102040402072756E2D6272696467FF
:10071000650A000A000A000042250C2511241FBEAC
:10072000CFEFDAE0DEBFCDBF25E0A2E1B3E001C04C
:100730001D92A53EB207E1F713E0A0E0B1E0E2E1CF
:10074000FCE502C005900D92A231B107D9F713E084
:10075000CDE8D3E004C02197FE010E94B32BCC3832
:10076000D107C9F70E949C230C94FC2D0C94000027
:10077000089580E090E00895CF92DF92EF92FF928B
:100780000F931F93CF93DF937C01262F972F8A011E
:100790008091C103882391F0C62FD72F6E01C40E1C
:1007A000D51ECC15DD0571F06991D701ED91FC9155
:1007B0000190F081E02DC7010995F3CF642F822FBE
:1007C0000E940D20C801DF91CF911F910F91FF90E2
:1007D000EF90DF90CF900895CF93DF931F92CDB726
:1007E000DEB769832091C1032223D1F02091E40375
:1007F000203240F021E030E0FC013383228380E0AE
:1008000090E015C08091C203E82FF0E0ED53FC4F5B
:10081000998190838F5F8093C2038093E40305C026
:1008200061E0CE0101960E940D2081E090E00F90E2
:10083000DF91CF9108956BE184E795E00E94BA1DA6
:100840008BEB91E00C9416176BE184E795E00E9426
:10085000BA1D8FEB91E00C9416176BE184E795E0DD
:100860000E94BA1D8BEB91E00E9416176BE184E7A2
:1008700095E00E94BA1D8FEB91E00E94161781E16E
:1008800092E00E94392384EF91E00C9439236F9217
:100890007F928F929F92AF92BF92CF92DF92EF9210
:1008A000FF920F931F93CF93DF93CDB7DEB7689777
:1008B0000FB6F894DEBF0FBECDBF82EF94E00E946A
:1008C000061C8111CBC062EC71E0CE0101960E9442
:1008D000DD1282EF94E00E94021D86E090E00E940B
:1008E000CD2B8C01BE016F5F7F4F0E94D4121093FD
:1008F000020500930105CE0101960E943B1267ECB0
:1009000071E0CE0101960E94DD12BE016F5F7F4F44
:1009100082EF94E00E942A1BCE0101960E943B12B6
:1009200082EF94E00E94D71A82EF94E00E94061CA6
:10093000882339F064E670E080E090E00E941714AC
:10094000F3CF82EF94E00E94DB1B88C0CE01439678
:100950000E948B2367ED71E0CE0101960E94DD12AB
:100960008F89988D892B09F492C00B891C89698124
:100970007A81C8010E94E22D009709F488C07C01A9
:10098000E01AF10ACE0101960E943B1267ED71E078
:10099000CE0101960E94DD128F89988D2D813E81B6
:1009A0008C01021B130B2115310509F074C00FEFE8
:1009B0001FEFCE0101960E943B12970140E050E0EC
:1009C000BE016D5E7F4FCE010D960E94F212A7010F
:1009D0004F5F5F4F9801BE016D5E7F4FCE0107965E
:1009E0000E94F2122F89388DA8014F5F5F4FBE0120
:1009F0006D5E7F4FCE0101960E94F212CE010D96E0
:100A00000E946C117093490360934803CE010796CE
:100A10000E946C11709347036093460380914403D6
:100A2000909145039093170180931601CE01019692
:100A30000E946C117093450360934403CE010196AC
:100A40000E943B12CE0107960E943B12CE010D96EA
:100A50000E943B12CE0143960E943B1282EF94E02B
:100A60000E942E1C80910405882309F440C064E094
:100A700072E0CE0143960E94DD120E943E1797FD60
:100A800065CF682FCE0143960E94A511F6CFEE24C4
:100A9000EA94FE2C77CF009709F489CF8217930749
:100AA00008F485CF0817190718F08C0101501109B7
:100AB0008B889C88A980BA80C40166246A947724B4
:100AC0007A946401C00ED11EC816D90670F0B50123
:100AD0000E94E22D009749F09C012819390902175C
:100AE000130708F039010196EFCF830162CF6896B2
:100AF0000FB6F894DEBF0FBECDBFDF91CF911F912F
:100B00000F91FF90EF90DF90CF90BF90AF909F90AC
:100B10008F907F906F900895CF92DF92EF92FF9227
:100B20000F931F93CF93DF9381E692E00E943923C6
:100B30000E941817C12CD12C7601C39410E001E05B
:100B40000093C103C092E3031092C2031092E40326
:100B50000E949D22811151C066E472E084E795E015
:100B60000E9438134AE0C701B6010E944A2389ED6A
:100B700091E00E94161740E1C701B6010E944A2386
:100B80008FED91E00E941617E601F601B097E8306C
:100B9000F10570F4EA5AFF4F0C94B32B8EE595E003
:100BA00005C088E595E002C086E495E00E9408173C
:100BB000FE01F897E830F10570F4E25AFF4F0C940B
:100BC000B32B82E595E005C08CE495E002C086E495
:100BD00095E00E940817FE01E854F109E830F1059C
:100BE00058F4EA59FF4F0C94B32B82E595E002C00C
:100BF00086E495E00E9408171F5F8FEFC81AD80A95
:100C0000E80AF80A88E7C816D104E104F10409F0FB
:100C100097CF80E492E00E94392389E392E00E941A
:100C20003923612F70E080E090E04AE00E944A237F
:100C30008DE292E0DF91CF911F910F91FF90EF90A5
:100C4000DF90CF900C94392361E08DE00E94B413C3
:100C500064E670E080E090E00E94171460E08DE0B0
:100C60000E94B41364E670E080E090E00C941714E6
:100C7000FC011382128288EE93E0A0E0B0E084834E
:100C80009583A683B78387E491E0918380837587FA
:100C90006487118A128A138A0895CF93DF93CDB7A0
:100CA000DEB7CA55D1090FB6F894DEBF0FBECDBF6F
:100CB00060915703709158034AE0CE018B5A9F4FC1
:100CC0000E94701262EE71E0CE0101960E94DD1268
:100CD000BE016B5A7F4FCE0101960E94DF21CE01EB
:100CE00001960E943B12CE018B5A9F4F0E943B12ED
:100CF00067EE74E0CE0101960E94380668E473E066
:100D0000CE018B5A9F4F0E949C12BE016B5A7F4F9F
:100D1000CE0101960E94241DCE018B5A9F4F0E9446
:100D20003B126BE273E084E795E00E943813CE013A
:100D300001960E94821DC65ADF4F0FB6F894DEBF9F
:100D40000FBECDBFDF91CF910895E0913403F091B4
:100D50003503EE0FFF1FE050FF4F80819181019717
:100D600011F40E944D06E0913403F0913503EE0F2B
:100D7000FF1FE050FF4F808191818F30910561F41A
:100D800081E090E0918380838EEE91E00E942123A8
:100D900080E092E00C942123019691838083089552
:100DA0004F925F926F927F928F929F92AF92BF927B
:100DB000CF92DF92EF92FF920F931F93CF93DF9327
:100DC000CDB7DEB768970FB6F894DEBF0FBECDBFC4
:100DD0000E94240669E273E0CE010D960E949C12E7
:100DE00061EE74E0CE0101960E94D412BE016F5FE5
:100DF0007F4FCE0107960E94D412BE01635F7F4FE2
:100E0000CE0107960E94D9110E948B23CE0107962E
:100E10000E943B12CE0101960E943B12CE010D961C
:100E20000E943B1265E073E084E795E00E9438136E
:100E3000C12CD12C93E0892E912C8091420390916A
:100E40004303039721F4109243031092420300E4FA
:100E500010E0A0904203B0904303A114B10419F430
:100E60008FE695E00DC081E0A816B10419F48FE675
:100E700095E00FC082E0A816B10429F48AE695E057
:100E80000E94CB1408C083E0A816B10491F48AE64E
:100E900095E00E94A714BC01990F880B990B0E9442
:100EA0004A29609330037093310380933203909307
:100EB000330360913003709131038091320390913C
:100EC00033039B01AC010E94A92960932C0370930A
:100ED0002D0380932E0390932F03209128033091AC
:100EE000290340912A0350912B030E949F2A60936B
:100EF00028037093290380932A0390932B030150B6
:100F0000110909F0A6CF20E030E040E85CE30E9440
:100F1000A9292B013C0120E030E040E05FE30E9482
:100F2000A9297B018C01B0E0A0E0F0E0E0E02B2FEC
:100F30003A2F4F2F5E2FB701C8010E944329882303
:100F4000C9F09701A801C301B2010E940B2B9B01BC
:100F5000AC01B701C8010E949F2A20E030E040E0C8
:100F60005FE30E94A929BE2DAF2DF02FE12F7B0159
:100F70008C01DDCF20E030E040E05EE3B701C80146
:100F80000E94A92920E030E040E950E40E94A9290C
:100F90006093240370932503809326039093270383
:100FA000109228031092290310922A0310922B0307
:100FB00020E030E048EC52E40E940B2B2B013C0176
:100FC00063E072E0CE0143960E94DD124AE0B50173
:100FD000CE010D960E94701265E072E0CE0101967E
:100FE0000E94DD12BE016F5F7F4FCE0107960E9407
:100FF000D412BE01635F7F4FCE0107960E94D911C4
:10100000BE016D5E7F4F0E94D9110E948B23CE01DD
:1010100007960E943B12CE0101960E943B12CE0120
:101020000D960E943B12CE0143960E943B126BE04C
:1010300072E0CE0107960E94DD1220E030E042E02F
:1010400053E4C301B2010E94A929AB01BC0122E013
:10105000CE0101960E944012BE01695F7F4FCE0112
:1010600001960E94D9110E948B23CE0101960E9405
:101070003B12CE0107960E943B1289E092E00E944B
:10108000161762E172E0CE0107960E94DD1222E09F
:10109000B301A201CE0101960E944012BE01695F18
:1010A0007F4FCE0101960E94D9110E940817CE01F0
:1010B00001960E943B12CE0107960E943B12E091DE
:1010C0004203F0914303EE0FFF1FEE0FFF1FEA5C98
:1010D000FC4F40825182628273822AE037ED43E204
:1010E0005CE3C301B2010E94432918163CF19092BF
:1010F000580380925703C601089690933503809356
:1011000034034AE0B601CE0107960E94701264E4EF
:1011100072E0CE0101960E94DD12BE01695F7F4F31
:10112000CE0101960E94DF21CE0101960E943B1262
:10113000CE0107960E943B120E94A50622E0B30151
:10114000A201CE0143960E94401260914203709129
:1011500043034AE0CE010D960E94701268E172E0EE
:10116000CE0101960E94DD12BE016F5F7F4FCE015E
:1011700007960E94D412BE01635F7F4FCE0107968F
:101180000E94D911BE016D5E7F4F0E94DF21CE010A
:1011900007960E943B12CE0101960E943B12CE019F
:1011A0000D960E943B12CE0143960E943B12809105
:1011B000420390914303019690934303809342032B
:1011C0008FEFC81AD80A83E0C816D10409F035CECB
:1011D00061EE72E084E795E00E9438136091570356
:1011E000709158034AE0CE0107960E94701262EE99
:1011F00071E0CE0101960E94DD12BE01695F7F4F52
:10120000CE0101960E94DF21CE0101960E943B1281
:10121000CE0107960E943B1268960FB6F894DEBF87
:101220000FBECDBFDF91CF911F910F91FF90EF9037
:10123000DF90CF90BF90AF909F908F907F906F90F6
:101240005F904F9008952F923F924F925F926F92CE
:101250007F928F929F92AF92BF92CF92DF92EF9246
:10126000FF920F931F93CF93DF93CDB7DEB76A97AB
:101270000FB6F894DEBF0FBECDBF0E9424061092B9
:101280004C0310924B036FED72E0CE010F960E945B
:101290009C1261EE74E08E010F5F1F4FC8010E9427
:1012A000D412B801CE0109960E94D412BE01615F2A
:1012B0007F4FCE0109960E94D9110E948B23CE0147
:1012C00009960E943B12C8010E943B12CE010F9664
:1012D0000E943B126BEB72E084E795E00E943813AA
:1012E000E0905103F09052033701660C771CC30164
:1012F0008E5E9C4F2C01C12CD12CAA24A394B12C1E
:1013000062E0262E312C8091530390915403E8160D
:10131000F9060CF032C1E0914B03F0914C03EE0F53
:10132000FF1FE25DFE4F808191810E94971790918F
:10133000670380916803981731F089EC94E00E946C
:101340005C1A80934A0369EB72E0CE0145960E94D5
:101350009C1261EE74E0CE0109960E94D412BE0187
:10136000675F7F4FCE010F960E94D412BE016B5E65
:101370007F4FCE010F960E94D9114C014AE0B8016F
:10138000C7010E948B26F80101900020E9F73197F0
:10139000AF01401B510BB801C4010E9477118111AC
:1013A00003C0C4010E94C711C4010E948B23CE0157
:1013B0000F960E943B12CE0109960E943B12CE016D
:1013C00045960E943B1283E092E00E94161790918E
:1013D0004A0380914F03892380932303F201EC0D8C
:1013E000FD1D81113EC01092220311821082F60170
:1013F000E60DF71DE050FF4FB182A0824AE060E0A9
:1014000070E0CE0145960E9470124AE0B701CE010D
:101410000F960E9470126BE172E0C8010E94DD120B
:10142000B801CE0109960E94D412BE01615F7F4FC0
:10143000CE0109960E94D911BE016B5E7F4F0E94BA
:10144000DF21CE0109960E943B12C8010E943B1287
:10145000CE010F960E943B12CE0145960E943B1290
:1014600046C091E090932203B182A0824AE061E0FD
:1014700070E0CE0145960E9470124AE0B701CE019D
:101480000F960E9470126BE172E0C8010E94DD129B
:10149000B801CE0109960E94D412BE01615F7F4F50
:1014A000CE0109960E94D911BE016B5E7F4F0E944A
:1014B000DF21CE0109960E943B12C8010E943B1217
:1014C000CE010F960E943B12CE0145960E943B1220
:1014D00086E0E816F1040CF071C0B0925803A092B7
:1014E0005703F0923503E09234030E94A50667EBA0
:1014F00072E0CE0145960E949C126091220370E03A
:101500004AE0CE010F960E94701260EB72E0C801B3
:101510000E949C12B801CE0109960E94D412BE010D
:10152000615F7F4FCE0109960E94D911BE016B5EAB
:101530007F4F0E94D9110E948B23CE0109960E94F1
:101540003B12C8010E943B12CE010F960E943B1233
:10155000CE0145960E943B1280914F03909150031B
:10156000880F991F9093500380934F039FEFE91AC0
:10157000F90A82E0C80ED11CC6CE0E949D226CE8FA
:1015800072E084E795E00E9438136A960FB6F894EB
:10159000DEBF0FBECDBFDF91CF911F910F91FF90A6
:1015A000EF90DF90CF90BF90AF909F908F907F9003
:1015B0006F905F904F903F902F9008953092580316
:1015C000209257038ECF2F923F924F925F926F924D
:1015D0007F928F929F92AF92BF92CF92DF92EF92C3
:1015E000FF920F931F93CF93DF93CDB7DEB7C45015
:1015F000D1400FB6F894DEBF0FBECDBF60E086E0ED
:101600000E94B41361E087E00E94B4130E941B049F
:101610000E94240481E090E0909356038093550348
:101620004AE061E070E0CE0101960E9470126DE127
:1016300072E0CE018B5A9F4F0E94DD12BE016F5F98
:101640007F4FCE018B5A9F4F0E94DF21CE018B5AD4
:101650009F4F0E943B12CE0101960E943B120E94B6
:10166000470467EE74E0CE0187559F4F0E9438060D
:1016700065EB74E0CE0101960E949C12BE016F5F83
:101680007F4FCE0187559F4F0E94241DCE010196AA
:101690000E943B120E94272286E291E00E942B26A4
:1016A00090934E0380934D03EE24E394F12C8091AC
:1016B0004D0390914E03892B09F0C6C00E941B0474
:1016C0000E9424040E94470461E974E084E795E0E5
:1016D0000E9438136DE674E084E795E00E943813A9
:1016E00086E594E00E94392362E374E084E795E0A4
:1016F0000E9438136EE074E084E795E00E9438138E
:1017000060E08DE00E94B4130E948C0510924C039F
:1017100010924B0380E290E00E94971789EC94E0CE
:101720000E945C1A80934A036AEE73E084E795E0B6
:101730000E94381384EE93E00E94392383ED93E0F6
:101740000E9439236FEA73E084E795E00E94381322
:1017500008E010E080914A0390E020911801309158
:1017600019012817390719F48AE292E002C08CE2C5
:1017700092E00E9416178EE292E00E941617809166
:10178000180190911901880F991F90931901809366
:10179000180101501109F1F6F0921901E0921801B7
:1017A00060ED77E080E090E00E94171467EE74E04F
:1017B000CE018B5A9F4F0E94380662E973E0CE013A
:1017C00001960E949C12BE016F5F7F4FCE018B5A23
:1017D0009F4F0E94241DCE0101960E943B120E9441
:1017E000272286E291E00E942B2690934E0380935D
:1017F0004D03019719F567EE74E0CE0101960E9442
:10180000380668E873E0CE0183509F4F0E949C1217
:10181000BE0163507F4FCE0101960E94241DCE0170
:1018200083509F4F0E943B1265E673E084E795E08A
:101830000E943813CE0101960E94821DCE018B5A60
:101840009F4F0E94821D33CFCE0187559F4F0E942C
:10185000821D64E675E081EE94E00E94241236E079
:10186000E32EF12CF0925403E092530310925203B2
:101870001092510301E010E01093500300934F03C6
:101880000E94230968E575E081EE94E00E9424122D
:1018900088E090E09093540380935303F0925203B6
:1018A000E092510380E490E09093500380934F03C3
:1018B0000E94230962E575E081EE94E00E94241203
:1018C0000E94D00667EE74E0CE0101960E943806B1
:1018D00065EE74E0CE018B5A9F4F0E949C12BE01B0
:1018E0006B5A7F4FCE0101960E94241DCE018B5A68
:1018F0009F4F0E943B1262ED74E084E795E00E94E6
:101900003813CE0101960E94821D60915703709199
:1019100058034AE0CE0101960E94701262EE71E017
:10192000CE018B5A9F4F0E94DD12BE016F5F7F4F29
:10193000CE018B5A9F4F0E94DF21CE018B5A9F4FC1
:101940000E943B12CE0101960E943B121092580356
:101950001092570361E086E00E94B41360E087E0D4
:101960000E94B41310925603109255034AE060E0AF
:1019700070E0CE0101960E9470126DE172E0CE011E
:101980008B5A9F4F0E94DD12BE016F5F7F4FCE01C9
:101990008B5A9F4F0E94DF21CE018B5A9F4F0E948E
:1019A0003B12CE0101960E943B1264EF71E080E091
:1019B00090E00E94171484E795E00E94D31C8A30BF
:1019C00009F0E0C20E941B040E9424040E94470404
:1019D00010935603009355034AE061E070E0CE0196
:1019E00001960E9470126DE172E0CE018B5A9F4FFA
:1019F0000E94DD12BE016F5F7F4FCE018B5A9F4F59
:101A00000E94DF21CE018B5A9F4F0E943B12CE01D4
:101A100001960E943B126AEF75E084E795E00E9410
:101A2000381386EE95E00E94392362EC75E084E776
:101A300095E00E94381368EE73E080E090E00E9429
:101A4000171484E795E00E94D31CCD5FDE4F888396
:101A5000C350D14006E010E080E4A82EB12C8824C9
:101A60008394912C2CE3222E312C84E795E00E9464
:101A7000931C80918205882309F47CC284E795E059
:101A80000E94D31C8A3009F070C280E392E00E9469
:101A90003520882341F00E942D0464E072E08BED34
:101AA00094E00E940D1284E392E00E943520882386
:101AB00041F064E072E08BED94E00E940D120E9410
:101AC000E30A89E392E00E9435208823F9F00E941E
:101AD0002D0467EE74E0CE0101960E9438066BEB90
:101AE00075E0CE018B5A9F4F0E949C12BE016B5A2B
:101AF0007F4FCE0101960E94241DCE018B5A9F4F2D
:101B00000E943B12CE0101960E94821D80E492E069
:101B10000E9435208823E9F067EE74E0CE0101963B
:101B20000E94380661EB75E0CE018B5A9F4F0E94F0
:101B30009C12BE016B5A7F4FCE0101960E94241D5C
:101B4000CE018B5A9F4F0E943B12CE0101960E94FC
:101B5000821D86E492E00E943520882341F00E9495
:101B60008C0564E072E08BED94E00E940D128CE431
:101B700092E00E943520882341F064E072E08BED12
:101B800094E00E940D120E94E30A83E692E00E9414
:101B90003520882341F00E94470464E072E08BED19
:101BA00094E00E940D1281E592E00E943520882386
:101BB00071F085E090E090935803809357030E9462
:101BC0004D0664E072E08BED94E00E940D1287E513
:101BD00092E00E943520882309F4D3C00E94470474
:101BE0006DE875E084E795E00E94381366E775E0DC
:101BF00084E795E00E94381368E575E084E795E096
:101C00000E94381364E375E084E795E00E9438137E
:101C100060E175E084E795E00E94381384E795E081
:101C20000E94D31C84E092E0CC5FDE4F8883C450D6
:101C3000D140BC018BED94E00E940D1284E795E049
:101C40000E94931C80918205882309F48CC084E74C
:101C500095E00E94D31CF82E082E000C990BC0971B
:101C60000A9728F46F2D85ED94E00E94A5119AE063
:101C7000F91274C085ED94E00E946C116B017C0137
:101C800067E075E084E795E00E94381326010D2C8B
:101C9000000C6608770877FE14C0E0917405F09197
:101CA00075050190F081E02D6DE284E795E00995DE
:101CB00066277727CB0164197509860997094AE0D9
:101CC00003C04AE0C301B2010E944A2380E092E0CF
:101CD0000E94212364E072E085ED94E00E940D12E1
:101CE0008CE38C9D30018D9D700C1124E12CF12C26
:101CF000E614F70454F568EE73E080E090E00E948B
:101D00001714C701B1010E947D2B892B31F465E0C6
:101D100075E084E795E00E94381363E075E084E79E
:101D200095E00E94381384E795E00E94D31C8A3026
:101D300041F464E072E08BED94E00E940D120E9489
:101D4000E30A9FEFE91AF90AD3CF64E072E08BED62
:101D500094E00E940D120E94E30A05C06F2D8BEDE6
:101D600094E00E94A511CC5FDE4F8881C450D14021
:101D70008A3009F063CF64E072E08BED94E00E945A
:101D80000D128FE592E00E943520882309F44AC0A5
:101D900064E072E08BED94E00E940D120E941B043F
:101DA0000E9424040E941B040E94240464E675E03F
:101DB00081EE94E00E942412109354030093530385
:101DC00010925203109251039092500380924F034D
:101DD0000E94230968E575E081EE94E00E942412D8
:101DE00088E090E090935403809353031093520340
:101DF00000935103B0925003A0924F030E94230915
:101E000062E575E081EE94E00E9424120E94D00603
:101E100084E795E00E94D31C8A3021F60E941B04BF
:101E20000E942D0488E692E00E9435208823D1F09C
:101E300064E675E081EE94E00E942412109354034E
:101E40000093530310925203109251039092500347
:101E500080924F030E94230964E072E08BED94E0CE
:101E60000E940D128FE692E00E9435208823E1F057
:101E700068E575E081EE94E00E94241288E090E02D
:101E80009093540380935303109352030093510390
:101E9000B0925003A0924F030E94230964E072E0C5
:101EA0008BED94E00E940D1286E792E00E943520AF
:101EB000882371F062E575E081EE94E00E942412BF
:101EC0000E94D00664E072E08BED94E00E940D1257
:101ED0008CE792E00E943520882351F061E087E092
:101EE0000E94B41364E072E08BED94E00E940D1246
:101EF00082E892E00E943520882351F060E087E07C
:101F00000E94B41364E072E08BED94E00E940D1225
:101F100089E892E00E943520882351F061E086E054
:101F20000E94B41364E072E08BED94E00E940D1205
:101F300082E992E00E943520882351F060E086E03B
:101F40000E94B41364E072E08BED94E00E940D12E5
:101F500080E090E00E94352081110CC064E072E0C6
:101F60008BED94E00E940D1205C0682F8BED94E07C
:101F70000E94A511CD5FDE4F9881C350D1409A30A9
:101F800009F073CDCC5FDE4F0FB6F894DEBF0FBE05
:101F9000CDBFDF91CF911F910F91FF90EF90DF9018
:101FA000CF90BF90AF909F908F907F906F905F90F9
:101FB0004F903F902F900895CF92DF92EF92FF9233
:101FC0000F931F93CF93DF936C017A018B01C0E0D5
:101FD000D0E0CE15DF0589F0D8016D918D01D601D5
:101FE000ED91FC910190F081E02DC6010995892BBE
:101FF00011F47E0102C02196ECCFC701DF91CF9191
:102000001F910F91FF90EF90DF90CF900895FC010A
:10201000538D448D252F30E0842F90E0821B930B4D
:10202000541710F0CF96089501970895FC01918DF3
:10203000828D981761F0828DDF01A80FB11D5D962A
:102040008C91928D9F5F9F73928F90E008958FEF98
:102050009FEF0895FC01918D828D981731F0828D4C
:10206000E80FF11D858D90E008958FEF9FEF0895A3
:10207000FC01918D228D892F90E0805C9F4F821B07
:1020800091098F73992708958CE294E00E9438108B
:1020900021E0892B09F420E0822F0895FC01848D32
:1020A000DF01A80FB11DA35ABF4F2C91848D90E082
:1020B00001968F739927848FA689B7892C93A0895D
:1020C000B1898C9180648C93938D848D981306C014
:1020D0000288F389E02D80818F7D80830895EF92BF
:1020E000FF920F931F93CF93DF93EC0181E0888FD2
:1020F0009B8D8C8D981305C0E889F989808185FDB9
:1021000024C0F62E0B8D10E00F5F1F4F0F731127A9
:10211000E02E8C8DE8120CC00FB607FCFACFE889D0
:10212000F989808185FFF5CFCE010E944E10F1CF55
:102130008B8DFE01E80FF11DE35AFF4FF0820B8FEC
:10214000EA89FB898081806207C0EE89FF8960830C
:10215000E889F98980818064808381E090E0DF9163
:10216000CF911F910F91FF90EF900895CF93DF9340
:10217000EC01888D8823C9F0EA89FB89808185FD7F
:1021800005C0A889B9898C9186FD0FC00FB607FCE0
:10219000F5CF808185FFF2CFA889B9898C9185FF21
:1021A000EDCFCE010E944E10E7CFDF91CF91089581
:1021B00080E090E0892B29F00E94441081110C945A
:1021C000000008953FB7F89480915E0390915F03FB
:1021D000A0916003B091610326B5A89B05C02F3F75
:1021E00019F00196A11DB11D3FBFBA2FA92F982F3D
:1021F0008827820F911DA11DB11DBC01CD0142E0B8
:10220000660F771F881F991F4A95D1F708950E947E
:10221000C42D0F931F93CF93DF93EC018881998195
:10222000009729F02A813B812617370788F48B0114
:102230006F5F7F4F0E94FA2C009761F0998388832B
:102240001B830A832C813D81232B11F4FC01108216
:1022500081E001C080E0DF91CF911F910F9108953F
:102260001F93CF93DF93182F81E08093C1031093C6
:10227000E3031092C2031092E40360E089EC94E05F
:102280000E94EC030E949D2262E0812F0E9459224D
:10229000109268038093670389EC94E00E945C1AB3
:1022A000182F89EC94E00E945C1AD12F20E0C22FF5
:1022B0009E01282BC901DF91CF911F910895615094
:1022C00030F02091F100FC0120830196F8CF28988E
:1022D00084E6809365030895FC01808191810097D5
:1022E00011F00C94492660E070E0CB010895EF9264
:1022F000FF920F931F93CF93DF93FC0124813581CD
:102300006115710511F480E019C041155105A9F05E
:102310007B01EC018A01020F131FB8010E94091111
:10232000882389F3288139818C819D81B701820FAF
:10233000931F0E94DB2D1D830C8381E0DF91CF91E1
:102340001F910F91FF90EF900895CF93DF9300D0EE
:10235000CDB7DEB769831A8241E050E0BE016F5FFE
:102360007F4F0E9477110F900F90DF91CF910895CA
:102370006115710551F0FB0101900020E9F73197DB
:10238000AF01461B570B0C94771180E00895CF9353
:10239000DF93EC0188819981009711F00E94622CF3
:1023A000198218821D821C821B821A82DF91CF91B2
:1023B0000895CF93DF93EC01FB0144815581608147
:1023C00071810E947711811103C0CE010E94C71153
:1023D000CE01DF91CF910895EF92FF920F931F935B
:1023E000CF93DF93EC017B018A01BA010E940911AE
:1023F000811104C0CE010E94C71107C01D830C8348
:10240000B701888199810E94DB2DCE01DF91CF91A8
:102410001F910F91FF90EF900895CF93DF93EC0100
:102420006115710559F0FB0101900020E9F7319722
:10243000AF01461B570B0E94EC1102C00E94C7114E
:10244000CE01DF91CF910895CF93DF93EC01FB0193
:102450008617970761F0608171816115710529F018
:10246000448155810E94EC1102C00E94C711CE0127
:10247000DF91CF910895FC01808191810C94622CB1
:10248000EF92FF920F931F93CF93DF93CDB7DEB7F9
:10249000A1970FB6F894DEBF0FBECDBF7C01CB0174
:1024A000BA01F701118210821382128215821482FE
:1024B00042E0420F8E010F5F1F4F0E940B26BC01AE
:1024C000C7010E940D12A1960FB6F894DEBF0FBE91
:1024D000CDBFDF91CF911F910F91FF90EF900895A5
:1024E0000F931F93CF93DF93CDB7DEB762970FB6ED
:1024F000F894DEBF0FBECDBF8C01CB01F801118275
:102500001082138212821582148250E0BE016F5F26
:102510007F4F0E948026BE016F5F7F4FC8010E94DF
:102520000D1262960FB6F894DEBF0FBECDBFDF91DD
:10253000CF911F910F910895EF92FF920F931F93E8
:10254000CF93DF93EC01198218821B821A821D82BD
:102550001C826115710509F18B01CB010E94772660
:102560007C01BC01CE010E940911811109C0CE017C
:10257000DF91CF911F910F91FF90EF900C94C711B5
:10258000FD82EC82B80188819981DF91CF911F9102
:102590000F91FF90EF900C947026DF91CF911F91D7
:1025A0000F91FF90EF900895FC0111821082138229
:1025B0001282158214820C942412FC011182108262
:1025C00013821282158214826115710551F0FB018C
:1025D00001900020E9F73197AF01461B570B0C948F
:1025E000EC110895BF92CF92DF92EF92FF920F937A
:1025F0001F93CF93DF937C016B018A01E9012417BC
:10260000350720F4812F8901C42FD82F64E072E0B0
:10261000C7010E94DD12D60114968D919C911597E9
:1026200008171907D0F48C179D0708F4EC01D601A0
:10263000ED91FC911197EC0FFD1FB08010824D9130
:102640005C91BA01600F711FC7010E940D12D60183
:10265000ED91FC91EC0FFD1FB082C701DF91CF918E
:102660001F910F91FF90EF90DF90CF90BF90089552
:10267000EF92FF920F931F93CF93DF938C017B0117
:10268000C0E0D0E0F701EC0FFD1F6491662361F01C
:10269000D801ED91FC910190F081E02DC8010995E0
:1026A000892B11F02196EECFCE01DF91CF911F91B2
:1026B0000F91FF90EF9008951F920F920FB60F9217
:1026C00011242F933F934F935F936F937F938F9337
:1026D0009F93AF93BF93EF93FF938CE294E00E949C
:1026E0004E10FF91EF91BF91AF919F918F917F918C
:1026F0006F915F914F913F912F910F900FBE0F906F
:102700001F9018951F920F920FB60F9211242F93BE
:102710008F939F93EF93FF93E0913C04F0913D04DE
:102720008081E0914204F091430482FD12C09081C7
:10273000809145048F5F8F7320914604821751F07A
:10274000E0914504F0E0E45DFB4F958F80934504F4
:1027500001C08081FF91EF919F918F912F910F90F8
:102760000FBE0F901F901895362F90E0FC01E25E8F
:10277000F94F4491FC01E851F94F2491FC01E753D2
:10278000F94F8491882309F451C04423E1F150E0CA
:10279000FA013197EF30F105B0F5E259FF4F0C9493
:1027A000B32B909180009F7707C0909180009F7D10
:1027B00003C090918000977F9093800024C094B5CF
:1027C0009F7702C094B59F7D94BD1DC090919000ED
:1027D0009F7707C0909190009F7D03C090919000DB
:1027E000977F909390000FC09091C0009F7703C097
:1027F0009091C0009F7D9093C00005C09091C20051
:10280000977F9093C200E82FF0E0EE0FFF1FE35593
:10281000F94FA591B4918FB7F894EC91311103C0A1
:1028200020952E2301C02E2B2C938FBF08958F92BD
:102830009F92AF92BF92CF92DF92EF92FF926B0185
:102840007C010E94E2104B015C01C114D104E1043F
:10285000F104F1F00E94E210DC01CB018819990922
:10286000AA09BB09883E9340A105B10570F321E098
:10287000C21AD108E108F10888EE880E83E0981E9C
:10288000A11CB11CC114D104E104F10419F7DDCF7E
:10289000FF90EF90DF90CF90BF90AF909F908F9080
:1028A00008952FB7F89460915A0370915B0380915B
:1028B0005C0390915D032FBF08951F920F920FB696
:1028C0000F9211242F933F938F939F93AF93BF93B6
:1028D00080915A0390915B03A0915C03B0915D03DA
:1028E0003091590323E0230F2D3720F40196A11DC9
:1028F000B11D05C026E8230F0296A11DB11D20932E
:10290000590380935A0390935B03A0935C03B093A5
:102910005D0380915E0390915F03A0916003B0918D
:1029200061030196A11DB11D80935E0390935F0327
:10293000A0936003B0936103BF91AF919F918F917A
:102940003F912F910F900FBE0F901F901895CF932E
:10295000DF93EC016B817C816368716B88810E94DD
:10296000FA22698170E080E090E00E94171488816B
:102970000E9430112A81022E02C0969587950A94F2
:10298000E2F7222329F0811528E0920708F0906FE2
:10299000DF91CF910895CF93DF93EC016B817C8120
:1029A0006368716888810E94FA22698170E080E022
:1029B00090E00E94171488810E9430112A81022E13
:1029C00002C0969587950A94E2F7222329F0811593
:1029D00028E0920708F0906FDF91CF910895FC01F5
:1029E00080916603811103C08FEF9FEF08959FB719
:1029F000F89482E08093E9002091F20030E0121612
:102A0000130614F421E030E02115310559F028981F
:102A100084E6809365038091F10080838091F200C9
:102A2000882319F09FBFC90108958BE68093E800C1
:102A3000F9CF2FB7F89483E08093E9009091E800F4
:102A4000892F807295FF04C09091F20080E4891B69
:102A50002FBF08958091720381110DC082E0809391
:102A60006E0384E080936F031092710310927003E1
:102A700081E0809372038EE693E00895CF93DF9315
:102A80001F92CDB7DEB76983DC01ED91FC91028026
:102A9000F381E02D41E050E0BE016F5F7F4F09956B
:102AA0000F90DF91CF91089583E08093E9008091AA
:102AB000F200882319F08AE38093E80008950E94C9
:102AC000191590E00895CF93DF931F92CDB7DEB72D
:102AD000FC018485958597FD05C02FEF3FEF358775
:102AE00024870BC0CE0101960E94EF14019719F4C0
:102AF000898190E002C08FEF9FEF0F90DF91CF911F
:102B000008950F931F93CF93DF931F92CDB7DEB736
:102B10008C01FC018485958597FF0EC0CE0101963E
:102B20000E94EF14019719F4298130E002C02FEFC1
:102B30003FEFF80135872487F801848595850F904C
:102B4000DF91CF911F910F910895FC0184859585A8
:102B500097FD0BC09FB7F89482E08093E9008091C5
:102B6000F2009FBF90E0019608959FB7F89482E02D
:102B70008093E9008091F2009FBF90E0089540911A
:102B80006B0350916C032091690330916A034217E3
:102B90005307B4F49091E8009570E1F39091E80048
:102BA00092FD19C08093F10080916B0390916C03AA
:102BB00001968F739927892B19F48EEF8093E80083
:102BC00080916B0390916C03019690936C038093BA
:102BD0006B0381E0089580E00895CF92DF92EF9239
:102BE000FF920F931F93CF93DF931F92CDB7DEB762
:102BF000182F062FE42E862F880F8E5F99830E9450
:102C0000BF1583E00E94BF15F12EC12E9981D92EE8
:102C10008C2D8F19801798F4F601E7FE02C084917D
:102C200001C080810E94BF15182F80E00E94BF154F
:102C30008123FFEFCF1ADF0A8111EACF01C081E0C3
:102C40000F90DF91CF911F910F91FF90EF90DF9048
:102C5000CF900895DF92EF92FF920F931F93CF933F
:102C6000DF93D82E8A017B01E40EF51EEB01CE1511
:102C7000DF0571F0D7FE03C0FE01849101C0888199
:102C80000E94BF1521968111F2CF8FEF9FEF01C0F7
:102C9000C801DF91CF911F910F91FF90EF90DF90CE
:102CA00008950F931F93CF93DF931F92CDB7DEB795
:102CB00082E0898342E450E06DE376E080E80E94A0
:102CC0002A160E942A15DC0112960D911C91139769
:102CD0000115110569F0D801ED91FC910280F38195
:102CE000E02DBE016F5F7F4FC801099597FF07C0B8
:102CF00089810F90DF91CF911F910F910895F80175
:102D000000851185E5CF8F929F92AF92BF92CF92AF
:102D1000DF92EF92FF920F931F93CF93DF935C01AB
:102D20006B017A0180912501882309F45BC08091B1
:102D30006603882309F456C08091640380FF05C0B0
:102D40008091E00082608093E000E70110E00AEFEC
:102D500083E0882E9AE3992E2097D9F10E941915C5
:102D600081110AC0015009F43DC061E070E080E0CB
:102D700090E00E941714F0CF282F30E0C217D3073D
:102D80000CF48C2F4FB7F8948092E9009091E800F2
:102D900095FF1DC0282F30E0C21BD30BF601982FE2
:102DA000915020F081918093F100FACFC20ED31E92
:102DB000112319F09092E80009C08091E80085FD88
:102DC00006C09092E80011E0209709F010E04FBF94
:102DD000C3CF1111C3CF5D9884E680936D031E1499
:102DE0001F0444F081E090E0F5019383828380E04A
:102DF00090E001C0C701DF91CF911F910F91FF902B
:102E0000EF90DF90CF90BF90AF909F908F900895FC
:102E1000CF93DF930E948B23EC0180E092E00E942D
:102E200021238C0F9D1FDF91CF9108950C942123B6
:102E300010926803109267031092C2031092E40389
:102E400010922B0481E080932A041092250461E003
:102E500082E00E94B41361E083E00E94B413E9EBC6
:102E6000F0E080818E7F808380818D7F808388E405
:102E70008093B80085E48093BC0008950F931F935E
:102E80000E9451146093FA047093FB048093FC0435
:102E90009093FD04E091F204F091F3040284F38531
:102EA000E02D82EF94E0099597FF1FC00E94511416
:102EB0000091FA041091FB042091FC043091FD0470
:102EC000DC01CB01801B910BA20BB30B0091F6042C
:102ED0001091F7042091F8043091F90480179107BC
:102EE000A207B307B8F28FEF9FEF1F910F910895DC
:102EF00090E0FC01E851F94F2491FC01E753F94FB0
:102F00008491882399F090E0880F991FFC01E55483
:102F1000F94FA591B491FC01E355F94F8591949136
:102F20008FB7F894EC91E22BEC938FBF089561E09A
:102F30000E945922109268038093670308951F929C
:102F40000F920FB60F9211248F939F938091E100FF
:102F50009091E100937F9093E10083FF0FC0109266
:102F6000E90091E09093EB001092EC0092E39093D3
:102F7000ED001092660398E09093F00082FF20C06D
:102F800093E09093E9009091F200992319F09AE36D
:102F90009093E80090916D03992339F090916D031F
:102FA000915090936D03992389F190916503992332
:102FB00039F090916503915090936503992341F105
:102FC00084FF10C08091E2008E7E81608093E200D9
:102FD0008091E1008F7E8093E100809164038E7E7A
:102FE000806111C080FF16C08091E2008E7E8061FA
:102FF0008093E2008091E1008E7E8093E1008091D9
:1030000064038E7E81608093640304C05D9ACDCF9B
:10301000289AD6CF9F918F910F900FBE0F901F903F
:1030200018951F920F920FB60F921124CF92DF9234
:10303000EF92FF920F931F932F933F934F935F93C2
:103040006F937F938F939F93AF93BF93EF93FF9370
:10305000CF93DF93CDB7DEB76C97DEBFCDBF1092B5
:10306000E9008091E80083FFEDC168E0CE0145965C
:103070000E945F1182EF8093E8008D8987FF05C071
:103080009091E80090FFFCCF03C09EEF9093E80082
:10309000982F907609F0C6C09E892F89188D9111BE
:1030A0000CC0803829F4809163038093F10002C042
:1030B0001092F1001092F10048C1422F50E0512BC4
:1030C000913051F4811141C14130510509F03DC1A8
:1030D000809163038D7F0BC0933061F4811135C102
:1030E0004130510509F031C18091630382608093C2
:1030F00063032BC1953041F48091E80080FFFCCF41
:1031000020682093E30021C1963009F05FC0EB8C6A
:10311000FC8C1092E90010926C0310926B03123039
:1031200091F510926A03109269030E94511699E07A
:10313000BE016F5F7F4FDB01E92F1D92EA95E9F732
:1031400099831A8391E09E8390EA98879AEF9987F2
:1031500020916B0330916C03275F3F4F3C832B839F
:103160008D831092E90010926C0310926B03F09221
:103170006A03E092690349E050E080E00E942A1669
:103180000E945116E2C0F0926A03E09269030E9425
:103190002A15DC011296ED90FC901397E114F104CE
:1031A00009F4C0C0D701ED91FC910480F581E02DB8
:1031B000BE016B5E7F4FC7010995009719F00CF0B7
:1031C000C4C0C7C0F701E084F184E8CF973009F4A8
:1031D000C0C0983021F481E08093F100B6C09930EE
:1031E00009F0B3C0837009F0B4C0E3E3F1E081E01B
:1031F00021E036E39081992361F08093E9002093E8
:10320000EB0091919093EC003093ED008F5F87304D
:1032100089F78EE78093EA001092EA008F89809305
:10322000660393C08B8D9C8D1092E90010926C0305
:1032300010926B0390936A0380936903898D8111C7
:1032400056C08E899D89913A59F4813209F081C026
:1032500047E050E06EE171E080E00E942A1675C000
:10326000913209F076C0833289F4888D90E0982FEE
:1032700088272F89822BA0E0B0E080931A019093D9
:103280001B01A0931C01B0931D015FC0803269F443
:103290008091E80082FFFCCF67E08EE191E00E9420
:1032A0005F118BEF8093E80006C0823209F04DC0B9
:1032B0008F898093250180916203882319F0EEEFB6
:1032C000FAE002C0E0E0F8E080911E0190911F0159
:1032D000A0912001B0912101803B9440A105B1054E
:1032E00009F07BC08091250180FF93C076C00E94C9
:1032F0002A15DC0112960D911C91139701151105E9
:1033000041F1D801ED91FC910190F081E02DBE01D9
:103310006B5E7F4FC8010995811117C0F8010085C8
:103320001185ECCF113009F44EC0133091F48F8920
:10333000882309F445C0823081F440E86BE081EADB
:1033400096E00E94ED15882321F08EEF8093E8002F
:1033500079C081E28093EB0075C0813029F440E8A8
:103360006BE085E996E0EDCF833099F70E942A154E
:10337000DC011296ED90FC9013978E010F5F1F4FAA
:103380006801E114F10479F0D701ED91FC91068018
:10339000F781E02DB801C7010995080F111DF7014C
:1033A000E084F184EECFD8011C92F6010190002058
:1033B000E9F73197BF016C197D0940E0C601C1CF23
:1033C0006FE776E002C063E876E06115710509F207
:1033D000FB01449150E080E840CF0FB6F894A895E7
:1033E00080916000886180936000109260000FBE41
:1033F000A895EE3F2AE0F20739F08091FE0A9091FD
:10340000FF0A91838083A1CF1092FF0A1092FE0AD7
:103410009CCFEE3F8AE0F80731F080819181909354
:10342000FF0A8093FE0A87E797E7918380839BE0FA
:1034300088E10FB6F894A895809360000FBE909332
:10344000600083CF6C960FB6F894DEBF0FBECDBF81
:10345000DF91CF91FF91EF91BF91AF919F918F91AC
:103460007F916F915F914F913F912F911F910F919C
:10347000FF90EF90DF90CF900F900FBE0F901F90B6
:103480001895089585ED8093BC008091BC0084FD63
:10349000FCCF10922B0408950895E0916803809169
:1034A0006703E81730F4F0E0EB51FC4F808190E0C7
:1034B00008958FEF9FEF08959091680380916703BF
:1034C000981750F4E92FF0E0EB51FC4F208130E0E9
:1034D0009F5F9093680302C02FEF3FEFC9010895EB
:1034E0008091670390E020916803821B9109089501
:1034F0008F929F92AF92BF92CF92DF92EF92FF9204
:103500000F931F93CF93DF931F92CDB7DEB75C016C
:103510009B014A01DC0152968C91811105C07B010F
:103520008B01040F151F31C080E58983C12CD12C7C
:10353000E12CF12C8A0141E050E0BE016F5F7F4F2A
:10354000F501848595850E94552022C0D5015596A8
:10355000ED91FC91569753968C91539791E0980F6B
:1035600053969C93D7019D917D01E80FF11D9083A7
:10357000F50193898489981308C00190F081E02DAA
:103580000680F781E02DC5010995E016F106F1F6F8
:10359000C4010F90DF91CF911F910F91FF90EF9099
:1035A000DF90CF90BF90AF909F908F900895AF9293
:1035B000BF92CF92DF92EF92FF920F931F93CF9320
:1035C000DF9300D01F92CDB7DEB75C0182E58B831D
:1035D000D5011F96ED91FC915097048115812081B2
:1035E000318182E0C82ED12CFE0131967F0141E06D
:1035F00050E0BE016D5F7F4F1C968D919C911D9791
:103600000E9455208A81D5011E968C931E971F9685
:103610000D911C9150970115110531F0C8010E94C0
:103620003B12C8010E94622CF501108A178689811D
:10363000811102C081E0818B0F900F900F90DF917C
:10364000CF911F910F91FF90EF90DF90CF90BF909F
:10365000AF9008950F931F93CF93DF93EC018B01ED
:103660006CE972E08F8598890E94B811F801448155
:103670005581608171818F859889DF91CF911F91EC
:103680000F910C947711CF93DF93EC018A8981110C
:1036900008C08D899E89009711F00E94622C81E0FC
:1036A0008A8B88899989009721F00E94622C198A57
:1036B000188ADF91CF910895CF93DF93EC018D812C
:1036C0009E81DC01ED91FC910084F185E02D09954E
:1036D0001816190654F48D819E81DC01ED91FC9140
:1036E0000284F385E02D0995EACFDF91CF9108950B
:1036F0008F929F92AF92BF92CF92DF92EF92FF9202
:10370000CF93DF93EC016B010E9451144B015C01DC
:10371000E12CF12C8D819E81DC01ED91FC910284E4
:10372000F385E02D099597FF0FC00E945114DC012D
:10373000CB0188199909AA09BB098C159D05AE050D
:10374000BF0540F38FEF9FEFDF91CF91FF90EF9098
:10375000DF90CF90BF90AF909F908F900895FC0125
:10376000238134812627022E2295207F2025032EB7
:10377000322F22952F700226269532272327220FDB
:10378000220F220F2025348323830895CF92DF92C6
:10379000EF92FF920F931F936801790100E010E010
:1037A00020E030E00E9455201F910F91FF90EF9094
:1037B000DF90CF9008950F931F93CF93DF9300D0A6
:1037C00000D0CDB7DEB727E52B83FC0126852C83FF
:1037D00002E010E09E012F5F3F4F42E050E0BE014B
:1037E0006D5F7F4F848595850E94C61B898190E01F
:1037F000982F88272A81820F911D0F900F900F908C
:103800000F90DF91CF911F910F9108950F931F9308
:10381000CF93DF9300D01F92CDB7DEB722E7298385
:10382000FC0126852A8301E010E09E012D5F3F4FB9
:1038300042E050E0BE016F5F7F4F848595850E9416
:10384000C61B81E09B81913009F080E00F900F90C2
:103850000F90DF91CF911F910F910895EF92FF92FA
:103860000F931F93CF93DF9300D01F92CDB7DEB796
:10387000FC012289211118C07C01138A8FE48983FD
:1038800080E48B8386858A839F012C5E3F4F00E412
:1038900010E043E050E0BE016F5F7F4F8485958567
:1038A0000E94C61BF701828B0F900F900F90DF9143
:1038B000CF911F910F91FF90EF900895CF93DF93D9
:1038C000EC010E942E1C8A89882331F08B89C80F55
:1038D000D11D8C8990E002C08FEF9FEFDF91CF91D7
:1038E0000895CF93DF93EC010E942E1C8A898823D0
:1038F00059F081508A8B8B8991E0980F9B8BC80F70
:10390000D11D8C8990E002C08FEF9FEFDF91CF91A6
:103910000895CF93DF93EC010E942E1C8A8990E0DA
:10392000DF91CF910895EF92FF920F931F93CF9362
:10393000DF9300D0CDB7DEB7FC012685211115C07D
:103940007C01178680E7898380E28A832089318918
:1039500000E210E042E050E0BE016F5F7F4F8485DF
:1039600095850E94C61BF70186870F900F90DF9107
:10397000CF911F910F91FF90EF900895CF93DF9318
:10398000EC010E94931C8E85882341F08F85E88985
:10399000F989E80FF11D808190E002C08FEF9FEF61
:1039A000DF91CF910895CF93DF93EC010E94931C98
:1039B0008E85882369F081508E87E889F9898F8503
:1039C00091E0980F9F87E80FF11D808190E002C081
:1039D0008FEF9FEFDF91CF910895CF93DF93EC01AD
:1039E0000E94931C8E8590E0DF91CF9108950F93F4
:1039F0001F9300E010E020E030E00E94C61B1F9102
:103A00000F9108950F931F93CF93DF9300D0CDB7FD
:103A1000DEB78C01FC018189882369F087E78983FF
:103A200086858A8342E050E0BE016F5F7F4F8485C8
:103A300095850E94F71CF801118A0F900F90DF9175
:103A4000CF911F910F910895CF92DF92EF92FF9245
:103A50000F931F93CF93DF9300D000D000D0CDB74A
:103A6000DEB78C016B016EE972E0CE0101960E9417
:103A7000DD12C8010E94021D86E090E00E94CD2B5D
:103A80007C01BE016F5F7F4F0E94D412F801F08A63
:103A9000E786CE0101960E943B1267EA72E0CE01F2
:103AA00001960E94DD12BE016F5F7F4FC8010E9428
:103AB0002A1BCE0101960E943B12B601C8010E944A
:103AC0002A1BC8010E94D71AC8010E94061C88231D
:103AD00039F064E670E080E090E00E941714F4CFC3
:103AE000C8010E94DB1B26960FB6F894DEBF0FBEFE
:103AF000CDBFDF91CF911F910F91FF90EF90DF909D
:103B0000CF90089527E431E0FC01318320830C94A9
:103B1000021DCF93DF9300D01F92CDB7DEB729E40B
:103B20002983FC0126852A836B8343E050E0BE0194
:103B30006F5F7F4F848595850E94F71C81E090E040
:103B40000F900F900F90DF91CF910895CF93DF9357
:103B5000FC01228921110BC0EC01438950E06589E9
:103B60007689848595850E94F71C81E08B8BDF9197
:103B7000CF910895CF93DF9300D0CDB7DEB7DC01AE
:103B800052968C915297882379F080E589836A83D5
:103B900042E050E0BE016F5F7F4F1C968D919C917B
:103BA0001D970E94F71C1FC05596ED91FC915697EA
:103BB00053968C91539791E0980F53969C935397FB
:103BC000E80FF11D608353969C91539754968C9106
:103BD0005497981308C0ED91FC9111970680F781D6
:103BE000E02DCD01099581E090E00F900F90DF91DD
:103BF000CF910895BF92CF92DF92EF92FF920F93F1
:103C00001F93CF93DF93CDB7DEB72E970FB6F894FF
:103C1000DEBF0FBECDBF7C01C7010E945C1B68EEFA
:103C200073E080E090E00E941714D70115968D9103
:103C30009C911697DC01ED91FC910084F185E02DBB
:103C400009951816190644F385E0D82ECC24C394A0
:103C500092E3B92EE9E3F1E0DE0111968D2D01909A
:103C60000D928A95E1F7F701C08645E050E0BE016C
:103C70006F5F7F4FC7010E94F71CD70115968D918A
:103C80009C911697DC01ED91FC910190F081E02D63
:103C900063E009956AEF70E080E090E00E941714FD
:103CA00065E177E0F701858196810E9438136AEF1C
:103CB00070E080E090E00E94171463E177E0D701A4
:103CC00015968D919C9116970E94381364EF71E0C0
:103CD00080E090E00E94171467E077E0F7018581AB
:103CE00096810E94381364EF71E080E090E00E94BA
:103CF0001714C7010E945C1BEEE3F1E0DE0116968B
:103D00008D2D01900D928A95E1F7D7011896BC92FE
:103D100004E010E09E01255F3F4F45E050E0BE010A
:103D20006A5F7F4FC7010E94C61B8F3FBFEF9B0793
:103D300039F468EE73E080E090E00E9417148ACFB7
:103D40002B852111FFCF049701F52C8530E02053FE
:103D5000310984E6829FA001839F500D11242D8597
:103D600030E0205331096AE0629FC001639F900DEB
:103D70001124840F951F2E8530E020533109820FC6
:103D8000931FF7019283818307C084E690E0D701F7
:103D900012969C938E93119782E3F70180872E965B
:103DA0000FB6F894DEBF0FBECDBFDF91CF911F914C
:103DB0000F91FF90EF90DF90CF90BF9008951F92EA
:103DC0000F920FB60F9211242F933F934F935F934F
:103DD0006F937F938F939F93AF93BF93EF93FF93D3
:103DE0008091B900887F803609F49CC068F58832DC
:103DF00009F45BC090F4803109F454C038F488238E
:103E000009F4F6C0883009F44DC0F6C0883109F4D1
:103E10004CC0803209F45DC0EFC0803409F468C042
:103E200048F4803309F455C0883309F0E5C0809325
:103E30002904D8C0803509F44FC0883509F45DC025
:103E4000883409F0D9C0D6C0883909F4C7C0A8F4AD
:103E5000883709F467C038F4883609F463C08037BE
:103E600009F460C0C9C0883809F4B8C0803909F4C1
:103E70005FC0803809F0C0C05BC0803B09F486C0D9
:103E800038F4803A09F466C0883A09F47FC0B4C0B7
:103E9000803C09F4A7C0883C09F4A4C0883B09F41D
:103EA0008AC0AAC08091260410C0909128048091F5
:103EB0002704981770F5E091280481E08E0F809315
:103EC0002804F0E0EB5FFB4F80818093BB0085EC22
:103ED00086C0809329048EC0E091280481E08E0F73
:103EE000809328048091BB00F0E0EB5FFB4F808360
:103EF00090912804809127046EC0E091280481E00D
:103F00008E0F809328048091BB00F0E0EB5FFB4FA5
:103F1000808380912A0481116DC081E08093250403
:103F200084EA61C083E080932B041092C003CFCF5A
:103F30008091C003803208F051C0E091C00381E05D
:103F40008E0F8093C0038091BB00F0E0E056FC4FE1
:103F50008083BDCF85EC8093BC0010922B048091B0
:103F6000C003803230F4E091C003F0E0E056FC4F33
:103F700010826091C00370E0E0919E03F0919F0376
:103F800080EA93E009951092C00336C084E08093E4
:103F90002B0410929D0310929C03E0919A03F091E0
:103FA0009B03099580919C03811105C081E080935A
:103FB0009C0310927A03E0919D0381E08E0F809321
:103FC0009D03F0E0E658FC4F80818093BB00909108
:103FD0009D0380919C03981708F479CF85E880931E
:103FE000BC000AC085EC8093BC0010922B0404C076
:103FF000109229040E94421AFF91EF91BF91AF9154
:104000009F918F917F916F915F914F913F912F91F0
:104010000F900FBE0F901F90189540919C03262F74
:1040200030E0240F311D21323105DCF420912B04C6
:104030002430C9F4FC0180E090E0861758F43091F8
:104040009C032191DC01A658BC4FA30FB11D2C93FA
:104050000196F3CF80919C03680F60939C0380E0EE
:10406000089581E0089582E00895FC018091DF04C5
:104070009091E004892B21F421E0309749F413C09A
:104080008091DB049091DC04309731F421E0FC0155
:104090008081882341F006C0BF010E94D22D21E01B
:1040A000892B09F020E0822F08952F923F924F92A2
:1040B0005F926F927F928F929F92AF92BF92CF92B8
:1040C000DF92EF92FF920F931F93CF93DF93CDB7C1
:1040D000DEB72B970FB6F894DEBF0FBECDBF9B8720
:1040E0008A875B011901FD82EC823A01600E711E24
:1040F000872C7B82912C44244A94542C9B01240FBE
:10410000351F3F832E839101200F311F3987288768
:10411000EA85FB858085981608F036C1AA85BB859F
:1041200014965C924E92139715968D919C911697CA
:10413000DC01ED91FC910190F081E02D6FEF09958C
:104140006FEF8A859B850E94AF1BEA85FB85858181
:104150009681DC01ED91FC910190F081E02DAA8522
:10416000BB856C910995EA85FB856081CF010E9432
:10417000AF1BAA85BB8515968D919C911697DC0186
:10418000ED91FC910190F081E02D682D09956B81F6
:104190008A859B850E94AF1BEA85FB858581968178
:1041A000DC01ED91FC910190F081E02D662D0995E7
:1041B000662D8A859B850E94AF1B75012E813F81EC
:1041C000E216F306B1F0EA85FB85858196818701C9
:1041D000DC01ED91FC910190F081E02DD7016D9112
:1041E0007D010995F80160818A859B850E94AF1B3E
:1041F000E5CF7101AA85BB8515968D919C91169787
:1042000028853985E216F30691F08701DC01ED91EE
:10421000FC910190F081E02DD7016D917D01099510
:10422000F80160818A859B850E94AF1BE3CFDC018A
:10423000ED91FC91AA85BB8514966C910190F0815B
:10424000E02D0995EA85FB8585819681DC01ED915C
:10425000FC910190F081E02DAA85BB8513966C91AD
:10426000099564E670E08A859B850E94781B8F3FE4
:10427000910509F07DC0EA85FB85548243826FEF8A
:10428000CF010E94AF1B65E070E08A859B850E948C
:10429000781BAA85BB856C91262F30E08217930787
:1042A00009F066C0CD010E94AF1B6AE070E08A850C
:1042B0009B850E94781B7C0197FD5AC0682F8A85D8
:1042C0009B850E94AF1B6AE070E08A859B850E94F7
:1042D000781B8C0197FD4CC0682F8A859B850E94B6
:1042E000AF1BEA821982E981FA810E0F1F1FE12CB0
:1042F000F12C65E070E08A859B85E016F106A9F057
:10430000EC14FD0491F00E94781B97FD0AC0EC812B
:10431000FD81EE0DFF1D8083682F8A859B850E949D
:10432000AF1BFFEFEF1AFF0AE4CF0E94781B7C015E
:1043300097FD1EC065E070E08A859B850E94781B12
:1043400097FD16C0FE2CEE248E0D9F1DAA85BB8501
:1043500013962D913C9114972817390749F48C91A5
:104360008F5F8C93C801C016D10680F4C6010EC0C1
:10437000939464E670E080E090E00E9417148A85D0
:104380009B850E945C1BC4CE8FEF9FEF2B960FB6D0
:10439000F894DEBF0FBECDBFDF91CF911F910F917B
:1043A000FF90EF90DF90CF90BF90AF909F908F9055
:1043B0007F906F905F904F903F902F900895EF9275
:1043C000FF920F931F93CF93DF93CDB7DEB727975D
:1043D0000FB6F894DEBF0FBECDBFFB010081118187
:1043E000FC01E080F18062E073E0CE0101960E9462
:1043F000DD12B701CE0101960E94B8116CE972E09E
:10440000CE0101960E94B811B801CE0101960E941A
:10441000B8114D815E8169817A8101E010E09E01D1
:10442000295F3F4F87EE94E00E94C61BCE010196A4
:104430000E943B1227960FB6F894DEBF0FBECDBF89
:10444000DF91CF911F910F91FF90EF900895CF9240
:10445000DF92EF92FF920F931F93CF93DF931F9200
:10446000CDB7DEB784E6898382E0C82ED12C96E2F0
:10447000E92E91E0F92E0DE010E024E033E041E078
:1044800050E0BE016F5F7F4F87EE94E00E945520A1
:104490008230910520F4FC01EA5DFE4F10820F90FE
:1044A000DF91CF911F910F91FF90EF90DF90CF9010
:1044B000089590912B049111FCCF91E090932B04DF
:1044C00090932A042FEF2093290410922804260F9A
:1044D000209327049093260490912604880F892B1B
:1044E0008093260480912504813061F41092250484
:1044F000809126048093BB008091BC0083FDF8CF9F
:1045000085EC01C085EE8093BC0080912B04813046
:10451000E1F380912804861710F460912804A5E047
:10452000B4E025EE33E0F9018E2F821B861718F4D4
:104530008D918193F9CF862F08952091E403909176
:10454000E303213208F04AC080912B048111FCCF93
:1045500032E030932B0431E030932A043FEF309364
:1045600029041092280420932704A3ECB3E045E02B
:1045700054E0FA013E2F341B321718F43D91319369
:10458000F9CF1092260420912604990F922B909334
:10459000260490912504913061F4109225049091A5
:1045A00026049093BB009091BC0093FDF8CF95EC4E
:1045B00001C095EE9093BC0090912B049230E1F3F2
:1045C000909129049F3F79F080912904803241F035
:1045D00080912904803331F084E005C081E003C07C
:1045E00082E001C083E01092C2031092E4031092B3
:1045F000C10308951F93CF93DF931F92CDB7DEB70A
:10460000162F91E09093C1038093E3031092C203AD
:104610001092E40361E089EC94E079830E94EC035A
:104620007981672F89EC94E00E94EC03612F89EC7B
:1046300094E00E94EC030F90DF91CF911F910C94B6
:104640009D22BC01009791F0FC0101900020E9F748
:104650003197AF01481B590BE0917405F091750536
:104660000280F381E02D84E795E0099480E090E0FA
:104670000895CF93DF93BC0184E795E00E9438133F
:10468000EC0180E092E00E9421238C0F9D1FDF91BE
:10469000CF9108958F929F92AF92BF920F931F93E5
:1046A000CF93DF93CDB7DEB7A1970FB6F894DEBFF7
:1046B0000FBECDBF19A2423008F44AE08E010F5D53
:1046C0001F4F842E912CA12CB12CA50194010E9486
:1046D000912BE62FB901CA0101501109EA3014F4F7
:1046E000E05D01C0E95CD801EC93232B242B252B42
:1046F00061F7C8010E942123A1960FB6F894DEBF8E
:104700000FBECDBFDF91CF911F910F91BF90AF90A2
:104710009F908F900895E0917405F0917505DC01EC
:1047200014964D915C9115976D917C910280F38167
:10473000E02D84E795E00994CF93DF93CDB7DEB702
:104740002C970FB6F894DEBF0FBECDBF789484B51A
:10475000826084BD84B5816084BD85B5826085BD7D
:1047600085B5816085BD80916E00816080936E000B
:1047700010928100809181008260809381008091FD
:1047800081008160809381008091800081608093AE
:1047900080008091910082608093910080919100CF
:1047A000816080939100809190008160809390005F
:1047B0008091C10084608093C1008091C1008260BB
:1047C0008093C1008091C10081608093C10080917D
:1047D000C30081608093C3008091C0008260809399
:1047E000C0008091C20081608093C20080917A00F5
:1047F000846080937A0080917A00826080937A004E
:1048000080917A00816080937A0080917A0080683C
:1048100080937A00109266031092630310926403EF
:104820008091D70081608093D70080EA8093D80080
:1048300089B5806189BD89B5826089BD09B400FEF2
:10484000FDCF61E070E080E090E00E94171480915D
:10485000D8008F7C80618093D8008091E000807FB9
:104860008093E0008091E1008E7E8093E1008DE0F6
:104870008093E200559A209AEEEFFFE7859194919C
:104880008B3F9C4D19F481E0809362038DE00E9480
:10489000781787E00E94781786E00E9478170FE06B
:1048A00010E00E94240601501109D9F70E94181740
:1048B000E091F004F091F104A089B18982E08C9339
:1048C000A485B5851C92A685B78587E08C93108E4C
:1048D000A489B58986E08C93A289B3898C91806183
:1048E0008C93A289B3898C9188608C93A289B389B7
:1048F0008C9180688C930288F389E02D80818F7D74
:1049000080838091EE04811107C081E08093EE04E2
:1049100087EE94E00E94FA1D8091800590918105B8
:10492000FC012781211104C021E027830E94FA1D88
:1049300084E795E00E94431B80E290E00E94CD2B2B
:10494000909385058093840500E012E01093730531
:10495000009372050E94181710936E0500936D0561
:104960000E94181760915703709158034AE0CE01D6
:1049700001960E94701262EE71E0CE0107960E94CD
:10498000DD12BE016F5F7F4FCE0107960E94DF21CF
:10499000CE0107960E943B12CE0101960E943B1267
:1049A0006CE272E0CE0101960E94DD1264E472E0D6
:1049B000CE0107960E94DD12BE016F5F7F4FCE01D0
:1049C00007960E94DF21CE0107960E943B12CE017E
:1049D00001960E943B124AE061E070E0CE01019630
:1049E0000E9470126DE172E0CE0107960E94DD1206
:1049F000BE016F5F7F4FCE0107960E94DF21CE017F
:104A000007960E943B12CE0101960E943B120E9423
:104A1000E30A0E94D810FBCF85ED94E00E943B1280
:104A20008BED94E00E943B1281EE94E00E943B12D9
:104A300082EF94E00E94821D8BED95E00E943B1274
:104A400086E495E00E943B128CE495E00E943B12C4
:104A500082E595E00E943B1288E595E00E943B12BA
:104A60008EE595E00E943B1284E695E00E943B12A1
:104A70008DEA91E0909375058093740584E795E045
:104A80000C94431BCF93DF93EBE8F5E01382128283
:104A900048EE53E060E070E044835583668377839B
:104AA00089E591E0918380838FEF9FEF95878487DD
:104AB000ECE2F4E0138212824483558366837783A9
:104AC0008BE691E0918380838DEC90E095878487DD
:104AD0008CEC90E09787868788EC90E0918B808BB8
:104AE00089EC90E0938B828B8AEC90E0958B848BA1
:104AF0008EEC90E0978B868B118E128E138E148E17
:104B0000A4E7B5E013961C921E92129714964D934B
:104B10005D936D937C9317978DEA91E011969C932A
:104B20008E93C7EED4E01D96DC93CE931C971E9611
:104B30001C921E971F961C921F9751961C921E92B4
:104B4000509781E052968C931882FE83ED831F82EA
:104B50001886FA87E987E9ECF4E01382128244832D
:104B60005583668377838DE791E091838083EFE6B9
:104B7000F5E088E480831482138288E081831282C6
:104B8000EAE6F5E01482138299E49083818312822D
:104B90006AEA72E084E695E00E94DD1269EB72E059
:104BA0008EE595E00E94DD126AEC72E088E595E002
:104BB0000E94DD1269ED72E082E595E00E94DD124F
:104BC00067EE72E08CE495E00E94DD1265EF72E022
:104BD00086E495E00E94DD1264E072E08BED95E0E2
:104BE0000E94DD12BE0182EF94E00E94380664E06C
:104BF00072E081EE94E00E94DD1264E072E08BEDE1
:104C000094E00E94DD1264E072E085ED94E0DF91B3
:104C1000CF910C94DD12EF920F931F93CF93DF93FC
:104C2000E80147FD02C034E001C034E1E42F440F45
:104C3000FF0BF7FF03C0F195E195F109E32E022F79
:104C40002E2FAE010E94CD26CE01DF91CF911F9174
:104C50000F91EF900895FC0188279927E8942191FE
:104C60002032E9F3293010F02E30C8F32B3241F016
:104C70002D3239F4689404C00E94AB26820F911D36
:104C8000219120532A30C0F31EF4909581959F4FB7
:104C900008951F93FC0199278827BC01E89411917E
:104CA0001032E9F3193010F01E30C8F31B3251F006
:104CB0001D3249F4689406C00E949626610F711D4A
:104CC000811D911D119110531A30B0F33EF490954F
:104CD0008095709561957F4F8F4F9F4F1F910895DD
:104CE000FB01DC0105900D920020E1F70895FC0125
:104CF00005900020E9F7809590958E0F9F1F0895ED
:104D00004532510520F4423010F00C948B26FB0103
:104D10001082CB010895BB274A3031F4992322F445
:104D2000BDE2909581959F4F0C94B426592F482F42
:104D3000372F262F660F771F881F991F660F771F43
:104D4000881F991F620F731F841F951F660F771F9F
:104D5000881F991F08957AE0979F902D879F802D37
:104D6000910D11240895BB27FB015527AA27880F11
:104D7000991FAA1FA41710F0A41B83955051B9F7CF
:104D8000A05DAA3308F0A95DA193009779F7B1114E
:104D9000B1931192CB010C9433294F925F926F9291
:104DA0007F929F92AF92BF92CF92DF92EF92FF924B
:104DB0000F931F93CF93DF93CDB7DEB729970FB62D
:104DC000F894DEBF0FBECDBF6A01122FB02E2BE3C9
:104DD000201720F0FF24F394F00E02C0BCE3FB2E5A
:104DE0000F2D27E0AE014F5F5F4F0E945B28AC01A3
:104DF0008981982F9970913031F0E1FC06C0E0FE76
:104E000006C090E205C09DE203C09BE201C090E0B5
:104E1000EE2DE07183FF3CC0911102C083E001C020
:104E200084E0811718F4212F281B01C020E0E11134
:104E30000BC0F601822F30E2882319F031938150A4
:104E4000FBCFC20ED11C20E0992329F0D6019C9300
:104E5000F60131966F01C6010396E2FE0AC03EE4F8
:104E6000D6013C9341E411964C93119712963C93D2
:104E700006C03EE6F601308341E641833283FC0101
:104E8000322F40E2332309F442C041933150FACF2C
:104E900082FF44C0911102C083E001C084E0811709
:104EA00018F4212F281B01C020E0E1110BC0F601EE
:104EB000822F30E2882319F031938150FBCFC20E4C
:104EC000D11C20E0992329F0D6019C93F60131965C
:104ED0006F01C6010396E2FE0BC039E4D6013C9394
:104EE0003EE411963C93119736E412963C9307C02A
:104EF00039E6F60130833EE6318336E63283FC0143
:104F0000322F40E2332319F041933150FBCFFC01A3
:104F1000E20FF11D10828EEF9FEFB7C0F1E091110B
:104F200001C0F0E06F2F70E01416150624F49A010A
:104F30002F5F3F4F02C021E030E0260F371FBB201C
:104F400029F06B2D70E06F5F7F4F02C060E070E072
:104F5000260F371F612F70E0261737071CF4121B2E
:104F6000212F01C020E03E2D387159F4D601322F97
:104F700060E2332319F06D933150FBCFC20ED11C88
:104F800020E0FF2331F0D6019C93B6016F5F7F4F85
:104F90006B01E1110BC0F601922F30E3992319F058
:104FA00031939150FBCFC20ED11C20E09F2D940F66
:104FB0003A81782F7071A72E84FF03C0313309F432
:104FC0009150191624F4993018F098E001C091E03E
:104FD000E42F852F57FF02C0E0E080E06E2F782F8E
:104FE000E0E0F0E0AEE29A2E3A01691A71082A0177
:104FF000461A570A0B2D10E01195019511096F3FC4
:105000008FEF780729F4D6019C92C60101966C01B6
:105010004617570784F0661677066CF47F01E40C98
:10502000F51CA1E0B0E0AC0FBD1FEA0EFB1ED701DE
:105030001196BC9002C090E3B92E6150710931966F
:10504000C60101967C016017710724F0D601BC925D
:105050006C01D5CF6417750741F4363320F435332E
:1050600021F4A11002C081E3B82EF601B082F7014D
:10507000822F90E2882319F091938150FBCFF701A2
:10508000E20FF11D108280E090E029960FB6F894AF
:10509000DEBF0FBECDBFDF91CF911F910F91FF906B
:1050A000EF90DF90CF90BF90AF909F907F906F90E8
:1050B0005F904F900895283008F027E03327DA01F9
:1050C000990F311D87FD916000966105710539F4D6
:1050D00032602E5F3D9330E32A95E1F708959F3FBC
:1050E00030F080387105610509F03C5F3C5F3D930D
:1050F000913008F08068911DDF93CF931F930F9339
:10510000FF92EF92192F987F9695E92F9695969595
:10511000E90FFF27EC5AFE4F99273327EE24FF248F
:10512000A701E70105900894079428F4360FE71EBD
:10513000F81E491F511D660F771F881F991F06947F
:10514000A1F70590079428F4E70EF81E491F561F93
:10515000C11D770F881F991F661F0694A1F7059040
:10516000079428F4F80E491F561FC71FD11D880F3A
:10517000991F661F771F0694A1F70590079420F4E6
:10518000490F561FC71FD81F990F661F771F881F0B
:105190000694A9F784911095177041F0D695C7959C
:1051A00057954795F794E7941A95C1F7EAEFF0E021
:1051B00068941590159135916591959105907FE2D0
:1051C0007395E118F10A430B560BC90BD009C0F7D0
:1051D000E10CF11E431F561FC91FD01D7EF4703312
:1051E00011F48A95E6CFE894015030F0080F0AF4E4
:1051F0000027021708F4202F2395022F7A3328F076
:1052000079E37D932A95E9F710C07D932A9589F675
:10521000069497956795379517951794E118F10AB5
:10522000430B560BC90BD00998F023957E917395CB
:105230007A3308F070E37C932013B8F77E917061A5
:105240007D9330F0839571E37D9370E32A95E1F7C8
:105250001124EF90FF900F911F91CF91DF9199272B
:1052600087FD90950895DC01FC01672F71917723EC
:10527000E1F7329704C07C916D9370836291AE1711
:10528000BF07C8F308950E94852908F481E00895B6
:10529000E89409C097FB3EF49095809570956195D0
:1052A0007F4F8F4F9F4F9923A9F0F92F96E9BB2786
:1052B0009395F695879577956795B795F111F8CF02
:1052C000FAF4BB0F11F460FF1BC06F5F7F4F8F4F6D
:1052D0009F4F16C0882311F096E911C0772321F063
:1052E0009EE8872F762F05C0662371F096E8862FFB
:1052F00070E060E02AF09A95660F771F881FDAF752
:10530000880F9695879597F90895990F0008550F7E
:10531000AA0BE0E8FEEF16161706E807F907C0F03B
:1053200012161306E407F50798F0621B730B840B43
:10533000950B39F40A2661F0232B242B252B21F41D
:1053400008950A2609F4A140A6958FEF811D811DBD
:1053500008950E94BC290C942D2A0E941F2A38F01F
:105360000E94262A20F0952311F00C94162A0C9402
:105370001C2A11240C94612A0E943E2A70F3959FE6
:10538000C1F3950F50E0551F629FF001729FBB273C
:10539000F00DB11D639FAA27F00DB11DAA1F649FD8
:1053A0006627B00DA11D661F829F2227B00DA11D8B
:1053B000621F739FB00DA11D621F839FA00D611D11
:1053C000221F749F3327A00D611D231F849F600D32
:1053D000211D822F762F6A2F11249F5750409AF05B
:1053E000F1F088234AF0EE0FFF1FBB1F661F771FE7
:1053F000881F91505040A9F79E3F510580F00C94B2
:10540000162A0C94612A5F3FE4F3983ED4F3869504
:1054100077956795B795F795E7959F5FC1F7FE2B51
:10542000880F911D9695879597F9089597F99F672D
:1054300080E870E060E008959FEF80EC089500241C
:105440000A941616170618060906089500240A94E9
:1054500012161306140605060895092E0394000C6F
:1054600011F4882352F0BB0F40F4BF2B11F460FFFE
:1054700004C06F5F7F4F8F4F9F4F089557FD905827
:10548000440F551F59F05F3F71F04795880F97FB08
:10549000991F61F09F3F79F08795089512161306C2
:1054A0001406551FF2CF4695F1DF08C016161706F1
:1054B0001806991FF1CF8695710561050894089526
:1054C000E894BB2766277727CB0197F908952F9299
:1054D0003F924F925F926F927F928F929F92AF9284
:1054E000BF92CF92DF92EF92FF920F931F93CF93D1
:1054F000DF93CDB7DEB7CA1BDB0B0FB6F894DEBF68
:105500000FBECDBF09942A88398848885F846E848D
:105510007D848C849B84AA84B984C884DF80EE80D7
:10552000FD800C811B81AA81B981CE0FD11D0FB6E0
:10553000F894DEBF0FBECDBFED0108955058BB27D4
:10554000AA270E94B62A0C942D2A0E941F2A38F0FE
:105550000E94262A20F039F49F3F19F426F40C9477
:105560001C2A0EF4E095E7FB0C94162AE92F0E9402
:105570003E2A58F3BA17620773078407950720F08D
:1055800079F4A6F50C94602A0EF4E0950B2EBA2F50
:10559000A02D0B01B90190010C01CA01A001112439
:1055A000FF27591B99F0593F50F4503E68F11A16E5
:1055B000F040A22F232F342F4427585FF3CF469576
:1055C00037952795A795F0405395C9F77EF41F1698
:1055D000BA0B620B730B840BBAF09150A1F0FF0F62
:1055E000BB1F661F771F881FC2F70EC0BA0F621F4E
:1055F000731F841F48F4879577956795B795F7953E
:105600009E3F08F0B0CF9395880F08F09927EE0FD2
:105610009795879508950E941F2B0C942D2A0E9420
:10562000262A58F00E941F2A40F029F45F3F29F0F3
:105630000C94162A51110C94612A0C941C2A0E9475
:105640003E2A68F39923B1F3552391F3951B550B2B
:10565000BB27AA2762177307840738F09F5F5F4F45
:10566000220F331F441FAA1FA9F335D00E2E3AF084
:10567000E0E832D091505040E695001CCAF72BD09C
:10568000FE2F29D0660F771F881FBB1F26173707ED
:105690004807AB07B0E809F0BB0B802DBF01FF271F
:1056A00093585F4F3AF09E3F510578F00C94162ABC
:1056B0000C94612A5F3FE4F3983ED4F38695779586
:1056C0006795B795F7959F5FC9F7880F911D9695D8
:1056D000879597F90895E1E0660F771F881FBB1F34
:1056E000621773078407BA0720F0621B730B840BE1
:1056F000BA0BEE1F88F7E095089597FB072E16F476
:10570000009407D077FD09D00E94B92B07FC05D083
:105710003EF4909581959F4F0895709561957F4FC8
:105720000895A1E21A2EAA1BBB1BFD010DC0AA1FE2
:10573000BB1FEE1FFF1FA217B307E407F50720F0FA
:10574000A21BB30BE40BF50B661F771F881F991F75
:105750001A9469F760957095809590959B01AC01BE
:10576000BD01CF010895EE0FFF1F0590F491E02DCC
:105770000994AA1BBB1B51E107C0AA1FBB1FA61798
:10578000B70710F0A61BB70B881F991F5A95A9F7EA
:1057900080959095BC01CD010895CF93DF93823021
:1057A000910510F482E090E0E091E305F091E405CA
:1057B00020E030E0C0E0D0E0309711F1408151812D
:1057C00048175907C0F04817590761F4828193813F
:1057D000209719F09B838A832BC09093E4058093D4
:1057E000E30526C02115310519F04217530718F4B7
:1057F0009A01BE01DF01EF010280F381E02DDCCFD1
:105800002115310509F1281B390B2430310590F49D
:1058100012968D919C9113976115710521F0FB01F2
:105820009383828304C09093E4058093E305FD0194
:10583000329644C0FD01E20FF31F819391932250F1
:1058400031092D933C933AC02091E1053091E20556
:10585000232B41F420912A0130912B013093E20552
:105860002093E1052091280130912901211531056E
:1058700041F42DB73EB740912C0150912D01241BCE
:10588000350BE091E105F091E205E217F307A0F492
:105890002E1B3F0B2817390778F0AC014E5F5F4F86
:1058A0002417350748F04E0F5F1F5093E2054093D1
:1058B000E1058193919302C0E0E0F0E0CF01DF9138
:1058C000CF9108950F931F93CF93DF93009709F41F
:1058D0008CC0FC013297138212820091E305109173
:1058E000E4050115110581F420813181820F931F98
:1058F0002091E1053091E2052817390779F5F093F9
:10590000E205E093E10571C0D80140E050E0AE1738
:10591000BF0750F412962D913C911397AD012115BC
:10592000310509F1D901F3CF9D01DA0133832283D7
:1059300060817181860F971F8217930769F4EC01CC
:1059400028813981260F371F2E5F3F4F31832083F7
:105950008A819B8193838283452B29F4F093E4050C
:10596000E093E30542C01396FC93EE931297ED018A
:10597000499159919E01240F351FE217F30771F4E5
:1059800080819181840F951F029611969C938E932E
:105990008281938113969C938E931297E0E0F0E0BE
:1059A000D80112968D919C911397009719F0F801E8
:1059B0008C01F6CF8D919C9198012E5F3F4F820F05
:1059C000931F2091E1053091E2052817390769F40A
:1059D000309729F41092E4051092E30502C0138277
:1059E00012821093E2050093E105DF91CF911F91A0
:1059F0000F910895A0E0B0E0E0E0FDE20C946B2A86
:105A0000EC01009721F4CB010E94CD2BB8C0FC0122
:105A1000E60FF71F9C0122503109E217F30708F443
:105A2000ACC0D9010D911C91119706171707B0F062
:105A30000530110508F49FC0C80104978617970721
:105A400008F499C002501109061B170B019311931A
:105A50006D937C93CF010E94622C8DC05B01A01AD4
:105A6000B10A4C01800E911EA091E305B091E405AE
:105A700040E050E0E12CF12C109709F44AC0A81541
:105A8000B905D1F56D907C901197630182E0C80E45
:105A9000D11CCA14DB0480F1A3014A195B096A0115
:105AA00082E0C80ED11C1296BC9012971396AC914E
:105AB000B5E0CB16D10440F0B282A383518340837A
:105AC000D9016D937C930AC00E5F1F4FC301800FF5
:105AD000911FF90191838083EB2DFA2FE114F104DA
