:100000000C94CF020C94F7020C94F7020C94F702B4
:100010000C94F7020C94F7020C94F7020C94F7027C
:100020000C94F7020C94F7020C94C81B0C943A1C25
:100030000C94F7020C94F7020C94F7020C94F7025C
:100040000C94F7020C94F7020C94F7020C94F7024C
:100050000C94F7020C94F7020C94F7020C944A0FDC
:100060000C94F7020C94B0180C948A180C94F702B4
:100070000C94F7020C94F7020C94F7020C94F7021C
:100080000C94F7020C94F7020C94F7020C94F7020C
:100090000C94DD130C94F7020C94F7020C94F70205
:1000A0000C94F7020C94F7020C94F702F30BF60B86
:1000B000F90BF90BF90BF90BF90BF90B060C090C01
:1000C0000C0C0C0C0C0C0C0C0C0C0C0C1A0C1A0C54
:1000D0001D0C1D0C1D0C1D0C1D0C1D0C0D191019DB
:1000E000FF18031907193119311931191419181981
:1000F0001C192219261931192C1900407A10F35AAB
:1001000000A0724E18090010A5D4E80000E8764857
:10011000170000E40B54020000CA9A3B000000E103
:10012000F505000080969800000040420F00000096
:10013000A08601000000102700000000E803000076
:1001400000006400000000000A0000000000010040
:10015000000000002C76D888DC674F0823DFC1DF61
:10016000AE59E1B1B796E5E3E453C63AE651997664
:1001700096E8E6C28426EB898C9B62ED407C6FFC9E
:10018000EFBC9C9F40F2BAA56FA5F490055A2AF7E0
:100190005C936B6CF9676DC11BFCE0E40D47FEF5E9
:1001A00020E6B500D0ED902E030094357705008051
:1001B000841E080000204E0A000000C80C333333B0
:1001C000330F986E12831141EF8D2114893BE65550
:1001D00016CFFEE6DB18D1844B381BF77C1D901D33
:1001E000A4BBE424203284725E228100C9F124EC95
:1001F000A1E53D275265666572656E6369612030D1
:100200002C302C3130302C3130302E2E2E2E2E2E04
:1002100000436F6E736F6C612E2E2E2E2E2E2E2E9F
:100220002E2E2E2E2E2E2E2E2E2E2E2E003D3D3DEF
:100230003D3D3D3D3D3D3D3D3D3D3D3D3D3D3D3DEE
:100240003D3D3D3D3D3D3D3D3D3D3D3D3D3D3D0A11
:100250000056414C554520000A0023003D3D3D3DE0
:100260003D3D3D3D3D3D3D3D3D3D3D3D3D3D3D3DBE
:100270003D3D3D3D3D3D3D3D3D3D3D3D3D3D0A001E
:100280000A003D3D3D3D3D3D3D3D3D3D3D3D3D3D0E
:100290003D3D3D3D3D3D3D3D3D3D3D3D3D3D3D3D8E
:1002A0003D3D3D3D0A000A00707974686F6E202F55
:1002B000726F6F742F736572766963652E70790043
:1002C0000A2053656E7420456D61696C2066726FFB
:1002D0006D20507974686F6E2E2E2E0A007079741E
:1002E000686F6E202F726F6F742F69665F6D616922
:1002F0006C2E7079000A20506F7374204461746111
:10030000204D7953514C2E2E2E0A00707974686F4F
:100310006E202F726F6F742F706F737444617461ED
:100320002E707900206465766963652873292E0034
:10033000466F756E642000446F6E652E00466F75C3
:100340006E64206932632044657669636520416488
:1003500064726573733A20004932432041646472C9
:10036000657373205363616E6E65722E200A53634A
:10037000616E6E696E67202E2E2E2E2E2E2E2E2E44
:100380002E2E002E000A006D696E75746F730A00C0
:10039000496E74726F64757A6361206C6F73206D3F
:1003A000696E75746F732064652073657276696316
:1003B000696F0A003D3D3D3D3D3D3D3D3D3D3D3D7F
:1003C0003D3D3D3D3D3D3D3D3D3D3D3D3D3D3D3D5D
:1003D0003D3D3D3D3D3D0A002020202020202020A5
:1003E00020507265737320456E74657220746F209F
:1003F000457869740A0020202020202020202053E6
:100400006572766963652054696D650A003D3D3DFE
:100410003D3D3D3D3D3D3D3D3D3D3D3D3D3D3D3D0C
:100420003D3D3D3D3D3D3D3D3D3D3D3D3D3D3D0A2F
:100430000072657365742D6D6375007265626F6F10
:1004400074003D3D3D3D3D3D3D3D3D3D3D3D3D3DE2
:100450003D3D3D3D3D3D3D3D3D3D3D3D3D3D3D3DCC
:100460003D3D3D3D0A00436F6E736F6C61206465D6
:1004700020536572766963696F003D3D3D3D3D3DAA
:100480003D3D3D3D3D3D3D3D3D3D3D3D3D3D3D3D9C
:100490003D3D3D3D3D3D3D3D3D3D3D3D0A002E0048
:1004A00072756E2D6272696467650A000A000A003F
:1004B0000000000200090F0000030401000C00000E
:1004C000000000000000000000000000000000002C
:1004D000000000250028002B002E00310000000045
:1004E00000240027002A002D003000040404040426
:1004F00003040502020202040302020202060606C7
:100500000606060404020202040404080201104064
:10051000804010204080408008020401804020106C
:10052000020110801020404020080B00020202014E
:10053000000904000001020200000524001001056A
:100540002401010104240206052406000107058197
:100550000310004009040100020A00000007050220
:100560000240000007058302400000040309041252
:10057000010002EF0201404123418000010102031A
:100580000141726475696E6F204C4C430041726486
:1005900075696E6F2059756E0000B323772311249F
:1005A0001FBECFEFDAE0DEBFCDBF25E0A0E0B3E0B5
:1005B00001C01D92AF3CB207E1F713E0A0E0B1E04B
:1005C000E4EDF8E502C005900D92A030B107D9F72F
:1005D00012E0CEECD2E004C02197FE010E94142A62
:1005E000CD3CD107C9F70E94F8210C945D2C0C94E6
:1005F0000000089580E090E008956BE18EE595E0BD
:100600000E94B81287EB91E00C94A9216BE18EE572
:1006100095E00E94B8128BEB91E00C94A9216BE15C
:100620008EE595E00E94B81287EB91E00E94A92127
:100630006BE18EE595E00E94B8128BEB91E00E9491
:10064000A92181E192E00E94382184EF91E00C948D
:1006500038210F931F93CF93DF93CDB7DEB7CA55E1
:10066000D1090FB6F894DEBF0FBECDBF60919103E4
:10067000709192034AE0CE018B5A9F4F0E949E17C1
:100680006EEB71E0CE0101960E940B1867966EAD7D
:100690007FAD679789819A810E941420CE010196CF
:1006A0000E946917CE018B5A9F4F0E9469171C82C6
:1006B0001B8288EE93E0A0E0B0E08D839E83AF8341
:1006C000B88707E911E01A83098381ED94E09E87DA
:1006D0008D871A8A1B8A1C8A6DED72E0CE018B5AB7
:1006E0009F4F0E94CA17BE016B5A7F4FCE010196E1
:1006F0000E942912CE018B5A9F4F0E94691760EC0D
:1007000072E08EE595E00E9466181A830983CE0197
:1007100001960E940712C65ADF4F0FB6F894DEBF4B
:100720000FBECDBFDF91CF911F910F910895E09142
:100730002503F0912603EE0FFF1FE050FF4F80814D
:100740009181019711F40E942903E0912503F09112
:100750002603EE0FFF1FE050FF4F808191818A300A
:10076000910561F481E090E0918380838AEC91E0CF
:100770000E9420218CED91E00C9420210196918320
:1007800080830895CF92DF92EF92FF920F931F9391
:10079000CF93DF93CDB7DEB7CA55D1400FB6F894EB
:1007A000DEBF0FBECDBFCD5FDE4F19821882C350B2
:1007B000D14088EE93E0A0E0B0E0CB5FDE4F8883CD
:1007C0009983AA83BB83C550D14087E991E0CF5F6D
:1007D000DE4F99838883C150D14081ED94E0C35F9F
:1007E000DE4F99838883CD50D140CE5EDE4F188294
:1007F000C251D140CD5EDE4F1882C351D140CC5E94
:10080000DE4F1882C451D14068EA72E0CE010196F1
:100810000E94CA17BE016F5F7F4FCE018F5F9E4F50
:100820000E942912CE0101960E94691784E6CB5AD4
:10083000DE4F8883C555D140C12CDD24D394CE0131
:1008400001967C010CE010E02FED31E041E050E03A
:10085000BE016B5A7E4F81ED94E00E948A1E8F3F4D
:10086000910509F020F4F701E80FF91F1082BE018D
:100870006F5F7F4FCE018B5A9E4F0E940B18CE01A7
:100880008B5A9E4F0E949A16672B71F48CEE91E062
:100890000E9420218CED91E00E94202160E08DE0FB
:1008A0000E94E2180E94C203CE018B5A9E4F0E9402
:1008B000691787E991E0CF5FDE4F99838883C15044
:1008C000D140CE018F5F9E4F0E940712C65ADE4F65
:1008D0000FB6F894DEBF0FBECDBFDF91CF911F9151
:1008E0000F91FF90EF90DF90CF9008956F927F92DD
:1008F0008F929F92AF92BF92CF92DF92EF92FF9230
:100900000F931F93CF93DF93CDB7DEB768970FB6E2
:10091000F894DEBF0FBECDBF8CED94E00E940B11AA
:100920008111CBC06FE072E0CE0101960E940B18DE
:100930008CED94E00E94071286E090E00E942E2A3F
:100940008C01BE016F5F7F4F0E9402181093EC0470
:100950000093EB04CE0101960E94691764E172E0F6
:10096000CE0101960E940B18BE016F5F7F4F8CED88
:1009700094E00E942F10CE0101960E9469178CED21
:1009800094E00E94DC0F8CED94E00E940B11882310
:1009900039F064E670E080E090E00E944519F3CF02
:1009A0008CED94E00E94E01088C0CE0143960E9436
:1009B0008A2164E272E0CE0101960E940B188F89B1
:1009C000988D892B09F492C00B891C8969817A81E1
:1009D000C8010E94432C009709F488C07C01E01AEA
:1009E000F10ACE0101960E94691764E272E0CE011D
:1009F00001960E940B188F89988D2D813E818C0164
:100A0000021B130B2115310509F074C00FEF1FEF06
:100A1000CE0101960E946917970140E050E0BE01A7
:100A20006D5E7F4FCE010D960E942018A7014F5F8B
:100A30005F4F9801BE016D5E7F4FCE0107960E9409
:100A400020182F89388DA8014F5F5F4FBE016D5E62
:100A50007F4FCE0101960E942018CE010D960E9474
:100A60009A1670933A0360933903CE0107960E9459
:100A70009A167093380360933703809135039091F1
:100A800036039093170180931601CE0101960E94C0
:100A90009A167093360360933503CE0101960E9437
:100AA0006917CE0107960E946917CE010D960E9424
:100AB0006917CE0143960E9469178CED94E00E945D
:100AC00033118091EE04882309F440C069E272E09A
:100AD000CE0143960E940B180E948E1B97FD65CF96
:100AE000682FCE0143960E94D316F6CFEE24EA94E7
:100AF000FE2C77CF009709F489CF8217930708F46B
:100B000085CF0817190718F08C01015011098B883F
:100B10009C88A980BA80C40166246A9477247A9458
:100B20006401C00ED11EC816D90670F0B5010E942E
:100B3000432C009749F09C01281939090217130723
:100B400008F039010196EFCF830162CF20911601A1
:100B5000309117018091350390913603281739079A
:100B600009F44CC08091390390913A030A9724F418
:100B700086E292E00E94A9216091390370913A03C4
:100B8000072E000C880B990B97FF03C00E94D12100
:100B900003C04AE00E94492184E292E00E94A92118
:100BA00080913703909138030A9724F486E292E00B
:100BB0000E94A9216091370370913803072E000C21
:100BC000880B990B97FF03C00E94D12103C04AE014
:100BD0000E94492184E292E00E94A921809135037C
:100BE000909136030A9724F486E292E00E94A921AC
:100BF00080913503909136030E94761B68960FB65C
:100C0000F894DEBF0FBECDBFDF91CF911F910F9142
:100C1000FF90EF90DF90CF90BF90AF909F908F901C
:100C20007F906F90089561E08DE00E94E21864E685
:100C300070E080E090E00E94451960E08DE00E9445
:100C4000E21864E670E080E090E00C9445194F9261
:100C50005F926F927F928F929F92AF92BF92CF924C
:100C6000DF92EF92FF920F931F93CF93DF93CDB755
:100C7000DEB768970FB6F894DEBF0FBECDBF66EA49
:100C800072E0CE010D960E94CA176BEC74E0CE01A3
:100C900001960E940218BE016F5F7F4FCE0107963A
:100CA0000E940218BE01635F7F4FCE0107960E942B
:100CB00007170E948A21CE0107960E946917CE016C
:100CC00001960E946917CE010D960E94691762E88D
:100CD00072E08EE595E00E946618C12CD12C93E05D
:100CE000892E912C0E941306809133039091340336
:100CF000039721F4109234031092330300E410E0C0
:100D0000A0903303B0903403A114B10419F489E521
:100D100095E00DC081E0A816B10419F489E595E0CD
:100D20000FC0E2E0AE16B10429F484E595E00E941C
:100D3000B80F08C0F3E0AF16B10491F484E595E074
:100D40000E94940FBC01990F880B990B0E94AB274E
:100D500060932103709322038093230390932403D1
:100D600060912103709122038091230390912403C9
:100D70009B01AC010E940A2860931D0370931E031F
:100D800080931F03909320032091190330911A033D
:100D900040911B0350911C030E940029609319038A
:100DA00070931A0380931B0390931C030150110945
:100DB00009F0A6CF20E030E040E85CE30E940A287A
:100DC0002B013C0120E030E040E05FE30E940A2874
:100DD0007B018C01B0E0A0E0F0E0E0E02B2F3A2FA7
:100DE0004F2F5E2FB701C8010E94A4278823C9F0A6
:100DF0009701A801C301B2010E946C299B01AC01BB
:100E0000B701C8010E94002920E030E040E05FE324
:100E10000E940A28BE2DAF2DF02FE12F7B018C01FF
:100E2000DDCF20E030E040E05EE3B701C8010E9482
:100E30000A2820E030E040E950E40E940A2860934C
:100E40001503709316038093170390931803109261
:100E5000190310921A0310921B0310921C0320E036
:100E600030E048EC52E40E946C292B013C0168E21E
:100E700072E0CE0143960E940B184AE0B501CE0104
:100E80000D960E949E176AE272E0CE0101960E94C2
:100E90000B18BE016F5F7F4FCE0107960E940218AC
:100EA000BE01635F7F4FCE0107960E940717BE0108
:100EB0006D5E7F4F0E9407170E948A21CE01079620
:100EC0000E946917CE0101960E946917CE010D9606
:100ED0000E946917CE0143960E94691760E372E091
:100EE000CE0107960E940B1820E030E040EF52E45C
:100EF000C301B2010E940A28AB01BC0122E0CE016D
:100F000001960E946E17BE01695F7F4FCE01019668
:100F10000E9407170E948A21CE0101960E9469173C
:100F2000CE0107960E9469178EE292E00E94A921E5
:100F300067E372E0CE0107960E940B1822E0B3012E
:100F4000A201CE0101960E946E17BE01695F7F4F1C
:100F5000CE0101960E9407170E949B21CE010196A7
:100F60000E946917CE0107960E946917E09133032A
:100F7000F0913403EE0FFF1FEE0FFF1FE95DFC4FF2
:100F800040825182628273822AE037ED43E25CE361
:100F9000C301B2010E94A427181634F19092920363
:100FA00080929103C60108969093260380932503AF
:100FB0004AE0B601CE0107960E949E1766E572E0F0
:100FC000CE0101960E940B186F81788589819A81E4
:100FD0000E941420CE0101960E946917CE01079647
:100FE0000E9469170E94970322E0B301A201CE017B
:100FF00043960E946E1760913303709134034AE068
:10100000CE010D960E949E176DE372E0CE0101960F
:101010000E940B18BE016F5F7F4FCE0107960E94A2
:101020000218BE01635F7F4FCE0107960E9407172B
:101030006B897C89FC01808191810E941420CE0102
:1010400007960E946917CE0101960E946917CE018A
:101050000D960E946917CE0143960E9469178091F0
:1010600033039091340301969093340380933303B8
:10107000FFEFCF1ADF0A83E0C816D10409F032CEA1
:1010800068960FB6F894DEBF0FBECDBFDF91CF914B
:101090001F910F91FF90EF90DF90CF90BF90AF9096
:1010A0009F908F907F906F905F904F9008952F92B8
:1010B0003F924F925F926F927F928F929F92AF92E8
:1010C000BF92CF92DF92EF92FF920F931F93CF9335
:1010D000DF93CDB7DEB76A970FB6F894DEBF0FBEC9
:1010E000CDBF109214031092130360E872E0CE019A
:1010F0000F960E94CA176BEC74E08E010F5F1F4FB2
:10110000C8010E940218B801CE0109960E94021877
:10111000BE01615F7F4FCE0109960E9407170E94B2
:101120008A21CE0109960E946917C8010E94691799
:10113000CE010F960E9469176CE572E08EE595E08E
:101140000E946618E0903D03F0903E033701660C64
:10115000771CC30180509D4F2C01C12CD12CAA2497
:10116000A394B12C62E0262E312C80913F03909104
:101170004003E816F9060CF038C10E941306E0910E
:101180001303F0911403EE0FFF1FE65DFE4F61E0C5
:1011900080810E9458201092AA038093A90388237B
:1011A00031F083EB94E00E94410E809312036AE5D4
:1011B00072E0CE0145960E94CA176BEC74E0CE0136
:1011C00009960E940218BE01675F7F4FCE010F96FD
:1011D0000E940218BE016B5E7F4FCE010F960E94E7
:1011E00007174C014AE0B801C7010E94F424F80136
:1011F00001900020E9F73197AF01401B510BB80176
:10120000C4010E94A516811103C0C4010E94F516F5
:10121000C4010E948A21CE010F960E946917CE0157
:1012200009960E946917CE0145960E94691788E2C7
:1012300092E00E94A9219091120380913B0389239F
:1012400080931103F201EC0DFD1D811140C010923D
:10125000100311821082F601E60DF71DE050FF4FDA
:10126000B182A0824AE060E070E0CE0145960E9423
:101270009E174AE0B701CE010F960E949E1760E4C8
:1012800072E0C8010E940B18B801CE0109960E94B5
:101290000218BE01615F7F4FCE0109960E940717B9
:1012A0006D897E89FC01808191810E941420CE018C
:1012B00009960E946917C8010E946917CE010F960E
:1012C0000E946917CE0145960E94691748C081E0C7
:1012D00080931003B182A0824AE061E070E0CE0109
:1012E00045960E949E174AE0B701CE010F960E94D4
:1012F0009E1760E472E0C8010E940B18B801CE018D
:1013000009960E940218BE01615F7F4FCE010996C7
:101310000E9407176D897E89FC01808191810E945E
:101320001420CE0109960E946917C8010E9469170E
:10133000CE010F960E946917CE0145960E9469174B
:10134000F6E0EF16F1040CF071C0B0929203A09297
:101350009103F0922603E09225030E94970368E52B
:1013600072E0CE0145960E94CA176091100370E0AA
:101370004AE0CE010F960E949E1761E572E0C80117
:101380000E94CA17B801CE0109960E940218BE0138
:10139000615F7F4FCE0109960E940717BE016B5E09
:1013A0007F4F0E9407170E948A21CE0109960E9452
:1013B0006917C8010E946917CE010F960E9469172C
:1013C000CE0145960E94691780913B0390913C03A2
:1013D000880F991F90933C0380933B038FEFE81A8B
:1013E000F80A92E0C90ED11CC0CE0E949C206DE28A
:1013F00072E08EE595E00E9466186A960FB6F89442
:10140000DEBF0FBECDBFDF91CF911F910F91FF9037
:10141000EF90DF90CF90BF90AF909F908F907F9094
:101420006F905F904F903F902F900895309292036D
:10143000209291038ECF2F923F924F925F926F92A4
:101440007F928F929F92AF92BF92CF92DF92EF9254
:10145000FF920F931F93CF93DF93CDB7DEB7C156A3
:10146000D1090FB6F894DEBF0FBECDBF0E94FD02BA
:101470000E9406030E94C2030E9476046EE475E097
:101480008BEC94E00E94521706E010E010934003AA
:1014900000933F0310923E0310923D0381E090E0E1
:1014A00090933C0380933B030E94570862E475E0ED
:1014B0008BEC94E00E94521788E090E090934003F8
:1014C00080933F0310933E0300933D0380E490E03C
:1014D00090933C0380933B030E9457086CE375E0B4
:1014E0008BEC94E00E9452170E9427061C821B82FC
:1014F00088EE93E0A0E0B0E08D839E83AF83B88751
:1015000007E911E01A83098381ED94E09E878D87B6
:101510001A8A1B8A1C8A6BE073E0CE018B5A9F4F9C
:101520000E94CA17BE016B5A7F4FCE0101960E94DE
:101530002912CE018B5A9F4F0E94691765EF72E006
:101540008EE595E00E9466181A830983CE01019604
:101550000E940712109292031092910328E1C22E6A
:10156000D12C38E0632E712C46E0E42EF12C64EF90
:1015700071E080E090E00E9445196EE974E08EE52C
:1015800095E00E94661861E08DE00E94E21864EF29
:1015900071E080E090E00E94451960E08DE00E94DB
:1015A000E2188EE595E00E94D8118A30F1F021E032
:1015B000C21AD108E1F6CF59DF4F0FB6F894DEBF5B
:1015C0000FBECDBFDF91CF911F910F91FF90EF9094
:1015D000DF90CF90BF90AF909F908F907F906F9053
:1015E0005F904F903F902F9008950E94FD020E94BF
:1015F00006030E9476046AE774E08EE595E00E9497
:10160000661886E694E00E94382162E474E08EE574
:1016100095E00E94661868EE73E080E090E00E941A
:1016200045198EE595E00E94D811A0968FAFA0973E
:1016300095E0292E312C8EE595E00E94981180913D
:101640006C05882309F4D3C28EE595E00E94D81179
:101650008A3009F0C7C282E492E00E946A1E8823A1
:1016600041F00E940F0369E272E085EC94E00E9471
:101670003B1786E492E00E946A1E882341F069E2EB
:1016800072E085EC94E00E943B170E941B0A8BE4F9
:1016900092E00E946A1E882381F10E940F031C823F
:1016A0001B8288EE93E0A0E0B0E08D839E83AF8341
:1016B000B88707E911E01A83098381ED94E09E87DA
:1016C0008D871A8A1B8A1C8A6BE374E0CE018B5AC1
:1016D0009F4F0E94CA17BE016B5A7F4FCE010196E1
:1016E0000E942912CE018B5A9F4F0E9469171A83BC
:1016F0000983CE0101960E94071282E592E00E94C2
:101700006A1E882371F11C821B8288EE93E0A0E0A0
:10171000B0E08D839E83AF83B88707E911E01A8319
:10172000098381ED94E09E878D871A8A1B8A1C8A23
:1017300061E374E0CE018B5A9F4F0E94CA17BE012D
:101740006B5A7F4FCE0101960E942912CE018B5A0F
:101750009F4F0E9469171A830983CE0101960E9448
:10176000071288E592E00E946A1E882309F48FC060
:1017700088E593E00E9438210E94AB21812C912CB6
:1017800054018394512C442443944092AB0380929F
:10179000CD031092AC031092CE030E949C208111C5
:1017A00051C06DE373E08EE595E00E9466184AE053
:1017B000C501B4010E9449218EE592E00E94A92151
:1017C00040E1C501B4010E94492184E692E00E94F3
:1017D000A9218401F401B097E830F10570F4EA5AC8
:1017E000FF4F0C94142A88E495E005C082E495E04C
:1017F00002C080E395E00E949B21F801F897E83051
:10180000F10570F4E25AFF4F0C94142A8CE395E032
:1018100005C086E395E002C080E395E00E949B212D
:10182000F801E854F109E830F10558F4EA59FF4F9E
:101830000C94142A8CE395E002C080E395E00E94AA
:101840009B2153948FEF881A980AA80AB80A98E740
:1018500089169104A104B10409F097CF87E393E0BE
:101860000E94382180E393E00E943821652D70E0CA
:1018700080E090E04AE00E94492184E293E00E94E7
:10188000382169E272E085EC94E00E943B1787E61C
:1018900092E00E946A1E882341F069E272E085ECC2
:1018A00094E00E943B170E941B0A8EE792E00E9480
:1018B0006A1E882341F00E94760469E272E085EC9A
:1018C00094E00E943B178CE692E00E946A1E8823F7
:1018D00061F030929203209291030E94290369E201
:1018E00072E085EC94E00E943B1782E792E00E9450
:1018F0006A1E882309F4B9C00E9476046DE074E082
:101900008EE595E00E94661866EF73E08EE595E03F
:101910000E94661868ED73E08EE595E00E946618F7
:1019200064EB73E08EE595E00E94661860E973E071
:101930008EE595E00E9466188EE595E00E94D8112C
:1019400089E292E0A1968FAFA197BC0185EC94E06B
:101950000E943B178EE595E00E94981180916C05DE
:10196000882309F476C08EE595E00E94D811182FDF
:10197000082E000C990BC0970A9728F4612F8FEB63
:1019800094E00E94D3161A3009F05EC08FEB94E009
:101990000E949A166F966CAF7DAF8EAF9FAF6F9718
:1019A00067E873E08EE595E00E9466186D968EAD4F
:1019B0009FAD6D970E94761B69E272E08FEB94E019
:1019C0000E943B172CE36D968EAD9FAD6D97289FBF
:1019D0002001299F500C112400E010E0041515058A
:1019E00054F568EE73E080E090E00E944519C8016C
:1019F0006CE370E00E94DE29892B31F465E873E026
:101A00008EE595E00E94661863E873E08EE595E048
:101A10000E9466188EE595E00E94D8118A3041F444
:101A200069E272E085EC94E00E943B170E941B0A79
:101A30000F5F1F4FD3CF69E272E085EC94E00E9404
:101A40003B170E941B0A05C0612F85EC94E00E94A1
:101A5000D316A1962FADA1972A3009F07BCF69E26A
:101A600072E085EC94E00E943B178AE792E00E94C6
:101A70006A1E882309F451C069E272E085EC94E0A3
:101A80000E943B170E94FD020E9406036EE475E06F
:101A90008BEC94E00E945217F0924003E0923F03D7
:101AA00010923E0310923D0381E090E090933C033E
:101AB00080933B030E94570862E475E08BEC94E04E
:101AC0000E9452177092400360923F03F0923E03CF
:101AD000E0923D0380E490E090933C0380933B03CD
:101AE0000E9457086CE375E08BEC94E00E9452175B
:101AF0000E9427068EE595E00E94D811A2968FAF2E
:101B0000A2970E940603A2968FADA2978A3009F091
:101B1000BDCF0E94FD020E940F0383E892E00E9465
:101B20006A1E8823E1F06EE475E08BEC94E00E947D
:101B30005217F0924003E0923F0310923E0310923E
:101B40003D0381E090E090933C0380933B030E942F
:101B5000570869E272E085EC94E00E943B178AE83E
:101B600092E00E946A1E8823E1F062E475E08BEC4B
:101B700094E00E9452177092400360923F03F092EB
:101B80003E03E0923D0380E490E090933C03809319
:101B90003B030E94570869E272E085EC94E00E94E2
:101BA0003B1781E992E00E946A1E882371F06CE382
:101BB00075E08BEC94E00E9452170E94270669E2C0
:101BC00072E085EC94E00E943B1780E090E00E9478
:101BD0006A1E81110CC069E272E085EC94E00E94FB
:101BE0003B1705C0682F85EC94E00E94D316A096A1
:101BF0002FADA0972A3009F01ECDD9CC089585EDE0
:101C00008093BC008091BC0084FDFCCF1092150431
:101C1000089540916303262F30E0240F311D2132B7
:101C20003105DCF4209115042430C9F4FC0180E076
:101C300090E0861758F4309163032191DC01AF5B8B
:101C4000BC4FA30FB11D2C930196F3CF809163037A
:101C5000680F6093630380E0089581E0089582E057
:101C600008950895E091AA038091A903E81730F43C
:101C7000F0E0E153FC4F808190E008958FEF9FEFFB
:101C800008959091AA038091A903981750F4E92F21
:101C9000F0E0E153FC4F208130E09F5F9093AA0376
:101CA00002C02FEF3FEFC90108958091A90390E092
:101CB0002091AA03821B91090895CF92DF92EF929F
:101CC000FF920F931F93CF93DF937C01262F972FC3
:101CD0008A018091AB03882391F0C62FD72F6E0124
:101CE000C40ED51ECC15DD0571F06991D701ED91BB
:101CF000FC910190F081E02DC7010995F3CF642F8D
:101D0000822F0E94090EC801DF91CF911F910F9180
:101D1000FF90EF90DF90CF900895CF93DF931F92C5
:101D2000CDB7DEB769832091AB032223D1F0209198
:101D3000CE03203240F021E030E0FC0133832283E7
:101D400080E090E015C08091AC03E82FF0E0E3550F
:101D5000FC4F998190838F5F8093AC038093CE0377
:101D600005C061E0CE0101960E94090E81E090E07D
:101D70000F90DF91CF9108951F93CF93DF93182F8A
:101D800081E08093AB031093CD031092AC031092CB
:101D9000CE0360E083EB94E00E948D0E0E949C20B5
:101DA00062E0812F0E9458201092AA038093A90319
:101DB00083EB94E00E94410E182F83EB94E00E9485
:101DC000410ED12F20E0C22F9E01282BC901DF91A7
:101DD000CF911F9108958F929F92AF92BF92CF9211
:101DE000DF92EF92FF920F931F93CF93DF931F9297
:101DF000CDB7DEB75C019B014A01DC0152968C91A4
:101E0000811105C07B018B01040F151F31C080E5D6
:101E10008983C12CD12CE12CF12C8A0141E050E0C6
:101E2000BE016F5F7F4FF501848595850E948A1EF4
:101E300022C0D5015596ED91FC91569753968C9101
:101E4000539791E0980F53969C93D7019D917D01F4
:101E5000E80FF11D9083F50193898489981308C0D8
:101E60000190F081E02D0680F781E02DC5010995F4
:101E7000E016F106F1F6C4010F90DF91CF911F91AA
:101E80000F91FF90EF90DF90CF90BF90AF909F9019
:101E90008F9008951F920F920FB60F9211242F93D7
:101EA0003F938F939F93AF93BF93809189039091BA
:101EB0008A03A0918B03B0918C033091880323E0B7
:101EC000230F2D3720F40196A11DB11D05C026E872
:101ED000230F0296A11DB11D2093880380938903CF
:101EE00090938A03A0938B03B0938C0380918D030E
:101EF00090918E03A0918F03B09190030196A11D44
:101F0000B11D80938D0390938E03A0938F03B093A4
:101F10009003BF91AF919F918F913F912F910F901F
:101F20000FBE0F901F901895CF93DF93EC016B813C
:101F30007C816368716B88810E94F920698170E0FF
:101F400080E090E00E94451988810E94BC0E2A81A1
:101F5000022E02C0969587950A94E2F7222329F073
:101F6000811528E0920708F0906FDF91CF910895D6
:101F7000CF93DF93EC016B817C816368716888810A
:101F80000E94F920698170E080E090E00E9445198C
:101F900088810E94BC0E2A81022E02C096958795E8
:101FA0000A94E2F7222329F0811528E0920708F02D
:101FB000906FDF91CF910895AF92BF92CF92DF9251
:101FC000EF92FF920F931F93CF93DF9300D01F9256
:101FD000CDB7DEB75C0182E58B83D5011F96ED910D
:101FE000FC915097048115812081318182E0C82EB7
:101FF000D12CFE0131967F0141E050E0BE016D5FC2
:102000007F4F1C968D919C911D970E948A1E8A81FC
:10201000D5011E968C931E971F960D911C9150977B
:102020000115110531F0C8010E946917C8010E940D
:10203000C32AF501108A17868981811102C081E0C7
:10204000818B0F900F900F90DF91CF911F910F9187
:10205000FF90EF90DF90CF90BF90AF9008950F93D7
:102060001F93CF93DF93EC018B0167E972E08F85BB
:1020700098890E94E616F80144815581608171813A
:102080008F859889DF91CF911F910F910C94A516A0
:10209000CF93DF93EC018A89811108C08D899E89D5
:1020A000009711F00E94C32A81E08A8B8889998960
:1020B000009721F00E94C32A198A188ADF91CF91D4
:1020C0000895CF93DF93EC018D819E81DC01ED912A
:1020D000FC910084F185E02D09951816190654F439
:1020E0008D819E81DC01ED91FC910284F385E02DD0
:1020F0000995EACFDF91CF9108958F929F92AF9289
:10210000BF92CF92DF92EF92FF92CF93DF93EC01D9
:102110006B010E947F194B015C01E12CF12C8D8138
:102120009E81DC01ED91FC910284F385E02D0995FF
:1021300097FF0FC00E947F19DC01CB018819990914
:10214000AA09BB098C159D05AE05BF0540F38FEFAD
:102150009FEFDF91CF91FF90EF90DF90CF90BF90F6
:10216000AF909F908F900895FC01238134812627A2
:10217000022E2295207F2025032E322F22952F70AC
:102180000226269532272327220F220F220F2025F1
:10219000348323830895CF92DF92EF92FF920F93BF
:1021A0001F936801790100E010E020E030E00E9418
:1021B0008A1E1F910F91FF90EF90DF90CF900895AE
:1021C0000F931F93CF93DF9300D000D0CDB7DEB72E
:1021D00027E52B83FC0126852C8302E010E09E017D
:1021E0002F5F3F4F42E050E0BE016D5F7F4F84851F
:1021F00095850E94CB10898190E0982F88272A81AD
:10220000820F911D0F900F900F900F90DF91CF9143
:102210001F910F9108950F931F93CF93DF9300D0D9
:102220001F92CDB7DEB722E72983FC0126852A83DA
:1022300001E010E09E012D5F3F4F42E050E0BE0103
:102240006F5F7F4F848595850E94CB1081E09B81D5
:10225000913009F080E00F900F900F90DF91CF91B7
:102260001F910F910895EF92FF920F931F93CF93B9
:10227000DF9300D01F92CDB7DEB7FC012289211178
:1022800018C07C01138A8FE4898380E48B83868560
:102290008A839F012C5E3F4F00E410E043E050E052
:1022A000BE016F5F7F4F848595850E94CB10F7013B
:1022B000828B0F900F900F90DF91CF911F910F9114
:1022C000FF90EF900895CF93DF93EC010E943311BC
:1022D0008A89882331F08B89C80FD11D8C8990E0C1
:1022E00002C08FEF9FEFDF91CF910895CF93DF93DF
:1022F000EC010E9433118A89882359F081508A8B1E
:102300008B8991E0980F9B8BC80FD11D8C8990E031
:1023100002C08FEF9FEFDF91CF910895CF93DF93AE
:10232000EC010E9433118A8990E0DF91CF910895EA
:10233000EF92FF920F931F93CF93DF9300D0CDB70F
:10234000DEB7FC012685211115C07C01178680E7C8
:10235000898380E28A832089318900E210E042E0AB
:1023600050E0BE016F5F7F4F848595850E94CB1042
:10237000F70186870F900F90DF91CF911F910F91FA
:10238000FF90EF900895CF93DF93EC010E94981196
:102390008E85882341F08F85E889F989E80FF11D42
:1023A000808190E002C08FEF9FEFDF91CF91089581
:1023B000CF93DF93EC010E9498118E85882369F0FA
:1023C00081508E87E889F9898F8591E0980F9F87E2
:1023D000E80FF11D808190E002C08FEF9FEFDF9149
:1023E000CF910895CF93DF93EC010E9498118E85D1
:1023F00090E0DF91CF9108950F931F9300E010E0DC
:1024000020E030E00E94CB101F910F9108950F93B0
:102410001F93CF93DF9300D0CDB7DEB78C01FC01C3
:102420008189882369F087E7898386858A8342E0EA
:1024300050E0BE016F5F7F4F848595850E94FC113F
:10244000F801118A0F900F90DF91CF911F910F919A
:102450000895CF92DF92EF92FF920F931F93CF9345
:10246000DF9300D000D000D0CDB7DEB78C016B0178
:1024700069E972E0CE0101960E940B18C8010E9422
:10248000071286E090E00E942E2A7C01BE016F5F59
:102490007F4F0E940218F801F08AE786CE0101966C
:1024A0000E94691762EA72E0CE0101960E940B1841
:1024B000BE016F5F7F4FC8010E942F10CE010196B1
:1024C0000E946917B601C8010E942F10C8010E941E
:1024D000DC0FC8010E940B11882339F064E670E01C
:1024E00080E090E00E944519F4CFC8010E94E010FE
:1024F00026960FB6F894DEBF0FBECDBFDF91CF9109
:102500001F910F91FF90EF90DF90CF900895CF93A0
:10251000DF9300D01F92CDB7DEB729E42983FC01F9
:1025200026852A836B8343E050E0BE016F5F7F4FB7
:10253000848595850E94FC1181E090E00F900F90BA
:102540000F90DF91CF910895CF93DF93FC01228903
:1025500021110BC0EC01438950E06589768984859F
:1025600095850E94FC1181E08B8BDF91CF910895BE
:10257000CF93DF9300D0CDB7DEB7DC0152968C91BC
:102580005297882379F080E589836A8342E050E09E
:10259000BE016F5F7F4F1C968D919C911D970E948D
:1025A000FC111FC05596ED91FC91569753968C9156
:1025B000539791E0980F53969C935397E80FF11D12
:1025C000608353969C91539754968C91549798138B
:1025D00008C0ED91FC9111970680F781E02DCD01A7
:1025E000099581E090E00F900F90DF91CF910895D1
:1025F000BF92CF92DF92EF92FF920F931F93CF93F0
:10260000DF93CDB7DEB72E970FB6F894DEBF0FBEBF
:10261000CDBF7C01C7010E94611068EE73E080E0CD
:1026200090E00E944519D70115968D919C911697BF
:10263000DC01ED91FC910084F185E02D09951816DF
:10264000190644F385E0D82ECC24C39492E3B92E26
:10265000EEE2F1E0DE0111968D2D01900D928A954A
:10266000E1F7F701C08645E050E0BE016F5F7F4FA4
:10267000C7010E94FC11D70115968D919C91169768
:10268000DC01ED91FC910190F081E02D63E0099572
:102690006AEF70E080E090E00E9445196EEA74E015
:1026A000F701858196810E9466186AEF70E080E0EC
:1026B00090E00E9445196CEA74E0D70115968D915F
:1026C0009C9116970E94661864EF71E080E090E09C
:1026D0000E94451960EA74E0F701858196810E94A5
:1026E000661864EF71E080E090E00E944519C70130
:1026F0000E946110E3E3F1E0DE0116968D2D01905A
:102700000D928A95E1F7D7011896BC9204E010E08B
:102710009E01255F3F4F45E050E0BE016A5F7F4F5D
:10272000C7010E94CB108F3FBFEF9B0739F468EEC3
:1027300073E080E090E00E9445198ACF2B8521113B
:10274000FFCF049701F52C8530E02053310984E652
:10275000829FA001839F500D11242D8530E02053CE
:1027600031096AE0629FC001639F900D1124840FBC
:10277000951F2E8530E020533109820F931FF701FA
:102780009283818307C084E690E0D70112969C93E0
:102790008E93119782E3F70180872E960FB6F894F7
:1027A000DEBF0FBECDBFDF91CF911F910F91FF9084
:1027B000EF90DF90CF90BF9008951F920F920FB6C9
:1027C0000F9211242F933F934F935F936F937F93B7
:1027D0008F939F93AF93BF93EF93FF938091B90033
:1027E000887F803609F49CC068F5883209F45BC0A4
:1027F00090F4803109F454C038F4882309F4F6C009
:10280000883009F44DC0F6C0883109F44CC08032DC
:1028100009F45DC0EFC0803409F468C048F4803327
:1028200009F455C0883309F0E5C080931304D8C07B
:10283000803509F44FC0883509F45DC0883409F04B
:10284000D9C0D6C0883909F4C7C0A8F4883709F4BC
:1028500067C038F4883609F463C0803709F460C073
:10286000C9C0883809F4B8C0803909F45FC080381D
:1028700009F0C0C05BC0803B09F486C038F4803AE0
:1028800009F466C0883A09F47FC0B4C0803C09F4FA
:10289000A7C0883C09F4A4C0883B09F48AC0AAC038
:1028A0008091100410C09091120480911104981727
:1028B00070F5E091120481E08E0F80931204F0E035
:1028C000E151FC4F80818093BB0085EC86C08093F2
:1028D00013048EC0E091120481E08E0F80931204E5
:1028E0008091BB00F0E0E151FC4F80839091120495
:1028F000809111046EC0E091120481E08E0F8093EC
:1029000012048091BB00F0E0E151FC4F8083809184
:10291000140481116DC081E080930F0484EA61C0CA
:1029200083E08093150410928703CFCF80918703B3
:10293000803208F051C0E091870381E08E0F8093D0
:1029400087038091BB00F0E0E959FC4F8083BDCF45
:1029500085EC8093BC00109215048091870380322F
:1029600030F4E0918703F0E0E959FC4F1082609168
:10297000870370E0E0916503F091660387E693E0DA
:1029800009951092870336C084E080931504109255
:10299000640310926303E0916103F091620309956F
:1029A00080916303811105C081E0809363031092DD
:1029B0004103E091640381E08E0F80936403F0E0B3
:1029C000EF5BFC4F80818093BB009091640380910A
:1029D0006303981708F479CF85E88093BC000AC098
:1029E00085EC8093BC001092150404C0109213046F
:1029F0000E94FF0DFF91EF91BF91AF919F918F9139
:102A00007F916F915F914F913F912F910F900FBEEA
:102A10000F901F901895CF92DF92EF92FF920F9335
:102A20001F93CF93DF936C017A018B01C0E0D0E05C
:102A3000CE15DF0589F0D8016D918D01D601ED919C
:102A4000FC910190F081E02DC6010995892B11F4CC
:102A50007E0102C02196ECCFC701DF91CF911F917B
:102A60000F91FF90EF90DF90CF900895FC01538D70
:102A7000448D252F30E0842F90E0821B930B541758
:102A800010F0CF96089501970895FC01918D828DE5
:102A9000981761F0828DDF01A80FB11D5D968C91B2
:102AA000928D9F5F9F73928F90E008958FEF9FEFBD
:102AB0000895FC01918D828D981731F0828DE80F79
:102AC000F11D858D90E008958FEF9FEF0895FC0133
:102AD000918D228D892F90E0805C9F4F821B910900
:102AE0008F739927089586E194E00E94671521E08D
:102AF000892B09F420E0822F0895FC01848DDF01E9
:102B0000A80FB11DA35ABF4F2C91848D90E0019660
:102B10008F739927848FA689B7892C93A089B1894F
:102B20008C9180648C93938D848D981306C0028859
:102B3000F389E02D80818F7D80830895EF92FF924D
:102B40000F931F93CF93DF93EC0181E0888F9B8DD0
:102B50008C8D981305C0E889F989808185FD24C092
:102B6000F62E0B8D10E00F5F1F4F0F731127E02E15
:102B70008C8DE8120CC00FB607FCFACFE889F989F2
:102B8000808185FFF5CFCE010E947D15F1CF8B8D21
:102B9000FE01E80FF11DE35AFF4FF0820B8FEA8927
:102BA000FB898081806207C0EE89FF896083E889A4
:102BB000F98980818064808381E090E0DF91CF910A
:102BC0001F910F91FF90EF900895CF93DF93EC0149
:102BD000888D8823C9F0EA89FB89808185FD05C03D
:102BE000A889B9898C9186FD0FC00FB607FCF5CF77
:102BF000808185FFF2CFA889B9898C9185FFEDCFBF
:102C0000CE010E947D15E7CFDF91CF91089580E03E
:102C100090E0892B29F00E94731581110C9400001B
:102C200008953FB7F89480918D0390918E03A09101
:102C30008F03B091900326B5A89B05C02F3F19F0D4
:102C40000196A11DB11D3FBFBA2FA92F982F88272C
:102C5000820F911DA11DB11DBC01CD0142E0660F87
:102C6000771F881F991F4A95D1F708950E94252C38
:102C70000F931F93CF93DF93EC0188819981009785
:102C800029F02A813B812617370788F48B016F5F73
:102C90007F4F0E945B2B009761F0998388831B8391
:102CA0000A832C813D81232B11F4FC01108281E0E9
:102CB00001C080E0DF91CF911F910F910895409165
:102CC00095035091960320919303309194034217FA
:102CD0005307B4F49091E8009570E1F39091E80007
:102CE00092FD19C08093F100809195039091960315
:102CF00001968F739927892B19F48EEF8093E80042
:102D000080919503909196030196909396038093FA
:102D1000950381E0089580E00895615030F020919E
:102D2000F100FC0120830196F8CF289884E6809377
:102D30009A030895FC0180819181009711F00C9411
:102D4000B22460E070E0CB010895EF92FF920F9300
:102D50001F93CF93DF93FC012481358161157105A9
:102D600011F480E019C041155105A9F07B01EC0177
:102D70008A01020F131FB8010E943816882389F3B5
:102D8000288139818C819D81B701820F931F0E9418
:102D90003C2C1D830C8381E0DF91CF911F910F911B
:102DA000FF90EF900895CF93DF9300D0CDB7DEB7BB
:102DB00069831A8241E050E0BE016F5F7F4F0E943D
:102DC000A5160F900F90DF91CF91089561157105B1
:102DD00051F0FB0101900020E9F73197AF01461B4C
:102DE000570B0C94A51680E00895CF93DF93EC0168
:102DF00088819981009711F00E94C32A1982188254
:102E00001D821C821B821A82DF91CF910895CF937D
:102E1000DF93EC01FB0144815581608171810E9447
:102E2000A516811103C0CE010E94F516CE01DF91D7
:102E3000CF910895EF92FF920F931F93CF93DF935B
:102E4000EC017B018A01BA010E943816811104C08D
:102E5000CE010E94F51607C01D830C83B70188813F
:102E600099810E943C2CCE01DF91CF911F910F914F
:102E7000FF90EF900895CF93DF93EC0161157105FA
:102E800059F0FB0101900020E9F73197AF01461B93
:102E9000570B0E941A1702C00E94F516CE01DF914F
:102EA000CF910895CF93DF93EC01FB01861797072D
:102EB00061F0608171816115710529F0448155814E
:102EC0000E941A1702C00E94F516CE01DF91CF9121
:102ED0000895FC01808191810C94C32AEF92FF92A6
:102EE0000F931F93CF93DF93CDB7DEB7A1970FB6A4
:102EF000F894DEBF0FBECDBF7C01CB01BA01F70154
:102F000011821082138212821582148242E0420FD3
:102F10008E010F5F1F4F0E949224BC01C7010E94C7
:102F20003B17A1960FB6F894DEBF0FBECDBFDF9161
:102F3000CF911F910F91FF90EF9008950F931F93E2
:102F4000CF93DF93CDB7DEB762970FB6F894DEBFAD
:102F50000FBECDBF8C01CB01F8011182108213820C
:102F600012821582148250E0BE016F5F7F4F0E9473
:102F7000E924BE016F5F7F4FC8010E943B17629634
:102F80000FB6F894DEBF0FBECDBFDF91CF911F917A
:102F90000F910895EF92FF920F931F93CF93DF93BA
:102FA000EC01198218821B821A821D821C82611513
:102FB000710509F18B01CB010E94E0247C01BC0169
:102FC000CE010E943816811109C0CE01DF91CF9148
:102FD0001F910F91FF90EF900C94F516FD82EC82FB
:102FE000B80188819981DF91CF911F910F91FF9056
:102FF000EF900C94D924DF91CF911F910F91FF9006
:10300000EF900895FC0111821082138212821582C2
:1030100014820C945217FC011182108213821282C6
:10302000158214826115710551F0FB010190002099
:10303000E9F73197AF01461B570B0C941A17089507
:10304000BF92CF92DF92EF92FF920F931F93CF9395
:10305000DF937C016B018A01E9012417350720F415
:10306000812F8901C42FD82F69E272E0C7010E9425
:103070000B18D60114968D919C9115970817190776
:10308000D0F48C179D0708F4EC01D601ED91FC916A
:103090001197EC0FFD1FB08010824D915C91BA0129
:1030A000600F711FC7010E943B17D601ED91FC9183
:1030B000EC0FFD1FB082C701DF91CF911F910F91DF
:1030C000FF90EF90DF90CF90BF900895EF92FF9226
:1030D0000F931F93CF93DF938C017B01C0E0D0E06F
:1030E000F701EC0FFD1F6491662361F0D801ED91AB
:1030F000FC910190F081E02DC8010995892B11F018
:103100002196EECFCE01DF91CF911F910F91FF90CD
:10311000EF9008951F920F920FB60F9211242F93E4
:103120003F934F935F936F937F938F939F93AF934F
:10313000BF93EF93FF9386E194E00E947D15FF918A
:10314000EF91BF91AF919F918F917F916F915F911F
:103150004F913F912F910F900FBE0F901F90189598
:103160001F920F920FB60F9211242F938F939F935C
:10317000EF93FF93E0912604F09127048081E09182
:103180002C04F0912D0482FD12C0908180912F04B7
:103190008F5F8F7320913004821751F0E0912F04DC
:1031A000F0E0EA5EFB4F958F80932F0401C0808191
:1031B000FF91EF919F918F912F910F900FBE0F90E4
:1031C0001F901895362F90E0FC01E055FB4F44917D
:1031D000FC01E65FFA4F2491FC01E551FB4F84911D
:1031E000882309F451C04423E1F150E0FA013197FA
:1031F000EF30F105B0F5E259FF4F0C94142A90918D
:1032000080009F7707C0909180009F7D03C09091C0
:103210008000977F9093800024C094B59F7702C070
:1032200094B59F7D94BD1DC0909190009F7707C07D
:10323000909190009F7D03C090919000977F909314
:1032400090000FC09091C0009F7703C09091C00084
:103250009F7D9093C00005C09091C200977F90938E
:10326000C200E82FF0E0EE0FFF1FE153FB4FA591E6
:10327000B4918FB7F894EC91311103C020952E23AF
:1032800001C02E2B2C938FBF08958F929F92AF92E7
:10329000BF92CF92DF92EF92FF926B017C010E946E
:1032A00011164B015C01C114D104E104F104F1F0E9
:1032B0000E941116DC01CB0188199909AA09BB09E2
:1032C000883E9340A105B10570F321E0C21AD108F0
:1032D000E108F10888EE880E83E0981EA11CB11C5D
:1032E000C114D104E104F10419F7DDCFFF90EF9090
:1032F000DF90CF90BF90AF909F908F9008952FB7A1
:10330000F8946091890370918A0380918B03909166
:103310008C032FBF0895FC0180919B03811103C092
:103320008FEF9FEF08959FB7F89482E08093E900B4
:103330002091F20030E01216130614F421E030E080
:103340002115310559F0289884E680939A038091DD
:10335000F10080838091F200882319F09FBFC9019A
:1033600008958BE68093E800F9CF2FB7F89483E0B7
:103370008093E9009091E800892F807295FF04C046
:103380009091F20080E4891B2FBF08958091A103E2
:1033900081110DC082E080939D0384E080939E03A1
:1033A0001092A00310929F0381E08093A1038DE906
:1033B00093E00895CF93DF931F92CDB7DEB7698373
:1033C000DC01ED91FC910280F381E02D41E050E0C1
:1033D000BE016F5F7F4F09950F90DF91CF910895E8
:1033E00083E08093E9008091F200882319F08AE35A
:1033F0008093E80008950E94B51990E00895CF9356
:10340000DF931F92CDB7DEB7FC018485958597FDCC
:1034100005C02FEF3FEF358724870BC0CE01019603
:103420000E948B19019719F4898190E002C08FEFF7
:103430009FEF0F90DF91CF9108950F931F93CF933C
:10344000DF931F92CDB7DEB78C01FC018485958593
:1034500097FF0EC0CE0101960E948B19019719F4B7
:10346000298130E002C02FEF3FEFF8013587248734
:10347000F801848595850F90DF91CF911F910F9171
:103480000895FC018485958597FD0BC09FB7F8943E
:1034900082E08093E9008091F2009FBF90E0019666
:1034A00008959FB7F89482E08093E9008091F2003C
:1034B0009FBF90E008958F929F92AF92BF92CF925C
:1034C000DF92EF92FF920F931F93CF93DF935C01F4
:1034D0006B017A0180912301882309F45BC08091FC
:1034E0009B03882309F456C08091990380FF05C08F
:1034F0008091E00082608093E000E70110E00AEF35
:1035000083E0882E9AE3992E2097D9F10E94B5196D
:1035100081110AC0015009F43DC061E070E080E013
:1035200090E00E944519F0CF282F30E0C217D30752
:103530000CF48C2F4FB7F8948092E9009091E8003A
:1035400095FF1DC0282F30E0C21BD30BF601982F2A
:10355000915020F081918093F100FACFC20ED31EDA
:10356000112319F09092E80009C08091E80085FDD0
:1035700006C09092E80011E0209709F010E04FBFDC
:10358000C3CF1111C3CF5D9884E680939C031E14B2
:103590001F0444F081E090E0F5019383828380E092
:1035A00090E001C0C701DF91CF911F910F91FF9073
:1035B000EF90DF90CF90BF90AF909F908F90089545
:1035C000CF92DF92EF92FF920F931F93CF93DF93EF
:1035D0001F92CDB7DEB7182F062FE42E862F880F47
:1035E0008E5F99830E945F1683E00E945F16F12E22
:1035F000C12E9981D92E8C2D8F19801798F4F60140
:10360000E7FE02C0849101C080810E945F16182FDE
:1036100080E00E945F168123FFEFCF1ADF0A81113D
:10362000EACF01C081E00F90DF91CF911F910F9100
:10363000FF90EF90DF90CF900895DF92EF92FF928E
:103640000F931F93CF93DF93D82E8A017B01E40E53
:10365000F51EEB01CE15DF0571F0D7FE03C0FE01AC
:10366000849101C088810E945F1621968111F2CF5A
:103670008FEF9FEF01C0C801DF91CF911F910F9194
:10368000FF90EF90DF9008950F931F93CF93DF93F8
:103690001F92CDB7DEB782E0898342E450E069E251
:1036A00075E080E80E941D1B0E94C619DC0112967D
:1036B0000D911C9113970115110569F0D801ED9139
:1036C000FC910280F381E02DBE016F5F7F4FC80146
:1036D000099597FF07C089810F90DF91CF911F91C6
:1036E0000F910895F80100851185E5CFCF93DF9301
:1036F000BC01990F880B990B97FF03C00E94D12141
:1037000003C04AE00E944921EC018CED91E00E9447
:1037100020218C0F9D1FDF91CF9108950F931F9350
:103720000E947F196093E4047093E5048093E6049B
:103730009093E704E091DC04F091DD040284F385CA
:10374000E02D8CED94E0099597FF1FC00E947F1932
:103750000091E4041091E5042091E6043091E7041F
:10376000DC01CB01801B910BA20BB30B0091E00499
:103770001091E1042091E2043091E3048017910755
:10378000A207B307B8F28FEF9FEF1F910F91089533
:103790001F920F920FB60F9211248F939F938091D7
:1037A000E1009091E100937F9093E10083FF0FC0CF
:1037B0001092E90091E09093EB001092EC0092E3FC
:1037C0009093ED0010929B0398E09093F00082FF9D
:1037D00020C093E09093E9009091F200992319F0B2
:1037E0009AE39093E80090919C03992339F090918B
:1037F0009C03915090939C03992389F190919A0393
:10380000992339F090919A03915090939A039923B8
:1038100041F184FF10C08091E2008E7E8160809330
:10382000E2008091E1008F7E8093E1008091990316
:103830008E7E806111C080FF16C08091E2008E7E76
:1038400080618093E2008091E1008E7E8093E100B0
:10385000809199038E7E81608093990304C05D9A64
:10386000CDCF289AD6CF9F918F910F900FBE0F90FA
:103870001F9018951F920F920FB60F921124CF929E
:10388000DF92EF92FF920F931F932F933F934F93EB
:103890005F936F937F938F939F93AF93BF93EF93B8
:1038A000FF93CF93DF93CDB7DEB76C97DEBFCDBF6D
:1038B0001092E9008091E80083FFEDC168E0CE013D
:1038C00045960E948D1682EF8093E8008D8987FFD0
:1038D00005C09091E80090FFFCCF03C09EEF90934D
:1038E000E800982F907609F0C6C09E892F89188D20
:1038F00091110CC0803829F4809198038093F100D5
:1039000002C01092F1001092F10048C1422F50E025
:10391000512B913051F4811141C14130510509F0D1
:103920003DC1809198038D7F0BC0933061F481116C
:1039300035C14130510509F031C180919803826051
:10394000809398032BC1953041F48091E80080FF6B
:10395000FCCF20682093E30021C1963009F05FC0BE
:10396000EB8CFC8C1092E900109296031092950358
:10397000123091F510929403109293030E94441B0D
:1039800099E0BE016F5F7F4FDB01E92F1D92EA9541
:10399000E9F799831A8391E09E8390EA98879AEFDA
:1039A00099872091950330919603275F3F4F3C8381
:1039B0002B838D831092E900109296031092950349
:1039C000F0929403E092930349E050E080E00E947B
:1039D0001D1B0E94441BE2C0F0929403E0929303EB
:1039E0000E94C619DC011296ED90FC901397E11429
:1039F000F10409F4C0C0D701ED91FC910480F58178
:103A0000E02DBE016B5E7F4FC7010995009719F04D
:103A10000CF0C4C0C7C0F701E084F184E8CF973050
:103A200009F4C0C0983021F481E08093F100B6C061
:103A3000993009F0B3C0837009F0B4C0E9E3F1E054
:103A400081E021E036E39081992361F08093E900E1
:103A50002093EB0091919093EC003093ED008F5FF9
:103A6000873089F78EE78093EA001092EA008F8909
:103A700080939B0393C08B8D9C8D1092E9001092D4
:103A80009603109295039093940380939303898DEA
:103A9000811156C08E899D89913A59F4813209F07D
:103AA00081C047E050E06CE171E080E00E941D1BA6
:103AB00075C0913209F076C0833289F4888D90E028
:103AC000982F88272F89822BA0E0B0E080931801DF
:103AD00090931901A0931A01B0931B015FC080322B
:103AE00069F48091E80082FFFCCF67E08CE191E00F
:103AF0000E948D168BEF8093E80006C0823209F099
:103B00004DC08F898093230180919703882319F0FA
:103B1000EEEFFAE002C0E0E0F8E080911C01909145
:103B20001D01A0911E01B0911F01803B9440A10591
:103B3000B10509F07BC08091230180FF93C076C05E
:103B40000E94C619DC0112960D911C911397011564
:103B5000110541F1D801ED91FC910190F081E02D2A
:103B6000BE016B5E7F4FC8010995811117C0F80136
:103B700000851185ECCF113009F44EC0133091F45B
:103B80008F89882309F445C0823081F440E86BE0D6
:103B90008DE895E00E94E01A882321F08EEF809353
:103BA000E80079C081E28093EB0075C0813029F490
:103BB00040E86BE081E895E0EDCF833099F70E9413
:103BC000C619DC011296ED90FC9013978E010F5FE1
:103BD0001F4F6801E114F10479F0D701ED91FC91D8
:103BE0000680F781E02DB801C7010995080F111D66
:103BF000F701E084F184EECFD8011C92F601019028
:103C00000020E9F73197BF016C197D0940E0C6013A
:103C1000C1CF6BE675E002C06FE675E06115710516
:103C200009F2FB01449150E080E840CF0FB6F894D0
:103C3000A895809160008861809360001092600078
:103C40000FBEA895EE3F2AE0F20739F08091FE0AF8
:103C50009091FF0A91838083A1CF1092FF0A109266
:103C6000FE0A9CCFEE3F8AE0F80731F08081918117
:103C70009093FF0A8093FE0A87E797E791838083FA
:103C80009BE088E10FB6F894A895809360000FBE82
:103C90009093600083CF6C960FB6F894DEBF0FBE92
:103CA000CDBFDF91CF91FF91EF91BF91AF919F91E8
:103CB0008F917F916F915F914F913F912F911F91C4
:103CC0000F91FF90EF90DF90CF900F900FBE0F906D
:103CD0001F901895FC018091C9049091CA04892B0A
:103CE00021F421E0309749F413C08091C5049091EC
:103CF000C604309731F421E0FC018081882341F033
:103D000006C0BF010E94332C21E0892B09F020E07E
:103D1000822F08952F923F924F925F926F927F92DF
:103D20008F929F92AF92BF92CF92DF92EF92FF92CB
:103D30000F931F93CF93DF93CDB7DEB72B970FB6BB
:103D4000F894DEBF0FBECDBF9B878A875B01190148
:103D5000FD82EC823A01600E711E872C7B82912CD1
:103D600044244A94542C9B01240F351F3F832E83F7
:103D70009101200F311F39872887EA85FB858085CF
:103D8000981608F036C1AA85BB8514965C924E92AF
:103D9000139715968D919C911697DC01ED91FC91EE
:103DA0000190F081E02D6FEF09956FEF8A859B857B
:103DB0000E94B410EA85FB8585819681DC01ED9136
:103DC000FC910190F081E02DAA85BB856C9109954D
:103DD000EA85FB856081CF010E94B410AA85BB856E
:103DE00015968D919C911697DC01ED91FC910190B7
:103DF000F081E02D682D09956B818A859B850E9455
:103E0000B410EA85FB8585819681DC01ED91FC91FA
:103E10000190F081E02D662D0995662D8A859B85A0
:103E20000E94B41075012E813F81E216F306B1F0B5
:103E3000EA85FB85858196818701DC01ED91FC9106
:103E40000190F081E02DD7016D917D010995F80178
:103E500060818A859B850E94B410E5CF7101AA8597
:103E6000BB8515968D919C91169728853985E2160C
:103E7000F30691F08701DC01ED91FC910190F08156
:103E8000E02DD7016D917D010995F80160818A854A
:103E90009B850E94B410E3CFDC01ED91FC91AA85D3
:103EA000BB8514966C910190F081E02D0995EA850F
:103EB000FB8585819681DC01ED91FC910190F0817B
:103EC000E02DAA85BB8513966C91099564E670E098
:103ED0008A859B850E947D108F3F910509F07DC0EA
:103EE000EA85FB85548243826FEFCF010E94B410B4
:103EF00065E070E08A859B850E947D10AA85BB8560
:103F00006C91262F30E08217930709F066C0CD012F
:103F10000E94B4106AE070E08A859B850E947D1043
:103F20007C0197FD5AC0682F8A859B850E94B4103A
:103F30006AE070E08A859B850E947D108C0197FD68
:103F40004CC0682F8A859B850E94B410EA82198232
:103F5000E981FA810E0F1F1FE12CF12C65E070E062
:103F60008A859B85E016F106A9F0EC14FD0491F01A
:103F70000E947D1097FD0AC0EC81FD81EE0DFF1DB2
:103F80008083682F8A859B850E94B410FFEFEF1A0B
:103F9000FF0AE4CF0E947D107C0197FD1EC065E002
:103FA00070E08A859B850E947D1097FD16C0FE2CCF
:103FB000EE248E0D9F1DAA85BB8513962D913C91F5
:103FC00014972817390749F48C918F5F8C93C80197
:103FD000C016D10680F4C6010EC0939464E670E06A
:103FE00080E090E00E9445198A859B850E946110BF
:103FF000C4CE8FEF9FEF2B960FB6F894DEBF0FBEA7
:10400000CDBFDF91CF911F910F91FF90EF90DF9087
:10401000CF90BF90AF909F908F907F906F905F9068
:104020004F903F902F900895EF92FF920F931F9320
:10403000CF93DF93CDB7DEB727970FB6F894DEBFE7
:104040000FBECDBF7C018B016DEF72E0CE010196FA
:104050000E940B18B701CE0101960E94E61667E98F
:1040600072E0CE0101960E94E616B801CE010196DB
:104070000E94E6164D815E8169817A8101E010E03F
:104080009E01295F3F4F81ED94E00E94CB10CE014D
:1040900001960E94691727960FB6F894DEBF0FBEEF
:1040A000CDBFDF91CF911F910F91FF90EF900895B9
:1040B000909115049111FCCF91E090931504909389
:1040C00014042FEF2093130410921204260F209350
:1040D00011049093100490911004880F892B809301
:1040E000100480910F04813061F410920F048091CC
:1040F00010048093BB008091BC0083FDF8CF85EC59
:1041000001C085EE8093BC00809115048130E1F3FD
:1041100080911204861710F460911204AFEEB3E0A0
:104120002FEC33E0F9018E2F821B861718F48D9146
:104130008193F9CF862F08952091CE039091CD03DE
:10414000213208F04AC0809115048111FCCF32E081
:104150003093150431E0309314043FEF309313048F
:104160001092120420931104ADEAB3E04FEE53E035
:10417000FA013E2F341B321718F43D913193F9CFD9
:104180001092100420911004990F922B9093100418
:1041900090910F04913061F410920F0490911004EB
:1041A0009093BB009091BC0093FDF8CF95EC01C0BB
:1041B00095EE9093BC00909115049230E1F39091AC
:1041C00013049F3F79F080911304803241F0809175
:1041D0001304803331F084E005C081E003C082E045
:1041E00001C083E01092AC031092CE031092AB0397
:1041F00008951F93CF93DF931F92CDB7DEB7162F8D
:1042000091E09093AB038093CD031092AC03109296
:10421000CE0361E083EB94E079830E948D0E798177
:10422000672F83EB94E00E948D0E612F83EB94E067
:104230000E948D0E0F90DF91CF911F910C949C20C6
:10424000BC01009791F0FC0101900020E9F7319743
:10425000AF01481B590BE0915E05F0915F050280AC
:10426000F381E02D8EE595E0099480E090E00895DB
:10427000CF93DF93BC018EE595E00E946618EC01B8
:104280008CED91E00E9420218C0F9D1FDF91CF913A
:1042900008958F929F92AF92BF920F931F93CF93E7
:1042A000DF93CDB7DEB7A1970FB6F894DEBF0FBE90
:1042B000CDBF19A2423008F44AE08E010F5D1F4FB6
:1042C000842E912CA12CB12CA50194010E94F229DD
:1042D000E62FB901CA0101501109EA3014F4E05D7A
:1042E00001C0E95CD801EC93232B242B252B61F72B
:1042F000C8010E942021A1960FB6F894DEBF0FBE20
:10430000CDBFDF91CF911F910F91BF90AF909F9044
:104310008F900895E0915E05F0915F05DC011496A1
:104320004D915C9115976D917C910280F381E02D08
:104330008EE595E00994CF93DF930E948A21EC01EA
:104340008CED91E00E9420218C0F9D1FDF91CF9179
:1043500008950C9420211092AA031092A9031092A0
:10436000AC031092CE031092150481E080931404E4
:1043700010920F0461E082E00E94E21861E083E0A5
:104380000E94E218E9EBF0E080818E7F80838081DB
:104390008D7F808388E48093B80085E48093BC009F
:1043A0000895CF92DF92EF92FF92CF93DF936B014C
:1043B0007C01E0915E05F0915F050190F081E02DB8
:1043C0006DE28EE595E00995EC0166277727CB0134
:1043D0006C197D098E099F094AE00E9449218C0FC2
:1043E0009D1FDF91CF91FF90EF90DF90CF900895C8
:1043F000CF93DF93CDB7DEB72C970FB6F894DEBF1F
:104400000FBECDBF789484B5826084BD84B58160D1
:1044100084BD85B5826085BD85B5816085BD80918F
:104420006E00816080936E00109281008091810007
:1044300082608093810080918100816080938100FF
:1044400080918000816080938000809191008260E3
:104450008093910080919100816080939100809180
:1044600090008160809390008091C100846080936F
:10447000C1008091C10082608093C1008091C10021
:1044800081608093C1008091C30081608093C300EC
:104490008091C00082608093C0008091C2008160E2
:1044A0008093C20080917A00846080937A0080912A
:1044B0007A00826080937A0080917A008160809394
:1044C0007A0080917A00806880937A0010929B0332
:1044D00010929803109299038091D7008160809385
:1044E000D70080EA8093D80089B5806189BD89B5FD
:1044F000826089BD09B400FEFDCF61E070E080E01C
:1045000090E00E9445198091D8008F7C8061809353
:10451000D8008091E000807F8093E0008091E100EE
:104520008E7E8093E1008DE08093E200559A209A80
:10453000EEEFFFE7859194918B3F9C4D19F481E05C
:1045400080939703E7E1F5E02491E8EFF4E08491AC
:10455000882399F090E0880F991FFC01E352FB4FEC
:10456000A591B491FC01E153FB4F859194918FB7D4
:10457000F894EC91E22BEC938FBF0FE010E00E94D7
:10458000130601501109D9F70E94AB21E091DA041A
:10459000F091DB04A089B18982E08C93A485B58574
:1045A0001C92A685B78587E08C93108EA489B58967
:1045B00086E08C93A289B3898C9180618C93A289C7
:1045C000B3898C9188608C93A289B3898C9180681F
:1045D0008C930288F389E02D80818F7D8083809188
:1045E000D804811107C081E08093D80481ED94E064
:1045F0000E94F81280916A0590916B05FC01278159
:10460000211104C021E027830E94F8128EE595E075
:104610000E94481080E290E00E942E2A90936F053D
:1046200080936E0500E012E010935D0500935C0539
:104630000E94AB2110935805009357050E94AB21AF
:1046400060919103709192034AE0CE0101960E941D
:104650009E176EEB71E0CE0107960E940B186981E0
:104660007A818F8198850E941420CE0107960E943E
:104670006917CE0101960E94691766E272E0CE01C9
:1046800001960E940B1866E572E0CE0107960E9423
:104690000B1869817A818F8198850E941420CE0140
:1046A00007960E946917CE0101960E9469174AE099
:1046B00061E070E0CE0101960E949E176FED71E0FF
:1046C000CE0107960E940B1869817A818F819885A7
:1046D0000E941420CE0107960E946917CE01019610
:1046E0000E9469170E941B0A0E940716FBCF8FEBDE
:1046F00094E00E94691785EC94E00E9469178BECA6
:1047000094E00E94691787E991E09093DD0480931B
:10471000DC048CED94E00E94071285EC95E00E9489
:10472000691780E395E00E94691786E395E00E948F
:1047300069178CE395E00E94691782E495E00E9476
:10474000691788E495E00E9469178EE495E00E945D
:10475000691789EA91E090935F0580935E058EE585
:1047600095E00C944810CF92DF92EF92FF92CF9396
:10477000DF93E5E7F5E01382128288EEC82E83E02E
:10478000D82EE12CF12CC482D582E682F78283E414
:1047900091E0918380838FEF9FEF95878487E6E197
:1047A000F4E013821282C482D582E682F78285E524
:1047B00091E0918380838DEC90E0958784878CECE9
:1047C00090E09787868788EC90E0918B808B89ECCE
:1047D00090E0938B828B8AEC90E0958B848B8EECAF
:1047E00090E0978B868B118E128E138E148EAEE511
:1047F000B5E013961C921E9212971496CD92DD92FC
:10480000ED92FC92179789EA91E011969C938E9312
:10481000C1EDD4E01D96DC93CE931C971E961C929E
:104820001E971F961C921F9751961C921E9250978E
:1048300081E052968C931882FE83ED831F82188646
:10484000FA87E987E3EBF4E013821282C482D5820F
:10485000E682F78287E691E091838083E9E5F5E0DF
:1048600088E480831482138288E081831282E4E5E5
:10487000F5E01482138299E490838183128265EAC1
:1048800072E08EE495E00E940B1864EB72E088E41D
:1048900095E00E940B1865EC72E082E495E00E94BE
:1048A0000B1864ED72E08CE395E00E940B1862EE49
:1048B00072E086E395E00E940B1860EF72E080E3FF
:1048C00095E00E940B1869E272E085EC95E00E9489
:1048D0000B18ECEDF4E013821282C482D582E682DA
:1048E000F78287E991E091838083D587C487118A15
:1048F000128A138A69E272E08BEC94E00E940B1832
:1049000069E272E085EC94E00E940B1869E272E0C3
:104910008FEB94E0DF91CF91FF90EF90DF90CF90FD
:104920000C940B18EF920F931F93CF93DF93E80132
:1049300047FD02C034E001C034E1E42F440FFF0B17
:10494000F7FF03C0F195E195F109E32E022F2E2F19
:10495000AE010E942E25CE01DF91CF911F910F91C4
:10496000EF9008951F93FC0199278827BC01E894D4
:1049700011911032E9F3193010F01E30C8F31B32D8
:1049800051F01D3249F4689406C00E94FF24610F63
:10499000711D811D911D119110531A30B0F33EF419
:1049A00090958095709561957F4F8F4F9F4F1F9188
:1049B0000895FB01DC0105900D920020E1F70895B8
:1049C000FC0105900020E9F7809590958E0F9F1FC0
:1049D00008954532510520F4423010F00C94F4242F
:1049E000FB011082CB010895BB274A3031F4992393
:1049F00022F4BDE2909581959F4F0C941525592F77
:104A0000482F372F262F660F771F881F991F660F95
:104A1000771F881F991F620F731F841F951F660FD2
:104A2000771F881F991F0895BB27FB015527AA27C9
:104A3000880F991FAA1FA41710F0A41B839550512B
:104A4000B9F7A05DAA3308F0A95DA193009779F7A3
:104A5000B111B1931192CB010C9494274F925F92B4
:104A60006F927F929F92AF92BF92CF92DF92EF921E
:104A7000FF920F931F93CF93DF93CDB7DEB72997A4
:104A80000FB6F894DEBF0FBECDBF6A01122FB02E55
:104A90002BE3201720F0FF24F394F00E02C0BCE3B8
:104AA000FB2E0F2D27E0AE014F5F5F4F0E94BC260B
:104AB000AC018981982F9970913031F0E1FC06C0EA
:104AC000E0FE06C090E205C09DE203C09BE201C08B
:104AD00090E0EE2DE07183FF3CC0911102C083E0B5
:104AE00001C084E0811718F4212F281B01C020E0A9
:104AF000E1110BC0F601822F30E2882319F03193C7
:104B00008150FBCFC20ED11C20E0992329F0D601A1
:104B10009C93F60131966F01C6010396E2FE0AC02E
:104B20003EE4D6013C9341E411964C9311971296C2
:104B30003C9306C03EE6F601308341E64183328372
:104B4000FC01322F40E2332309F442C0419331503B
:104B5000FACF82FF44C0911102C083E001C084E01B
:104B6000811718F4212F281B01C020E0E1110BC090
:104B7000F601822F30E2882319F031938150FBCF68
:104B8000C20ED11C20E0992329F0D6019C93F60196
:104B900031966F01C6010396E2FE0BC039E4D601DF
:104BA0003C933EE411963C93119736E412963C9365
:104BB00007C039E6F60130833EE6318336E63283BC
:104BC000FC01322F40E2332319F041933150FBCFE7
:104BD000FC01E20FF11D10828EEF9FEFB7C0F1E0F4
:104BE000911101C0F0E06F2F70E01416150624F447
:104BF0009A012F5F3F4F02C021E030E0260F371FA0
:104C0000BB2029F06B2D70E06F5F7F4F02C060E02A
:104C100070E0260F371F612F70E0261737071CF44E
:104C2000121B212F01C020E03E2D387159F4D6010E
:104C3000322F60E2332319F06D933150FBCFC20E57
:104C4000D11C20E0FF2331F0D6019C93B6016F5FA9
:104C50007F4F6B01E1110BC0F601922F30E39923D6
:104C600019F031939150FBCFC20ED11C20E09F2D43
:104C7000940F3A81782F7071A72E84FF03C03133CF
:104C800009F49150191624F4993018F098E001C0F5
:104C900091E0E42F852F57FF02C0E0E080E06E2F07
:104CA000782FE0E0F0E0AEE29A2E3A01691A71083E
:104CB0002A01461A570A0B2D10E01195019511098A
:104CC0006F3F8FEF780729F4D6019C92C6010196B9
:104CD0006C014617570784F0661677066CF47F015F
:104CE000E40CF51CA1E0B0E0AC0FBD1FEA0EFB1E0A
:104CF000D7011196BC9002C090E3B92E61507109A2
:104D00003196C60101967C016017710724F0D60127
:104D1000BC926C01D5CF6417750741F4363320F48B
:104D2000353321F4A11002C081E3B82EF601B08220
:104D3000F701822F90E2882319F091938150FBCFE5
:104D4000F701E20FF11D108280E090E029960FB686
:104D5000F894DEBF0FBECDBFDF91CF911F910F91B1
:104D6000FF90EF90DF90CF90BF90AF909F907F909B
:104D70006F905F904F900895283008F027E0332718
:104D8000DA01990F311D87FD91600096610571056B
:104D900039F432602E5F3D9330E32A95E1F70895B0
:104DA0009F3F30F080387105610509F03C5F3C5F42
:104DB0003D93913008F08068911DDF93CF931F934E
:104DC0000F93FF92EF92192F987F9695E92F969562
:104DD0009695E90FFF27EC5AFE4F99273327EE24CB
:104DE000FF24A701E70105900894079428F4360FE3
:104DF000E71EF81E491F511D660F771F881F991F58
:104E00000694A1F70590079428F4E70EF81E491FB1
:104E1000561FC11D770F881F991F661F0694A1F7A3
:104E20000590079428F4F80E491F561FC71FD11D7F
:104E3000880F991F661F771F0694A1F705900794A6
:104E400020F4490F561FC71FD81F990F661F771FE1
:104E5000881F0694A9F784911095177041F0D69594
:104E6000C79557954795F794E7941A95C1F7EAEFD8
:104E7000F0E06894159015913591659195910590A4
:104E80007FE27395E118F10A430B560BC90BD00969
:104E9000C0F7E10CF11E431F561FC91FD01D7EF441
:104EA000703311F48A95E6CFE894015030F0080F82
:104EB0000AF40027021708F4202F2395022F7A33D3
:104EC00028F079E37D932A95E9F710C07D932A9520
:104ED00089F6069497956795379517951794E11875
:104EE000F10A430B560BC90BD00998F023957E911C
:104EF00073957A3308F070E37C932013B8F77E91B2
:104F000070617D9330F0839571E37D9370E32A9512
:104F1000E1F71124EF90FF900F911F91CF91DF9156
:104F2000992787FD90950895DC01FC01672F719109
:104F30007723E1F7329704C07C916D93708362917F
:104F4000AE17BF07C8F308950E94E62708F481E072
:104F50000895E89409C097FB3EF49095809570956C
:104F600061957F4F8F4F9F4F9923A9F0F92F96E9B5
:104F7000BB279395F695879577956795B795F1112A
:104F8000F8CFFAF4BB0F11F460FF1BC06F5F7F4FC7
:104F90008F4F9F4F16C0882311F096E911C07723D9
:104FA00021F09EE8872F762F05C0662371F096E8E2
:104FB000862F70E060E02AF09A95660F771F881FB1
:104FC000DAF7880F9695879597F90895990F000855
:104FD000550FAA0BE0E8FEEF16161706E807F907CB
:104FE000C0F012161306E407F50798F0621B730B66
:104FF000840B950B39F40A2661F0232B242B252BE7
:1050000021F408950A2609F4A140A6958FEF811D89
:10501000811D08950E941D280C948E280E948028CE
:1050200038F00E94872820F0952311F00C947728FF
:105030000C947D2811240C94C2280E949F2870F3A0
:10504000959FC1F3950F50E0551F629FF001729F2D
:10505000BB27F00DB11D639FAA27F00DB11DAA1F3C
:10506000649F6627B00DA11D661F829F2227B00D89
:10507000A11D621F739FB00DA11D621F839FA00D14
:10508000611D221F749F3327A00D611D231F849F64
:10509000600D211D822F762F6A2F11249F575040BB
:1050A0009AF0F1F088234AF0EE0FFF1FBB1F661F36
:1050B000771F881F91505040A9F79E3F510580F0FF
:1050C0000C9477280C94C2285F3FE4F3983ED4F305
:1050D000869577956795B795F795E7959F5FC1F7A3
:1050E000FE2B880F911D9695879597F9089597F94E
:1050F0009F6780E870E060E008959FEF80EC08957E
:1051000000240A94161617061806090608950024A6
:105110000A9412161306140605060895092E039420
:10512000000C11F4882352F0BB0F40F4BF2B11F494
:1051300060FF04C06F5F7F4F8F4F9F4F089557FDF3
:105140009058440F551F59F05F3F71F04795880FF5
:1051500097FB991F61F09F3F79F08795089512168C
:1051600013061406551FF2CF4695F1DF08C0161638
:1051700017061806991FF1CF8695710561050894E9
:105180000895E894BB2766277727CB0197F9089500
:105190002F923F924F925F926F927F928F929F9247
:1051A000AF92BF92CF92DF92EF92FF920F931F9335
:1051B000CF93DF93CDB7DEB7CA1BDB0B0FB6F894E6
:1051C000DEBF0FBECDBF09942A88398848885F8426
:1051D0006E847D848C849B84AA84B984C884DF8097
:1051E000EE80FD800C811B81AA81B981CE0FD11D7B
:1051F0000FB6F894DEBF0FBECDBFED010895505835
:10520000BB27AA270E9417290C948E280E94802869
:1052100038F00E94872820F039F49F3F19F426F4D3
:105220000C947D280EF4E095E7FB0C947728E92F89
:105230000E949F2858F3BA176207730784079507DF
:1052400020F079F4A6F50C94C1280EF4E0950B2E0D
:10525000BA2FA02D0B01B90190010C01CA01A001C8
:105260001124FF27591B99F0593F50F4503E68F123
:105270001A16F040A22F232F342F4427585FF3CF64
:10528000469537952795A795F0405395C9F77EF435
:105290001F16BA0B620B730B840BBAF09150A1F07E
:1052A000FF0FBB1F661F771F881FC2F70EC0BA0F04
:1052B000621F731F841F48F4879577956795B7958C
:1052C000F7959E3F08F0B0CF9395880F08F0992787
:1052D000EE0F9795879508950E9480290C948E284B
:1052E0000E94872858F00E94802840F029F45F3FF0
:1052F00029F00C94772851110C94C2280C947D2825
:105300000E949F2868F39923B1F3552391F3951BCD
:10531000550BBB27AA2762177307840738F09F5FD6
:105320005F4F220F331F441FAA1FA9F335D00E2E43
:105330003AF0E0E832D091505040E695001CCAF7B0
:105340002BD0FE2F29D0660F771F881FBB1F261773
:1053500037074807AB07B0E809F0BB0B802DBF014A
:10536000FF2793585F4F3AF09E3F510578F00C9419
:1053700077280C94C2285F3FE4F3983ED4F38695D7
:1053800077956795B795F7959F5FC9F7880F911D3A
:105390009695879597F90895E1E0660F771F881F26
:1053A000BB1F621773078407BA0720F0621B730BD9
:1053B000840BBA0BEE1F88F7E095089597FB072E34
:1053C00016F4009407D077FD09D00E941A2A07FC32
:1053D00005D03EF4909581959F4F08957095619505
:1053E0007F4F0895A1E21A2EAA1BBB1BFD010DC021
:1053F000AA1FBB1FEE1FFF1FA217B307E407F50785
:1054000020F0A21BB30BE40BF50B661F771F881F60
:10541000991F1A9469F760957095809590959B01F6
:10542000AC01BD01CF010895EE0FFF1F0590F4916F
:10543000E02D0994AA1BBB1B51E107C0AA1FBB1F8B
:10544000A617B70710F0A61BB70B881F991F5A9510
:10545000A9F780959095BC01CD010895CF93DF9376
:105460008230910510F482E090E0E091CD05F0915A
:10547000CE0520E030E0C0E0D0E0309711F140816F
:10548000518148175907C0F04817590761F48281C4
:105490009381209719F09B838A832BC09093CE052C
:1054A0008093CD0526C02115310519F04217530709
:1054B00018F49A01BE01DF01EF010280F381E02DB3
:1054C000DCCF2115310509F1281B390B24303105BA
:1054D00090F412968D919C9113976115710521F0AE
:1054E000FB019383828304C09093CE058093CD0506
:1054F000FD01329644C0FD01E20FF31F81939193A9
:10550000225031092D933C933AC02091CB05309124
:10551000CC05232B41F420912601309127013093B3
:10552000CC052093CB052091240130912501211534
:10553000310541F42DB73EB7409128015091290122
:10554000241B350BE091CB05F091CC05E217F30756
:10555000A0F42E1B3F0B2817390778F0AC014E5FE3
:105560005F4F2417350748F04E0F5F1F5093CC054F
:105570004093CB058193919302C0E0E0F0E0CF012E
:10558000DF91CF9108950F931F93CF93DF930097EF
:1055900009F48CC0FC013297138212820091CD0570
:1055A0001091CE050115110581F420813181820F02
:1055B000931F2091CB053091CC052817390779F539
:1055C000F093CC05E093CB0571C0D80140E050E0EA
:1055D000AE17BF0750F412962D913C911397AD0171
:1055E0002115310509F1D901F3CF9D01DA0133838A
:1055F000228360817181860F971F8217930769F458
:10560000EC0128813981260F371F2E5F3F4F3183F0
:1056100020838A819B8193838283452B29F4F09395
:10562000CE05E093CD0542C01396FC93EE931297FE
:10563000ED01499159919E01240F351FE217F3079F
:1056400071F480819181840F951F029611969C932D
:105650008E938281938113969C938E931297E0E0B0
:10566000F0E0D80112968D919C911397009719F054
:10567000F8018C01F6CF8D919C9198012E5F3F4FE0
:10568000820F931F2091CB053091CC052817390745
:1056900069F4309729F41092CE051092CD0502C01E
:1056A000138212821093CC050093CB05DF91CF912A
:1056B0001F910F910895A0E0B0E0E1E6FBE20C94A9
:1056C000CC28EC01009721F4CB010E942E2AB8C00F
:1056D000FC01E60FF71F9C0122503109E217F30786
:1056E00008F4ACC0D9010D911C911197061717074A
:1056F000B0F00530110508F49FC0C8010497861763
:10570000970708F499C002501109061B170B019363
:1057100011936D937C93CF010E94C32A8DC05B01CE
:10572000A01AB10A4C01800E911EA091CD05B09136
:10573000CE0540E050E0E12CF12C109709F44AC06E
:10574000A815B905D1F56D907C901197630182E0A1
:10575000C80ED11CCA14DB0480F1A3014A195B09ED
:105760006A0182E0C80ED11C1296BC901297139663
:10577000AC91B5E0CB16D10440F0B282A383518343
:105780004083D9016D937C930AC00E5F1F4FC30104
:10579000800F911FF90191838083EB2DFA2FE11483
:1057A000F10431F0D7011396FC93EE93129744C0A5
:1057B000F093CE05E093CD053FC08D919C9111975C
:1057C0004817590708F4AC017D0112960D90BC9161
:1057D000A02DB3CF8091CB059091CC05881599056C
:1057E000E1F446175707C8F48091240190912501F0
:1057F000009741F48DB79EB740912801509129013F
:10580000841B950BE817F907C8F4F093CC05E093D7
:10581000CB05F901718360830FC0CB010E942E2A52
:105820007C01009759F0A801BE010E942A2CCE01EC
:105830000E94C32AC70104C0CE0102C080E090E0EC
:10584000CDB7DEB7EEE00C94E82881E090E0F89464
:105850000C945D2CFB01DC0102C001900D924150C3
:105860005040D8F70895FB01DC018D91019080191B
:105870000110D9F3990B0895FB01DC0101900D9201
:105880000020E1F70895FB0151915523A9F0BF01D4
:10589000DC014D9145174111E1F759F4CD0101901B
:1058A000002049F04D9140154111C9F3FB01411110
:1058B000EFCF81E090E00197089512E0CEECD2E0C6
:1058C00004C0FE010E94142A2196CF3CD107C9F7DB
:0458D000F894FFCF7A
:1058D40001000100010001000100010001000100BC
:1058E400010001000100FFFFFFFFFFFF00E10000D6
:1058F400000000000000CF0580002000220058585E
:10590400585858585831303000C180810000000088
:10591400000000DA195B1AFB19F019411AFF191D6E
:105924001A000000009E150B153615E51567154580
:10593400155915000000008D0E5D0EFA02310E554A
:105944000E410E320E0000000036160B15FA02F955
:10595400023616361636160000000036160B15FAF7
:1059640002F9020000000087120B15FA02FE0D8EE8
:10597400117611631100000000B812EB0EFA02A4B4
:1059840012F211D811C3115B324A005B48006465FE
:1059940076696365456D61696C007265696E6963FA
:1059A4006961722061206365726F0A000D0A0073D9
:1059B40074617475734272696467650053657276C5
:1059C4006963696F206465204D616E74656E696DED
:1059D40069656E746F20416374697661646F0064F5
:1059E400617465002B25542C25412C25642C2542FB
:1059F4002C2559003A0030000900486F6F6B2000D5
:105A04002057617474730020416D70730050480016
:105A14004100636C730071756974007265626F6F25
:105A240074007265736574007363616E6E00642044
:105A3400283078006829006578697400656D6169AB
:105A44006C0073657276696365007265616C746974
:105A54006D65006163636573730064697361726D7E
:105A640000706861736500FE002F62696E2F6173B8
:105A740068002D63007C4163636573732053656E16
:105A8400736F72007C4D61676E6574696320536542
:105A94006E736F72007C44697361726D2053656E1E
:105AA400736F72007C50686173652053656E736F09
:105AB40072007C4C696768742053656E736F720062
:105AC4007C4E6F7420646566696E656400440000F2
:00000001FF
