:100000000C9433030C945B030C945B030C945B0320
:100010000C945B030C945B030C945B030C945B03E8
:100020000C945B030C945B030C949B1B0C940D1CB5
:100030000C945B030C945B030C945B030C945B03C8
:100040000C945B030C945B030C945B030C945B03B8
:100050000C945B030C945B030C945B030C948D1762
:100060000C945B030C94B2160C948C160C945B03EA
:100070000C945B030C945B030C945B030C945B0388
:100080000C945B030C945B030C945B030C945B0378
:100090000C9413210C945B030C945B030C945B0392
:1000A0000C945B030C945B030C945B03F30BF60B57
:1000B000F90BF90BF90BF90BF90BF90B060C090C01
:1000C0000C0C0C0C0C0C0C0C0C0C0C0C1A0C1A0C54
:1000D0001D0C1D0C1D0C1D0C1D0C1D0C0F171217DB
:1000E00001170517091733173317331716171A1780
:1000F0001E172417281733172E1700407A10F35AAB
:1001000000A0724E18090010A5D4E80000E8764857
:10011000170000E40B54020000CA9A3B000000E103
:10012000F505000080969800000040420F00000096
:10013000A08601000000102700000000E803000076
:1001400000006400000000000A0000000000010040
:10015000000000002C76D888DC674F0823DFC1DF61
:10016000AE59E1B1B796E5E3E453C63AE651997664
:1001700096E8E6C28426EB898C9B62ED407C6FFC9E
:10018000EFBC9C9F40F2BAA56FA5F490055A2AF7E0
:100190005C936B6CF9676DC11BFCE0E40D47FEF5E9
:1001A00020E6B500D0ED902E030094357705008051
:1001B000841E080000204E0A000000C80C333333B0
:1001C000330F986E12831141EF8D2114893BE65550
:1001D00016CFFEE6DB18D1844B381BF77C1D901D33
:1001E000A4BBE424203284725E228100C9F124EC95
:1001F000A1E53D275265666572656E6369612030D1
:100200002C302C3130302C3130302E2E2E2E2E2E04
:1002100000436F6E736F6C612E2E2E2E2E2E2E2E9F
:100220002E2E2E2E2E2E2E2E2E2E2E2E003D3D3DEF
:100230003D3D3D3D3D3D3D3D3D3D3D3D3D3D3D3DEE
:100240003D3D3D3D3D3D3D3D3D3D3D3D3D3D3D0A11
:100250000056414C554520000A0023003D3D3D3DE0
:100260003D3D3D3D3D3D3D3D3D3D3D3D3D3D3D3DBE
:100270003D3D3D3D3D3D3D3D3D3D3D3D3D3D0A001E
:100280000A003D3D3D3D3D3D3D3D3D3D3D3D3D3D0E
:100290003D3D3D3D3D3D3D3D3D3D3D3D3D3D3D3D8E
:1002A0003D3D3D3D0A000A000A2053656E7420451D
:1002B0006D61696C2066726F6D20507974686F6E25
:1002C0002E2E2E0A00707974686F6E202F726F6F59
:1002D000742F69665F6D61696C2E70790073756447
:1002E0006F20707974686F6E202F726F6F742F7328
:1002F0006572766963652E7079003D3D3D3D3D3DFB
:100300003D3D3D3D3D3D3D3D3D3D3D3D3D3D3D3D1D
:100310003D3D3D3D3D3D3D3D3D3D3D3D0A003D3D7D
:100320003D3D3D3D3D3D3D3D3D3D3D3D3D3D3D3DFD
:100330003D3D3D3D3D3D3D3D3D3D3D3D3D3D3D3DED
:100340000A004D616E74656E696D69656E746F202B
:10035000416374697661646F003D3D3D3D3D3D3DC7
:100360003D3D3D3D3D3D3D3D3D3D3D3D3D3D3D3DBD
:100370003D3D3D3D3D3D3D3D3D3D3D0A003D3D3D1D
:100380003D3D3D3D3D3D3D3D3D3D3D3D3D3D3D3D9D
:100390003D3D3D3D3D3D3D3D3D3D3D3D3D3D3D0AC0
:1003A000007375646F20707974686F6E202F726FA0
:1003B0006F742F736572766963652E7079000A20F9
:1003C000506F73742044617461204D7953514C2EE9
:1003D0002E2E0A00707974686F6E202F726F6F7402
:1003E0002F706F7374446174612E7079002064659E
:1003F000766963652873292E00466F756E64200048
:10040000446F6E652E00466F756E642069326320FE
:1004100044657669636520416464726573733A204C
:1004200000493243204164647265737320536361F1
:100430006E6E65722E200A5363616E6E696E672060
:100440002E2E2E2E2E2E2E2E2E2E2E002E000A007A
:100450006D696E75746F730A00496E74726F64759E
:100460007A6361206C6F73206D696E75746F732091
:10047000646520736572766963696F0A003D3D3D6E
:100480003D3D3D3D3D3D3D3D3D3D3D3D3D3D3D3D9C
:100490003D3D3D3D3D3D3D3D3D3D3D3D3D3D3D0ABF
:1004A00000202020202020202020507265737320FF
:1004B000456E74657220746F20457869740A002057
:1004C000202020202020202053657276696365203B
:1004D00054696D650A003D3D3D3D3D3D3D3D3D3D21
:1004E0003D3D3D3D3D3D3D3D3D3D3D3D3D3D3D3D3C
:1004F0003D3D3D3D3D3D3D3D0A0072657365742DBA
:100500006D6375007265626F6F74003D3D3D3D3DEA
:100510003D3D3D3D3D3D3D3D3D3D3D3D3D3D3D3D0B
:100520003D3D3D3D3D3D3D3D3D3D3D3D3D0A004365
:100530006F6E736F6C6120646520536572766963BA
:10054000696F003D3D3D3D3D3D3D3D3D3D3D3D3DBA
:100550003D3D3D3D3D3D3D3D3D3D3D3D3D3D3D3DCB
:100560003D3D3D3D3D0A002E000000000200090F08
:100570000000030401000C00000000000000000067
:10058000000000000000000000000000250028001E
:100590002B002E00310000000000240027002A005C
:1005A0002D003000040404040403040502020202C6
:1005B00004030202020206060606060604040202FC
:1005C00002040404080201104080401020408040D2
:1005D0008008020401804020100201108010204099
:1005E0004020080B00020202010009040000010281
:1005F0000200000524001001052401010104240269
:1006000006052406000107058103100040090401C6
:1006100000020A00000007050202400000070583EF
:10062000024000000403090412010002EF0201402D
:100630004123418000010102030141726475696E2A
:100640006F204C4C430041726475696E6F20597580
:100650006E0072756E2D6272696467650A000A0029
:100660000A007722412211241FBECFEFDAE0DEBF5D
:10067000CDBF25E0ACEEB2E001C01D92AD3BB207AC
:10068000E1F712E0A0E0B1E0EAE7F9E502C0059089
:100690000D92AC3EB107D9F713E0C2E3D3E004C03A
:1006A0002197FE010E94672AC133D107C9F70E9432
:1006B00040230C94B02C0C940000089580E090E04E
:1006C00008956BE188EE94E00E94EE1F89EB91E0C3
:1006D0000C947F116BE188EE94E00E94EE1F8DEB8D
:1006E00091E00C947F116BE188EE94E00E94EE1F84
:1006F00089EB91E00E947F116BE188EE94E00E940B
:10070000EE1F8DEB91E00E947F1181E192E00E944B
:100710000E1184EF91E00C940E116F927F928F92E4
:100720009F92AF92BF92CF92DF92EF92FF920F9380
:100730001F93CF93DF93CDB7DEB768970FB6F894CA
:10074000DEBF0FBECDBF86E694E00E946C1881111B
:10075000CBC060EC71E0CE0101960E940D1686E6DA
:1007600094E00E941F1886E090E00E94812A8C018C
:10077000BE016F5F7F4F0E940416109376040093B2
:100780007504CE0101960E946B1565EC71E0CE01F7
:1007900001960E940D16BE016F5F7F4F86E694E0C2
:1007A0000E94E718CE0101960E946B1586E694E040
:1007B0000E94941886E694E00E946C18882339F011
:1007C00064E670E080E090E00E944717F3CF86E691
:1007D00094E00E94411888C0CE0143960E946011A7
:1007E00065ED71E0CE0101960E940D168F89988DFE
:1007F000892B09F492C00B891C8969817A81C8010F
:100800000E94962C009709F488C07C01E01AF10A36
:10081000CE0101960E946B1565ED71E0CE01019647
:100820000E940D168F89988D2D813E818C01021BAF
:10083000130B2115310509F074C00FEF1FEFCE0126
:1008400001960E946B15970140E050E0BE016D5E7D
:100850007F4FCE010D960E942216A7014F5F5F4F7A
:100860009801BE016D5E7F4FCE0107960E94221651
:100870002F89388DA8014F5F5F4FBE016D5E7F4F9E
:10088000CE0101960E942216CE010D960E943D1EB9
:100890007093260360932503CE0107960E943D1EA8
:1008A000709324036093230380912103909122038A
:1008B0009093170180931601CE0101960E943D1E70
:1008C0007093220360932103CE0101960E946B1561
:1008D000CE0107960E946B15CE010D960E946B15F6
:1008E000CE0143960E946B1586E694E00E945E1945
:1008F00080917804882309F440C06BEF71E0CE0149
:1009000043960E940D160E94E61197FD65CF682F51
:10091000CE0143960E94D514F6CFEE24EA94FE2C25
:1009200077CF009709F489CF8217930708F485CF12
:100930000817190718F08C01015011098B889C8841
:10094000A980BA80C40166246A9477247A946401E9
:10095000C00ED11EC816D90670F0B5010E94962CA3
:10096000009749F09C01281939090217130708F06C
:1009700039010196EFCF830162CF209116013091AA
:10098000170180912103909122032817390709F458
:100990004CC080912503909126030A9724F487ED9B
:1009A00091E00E947F116091250370912603072E2C
:1009B000000C880B990B97FF03C00E94A71103C07E
:1009C0004AE00E941F1185ED91E00E947F11809105
:1009D0002303909124030A9724F487ED91E00E9469
:1009E0007F116091230370912403072E000C880B64
:1009F000990B97FF03C00E94A71103C04AE00E9411
:100A00001F1185ED91E00E947F118091210390914B
:100A100022030A9724F487ED91E00E947F118091D0
:100A20002103909122030E94CE1168960FB6F8948C
:100A3000DEBF0FBECDBFDF91CF911F910F91FF9011
:100A4000EF90DF90CF90BF90AF909F908F907F906E
:100A50006F90089561E08DE00E94E41664E670E016
:100A600080E090E00E94471760E08DE00E94E4166D
:100A700064E670E080E090E00C944717FC0113827C
:100A8000128288EE93E0A0E0B0E084839583A68391
:100A9000B7838AE991E09183808375876487118A9F
:100AA000128A138A0895CF93DF93CDB7DEB7CA5564
:100AB000D1090FB6F894DEBF0FBECDBF60916A05B5
:100AC00070916B054AE0CE018B5A9F4F0E94A01592
:100AD00069ED71E0CE0101960E940D1667966EAD2C
:100AE0007FAD679789819A810E94B80FCE010196E8
:100AF0000E946B15CE018B5A9F4F0E946B156BE5C0
:100B000074E0CE0101960E943E0565EC72E0CE01D4
:100B10008B5A9F4F0E94CC15BE016B5A7F4FCE015E
:100B200001960E940019CE018B5A9F4F0E946B15AF
:100B300068EA72E088EE94E00E946816CE010196A1
:100B40000E94C319C65ADF4F0FB6F894DEBF0FBE1E
:100B5000CDBFDF91CF910895E0911103F091120381
:100B6000EE0FFF1FE050FF4F80819181019711F43C
:100B70000E945305E0911103F0911203EE0FFF1F45
:100B8000E050FF4F808191818A30910561F481E0CE
:100B900090E09183808385EE91E00E94F61087EFCC
:100BA00091E00C94F61001969183808308954F9202
:100BB0005F926F927F928F929F92AF92BF92CF92ED
:100BC000DF92EF92FF920F931F93CF93DF93CDB7F6
:100BD000DEB768970FB6F894DEBF0FBECDBF66EAEA
:100BE00072E0CE010D960E94CC1565E574E0CE0151
:100BF00001960E940416BE016F5F7F4FCE010796DB
:100C00000E940416BE01635F7F4FCE0107960E94CB
:100C100009150E946011CE0107960E946B15CE0146
:100C200001960E946B15CE010D960E946B1562E82D
:100C300072E088EE94E00E946816C12CD12C93E0FB
:100C4000892E912C0E942A0580911F0390912003E8
:100C5000039721F41092200310921F0300E410E088
:100C6000A0901F03B0902003A114B10419F483EEE7
:100C700094E00DC081E0A816B10419F483EE94E06D
:100C80000FC0E2E0AE16B10429F48EED94E00E94AC
:100C9000FB1708C0F3E0AF16B10491F48EED94E0B9
:100CA0000E94D717BC01990F880B990B0E94FE2751
:100CB00060930D0370930E0380930F0390931003C2
:100CC00060910D0370910E0380910F0390911003BA
:100CD0009B01AC010E945D286093090370930A0395
:100CE00080930B0390930C0320910503309106032E
:100CF00040910703509108030E9453296093050314
:100D00007093060380930703909308030150110921
:100D100009F0A6CF20E030E040E85CE30E945D28C7
:100D20002B013C0120E030E040E05FE30E945D28C1
:100D30007B018C01B0E0A0E0F0E0E0E02B2F3A2F47
:100D40004F2F5E2FB701C8010E94F7278823C9F0F3
:100D50009701A801C301B2010E94BF299B01AC0108
:100D6000B701C8010E94532920E030E040E05FE372
:100D70000E945D28BE2DAF2DF02FE12F7B018C014D
:100D8000DDCF20E030E040E05EE3B701C8010E9423
:100D90005D2820E030E040E950E40E945D28609347
:100DA0000103709302038093030390930403109252
:100DB000050310920603109207031092080320E027
:100DC00030E048EC52E40E94BF292B013C016AEF5D
:100DD00071E0CE0143960E940D164AE0B501CE01A6
:100DE0000D960E94A0156CEF71E0CE0101960E9455
:100DF0000D16BE016F5F7F4FCE0107960E9404164D
:100E0000BE01635F7F4FCE0107960E940915BE01A8
:100E10006D5E7F4F0E9409150E946011CE010796FA
:100E20000E946B15CE0101960E946B15CE010D96A6
:100E30000E946B15CE0143960E946B1562E072E032
:100E4000CE0107960E940D1620E030E040EF52E4FC
:100E5000C301B2010E945D28AB01BC0122E0CE01BA
:100E600001960E947015BE01695F7F4FCE01019609
:100E70000E9409150E946011CE0101960E946B1517
:100E8000CE0107960E946B1580E092E00E947F11D0
:100E900069E072E0CE0107960E940D1622E0B301D0
:100EA000A201CE0101960E947015BE01695F7F4FBD
:100EB000CE0101960E9409150E947111CE01019682
:100EC0000E946B15CE0107960E946B15E0911F03DF
:100ED000F0912003EE0FFF1FEE0FFF1FED5EFC4FA2
:100EE00040825182628273822AE037ED43E25CE302
:100EF000C301B2010E94F727181634F190926B05D6
:100F000080926A05C601089690931203809311039C
:100F10004AE0B601CE0107960E94A01568E272E091
:100F2000CE0101960E940D166F81788589819A8184
:100F30000E94B80FCE0101960E946B15CE01079654
:100F40000E946B150E94AC0522E0B301A201CE0104
:100F500043960E94701560911F03709120034AE030
:100F6000CE010D960E94A0156FE072E0CE010196B1
:100F70000E940D16BE016F5F7F4FCE0107960E9443
:100F80000416BE01635F7F4FCE0107960E940915CC
:100F90006B897C89FC01808191810E94B80FCE0110
:100FA00007960E946B15CE0101960E946B15CE012B
:100FB0000D960E946B15CE0143960E946B15809191
:100FC0001F039091200301969093200380931F03A9
:100FD000FFEFCF1ADF0A83E0C816D10409F032CE42
:100FE00068960FB6F894DEBF0FBECDBFDF91CF91EC
:100FF0001F910F91FF90EF90DF90CF90BF90AF9037
:101000009F908F907F906F905F904F9008952F9258
:101010003F924F925F926F927F928F929F92AF9288
:10102000BF92CF92DF92EF92FF920F931F93CF93D5
:10103000DF93CDB7DEB76A970FB6F894DEBF0FBE69
:10104000CDBF109200031092FF0260E872E0CE0163
:101050000F960E94CC1565E574E08E010F5F1F4F5F
:10106000C8010E940416B801CE0109960E94041618
:10107000BE01615F7F4FCE0109960E9409150E9453
:101080006011CE0109960E946B15C8010E946B1574
:10109000CE010F960E946B156CE572E088EE94E02D
:1010A0000E946816E0902B03F0902C033701660C29
:1010B000771CC30184519D4F2C01C12CD12CAA2433
:1010C000A394B12C62E0262E312C80912D039091B7
:1010D0002E03E816F9060CF038C10E942A05E091AB
:1010E000FF02F0910003EE0FFF1FE45DFE4F61E091
:1010F00080810E942E101092340380933303882342
:1011000031F08DE394E00E948A1E8093FE026AE52E
:1011100072E0CE0145960E94CC1565E574E0CE01E3
:1011200009960E940416BE01675F7F4FCE010F969D
:101130000E940416BE016B5E7F4FCE010F960E9487
:1011400009154C014AE0B801C7010E943F25F8018A
:1011500001900020E9F73197AF01401B510BB80116
:10116000C4010E94A714811103C0C4010E94F71496
:10117000C4010E946011CE010F960E946B15CE0132
:1011800009960E946B15CE0145960E946B158AEF59
:1011900091E00E947F119091FE02809129038923A2
:1011A0008093FD02F201EC0DFD1D811140C01092F3
:1011B000FC0211821082F601E60DF71DE050FF4F90
:1011C000B182A0824AE060E070E0CE0145960E94C4
:1011D000A0154AE0B701CE010F960E94A01562E16A
:1011E00072E0C8010E940D16B801CE0109960E9456
:1011F0000416BE01615F7F4FCE0109960E9409155A
:101200006D897E89FC01808191810E94B80FCE0199
:1012100009960E946B15C8010E946B15CE010F96AE
:101220000E946B15CE0145960E946B1548C081E067
:101230008093FC02B182A0824AE061E070E0CE01BE
:1012400045960E94A0154AE0B701CE010F960E9474
:10125000A01562E172E0C8010E940D16B801CE012E
:1012600009960E940416BE01615F7F4FCE01099668
:101270000E9409156D897E89FC01808191810E94FF
:10128000B80FCE0109960E946B15C8010E946B151C
:10129000CE010F960E946B15CE0145960E946B15EC
:1012A000F6E0EF16F1040CF071C0B0926B05A0925D
:1012B0006A05F0921203E09211030E94AC0568E502
:1012C00072E0CE0145960E94CC156091FC0270E060
:1012D0004AE0CE010F960E94A01561E572E0C801B8
:1012E0000E94CC15B801CE0109960E940416BE01D9
:1012F000615F7F4FCE0109960E940915BE016B5EAA
:101300007F4F0E9409150E946011CE0109960E942C
:101310006B15C8010E946B15CE010F960E946B15CC
:10132000CE0145960E946B158091290390912A0366
:10133000880F991F90932A03809329038FEFE81A4F
:10134000F80A92E0C90ED11CC0CE0E9472106DE264
:1013500072E088EE94E00E9468166A960FB6F894E0
:10136000DEBF0FBECDBFDF91CF911F910F91FF90D8
:10137000EF90DF90CF90BF90AF909F908F907F9035
:101380006F905F904F903F902F90089530926B0533
:1013900020926A058ECF2F923F924F925F926F926A
:1013A0007F928F929F92AF92BF92CF92DF92EF92F5
:1013B000FF920F931F93CF93DF93CDB7DEB7C55B3B
:1013C000D1090FB6F894DEBF0FBECDBF0E946103F6
:1013D0000E946A030E948D036BE574E0CE018B5A74
:1013E0009F4F0E943E0561EA73E0CE0101960E9484
:1013F000CC15BE016F5F7F4FCE018B5A9F4F0E946D
:101400000019CE0101960E946B150E94FC0F80E22C
:1014100091E00E94DF24909328038093270380911A
:10142000270390912803892B09F054C00E9461037F
:101430000E946A030E948D036DE773E088EE94E0DA
:101440000E94681669E573E088EE94E00E946816D1
:1014500082E493E00E940E116EE173E088EE94E066
:101460000E9468166AEF72E088EE94E00E946816A7
:1014700060E08DE00E94E41660ED77E080E090E0AF
:101480000E9447176BE574E0CE0101960E943E056D
:101490006DED72E0CE0187559F4F0E94CC15BE01C5
:1014A00067557F4FCE0101960E940019CE018755E6
:1014B0009F4F0E946B150E94FC0F80E291E00E94FA
:1014C000DF249093280380932703CE0101960E9486
:1014D000C319A5CFCE018B5A9F4F0E94C31968ED47
:1014E00074E085E594E00E94541506E010E0109346
:1014F0002E0300932D0310922C0310922B0381E0F6
:1015000090E090932A03809329030E9407086CECD3
:1015100074E085E594E00E94541588E090E0909393
:101520002E0380932D0310932C0300932B0380E450
:1015300090E090932A03809329030E94070866ECA9
:1015400074E085E594E00E9454150E94D7056BE590
:1015500074E0CE0101960E943E0564ED73E0CE0179
:101560008B5A9F4F0E94CC15BE016B5A7F4FCE0104
:1015700001960E940019CE018B5A9F4F0E946B1555
:101580006EEB73E088EE94E00E946816CE0101963F
:101590000E94C31910926B0510926A0528E1C22EB1
:1015A000D12C38E0632E712C46E0E42EF12C64EF50
:1015B00071E080E090E00E94471767E675E088EEF2
:1015C00094E00E94681661E08DE00E94E41664EFEA
:1015D00071E080E090E00E94471760E08DE00E949B
:1015E000E41688EE94E00E94231A8A30F1F021E09C
:1015F000C21AD108E1F6CB54DF4F0FB6F894DEBF24
:101600000FBECDBFDF91CF911F910F91FF90EF9053
:10161000DF90CF90BF90AF909F908F907F906F9012
:101620005F904F903F902F9008950E9461030E9419
:101630006A030E948D0363E475E088EE94E00E94E3
:1016400068168FE295E00E940E116BE075E088EE5F
:1016500094E00E94681668EE73E080E090E00E94DB
:10166000471788EE94E00E94231ACD54DF4F8883F9
:10167000C35BD04095E0292E312C88EE94E00E9487
:10168000E3198091F604882309F4BFC288EE94E040
:101690000E94231A8A3009F0B3C284E192E00E94CA
:1016A0000E0E882341F00E9473036BEF71E08FE40C
:1016B00094E00E943D1588E192E00E940E0E88237E
:1016C00041F06BEF71E08FE494E00E943D150E94C1
:1016D000CB098DE192E00E940E0E8823F9F00E9462
:1016E00073036BE574E0CE0101960E943E0564E051
:1016F00075E0CE018B5A9F4F0E94CC15BE016B5AEC
:101700007F4FCE0101960E940019CE018B5A9F4F48
:101710000E946B15CE0101960E94C31984E292E0EB
:101720000E940E0E8823E9F06BE574E0CE0101966D
:101730000E943E056AEF74E0CE018B5A9F4F0E94D3
:10174000CC15BE016B5A7F4FCE0101960E94001945
:10175000CE018B5A9F4F0E946B15CE0101960E94BD
:10176000C3198AE292E00E940E0E882309F48FC00A
:1017700081E294E00E940E110E948111812C912C33
:1017800054018394512C4424439440923503809215
:10179000570310923603109258030E947210811161
:1017A00051C066E074E088EE94E00E9468164AE05A
:1017B000C501B4010E941F1180E392E00E947F11D5
:1017C00040E1C501B4010E941F1186E392E00E942E
:1017D0007F118401F401B097E830F10570F4EA5A02
:1017E000FF4F0C94672A82ED94E005C08CEC94E0E6
:1017F00002C08AEB94E00E947111F801F897E8307A
:10180000F10570F4E25AFF4F0C94672A86EC94E0DD
:1018100005C080EC94E002C08AEB94E00E94711154
:10182000F801E854F109E830F10558F4EA59FF4F9E
:101830000C94672A86EC94E002C08AEB94E00E9444
:10184000711153948FEF881A980AA80AB80A98E77A
:1018500089169104A104B10409F097CF80E094E0C7
:101860000E940E1189EF93E00E940E11652D70E029
:1018700080E090E04AE00E941F118DEE93E00E940C
:101880000E116BEF71E08FE494E00E943D1589E347
:1018900092E00E940E0E882341F06BEF71E08FE41E
:1018A00094E00E943D150E94CB0980E592E00E94E1
:1018B0000E0E882341F00E948D036BEF71E08FE4E0
:1018C00094E00E943D158EE392E00E940E0E882364
:1018D00061F030926B0520926A050E9453056BEF10
:1018E00071E08FE494E00E943D1584E492E00E9450
:1018F0000E0E882309F4C3C00E948D0366ED74E0C8
:1019000088EE94E00E9468166FEB74E088EE94E035
:101910000E94681661EA74E088EE94E00E946816FE
:101920006DE774E088EE94E00E94681669E574E063
:1019300088EE94E00E94681688EE94E00E94231AD4
:101940008BEF91E0CC54DF4F8883C45BD040BC0167
:101950008FE494E00E943D1588EE94E00E94E31924
:101960008091F604882309F47CC088EE94E00E94FC
:10197000231A182F082E000C990BC0970A9728F4E9
:10198000612F89E494E00E94D5141A3009F064C0F4
:1019900089E494E00E943D1EC155DF4F688379833E
:1019A0008A839B83CF5AD04060E574E088EE94E050
:1019B0000E946816C155DF4F88819981CF5AD04067
:1019C0000E94CE116BEF71E089E494E00E943D1516
:1019D0002CE3C155DF4F88819981CF5AD040289F91
:1019E0002001299F500C112400E010E0041515057A
:1019F00054F568EE73E080E090E00E944717C8015C
:101A00006CE370E00E94312A892B31F46EE474E0BB
:101A100088EE94E00E9468166CE474E088EE94E02E
:101A20000E94681688EE94E00E94231A8A3041F4DE
:101A30006BEF71E08FE494E00E943D150E94CB09AA
:101A40000F5F1F4FD3CF6BEF71E08FE494E00E94E4
:101A50003D150E94CB0905C0612F8FE494E00E94E0
:101A6000D514CC54DF4F2881C45BD0402A3009F014
:101A700073CF6BEF71E08FE494E00E943D158CE42E
:101A800092E00E940E0E882309F455C06BEF71E0BE
:101A90008FE494E00E943D150E9461030E946A0356
:101AA00068ED74E085E594E00E945415F0922E03F1
:101AB000E0922D0310922C0310922B0381E090E012
:101AC00090932A03809329030E9407086CEC74E02A
:101AD00085E594E00E94541570922E0360922D03C8
:101AE000F0922C03E0922B0380E490E090932A0381
:101AF000809329030E94070866EC74E085E594E072
:101B00000E9454150E94D70588EE94E00E94231A83
:101B1000CB54DF4F8883C55BD0400E946A03CB540F
:101B2000DF4F8881C55BD0408A3009F0B9CF0E9471
:101B300061030E94730385E592E00E940E0E8823E4
:101B4000E1F068ED74E085E594E00E945415F092B0
:101B50002E03E0922D0310922C0310922B0381E0B0
:101B600090E090932A03809329030E9407086BEF6B
:101B700071E08FE494E00E943D158CE592E00E94B4
:101B80000E0E8823E1F06CEC74E085E594E00E9491
:101B9000541570922E0360922D03F0922C03E09264
:101BA0002B0380E490E090932A03809329030E9402
:101BB00007086BEF71E08FE494E00E943D1583E627
:101BC00092E00E940E0E882371F066EC74E085E5C9
:101BD00094E00E9454150E94D7056BEF71E08FE4EA
:101BE00094E00E943D1580E090E00E940E0E81116D
:101BF0000CC06BEF71E08FE494E00E943D1505C0CE
:101C0000682F8FE494E00E94D514CD54DF4F2881D3
:101C1000C35BD0402A3009F030CDE9CCFC01809183
:101C2000530490915404892B21F421E0309749F416
:101C300013C080914F0490915004309731F421E00B
:101C4000FC018081882341F006C0BF010E94862CE0
:101C500021E0892B09F020E0822F08952F923F92F6
:101C60004F925F926F927F928F929F92AF92BF92AC
:101C7000CF92DF92EF92FF920F931F93CF93DF9358
:101C8000CDB7DEB72B970FB6F894DEBF0FBECDBF32
:101C90009B878A875B011901FD82EC823A01600E05
:101CA000711E872C7B82912C44244A94542C9B01D6
:101CB000240F351F3F832E839101200F311F398759
:101CC0002887EA85FB858085981608F036C1AA85A5
:101CD000BB8514965C924E92139715968D919C91AC
:101CE0001697DC01ED91FC910190F081E02D6FEFF2
:101CF00009956FEF8A859B850E94B71FEA85FB8552
:101D000085819681DC01ED91FC910190F081E02DBF
:101D1000AA85BB856C910995EA85FB856081CF0119
:101D20000E94B71FAA85BB8515968D919C91169729
:101D3000DC01ED91FC910190F081E02D682D099579
:101D40006B818A859B850E94B71FEA85FB8585810B
:101D50009681DC01ED91FC910190F081E02D662DE2
:101D60000995662D8A859B850E94B71F75012E8176
:101D70003F81E216F306B1F0EA85FB858581968105
:101D80008701DC01ED91FC910190F081E02DD701FC
:101D90006D917D010995F80160818A859B850E947E
:101DA000B71FE5CF7101AA85BB8515968D919C91D2
:101DB000169728853985E216F30691F08701DC0134
:101DC000ED91FC910190F081E02DD7016D917D01A5
:101DD0000995F80160818A859B850E94B71FE3CF32
:101DE000DC01ED91FC91AA85BB8514966C91019064
:101DF000F081E02D0995EA85FB8585819681DC01DE
:101E0000ED91FC910190F081E02DAA85BB851396A0
:101E10006C91099564E670E08A859B850E94801F1D
:101E20008F3F910509F07DC0EA85FB85548243828E
:101E30006FEFCF010E94B71F65E070E08A859B8538
:101E40000E94801FAA85BB856C91262F30E08217E7
:101E5000930709F066C0CD010E94B71F6AE070E0E9
:101E60008A859B850E94801F7C0197FD5AC0682F40
:101E70008A859B850E94B71F6AE070E08A859B85F2
:101E80000E94801F8C0197FD4CC0682F8A859B851E
:101E90000E94B71FEA821982E981FA810E0F1F1F83
:101EA000E12CF12C65E070E08A859B85E016F10657
:101EB000A9F0EC14FD0491F00E94801F97FD0AC068
:101EC000EC81FD81EE0DFF1D8083682F8A859B8547
:101ED0000E94B71FFFEFEF1AFF0AE4CF0E94801F96
:101EE0007C0197FD1EC065E070E08A859B850E949D
:101EF000801F97FD16C0FE2CEE248E0D9F1DAA8517
:101F0000BB8513962D913C9114972817390749F4F6
:101F10008C918F5F8C93C801C016D10680F4C601E6
:101F20000EC0939464E670E080E090E00E94471752
:101F30008A859B850E94641FC4CE8FEF9FEF2B96EE
:101F40000FB6F894DEBF0FBECDBFDF91CF911F91CA
:101F50000F91FF90EF90DF90CF90BF90AF909F9048
:101F60008F907F906F905F904F903F902F9008954B
:101F7000EF92FF920F931F93CF93DF93CDB7DEB70E
:101F800027970FB6F894DEBF0FBECDBF7C018B0143
:101F900061EC72E0CE0101960E940D16B701CE01F0
:101FA00001960E94E81463EC72E0CE0101960E9453
:101FB000E814B801CE0101960E94E8144D815E81BB
:101FC00069817A8101E010E09E01295F3F4F8BE536
:101FD00094E00E94CE1FCE0101960E946B152796B9
:101FE0000FB6F894DEBF0FBECDBFDF91CF911F912A
:101FF0000F91FF90EF900895CF92DF92EF92FF92B2
:102000000F931F93CF93DF931F92CDB7DEB784E674
:10201000898382E0C82ED12C90E2E92E91E0F92E3E
:102020000DE010E025EC32E041E050E0BE016F5FD2
:102030007F4F8BE594E00E942E0E8230910520F4B4
:10204000FC01E05EFE4F10820F90DF91CF911F9157
:102050000F91FF90EF90DF90CF90089590919F03A4
:102060009111FCCF91E090939F0390939E032FEFEB
:1020700020939D0310929C03260F20939B03909323
:102080009A0390919A03880F892B80939A038091E9
:102090009903813061F41092990380919A0380939F
:1020A000BB008091BC0083FDF8CF85EC01C085EEBC
:1020B0008093BC0080919F038130E1F380919C0369
:1020C000861710F460919C03A9E7B3E029E533E09B
:1020D000F9018E2F821B861718F48D918193F9CF09
:1020E000862F08952091580390915703213208F0CC
:1020F0004AC080919F038111FCCF32E030939F034F
:1021000031E030939E033FEF30939D0310929C0388
:1021100020939B03A7E3B3E049E753E0FA013E2F86
:10212000341B321718F43D913193F9CF10929A0372
:1021300020919A03990F922B90939A03909199036F
:10214000913061F41092990390919A039093BB009F
:102150009091BC0093FDF8CF95EC01C095EE909363
:10216000BC0090919F039230E1F390919D039F3FBB
:1021700079F080919D03803241F080919D038033FE
:1021800031F084E005C081E003C082E001C083E05B
:1021900010923603109258031092350308951F933E
:1021A000CF93DF931F92CDB7DEB7162F91E09093B8
:1021B000350380935703109236031092580361E061
:1021C0008DE394E079830E94D61E7981672F8DE399
:1021D00094E00E94D61E612F8DE394E00E94D61EEB
:1021E0000F90DF91CF911F910C947210BC0100975A
:1021F00091F0FC0101900020E9F73197AF01481BF5
:10220000590BE091E804F091E9040280F381E02D9C
:1022100088EE94E0099480E090E00895CF93DF93F6
:10222000BC0188EE94E00E946816EC0187EF91E013
:102230000E94F6108C0F9D1FDF91CF9108958F9211
:102240009F92AF92BF920F931F93CF93DF93CDB71F
:10225000DEB7A1970FB6F894DEBF0FBECDBF19A2AF
:10226000423008F44AE08E010F5D1F4F842E912CFE
:10227000A12CB12CA50194010E94452AE62FB90199
:10228000CA0101501109EA3014F4E05D01C0E95CB3
:10229000D801EC93232B242B252B61F7C8010E9436
:1022A000F610A1960FB6F894DEBF0FBECDBFDF913A
:1022B000CF911F910F91BF90AF909F908F900895F5
:1022C000E091E804F091E904DC0114964D915C91F1
:1022D00015976D917C910280F381E02D88EE94E05A
:1022E0000994CF93DF930E946011EC0187EF91E096
:1022F0000E94F6108C0F9D1FDF91CF9108950C94D2
:10230000F610109234031092330310923603109299
:10231000580310929F0381E080939E0310929903CB
:1023200061E082E00E94E41661E083E00E94E4162E
:10233000E9EBF0E080818E7F808380818D7F8083D8
:1023400088E48093B80085E48093BC000895CF9220
:10235000DF92EF92FF92CF93DF936B017C01E091CC
:10236000E804F091E9040190F081E02D6DE288EE3F
:1023700094E00995EC0166277727CB016C197D095C
:102380008E099F094AE00E941F118C0F9D1FDF914B
:10239000CF91FF90EF90DF90CF900895CF93DF9390
:1023A000BC01990F880B990B97FF03C00E94A711DE
:1023B00003C04AE00E941F11EC0187EF91E00E94E8
:1023C000F6108C0F9D1FDF91CF9108950F931F93EF
:1023D0000E94811760936E0470936F048093700461
:1023E00090937104E0916604F09167040284F38590
:1023F000E02D86E694E0099597FF1FC00E948117A3
:1024000000916E0410916F0420917004309171045A
:10241000DC01CB01801B910BA20BB30B00916A0472
:1024200010916B0420916C0430916D04801791071A
:10243000A207B307B8F28FEF9FEF1F910F91089596
:10244000FC0180913203811103C08FEF9FEF08954B
:102450009FB7F89482E08093E9002091F20030E089
:102460001216130614F421E030E02115310559F05D
:10247000289884E6809331038091F10080838091D5
:10248000F200882319F09FBFC90108958BE680935D
:10249000E800F9CF2FB7F89483E08093E90090919A
:1024A000E800892F807295FF04C09091F20080E4CB
:1024B000891B2FBF08958F929F92AF92BF92CF92A8
:1024C000DF92EF92FF920F931F93CF93DF935C0104
:1024D0006B017A0180911F01882309F45BC0809110
:1024E0003203882309F456C08091300380FF05C071
:1024F0008091E00082608093E000E70110E00AEF45
:1025000083E0882E9AE3992E2097D9F10E944A12EF
:1025100081110AC0015009F43DC061E070E080E023
:1025200090E00E944717F0CF282F30E0C217D30762
:102530000CF48C2F4FB7F8948092E9009091E8004A
:1025400095FF1DC0282F30E0C21BD30BF601982F3A
:10255000915020F081918093F100FACFC20ED31EEA
:10256000112319F09092E80009C08091E80085FDE0
:1025700006C09092E80011E0209709F010E04FBFEC
:10258000C3CF1111C3CF5D9884E680932F031E142F
:102590001F0444F081E090E0F5019383828380E0A2
:1025A00090E001C0C701DF91CF911F910F91FF9083
:1025B000EF90DF90CF90BF90AF909F908F90089555
:1025C0008091030581110DC082E08093FF0484E0B7
:1025D00080930005109202051092010581E080931E
:1025E00003058FEF94E00895CF92DF92EF92FF9270
:1025F0000F931F93CF93DF936C017A018B01C0E09F
:10260000D0E0CE15DF0589F0D8016D918D01D6019E
:10261000ED91FC910190F081E02DC6010995892B87
:1026200011F47E0102C02196ECCFC701DF91CF915A
:102630001F910F91FF90EF90DF90CF900895FC01D4
:10264000538D448D252F30E0842F90E0821B930B17
:10265000541710F0CF96089501970895FC01918DBD
:10266000828D981761F0828DDF01A80FB11D5D96F4
:102670008C91928D9F5F9F73928F90E008958FEF62
:102680009FEF0895FC01918D828D981731F0828D16
:10269000E80FF11D858D90E008958FEF9FEF08956D
:1026A000FC01918D228D892F90E0805C9F4F821BD1
:1026B00091098F739927089580EA93E00E9450133F
:1026C00021E0892B09F420E0822F0895FC01848DFC
:1026D000DF01A80FB11DA35ABF4F2C91848D90E04C
:1026E00001968F739927848FA689B7892C93A08927
:1026F000B1898C9180648C93938D848D981306C0DE
:102700000288F389E02D80818F7D80830895EF9288
:10271000FF920F931F93CF93DF93EC0181E0888F9B
:102720009B8D8C8D981305C0E889F989808185FD82
:1027300024C0F62E0B8D10E00F5F1F4F0F73112773
:10274000E02E8C8DE8120CC00FB607FCFACFE8899A
:10275000F989808185FFF5CFCE010E946613F1CF04
:102760008B8DFE01E80FF11DE35AFF4FF0820B8FB6
:10277000EA89FB898081806207C0EE89FF896083D6
:10278000E889F98980818064808381E090E0DF912D
:10279000CF911F910F91FF90EF900895CF93DF930A
:1027A000EC01888D8823C9F0EA89FB89808185FD49
:1027B00005C0A889B9898C9186FD0FC00FB607FCAA
:1027C000F5CF808185FFF2CFA889B9898C9185FFEB
:1027D000EDCFCE010E946613E7CFDF91CF91089530
:1027E00080E090E0892B29F00E945C1381110C9409
:1027F000000008953FB7F8948091660590916705B1
:10280000A0916805B091690526B5A89B05C02F3F2A
:1028100019F00196A11DB11D3FBFBA2FA92F982F06
:102820008827820F911DA11DB11DBC01CD0142E081
:10283000660F771F881F991F4A95D1F7089508954D
:102840000F931F93CF93DF93EC01888199810097B9
:1028500029F02A813B812617370788F48B016F5FA7
:102860007F4F0E94AE2B009761F0998388831B8372
:102870000A832C813D81232B11F4FC01108281E01D
:1028800001C080E0DF91CF911F910F9108951F93B8
:10289000CF93DF93182F81E0809335031093570374
:1028A000109236031092580360E08DE394E00E948A
:1028B000D61E0E94721062E0812F0E942E1010928C
:1028C0003403809333038DE394E00E948A1E182F13
:1028D0008DE394E00E948A1ED12F20E0C22F9E013A
:1028E000282BC901DF91CF911F910895CF93DF93DA
:1028F00000D01F92CDB7DEB729E42983FC012685DD
:102900002A836B8343E050E0BE016F5F7F4F848575
:1029100095850E94E31F81E090E00F900F900F904B
:10292000DF91CF910895CF93DF93FC01228921118C
:102930000BC0EC01438950E06589768984859585D3
:102940000E94E31F81E08B8BDF91CF910895EF927E
:10295000FF920F931F93CF93DF93FC012481358166
:102960006115710511F480E019C041155105A9F0F8
:102970007B01EC018A01020F131FB8010E94201491
:10298000882389F3288139818C819D81B701820F49
:10299000931F0E948F2C1D830C8381E0DF91CF91C8
:1029A0001F910F91FF90EF900895CF93DF9300D088
:1029B000CDB7DEB769831A8241E050E0BE016F5F98
:1029C0007F4F0E94A7140F900F90DF91CF91089531
:1029D0006115710551F0FB0101900020E9F7319775
:1029E000AF01461B570B0C94A71480E00895CF93BA
:1029F000DF93EC0188819981009711F00E94162BDA
:102A0000198218821D821C821B821A82DF91CF914B
:102A10000895CF93DF93EC01FB01448155816081E0
:102A200071810E94A714811103C0CE010E94F71486
:102A3000CE01DF91CF910895EF92FF920F931F93F4
:102A4000CF93DF93EC017B018A01BA010E9420142D
:102A5000811104C0CE010E94F71407C01D830C83AE
:102A6000B701888199810E948F2CCE01DF91CF918F
:102A70001F910F91FF90EF900895CF93DF93EC019A
:102A80006115710559F0FB0101900020E9F73197BC
:102A9000AF01461B570B0E941C1502C00E94F71481
:102AA000CE01DF91CF910895CF93DF93EC01FB012D
:102AB0008617970761F0608171816115710529F0B2
:102AC000448155810E941C1502C00E94F714CE015A
:102AD000DF91CF910895FC01808191810C94162B98
:102AE000EF92FF920F931F93CF93DF93CDB7DEB793
:102AF000A1970FB6F894DEBF0FBECDBF7C01CB010E
:102B0000BA01F70111821082138212821582148297
:102B100042E0420F8E010F5F1F4F0E94BF24BC0195
:102B2000C7010E943D15A1960FB6F894DEBF0FBEF7
:102B3000CDBFDF91CF911F910F91FF90EF9008953E
:102B40000F931F93CF93DF93CDB7DEB762970FB686
:102B5000F894DEBF0FBECDBF8C01CB01F80111820E
:102B60001082138212821582148250E0BE016F5FC0
:102B70007F4F0E943425BE016F5F7F4FC8010E94C6
:102B80003D1562960FB6F894DEBF0FBECDBFDF9144
:102B9000CF911F910F910895EF92FF920F931F9382
:102BA000CF93DF93EC01198218821B821A821D8257
:102BB0001C826115710509F18B01CB010E942B2547
:102BC0007C01BC01CE010E942014811109C0CE01FC
:102BD000DF91CF911F910F91FF90EF900C94F7141C
:102BE000FD82EC82B80188819981DF91CF911F919C
:102BF0000F91FF90EF900C942425DF91CF911F91BE
:102C00000F91FF90EF900895FC01118210821382C2
:102C10001282158214820C945415FC0111821082C8
:102C200013821282158214826115710551F0FB0125
:102C300001900020E9F73197AF01461B570B0C9428
:102C40001C150895BF92CF92DF92EF92FF920F93DF
:102C50001F93CF93DF937C016B018A01E901241755
:102C6000350720F4812F8901C42FD82F6BEF71E035
:102C7000C7010E940D16D60114968D919C9115974F
:102C800008171907D0F48C179D0708F4EC01D6013A
:102C9000ED91FC911197EC0FFD1FB08010824D91CA
:102CA0005C91BA01600F711FC7010E943D15D601EA
:102CB000ED91FC91EC0FFD1FB082C701DF91CF9128
:102CC0001F910F91FF90EF90DF90CF90BF900895EC
:102CD000EF92FF920F931F93CF93DF938C017B01B1
:102CE000C0E0D0E0F701EC0FFD1F6491662361F0B6
:102CF000D801ED91FC910190F081E02DC80109957A
:102D0000892B11F02196EECFCE01DF91CF911F914B
:102D10000F91FF90EF9008951F920F920FB60F92B0
:102D200011242F933F934F935F936F937F938F93D0
:102D30009F93AF93BF93EF93FF9380EA93E00E943A
:102D40006613FF91EF91BF91AF919F918F917F910A
:102D50006F915F914F913F912F910F900FBE0F9008
:102D60001F9018951F920F920FB60F9211242F9358
:102D70008F939F93EF93FF93E091B003F091B10392
:102D80008081E091B603F091B70382FD12C090817B
:102D90008091B9038F5F8F732091BA03821751F02E
:102DA000E091B903F0E0E056FC4F958F8093B903B2
:102DB00001C08081FF91EF919F918F912F910F9092
:102DC0000FBE0F901F901895362F90E0FC01E75929
:102DD000FA4F4491FC01ED53FA4F2491FC01EC555C
:102DE000FA4F8491882309F451C04423E1F150E063
:102DF000FA013197EF30F105B0F5E259FF4F0C942D
:102E0000672A909180009F7707C0909180009F7DF6
:102E100003C090918000977F9093800024C094B568
:102E20009F7702C094B59F7D94BD1DC09091900086
:102E30009F7707C0909190009F7D03C09091900074
:102E4000977F909390000FC09091C0009F7703C030
:102E50009091C0009F7D9093C00005C09091C200EA
:102E6000977F9093C200E82FF0E0EE0FFF1FE85726
:102E7000FA4FA591B4918FB7F894EC91311103C03A
:102E800020952E2301C02E2B2C938FBF08958F9257
:102E90009F92AF92BF92CF92DF92EF92FF926B011F
:102EA0007C010E94FA134B015C01C114D104E104BE
:102EB000F104F1F00E94FA13DC01CB0188199909A1
:102EC000AA09BB09883E9340A105B10570F321E032
:102ED000C21AD108E108F10888EE880E83E0981E36
:102EE000A11CB11CC114D104E104F10419F7DDCF18
:102EF000FF90EF90DF90CF90BF90AF909F908F901A
:102F000008952FB7F89460916205709163058091E0
:102F10006405909165052FBF08951F920F920FB61B
:102F20000F9211242F933F938F939F93AF93BF934F
:102F30008091620590916305A0916405B09165054B
:102F40003091610523E0230F2D3720F40196A11D58
:102F5000B11D05C026E8230F0296A11DB11D2093C7
:102F600061058093620590936305A0936405B09317
:102F700065058091660590916705A0916805B091FF
:102F800069050196A11DB11D8093660590936705A3
:102F9000A0936805B0936905BF91AF919F918F9100
:102FA0003F912F910F900FBE0F901F901895CF93C8
:102FB000DF93EC016B817C816368716B88810E9477
:102FC000CF10698170E080E090E00E94471788810F
:102FD0000E9447142A81022E02C0969587950A9472
:102FE000E2F7222329F0811528E0920708F0906F7C
:102FF000DF91CF910895CF93DF93EC016B817C81BA
:103000006368716888810E94CF10698170E080E0F8
:1030100090E00E94471788810E9447142A81022E5F
:1030200002C0969587950A94E2F7222329F081152C
:1030300028E0920708F0906FDF91CF9108950F93E9
:103040001F93CF93DF9300D0CDB7DEB78C01FC0187
:103050008189882369F087E7898386858A8342E0AE
:1030600050E0BE016F5F7F4F848595850E94E31F0E
:10307000F801118A0F900F90DF91CF911F910F915E
:1030800008950F931F93CF93DF9300D000D0CDB757
:10309000DEB727E52B83FC0126852C8302E010E0B8
:1030A0009E012F5F3F4F42E050E0BE016D5F7F4FBA
:1030B000848595850E94CE1F898190E0982F88276E
:1030C0002A81820F911D0F900F900F900F90DF912A
:1030D000CF911F910F9108950F931F93CF93DF937B
:1030E00000D01F92CDB7DEB722E72983FC012685E9
:1030F0002A8301E010E09E012D5F3F4F42E050E047
:10310000BE016F5F7F4F848595850E94CE1F81E051
:103110009B81913009F080E00F900F900F90DF912C
:10312000CF911F910F910895AF92BF92CF92DF92EE
:10313000EF92FF920F931F93CF93DF9300D01F92D4
:10314000CDB7DEB75C0182E58B83D5011F96ED918B
:10315000FC915097048115812081318182E0C82E35
:10316000D12CFE0131967F0141E050E0BE016D5F40
:103170007F4F1C968D919C911D970E942E0E8A81E7
:10318000D5011E968C931E971F960D911C915097FA
:103190000115110531F0C8010E946B15C8010E948C
:1031A000162BF501108A17868981811102C081E0F2
:1031B000818B0F900F900F90DF91CF911F910F9106
:1031C000FF90EF90DF90CF90BF90AF9008950F9356
:1031D0001F93CF93DF93EC018B0163EC72E08F853B
:1031E00098890E94E814F8014481558160817181B9
:1031F0008F859889DF91CF911F910F910C94A7141F
:10320000CF92DF92EF92FF920F931F93CF93DF93B2
:1032100000D000D000D0CDB7DEB78C016B0163EDDC
:1032200072E0CE0101960E940D16C8010E941F187F
:1032300086E090E00E94812A7C01BE016F5F7F4F93
:103240000E940416F801F08AE786CE0101960E94DA
:103250006B156CED72E0CE0101960E940D16BE0159
:103260006F5F7F4FC8010E94E718CE0101960E9450
:103270006B15B601C8010E94E718C8010E94941896
:10328000C8010E946C18882339F064E670E080E081
:1032900090E00E944717F4CFC8010E94411826967B
:1032A0000FB6F894DEBF0FBECDBFDF91CF911F9157
:1032B0000F91FF90EF90DF90CF900895EF92FF92E3
:1032C0000F931F93CF93DF9300D01F92CDB7DEB73C
:1032D000FC012289211118C07C01138A8FE48983A3
:1032E00080E48B8386858A839F012C5E3F4F00E4B8
:1032F00010E043E050E0BE016F5F7F4F848595850D
:103300000E94CE1FF701828B0F900F900F90DF91DC
:10331000CF911F910F91FF90EF900895CF93DF937E
:10332000EC010E945E198A89882331F08B89C80FCD
:10333000D11D8C8990E002C08FEF9FEFDF91CF917C
:103340000895CF93DF93EC010E945E198A89882348
:1033500059F081508A8B8B8991E0980F9B8BC80F15
:10336000D11D8C8990E002C08FEF9FEFDF91CF914C
:103370000895CF93DF93EC010E945E198A8990E053
:10338000DF91CF9108952AE931E0FC013183208358
:103390000C941F18CF93DF93EC018A89811108C028
:1033A0008D899E89009711F00E94162B81E08A8BEF
:1033B00088899989009721F00E94162B198A188A0A
:1033C000DF91CF910895EF92FF920F931F93CF93C8
:1033D000DF9300D0CDB7DEB7FC012685211115C0E3
:1033E0007C01178680E7898380E28A83208931897E
:1033F00000E210E042E050E0BE016F5F7F4F848545
:1034000095850E94CE1FF70186870F900F90DF9160
:10341000CF911F910F91FF90EF900895CF93DF937D
:10342000EC010E94E3198E85882341F08F85E8899D
:10343000F989E80FF11D808190E002C08FEF9FEFC6
:10344000DF91CF910895CF93DF93EC010E94E319B0
:103450008E85882369F081508E87E889F9898F8568
:1034600091E0980F9F87E80FF11D808190E002C0E6
:103470008FEF9FEFDF91CF910895CF93DF93EC0112
:103480000E94E3198E8590E0DF91CF910895CF934C
:10349000DF931F92CDB7DEB76983DC01ED91FC911C
:1034A0000280F381E02D41E050E0BE016F5F7F4F6D
:1034B00009950F90DF91CF91089583E08093E90003
:1034C0008091F200882319F08AE38093E800089540
:1034D000FC018485958597FD0BC09FB7F89482E029
:1034E0008093E9008091F2009FBF90E001960895DB
:1034F0009FB7F89482E08093E9008091F2009FBF2B
:1035000090E0089540916E0550916F0520916C05F3
:1035100030916D0542175307B4F49091E80095700F
:10352000E1F39091E80092FD19C08093F100809141
:103530006E0590916F0501968F739927892B19F469
:103540008EEF8093E80080916E0590916F05019653
:1035500090936F0580936E0581E0089580E0089553
:10356000CF92DF92EF92FF920F931F93CF93DF934F
:103570001F92CDB7DEB7182F062FE42E862F880FA7
:103580008E5F99830E94821A83E00E94821AF12E34
:10359000C12E9981D92E8C2D8F19801798F4F601A0
:1035A000E7FE02C0849101C080810E94821A182F18
:1035B00080E00E94821A8123FFEFCF1ADF0A811177
:1035C000EACF01C081E00F90DF91CF911F910F9161
:1035D000FF90EF90DF90CF900895DF92EF92FF92EF
:1035E0000F931F93CF93DF93D82E8A017B01E40EB4
:1035F000F51EEB01CE15DF0571F0D7FE03C0FE010D
:10360000849101C088810E94821A21968111F2CF93
:103610008FEF9FEF01C0C801DF91CF911F910F91F4
:10362000FF90EF90DF900895615030F02091F1000D
:10363000FC0120830196F8CF289884E6809331031B
:1036400008950E944A1290E00895CF93DF931F924D
:10365000CDB7DEB7FC018485958597FD05C02FEFBA
:103660003FEF358724870BC0CE0101960E942012C0
:10367000019719F4898190E002C08FEF9FEF0F90BE
:10368000DF91CF9108950F931F93CF93DF931F92F4
:10369000CDB7DEB78C01FC018485958597FF0EC000
:1036A000CE0101960E942012019719F4298130E081
:1036B00002C02FEF3FEFF80135872487F80184859A
:1036C00095850F90DF91CF911F910F9108950F93E2
:1036D0001F93CF93DF931F92CDB7DEB782E089832C
:1036E00042E450E062EE75E080E80E94ED1A0E942C
:1036F000E012DC0112960D911C9113970115110532
:1037000069F0D801ED91FC910280F381E02DBE01BA
:103710006F5F7F4FC801099597FF07C089810F90A0
:10372000DF91CF911F910F910895F80100851185C8
:10373000E5CF0E94782C1F920F920FB60F921124A2
:103740008F939F938091E1009091E100937F9093FC
:10375000E10083FF0FC01092E90091E09093EB002D
:103760001092EC0092E39093ED001092320398E0F7
:103770009093F00082FF20C093E09093E900909135
:10378000F200992319F09AE39093E80090912F03A7
:10379000992339F090912F03915090932F039923FF
:1037A00089F190913103992339F09091310391502F
:1037B00090933103992341F184FF10C08091E2007E
:1037C0008E7E81608093E2008091E1008F7E809305
:1037D000E100809130038E7E806111C080FF16C0B1
:1037E0008091E2008E7E80618093E2008091E10012
:1037F0008E7E8093E100809130038E7E8160809385
:10380000300304C05D9ACDCF289AD6CF9F918F9177
:103810000F900FBE0F901F9018951F920F920FB62A
:103820000F921124CF92DF92EF92FF920F931F938A
:103830002F933F934F935F936F937F938F939F93B8
:10384000AF93BF93EF93FF93CF93DF93CDB7DEB7E3
:103850006C97DEBFCDBF1092E9008091E80083FF36
:10386000EDC168E0CE0145960E94141B82EF809363
:10387000E8008D8987FF05C09091E80090FFFCCF9C
:1038800003C09EEF9093E800982F907609F0C6C091
:103890009E892F89188D91110CC0803829F4809150
:1038A00071058093F10002C01092F1001092F100B6
:1038B00048C1422F50E0512B913051F4811141C148
:1038C0004130510509F03DC1809171058D7F0BC0DC
:1038D000933061F4811135C14130510509F031C196
:1038E000809171058260809371052BC1953041F400
:1038F0008091E80080FFFCCF20682093E30021C185
:10390000963009F05FC0EB8CFC8C1092E9001092AD
:103910006F0510926E05123091F510926D051092A0
:103920006C050E94671B99E0BE016F5F7F4FDB0152
:10393000E92F1D92EA95E9F799831A8391E09E8316
:1039400090EA98879AEF998720916E0530916F05DC
:10395000275F3F4F3C832B838D831092E9001092A9
:103960006F0510926E05F0926D05E0926C0549E0CE
:1039700050E080E00E94ED1A0E94671BE2C0F092C6
:103980006D05E0926C050E94E012DC011296ED904C
:10399000FC901397E114F10409F4C0C0D701ED9134
:1039A000FC910480F581E02DBE016B5E7F4FC70165
:1039B0000995009719F00CF0C4C0C7C0F701E08466
:1039C000F184E8CF973009F4C0C0983021F481E049
:1039D0008093F100B6C0993009F0B3C0837009F04C
:1039E000B4C0E9EAF1E081E021E036E39081992377
:1039F00061F08093E9002093EB0091919093EC00AB
:103A00003093ED008F5F873089F78EE78093EA006F
:103A10001092EA008F898093320393C08B8D9C8D26
:103A20001092E90010926F0510926E0590936D054B
:103A300080936C05898D811156C08E899D89913A3C
:103A400059F4813209F081C047E050E068E171E04B
:103A500080E00E94ED1A75C0913209F076C0833281
:103A600089F4888D90E0982F88272F89822BA0E0F9
:103A7000B0E08093220190932301A0932401B0939E
:103A800025015FC0803269F48091E80082FFFCCF9D
:103A900067E088E191E00E94141B8BEF8093E800BF
:103AA00006C0823209F04DC08F8980931F0180913A
:103AB0007005882319F0EEEFFAE002C0E0E0F8E0CC
:103AC0008091180190911901A0911A01B0911B01E8
:103AD000803B9440A105B10509F07BC080911F0196
:103AE00080FF93C076C00E94E012DC0112960D9117
:103AF0001C9113970115110541F1D801ED91FC912D
:103B00000190F081E02DBE016B5E7F4FC8010995E9
:103B1000811117C0F80100851185ECCF113009F42F
:103B20004EC0133091F48F89882309F445C0823048
:103B300081F440E86BE086E496E00E94B01A8823A6
:103B400021F08EEF8093E80079C081E28093EB0052
:103B500075C0813029F440E86BE08AE396E0EDCF50
:103B6000833099F70E94E012DC011296ED90FC90F0
:103B700013978E010F5F1F4F6801E114F10479F074
:103B8000D701ED91FC910680F781E02DB801C701C6
:103B90000995080F111DF701E084F184EECFD801DB
:103BA0001C92F60101900020E9F73197BF016C19D2
:103BB0007D0940E0C601C1CF64E276E002C068E260
:103BC00076E06115710509F2FB01449150E080E84F
:103BD00040CF0FB6F894A8958091600088618093DB
:103BE0006000109260000FBEA895EE3F2AE0F20739
:103BF00039F08091FE0A9091FF0A91838083A1CFD2
:103C00001092FF0A1092FE0A9CCFEE3F8AE0F8075E
:103C100031F0808191819093FF0A8093FE0A87E7BB
:103C200097E7918380839BE088E10FB6F894A8958D
:103C3000809360000FBE9093600083CF6C960FB6A8
:103C4000F894DEBF0FBECDBFDF91CF91FF91EF9112
:103C5000BF91AF919F918F917F916F915F914F91A4
:103C60003F912F911F910F91FF90EF90DF90CF9098
:103C70000F900FBE0F901F901895FC0180819181CD
:103C8000009711F00C94FD2460E070E0CB010895E2
:103C900085ED8093BC008091BC0084FDFCCF109228
:103CA0009F03089540919405262F30E0240F311D85
:103CB00021323105DCF420919F032430C9F4FC014A
:103CC00080E090E0861758F4309194052191DC0152
:103CD000AE58BA4FA30FB11D2C930196F3CF80912C
:103CE0009405680F6093940580E0089581E008953D
:103CF00082E008950895E091340380913303E8173A
:103D000030F4F0E0E75AFC4F808190E008958FEFA7
:103D10009FEF08959091340380913303981750F4E6
:103D2000E92FF0E0E75AFC4F208130E09F5F90934D
:103D3000340302C02FEF3FEFC90108958091330390
:103D400090E020913403821B91090895CF92DF9275
:103D5000EF92FF920F931F93CF93DF937C01262F57
:103D6000972F8A0180913503882391F0C62FD72F92
:103D70006E01C40ED51ECC15DD0571F06991D70119
:103D8000ED91FC910190F081E02DC7010995F3CFF1
:103D9000642F822F0E94521EC801DF91CF911F9184
:103DA0000F91FF90EF90DF90CF900895CF93DF9326
:103DB0001F92CDB7DEB76983209135032223D1F05E
:103DC00020915803203240F021E030E0FC013383A1
:103DD000228380E090E015C080913603E82FF0E068
:103DE000E95CFC4F998190838F5F809336038093C9
:103DF000580305C061E0CE0101960E94521E81E089
:103E000090E00F90DF91CF9108958F929F92AF92A3
:103E1000BF92CF92DF92EF92FF920F931F93CF93B7
:103E2000DF931F92CDB7DEB75C019B014A01DC0135
:103E300052968C91811105C07B018B01040F151FD7
:103E400031C080E58983C12CD12CE12CF12C8A0171
:103E500041E050E0BE016F5F7F4FF501848595859D
:103E60000E942E0E22C0D5015596ED91FC915697D9
:103E700053968C91539791E0980F53969C93D7014A
:103E80009D917D01E80FF11D9083F501938984894F
:103E9000981308C00190F081E02D0680F781E02D95
:103EA000C5010995E016F106F1F6C4010F90DF9106
:103EB000CF911F910F91FF90EF90DF90CF90BF9027
:103EC000AF909F908F900895CF93DF93EC018D81F9
:103ED0009E81DC01ED91FC910084F185E02D099536
:103EE0001816190654F48D819E81DC01ED91FC9128
:103EF0000284F385E02D0995EACFDF91CF910895F3
:103F00008F929F92AF92BF92CF92DF92EF92FF92E9
:103F1000CF93DF93EC016B010E9481174B015C0191
:103F2000E12CF12C8D819E81DC01ED91FC910284CC
:103F3000F385E02D099597FF0FC00E948117DC01E2
:103F4000CB0188199909AA09BB098C159D05AE05F5
:103F5000BF0540F38FEF9FEFDF91CF91FF90EF9080
:103F6000DF90CF90BF90AF909F908F900895FC010D
:103F7000238134812627022E2295207F2025032E9F
:103F8000322F22952F700226269532272327220FC3
:103F9000220F220F2025348323830895CF92DF92AE
:103FA000EF92FF920F931F936801790100E010E0F8
:103FB00020E030E00E942E0E1F910F91FF90EF90B5
:103FC000DF90CF9008950F931F9300E010E020E062
:103FD00030E00E94CE1F1F910F910895CF93DF9381
:103FE00000D0CDB7DEB7DC0152968C915297882372
:103FF00079F080E589836A8342E050E0BE016F5F1B
:104000007F4F1C968D919C911D970E94E31F1FC0AE
:104010005596ED91FC91569753968C91539791E05C
:10402000980F53969C935397E80FF11D6083539616
:104030009C91539754968C915497981308C0ED9186
:10404000FC9111970680F781E02DCD01099581E063
:1040500090E00F900F90DF91CF910895BF92CF9293
:10406000DF92EF92FF920F931F93CF93DF93CDB721
:10407000DEB72E970FB6F894DEBF0FBECDBF7C0122
:10408000C7010E94641F68EE73E080E090E00E9428
:104090004717D70115968D919C911697DC01ED91EC
:1040A000FC910084F185E02D09951816190644F35A
:1040B00085E0D82ECC24C39492E3B92EEFEAF1E048
:1040C000DE0111968D2D01900D928A95E1F7F70191
:1040D000C08645E050E0BE016F5F7F4FC7010E9480
:1040E000E31FD70115968D919C911697DC01ED91F8
:1040F000FC910190F081E02D63E009956AEF70E09A
:1041000080E090E00E94471760E676E0F701858145
:1041100096810E9468166AEF70E080E090E00E944D
:1041200047176EE576E0D70115968D919C9116970D
:104130000E94681664EF71E080E090E00E944717EB
:1041400062E576E0F701858196810E94681664EF4A
:1041500071E080E090E00E944717C7010E94641F51
:10416000E4EBF1E0DE0116968D2D01900D928A951B
:10417000E1F7D7011896BC9204E010E09E01255F9C
:104180003F4F45E050E0BE016A5F7F4FC7010E948C
:10419000CE1F8F3FBFEF9B0739F468EE73E080E0DE
:1041A00090E00E9447178ACF2B852111FFCF0497FB
:1041B00001F52C8530E02053310984E6829FA0016F
:1041C000839F500D11242D8530E0205331096AE082
:1041D000629FC001639F900D1124840F951F2E854F
:1041E00030E020533109820F931FF70192838183BE
:1041F00007C084E690E0D70112969C938E931197A6
:1042000082E3F70180872E960FB6F894DEBF0FBECB
:10421000CDBFDF91CF911F910F91FF90EF90DF9075
:10422000CF90BF9008951F920F920FB60F92112456
:104230002F933F934F935F936F937F938F939F93AE
:10424000AF93BF93EF93FF938091B900887F80363F
:1042500009F49CC068F5883209F45BC090F48031A1
:1042600009F454C038F4882309F4F6C0883009F4FE
:104270004DC0F6C0883109F44CC0803209F45DC0ED
:10428000EFC0803409F468C048F4803309F455C0A5
:10429000883309F0E5C080939D03D8C0803509F4C8
:1042A0004FC0883509F45DC0883409F0D9C0D6C044
:1042B000883909F4C7C0A8F4883709F467C038F40E
:1042C000883609F463C0803709F460C0C9C08838F3
:1042D00009F4B8C0803909F45FC0803809F0C0C063
:1042E0005BC0803B09F486C038F4803A09F466C0AC
:1042F000883A09F47FC0B4C0803C09F4A7C0883C68
:1043000009F4A4C0883B09F48AC0AAC080919A032A
:1043100010C090919C0380919B03981770F5E091D9
:104320009C0381E08E0F80939C03F0E0E758FC4FE4
:1043300080818093BB0085EC86C080939D038EC0F6
:10434000E0919C0381E08E0F80939C038091BB00E1
:10435000F0E0E758FC4F808390919C0380919B0391
:104360006EC0E0919C0381E08E0F80939C0380914E
:10437000BB00F0E0E758FC4F808380919E038111E1
:104380006DC081E08093990384EA61C083E08093EB
:104390009F031092B805CFCF8091B805803208F006
:1043A00051C0E091B80581E08E0F8093B8058091EF
:1043B000BB00F0E0E856FA4F8083BDCF85EC8093D8
:1043C000BC0010929F038091B805803230F4E091D8
:1043D000B805F0E0E856FA4F10826091B80570E039
:1043E000E0919605F091970588E995E0099510927E
:1043F000B80536C084E080939F0310929505109213
:104400009405E0919205F0919305099580919405AA
:10441000811105C081E08093940510927205E091AE
:10442000950581E08E0F80939505F0E0EE58FA4FE8
:1044300080818093BB009091950580919405981799
:1044400008F479CF85E88093BC000AC085EC80939E
:10445000BC0010929F0304C010929D030E94481E4E
:10446000FF91EF91BF91AF919F918F917F916F914C
:104470005F914F913F912F910F900FBE0F901F9022
:10448000189589E494E00E946B158FE494E00E94F3
:104490006B1585E594E00E946B1586E694E00E941A
:1044A000C3198BE595E00E946B158AEB94E00E949E
:1044B0006B1580EC94E00E946B1586EC94E00E94F2
:1044C0006B158CEC94E00E946B1582ED94E00E94D9
:1044D0006B1588ED94E00E946B1588E891E090934D
:1044E000E9048093E80488EE94E00C94CA19CF9311
:1044F000DF93EBE0F5E01382128248EE53E060E0D8
:1045000070E0448355836683778384E391E09183ED
:1045100080838FEF9FEF95878487E0EAF3E0138233
:104520001282448355836683778386E491E0918386
:1045300080838DEC90E0958784878CEC90E0978762
:10454000868788EC90E0918B808B89EC90E0938B50
:10455000828B8AEC90E0958B848B8EEC90E0978B2D
:10456000868B118E128E138E148EA8EEB4E01396E5
:104570001C921E92129714964D935D936D937C93AB
:10458000179788E891E011969C938E93CBE5D4E041
:104590001D96DC93CE931C971E961C921E971F9619
:1045A0001C921F9751961C921E92509781E0529632
:1045B0008C931882FE83ED831F821886FA87E98721
:1045C000EDE3F4E01382128244835583668377839C
:1045D00088E591E091838083E3EEF4E088E48083D2
:1045E0001482138288E081831282EEEDF4E014825B
:1045F000138299E490838183128269E672E088EDE8
:1046000094E00E940D1668E772E082ED94E00E944B
:104610000D1669E872E08CEC94E00E940D1668E9D2
:1046200072E086EC94E00E940D1666EA72E080EC7F
:1046300094E00E940D1664EB72E08AEB94E00E9415
:104640000D166BEF71E08BE595E00E940D16BE0133
:1046500086E694E00E943E056BEF71E085E594E00C
:104660000E940D166BEF71E08FE494E00E940D162E
:104670006BEF71E089E494E0DF91CF910C940D161B
:10468000CF93DF93CDB7DEB72C970FB6F894DEBF8C
:104690000FBECDBF789484B5826084BD84B581603F
:1046A00084BD85B5826085BD85B5816085BD8091FD
:1046B0006E00816080936E00109281008091810075
:1046C000826080938100809181008160809381006D
:1046D0008091800081608093800080919100826051
:1046E00080939100809191008160809391008091EE
:1046F00090008160809390008091C10084608093DD
:10470000C1008091C10082608093C1008091C1008E
:1047100081608093C1008091C30081608093C30059
:104720008091C00082608093C0008091C20081604F
:104730008093C20080917A00846080937A00809197
:104740007A00826080937A0080917A008160809301
:104750007A0080917A00806880937A001092320308
:1047600010927105109230038091D7008160809380
:10477000D70080EA8093D80089B5806189BD89B56A
:10478000826089BD09B400FEFDCF61E070E080E089
:1047900090E00E9447178091D8008F7C80618093C1
:1047A000D8008091E000807F8093E0008091E1005C
:1047B0008E7E8093E1008DE08093E200559A209AEE
:1047C000EEEFFFE7859194918B3F9C4D19F481E0CA
:1047D00080937005E0EDF5E02491E1EBF5E0849144
:1047E000882399F090E0880F991FFC01EA56FA4F50
:1047F000A591B491FC01E857FA4F859194918FB738
:10480000F894EC91E22BEC938FBF0FE010E00E9444
:104810002A0501501109D9F70E948111E091640421
:10482000F0916504A089B18982E08C93A485B58557
:104830001C92A685B78587E08C93108EA489B589D4
:1048400086E08C93A289B3898C9180618C93A28934
:10485000B3898C9188608C93A289B3898C9180688C
:104860008C930288F389E02D80818F7D80838091F5
:104870006204811107C081E0809362048BE594E0BB
:104880000E942E208091F4049091F504FC01278170
:10489000211104C021E027830E942E2088EE94E09D
:1048A0000E94CA1980E290E00E94812A9093F90444
:1048B0008093F80400E012E01093E7040093E6040C
:1048C0000E9481111093E2040093E1040E9481117F
:1048D00060916A0570916B054AE0CE0101960E94D5
:1048E000A01569ED71E0CE0107960E940D16698151
:1048F0007A818F8198850E94B80FCE0107960E9419
:104900006B15CE0101960E946B1567ED71E0CE012B
:1049100001960E940D1668E272E0CE0107960E9491
:104920000D1669817A818F8198850E94B80FCE011A
:1049300007960E946B15CE0101960E946B154AE006
:1049400061E070E0CE0101960E94A0156FED72E06B
:10495000CE0107960E940D1669817A818F81988514
:104960000E94B80FCE0107960E946B15CE010196EA
:104970000E946B150E94CB090E94F013FBCFEF92AF
:104980000F931F93CF93DF93E80147FD02C034E0FC
:1049900001C034E1E42F440FFF0BF7FF03C0F19592
:1049A000E195F109E32E022F2E2FAE010E94812501
:1049B000CE01DF91CF911F910F91EF900895FC01EF
:1049C00088279927E89421912032E9F3293010F0C3
:1049D0002E30C8F32B3241F02D3239F4689404C0E4
:1049E0000E945F25820F911D219120532A30C0F330
:1049F0001EF4909581959F4F08951F93FC01992770
:104A00008827BC01E89411911032E9F3193010F0B5
:104A10001E30C8F31B3251F01D3249F4689406C0B1
:104A20000E944A25610F711D811D911D1191105326
:104A30001A30B0F33EF490958095709561957F4F54
:104A40008F4F9F4F1F910895FB01DC0105900D9240
:104A50000020E1F70895FC0105900020E9F780951A
:104A600090958E0F9F1F08954532510520F44230D6
:104A700010F00C943F25FB011082CB010895BB2759
:104A80004A3031F4992322F4BDE2909581959F4FED
:104A90000C946825592F482F372F262F660F771F24
:104AA000881F991F660F771F881F991F620F731F3A
:104AB000841F951F660F771F881F991F08957AE03E
:104AC000979F902D879F802D910D11240895BB27CE
:104AD000FB015527AA27880F991FAA1FA41710F0BA
:104AE000A41B83955051B9F7A05DAA3308F0A95DC6
:104AF000A193009779F7B111B1931192CB010C9466
:104B0000E7274F925F926F927F929F92AF92BF92F0
:104B1000CF92DF92EF92FF920F931F93CF93DF9389
:104B2000CDB7DEB729970FB6F894DEBF0FBECDBF65
:104B30006A01122FB02E2BE3201720F0FF24F394EC
:104B4000F00E02C0BCE3FB2E0F2D27E0AE014F5F3D
:104B50005F4F0E940F27AC018981982F9970913087
:104B600031F0E1FC06C0E0FE06C090E205C09DE227
:104B700003C09BE201C090E0EE2DE07183FF3CC0DA
:104B8000911102C083E001C084E0811718F4212F45
:104B9000281B01C020E0E1110BC0F601822F30E29A
:104BA000882319F031938150FBCFC20ED11C20E035
:104BB000992329F0D6019C93F60131966F01C60125
:104BC0000396E2FE0AC03EE4D6013C9341E411960E
:104BD0004C93119712963C9306C03EE6F601308343
:104BE00041E641833283FC01322F40E2332309F452
:104BF00042C041933150FACF82FF44C0911102C0AC
:104C000083E001C084E0811718F4212F281B01C024
:104C100020E0E1110BC0F601822F30E2882319F069
:104C200031938150FBCFC20ED11C20E0992329F093
:104C3000D6019C93F60131966F01C6010396E2FE00
:104C40000BC039E4D6013C933EE411963C93119796
:104C500036E412963C9307C039E6F60130833EE60F
:104C6000318336E63283FC01322F40E2332319F0E0
:104C700041933150FBCFFC01E20FF11D10828EEF0A
:104C80009FEFB7C0F1E0911101C0F0E06F2F70E02D
:104C90001416150624F49A012F5F3F4F02C021E03D
:104CA00030E0260F371FBB2029F06B2D70E06F5FBF
:104CB0007F4F02C060E070E0260F371F612F70E069
:104CC000261737071CF4121B212F01C020E03E2DB0
:104CD000387159F4D601322F60E2332319F06D9305
:104CE0003150FBCFC20ED11C20E0FF2331F0D601A2
:104CF0009C93B6016F5F7F4F6B01E1110BC0F60112
:104D0000922F30E3992319F031939150FBCFC20ECB
:104D1000D11C20E09F2D940F3A81782F7071A72E1F
:104D200084FF03C0313309F49150191624F49930EB
:104D300018F098E001C091E0E42F852F57FF02C0E2
:104D4000E0E080E06E2F782FE0E0F0E0AEE29A2E17
:104D50003A01691A71082A01461A570A0B2D10E008
:104D60001195019511096F3F8FEF780729F4D6014E
:104D70009C92C60101966C014617570784F066168F
:104D800077066CF47F01E40CF51CA1E0B0E0AC0FF9
:104D9000BD1FEA0EFB1ED7011196BC9002C090E326
:104DA000B92E615071093196C60101967C016017D8
:104DB000710724F0D601BC926C01D5CF641775073A
:104DC00041F4363320F4353321F4A11002C081E3DD
:104DD000B82EF601B082F701822F90E2882319F0F5
:104DE00091938150FBCFF701E20FF11D108280E01B
:104DF00090E029960FB6F894DEBF0FBECDBFDF91CD
:104E0000CF911F910F91FF90EF90DF90CF90BF90C7
:104E1000AF909F907F906F905F904F900895283053
:104E200008F027E03327DA01990F311D87FD9160E3
:104E300000966105710539F432602E5F3D9330E3D1
:104E40002A95E1F708959F3F30F08038710561059C
:104E500009F03C5F3C5F3D93913008F08068911D04
:104E6000DF93CF931F930F93FF92EF92192F987FA9
:104E70009695E92F96959695E90FFF27EC5AFE4FE8
:104E800099273327EE24FF24A701E7010590089412
:104E9000079428F4360FE71EF81E491F511D660FB0
:104EA000771F881F991F0694A1F70590079428F48F
:104EB000E70EF81E491F561FC11D770F881F991F47
:104EC000661F0694A1F70590079428F4F80E491F71
:104ED000561FC71FD11D880F991F661F771F069485
:104EE000A1F70590079420F4490F561FC71FD81F3C
:104EF000990F661F771F881F0694A9F78491109554
:104F0000177041F0D695C79557954795F794E79454
:104F10001A95C1F7EAEFF0E0689415901591359174
:104F20006591959105907FE27395E118F10A430B25
:104F3000560BC90BD009C0F7E10CF11E431F561FD9
:104F4000C91FD01D7EF4703311F48A95E6CFE89422
:104F5000015030F0080F0AF40027021708F4202F40
:104F60002395022F7A3328F079E37D932A95E9F788
:104F700010C07D932A9589F6069497956795379585
:104F800017951794E118F10A430B560BC90BD0097A
:104F900098F023957E9173957A3308F070E37C93B3
:104FA0002013B8F77E9170617D9330F0839571E3A3
:104FB0007D9370E32A95E1F71124EF90FF900F9114
:104FC0001F91CF91DF91992787FD90950895DC017E
:104FD000FC01672F71917723E1F7329704C07C9130
:104FE0006D9370836291AE17BF07C8F308950E9456
:104FF000392808F481E00895E89409C097FB3EF44D
:1050000090958095709561957F4F8F4F9F4F992315
:10501000A9F0F92F96E9BB279395F6958795779593
:105020006795B795F111F8CFFAF4BB0F11F460FF53
:105030001BC06F5F7F4F8F4F9F4F16C0882311F0AB
:1050400096E911C0772321F09EE8872F762F05C0BF
:10505000662371F096E8862F70E060E02AF09A955A
:10506000660F771F881FDAF7880F9695879597F94F
:105070000895990F0008550FAA0BE0E8FEEF1616E9
:105080001706E807F907C0F012161306E407F5073C
:1050900098F0621B730B840B950B39F40A2661F0B0
:1050A000232B242B252B21F408950A2609F4A14053
:1050B000A6958FEF811D811D08950E9470280C9484
:1050C000E1280E94D32838F00E94DA2820F09523A6
:1050D00011F00C94CA280C94D02811240C94152992
:1050E0000E94F22870F3959FC1F3950F50E0551F71
:1050F000629FF001729FBB27F00DB11D639FAA272D
:10510000F00DB11DAA1F649F6627B00DA11D661F7B
:10511000829F2227B00DA11D621F739FB00DA11D9C
:10512000621F839FA00D611D221F749F3327A00D56
:10513000611D231F849F600D211D822F762F6A2FF2
:1051400011249F5750409AF0F1F088234AF0EE0F57
:10515000FF1FBB1F661F771F881F91505040A9F784
:105160009E3F510580F00C94CA280C9415295F3F8E
:10517000E4F3983ED4F3869577956795B795F795C0
:10518000E7959F5FC1F7FE2B880F911D9695879538
:1051900097F9089597F99F6780E870E060E00895B7
:1051A0009FEF80EC089500240A941616170618063F
:1051B0000906089500240A9412161306140605061B
:1051C0000895092E0394000C11F4882352F0BB0FAC
:1051D00040F4BF2B11F460FF04C06F5F7F4F8F4F0F
:1051E0009F4F089557FD9058440F551F59F05F3F4A
:1051F00071F04795880F97FB991F61F09F3F79F0F9
:1052000087950895121613061406551FF2CF46957A
:10521000F1DF08C0161617061806991FF1CF8695FC
:105220007105610508940895E894BB2766277727E0
:10523000CB0197F908952F923F924F925F926F9210
:105240007F928F929F92AF92BF92CF92DF92EF9216
:10525000FF920F931F93CF93DF93CDB7DEB7CA1B97
:10526000DB0B0FB6F894DEBF0FBECDBF09942A88C2
:10527000398848885F846E847D848C849B84AA846A
:10528000B984C884DF80EE80FD800C811B81AA81F7
:10529000B981CE0FD11D0FB6F894DEBF0FBECDBFC2
:1052A000ED0108955058BB27AA270E946A290C9443
:1052B000E1280E94D32838F00E94DA2820F039F43F
:1052C0009F3F19F426F40C94D0280EF4E095E7FBE8
:1052D0000C94CA28E92F0E94F22858F3BA176207E3
:1052E00073078407950720F079F4A6F50C94142928
:1052F0000EF4E0950B2EBA2FA02D0B01B9019001F1
:105300000C01CA01A0011124FF27591B99F0593F34
:1053100050F4503E68F11A16F040A22F232F342F7C
:105320004427585FF3CF469537952795A795F040CA
:105330005395C9F77EF41F16BA0B620B730B840BDF
:10534000BAF09150A1F0FF0FBB1F661F771F881F97
:10535000C2F70EC0BA0F621F731F841F48F48795EF
:1053600077956795B795F7959E3F08F0B0CF9395E1
:10537000880F08F09927EE0F9795879508950E945A
:10538000D3290C94E1280E94DA2858F00E94D328EF
:1053900040F029F45F3F29F00C94CA2851110C9475
:1053A00015290C94D0280E94F22868F39923B1F3B0
:1053B000552391F3951B550BBB27AA27621773073B
:1053C000840738F09F5F5F4F220F331F441FAA1FCF
:1053D000A9F335D00E2E3AF0E0E832D0915050408B
:1053E000E695001CCAF72BD0FE2F29D0660F771F39
:1053F000881FBB1F261737074807AB07B0E809F01F
:10540000BB0B802DBF01FF2793585F4F3AF09E3FA3
:10541000510578F00C94CA280C9415295F3FE4F3E9
:10542000983ED4F3869577956795B795F7959F5FE6
:10543000C9F7880F911D9695879597F90895E1E032
:10544000660F771F881FBB1F621773078407BA0791
:1054500020F0621B730B840BBA0BEE1F88F7E095EC
:10546000089597FB072E16F4009407D077FD09D016
:105470000E946D2A07FC05D03EF4909581959F4FC0
:105480000895709561957F4F0895A1E21A2EAA1B89
:10549000BB1BFD010DC0AA1FBB1FEE1FFF1FA217E4
:1054A000B307E407F50720F0A21BB30BE40BF50BE1
:1054B000661F771F881F991F1A9469F7609570956A
:1054C000809590959B01AC01BD01CF010895EE0F31
:1054D000FF1F0590F491E02D0994AA1BBB1B51E11D
:1054E00007C0AA1FBB1FA617B70710F0A61BB70B54
:1054F000881F991F5A95A9F780959095BC01CD01F9
:105500000895CF93DF938230910510F482E090E00C
:10551000E091BB05F091BC0520E030E0C0E0D0E0B8
:10552000309711F14081518148175907C0F0481751
:10553000590761F482819381209719F09B838A83B4
:105540002BC09093BC058093BB0526C02115310567
:1055500019F04217530718F49A01BE01DF01EF0159
:105560000280F381E02DDCCF2115310509F1281BE4
:10557000390B2430310590F412968D919C9113973C
:105580006115710521F0FB019383828304C0909320
:10559000BC058093BB05FD01329644C0FD01E20FBE
:1055A000F31F81939193225031092D933C933AC07C
:1055B0002091B9053091BA05232B41F4209128019F
:1055C000309129013093BA052093B9052091260125
:1055D000309127012115310541F42DB73EB7409197
:1055E0002A0150912B01241B350BE091B905F09154
:1055F000BA05E217F307A0F42E1B3F0B2817390753
:1056000078F0AC014E5F5F4F2417350748F04E0F1E
:105610005F1F5093BA054093B9058193919302C0DF
:10562000E0E0F0E0CF01DF91CF9108950F931F9359
:10563000CF93DF93009709F48CC0FC01329713825B
:1056400012820091BB051091BC050115110581F472
:1056500020813181820F931F2091B9053091BA05C5
:105660002817390779F5F093BA05E093B90571C0A9
:10567000D80140E050E0AE17BF0750F412962D91CC
:105680003C911397AD012115310509F1D901F3CFF3
:105690009D01DA013383228360817181860F971F18
:1056A0008217930769F4EC0128813981260F371F8F
:1056B0002E5F3F4F318320838A819B819383828336
:1056C000452B29F4F093BC05E093BB0542C013962B
:1056D000FC93EE931297ED01499159919E01240F8D
:1056E000351FE217F30771F480819181840F951FB4
:1056F000029611969C938E938281938113969C932C
:105700008E931297E0E0F0E0D80112968D919C9173
:105710001397009719F0F8018C01F6CF8D919C91A9
:1057200098012E5F3F4F820F931F2091B905309152
:10573000BA052817390769F4309729F41092BC0587
:105740001092BB0502C0138212821093BA05009317
:10575000B905DF91CF911F910F910895A0E0B0E0BE
:10576000E4EBFBE20C941F29EC01009721F4CB0140
:105770000E94812AB8C0FC01E60FF71F9C0122504D
:105780003109E217F30708F4ACC0D9010D911C915F
:10579000119706171707B0F00530110508F49FC0E0
:1057A000C80104978617970708F499C00250110999
:1057B000061B170B019311936D937C93CF010E94ED
:1057C000162B8DC05B01A01AB10A4C01800E911EF0
:1057D000A091BB05B091BC0540E050E0E12CF12C5C
:1057E000109709F44AC0A815B905D1F56D907C90C1
:1057F0001197630182E0C80ED11CCA14DB0480F14A
:10580000A3014A195B096A0182E0C80ED11C1296F5
:10581000BC9012971396AC91B5E0CB16D10440F032
:10582000B282A38351834083D9016D937C930AC0D4
:105830000E5F1F4FC301800F911FF9019183808379
:10584000EB2DFA2FE114F10431F0D7011396FC93FC
:10585000EE93129744C0F093BC05E093BB053FC0A4
:105860008D919C9111974817590708F4AC017D015F
:1058700012960D90BC91A02DB3CF8091B905909157
:10588000BA0588159905E1F446175707C8F48091C1
:10589000260190912701009741F48DB79EB7409162
:1058A0002A0150912B01841B950BE817F907C8F4C6
:1058B000F093BA05E093B905F901718360830FC0D5
:1058C000CB010E94812A7C01009759F0A801BE01FA
:1058D0000E947D2CCE010E94162BC70104C0CE0170
:1058E00002C080E090E0CDB7DEB7EEE00C943B293B
:1058F00081E090E0F8940C94B02CFB01DC0102C034
:1059000001900D9241505040D8F70895FB01DC0101
:105910008D91019080190110D9F3990B0895FB0125
:10592000DC0101900D920020E1F70895FB015191F7
:105930005523A9F0BF01DC014D9145174111E1F755
:1059400059F4CD010190002049F04D9140154111CD
:10595000C9F3FB014111EFCF81E090E00197089579
:1059600013E0C2E3D3E004C0FE010E94672A21963F
:0A597000C333D107C9F7F894FFCF45
:10597A000100010001000100010001000100010015
:10598A00010001000100FFFF00E10000000000002B
:10599A003000FFFFFFFF0000BD058000200022004D
:1059AA0000000000471A5B12211B5D1A681A251BAA
:1059BA00431B000000008713F4121F13CE13501369
:1059CA002E13421300000000D61EA61E5E037A1E86
:1059DA009E1E8A1E7B1E00000000991BF4125E03A5
:1059EA005D03991B991B991B00000000991BF41277
:1059FA005E035D0300000000EE1F051F5E039314A3
:105A0A003D1A231A0E1A000000007614F4125E03DF
:105A1A001F14B919A1198E1900C1808100000058FC
:105A2A005858585858583130305B324A005B480051
:105A3A0064617465002B25542C25412C25642C2582
:105A4A00422C2559003A0030006465766963654541
:105A5A006D61696C007265696E6963696172206162
:105A6A00206365726F0A000D0A000900486F6F6BA8
:105A7A0020002057617474730020416D70730050C8
:105A8A0048004100636C7300717569740072656245
:105A9A006F6F74007265736574007363616E6E0074
:105AAA006420283078006829006578697400656D7B
:105ABA0061696C0073657276696365007265616C11
:105ACA0074696D650061636365737300646973610A
