:100000000C942E030C9456030C9456030C94560334
:100010000C9456030C9456030C9456030C945603FC
:100020000C9456030C9456030C94961B0C94081CC9
:100030000C9456030C9456030C9456030C945603DC
:100040000C9456030C9456030C9456030C945603CC
:100050000C9456030C9456030C9456030C94881776
:100060000C9456030C94AD160C9487160C945603FE
:100070000C9456030C9456030C9456030C9456039C
:100080000C9456030C9456030C9456030C9456038C
:100090000C940E210C9456030C9456030C945603A6
:1000A0000C9456030C9456030C945603EE0BF10B70
:1000B000F40BF40BF40BF40BF40BF40B010C040C29
:1000C000070C070C070C070C070C070C150C150C7C
:1000D000180C180C180C180C180C180C0A170D1703
:1000E000FC16001704172E172E172E1711171517A9
:1000F00019171F1723172E17291700407A10F35AC4
:1001000000A0724E18090010A5D4E80000E8764857
:10011000170000E40B54020000CA9A3B000000E103
:10012000F505000080969800000040420F00000096
:10013000A08601000000102700000000E803000076
:1001400000006400000000000A0000000000010040
:10015000000000002C76D888DC674F0823DFC1DF61
:10016000AE59E1B1B796E5E3E453C63AE651997664
:1001700096E8E6C28426EB898C9B62ED407C6FFC9E
:10018000EFBC9C9F40F2BAA56FA5F490055A2AF7E0
:100190005C936B6CF9676DC11BFCE0E40D47FEF5E9
:1001A00020E6B500D0ED902E030094357705008051
:1001B000841E080000204E0A000000C80C333333B0
:1001C000330F986E12831141EF8D2114893BE65550
:1001D00016CFFEE6DB18D1844B381BF77C1D901D33
:1001E000A4BBE424203284725E228100C9F124EC95
:1001F000A1E53D275265666572656E6369612030D1
:100200002C302C3130302C3130302E2E2E2E2E2E04
:1002100000436F6E736F6C612E2E2E2E2E2E2E2E9F
:100220002E2E2E2E2E2E2E2E2E2E2E2E003D3D3DEF
:100230003D3D3D3D3D3D3D3D3D3D3D3D3D3D3D3DEE
:100240003D3D3D3D3D3D3D3D3D3D3D3D3D3D3D0A11
:100250000056414C554520000A0023003D3D3D3DE0
:100260003D3D3D3D3D3D3D3D3D3D3D3D3D3D3D3DBE
:100270003D3D3D3D3D3D3D3D3D3D3D3D3D3D0A001E
:100280000A003D3D3D3D3D3D3D3D3D3D3D3D3D3D0E
:100290003D3D3D3D3D3D3D3D3D3D3D3D3D3D3D3D8E
:1002A0003D3D3D3D0A000A000A2053656E7420451D
:1002B0006D61696C2066726F6D20507974686F6E25
:1002C0002E2E2E0A00707974686F6E202F726F6F59
:1002D000742F69665F6D61696C2E70790070797436
:1002E000686F6E202F726F6F742F736572766963FB
:1002F000652E7079003D3D3D3D3D3D3D3D3D3D3DE3
:100300003D3D3D3D3D3D3D3D3D3D3D3D3D3D3D3D1D
:100310003D3D3D3D3D3D3D0A003D3D3D3D3D3D3D7D
:100320003D3D3D3D3D3D3D3D3D3D3D3D3D3D3D3DFD
:100330003D3D3D3D3D3D3D3D3D3D3D0A004D616EF8
:1003400074656E696D69656E746F2041637469765A
:1003500061646F003D3D3D3D3D3D3D3D3D3D3D3D8D
:100360003D3D3D3D3D3D3D3D3D3D3D3D3D3D3D3DBD
:100370003D3D3D3D3D3D0A003D3D3D3D3D3D3D3D1D
:100380003D3D3D3D3D3D3D3D3D3D3D3D3D3D3D3D9D
:100390003D3D3D3D3D3D3D3D3D3D0A00707974682C
:1003A0006F6E202F726F6F742F736572766963653D
:1003B0002E7079000A20506F73742044617461209C
:1003C0004D7953514C2E2E2E0A00707974686F6E41
:1003D000202F726F6F742F706F7374446174612E6D
:1003E000707900206465766963652873292E00465C
:1003F0006F756E642000446F6E652E00466F756EDB
:1004000064206932632044657669636520416464D1
:10041000726573733A200049324320416464726507
:100420007373205363616E6E65722E200A5363618D
:100430006E6E696E67202E2E2E2E2E2E2E2E2E2EB6
:100440002E002E000A006D696E75746F730A0049E4
:100450006E74726F64757A6361206C6F73206D695E
:100460006E75746F73206465207365727669636955
:100470006F0A003D3D3D3D3D3D3D3D3D3D3D3D3DEA
:100480003D3D3D3D3D3D3D3D3D3D3D3D3D3D3D3D9C
:100490003D3D3D3D3D0A0020202020202020202001
:1004A000507265737320456E74657220746F2045B9
:1004B0007869740A00202020202020202020536505
:1004C00072766963652054696D650A003D3D3D3D66
:1004D0003D3D3D3D3D3D3D3D3D3D3D3D3D3D3D3D4C
:1004E0003D3D3D3D3D3D3D3D3D3D3D3D3D3D0A00AC
:1004F00072657365742D6D6375007265626F6F74DC
:10050000003D3D3D3D3D3D3D3D3D3D3D3D3D3D3D58
:100510003D3D3D3D3D3D3D3D3D3D3D3D3D3D3D3D0B
:100520003D3D3D0A00436F6E736F6C612064652032
:10053000536572766963696F003D3D3D3D3D3D3DCC
:100540003D3D3D3D3D3D3D3D3D3D3D3D3D3D3D3DDB
:100550003D3D3D3D3D3D3D3D3D3D3D0A002E0000C4
:1005600000000200090F0000030401000C0000005D
:10057000000000000000000000000000000000007B
:100580000000250028002B002E0031000000000094
:10059000240027002A002D00300004040404040372
:1005A0000405020202020403020202020606060613
:1005B000060604040202020404040802011040803A
:1005C000401020408040800802040180402010023A
:1005D0000110801020404020080B000202020100A0
:1005E0000904000001020200000524001001052496
:1005F0000101010424020605240600010705810308
:1006000010004009040100020A0000000705020270
:1006100040000007058302400000040309041201A2
:100620000002EF0201404123418000010102030169
:1006300041726475696E6F204C4C43004172647561
:10064000696E6F2059756E0072756E2D62726964E5
:1006500067650A000A000A0072223C2211241FBEAC
:10066000CFEFDAE0DEBFCDBF25E0AEEDB2E001C0F6
:100670001D92AF3AB207E1F712E0A0E0B1E0E0E787
:10068000F9E502C005900D92AE3DB107D9F713E030
:10069000CDE2D3E004C02197FE010E94622ACC3251
:1006A000D107C9F70E943B230C94AB2C0C9400009B
:1006B000089580E090E008956BE18AED94E00E9457
:1006C000E91F89EB91E00C947A116BE18AED94E0DB
:1006D0000E94E91F8DEB91E00C947A116BE18AED99
:1006E00094E00E94E91F89EB91E00E947A116BE18E
:1006F0008AED94E00E94E91F8DEB91E00E947A114F
:1007000081E192E00E94091184EF91E00C940911BB
:100710006F927F928F929F92AF92BF92CF92DF9211
:10072000EF92FF920F931F93CF93DF93CDB7DEB776
:1007300068970FB6F894DEBF0FBECDBF88E594E092
:100740000E9467188111CBC060EC71E0CE01019668
:100750000E94081688E594E00E941A1886E090E04E
:100760000E947C2A8C01BE016F5F7F4F0E94FF15A3
:100770001093680400936704CE0101960E946615E9
:1007800065EC71E0CE0101960E940816BE016F5F14
:100790007F4F88E594E00E94E218CE0101960E9406
:1007A000661588E594E00E948F1888E594E00E9421
:1007B0006718882339F064E670E080E090E00E94DA
:1007C0004217F3CF88E594E00E943C1888C0CE0120
:1007D00043960E945B1165ED71E0CE0101960E9487
:1007E00008168F89988D892B09F492C00B891C8972
:1007F00069817A81C8010E94912C009709F488C010
:100800007C01E01AF10ACE0101960E94661565EDA1
:1008100071E0CE0101960E9408168F89988D2D8176
:100820003E818C01021B130B2115310509F074C0A8
:100830000FEF1FEFCE0101960E946615970140E071
:1008400050E0BE016D5E7F4FCE010D960E941D16D9
:10085000A7014F5F5F4F9801BE016D5E7F4FCE01D4
:1008600007960E941D162F89388DA8014F5F5F4F94
:10087000BE016D5E7F4FCE0101960E941D16CE0116
:100880000D960E94381E7093180360931703CE01D3
:1008900007960E94381E709316036093150380918B
:1008A0001303909114039093170180931601CE01C6
:1008B00001960E94381E7093140360931303CE01B7
:1008C00001960E946615CE0107960E946615CE011C
:1008D0000D960E946615CE0143960E94661588E526
:1008E00094E00E94591980916A04882309F440C059
:1008F0006BEF71E0CE0143960E9408160E94E11151
:1009000097FD65CF682FCE0143960E94D014F6CF95
:10091000EE24EA94FE2C77CF009709F489CF821752
:10092000930708F485CF0817190718F08C010150B8
:1009300011098B889C88A980BA80C40166246A94B6
:1009400077247A946401C00ED11EC816D90670F0BF
:10095000B5010E94912C009749F09C012819390992
:100960000217130708F039010196EFCF830162CF18
:100970002091160130911701809113039091140377
:100980002817390709F44CC0809117039091180378
:100990000A9724F487ED91E00E947A116091170381
:1009A00070911803072E000C880B990B97FF03C05A
:1009B0000E94A21103C04AE00E941A1185ED91E045
:1009C0000E947A1180911503909116030A9724F4DE
:1009D00087ED91E00E947A116091150370911603E2
:1009E000072E000C880B990B97FF03C00E94A211E1
:1009F00003C04AE00E941A1185ED91E00E947A112D
:100A000080911303909114030A9724F487ED91E0E9
:100A10000E947A1180911303909114030E94C911CE
:100A200068960FB6F894DEBF0FBECDBFDF91CF91B1
:100A30001F910F91FF90EF90DF90CF90BF90AF90FC
:100A40009F908F907F906F90089561E08DE00E945D
:100A5000DF1664E670E080E090E00E94421760E0FC
:100A60008DE00E94DF1664E670E080E090E00C9478
:100A70004217FC011382128288EE93E0A0E0B0E0FE
:100A800084839583A683B7838AE991E091838083E9
:100A900075876487118A128A138A0895CF93DF932A
:100AA000CDB7DEB7CA55D1090FB6F894DEBF0FBE79
:100AB000CDBF60915C0570915D054AE0CE018B5A17
:100AC0009F4F0E949B1569ED71E0CE0101960E9437
:100AD000081667966EAD7FAD679789819A810E94EF
:100AE000B30FCE0101960E946615CE018B5A9F4F1F
:100AF0000E9466156DE474E0CE0101960E943905EE
:100B000065EC72E0CE018B5A9F4F0E94C715BE0163
:100B10006B5A7F4FCE0101960E94FB18CE018B5A73
:100B20009F4F0E94661568EA72E08AED94E00E9489
:100B30006316CE0101960E94BE19C65ADF4F0FB64A
:100B4000F894DEBF0FBECDBFDF91CF910895E09145
:100B50000303F0910403EE0FFF1FE050FF4F80816D
:100B60009181019711F40E944E05E0910303F091E9
:100B70000403EE0FFF1FE050FF4F808191818A3008
:100B8000910561F481E090E09183808385EE91E0AE
:100B90000E94F11087EF91E00C94F110019691837F
:100BA000808308954F925F926F927F928F929F926F
:100BB000AF92BF92CF92DF92EF92FF920F931F936B
:100BC000CF93DF93CDB7DEB768970FB6F894DEBF4B
:100BD0000FBECDBF66EA72E0CE010D960E94C7152A
:100BE00067E474E0CE0101960E94FF15BE016F5FBD
:100BF0007F4FCE0107960E94FF15BE01635F7F4FB6
:100C0000CE0107960E9404150E945B11CE01079643
:100C10000E946615CE0101960E946615CE010D96C2
:100C20000E94661562E872E08AED94E00E94631605
:100C3000C12CD12C93E0892E912C0E942505809106
:100C4000110390911203039721F410921203109252
:100C5000110300E410E0A0901103B0901203A1145E
:100C6000B10419F485ED94E00DC081E0A816B1043B
:100C700019F485ED94E00FC0E2E0AE16B10429F45A
:100C800080ED94E00E94F61708C0F3E0AF16B104BF
:100C900091F480ED94E00E94D217BC01990F880B6B
:100CA000990B0E94F9276093FF02709300038093D1
:100CB0000103909302036091FF0270910003809101
:100CC0000103909102039B01AC010E94582860939C
:100CD000FB027093FC028093FD029093FE02209130
:100CE000F7023091F8024091F9025091FA020E9405
:100CF0004E296093F7027093F8028093F902909363
:100D0000FA020150110909F0A6CF20E030E040E8D6
:100D10005CE30E9458282B013C0120E030E040E0D9
:100D20005FE30E9458287B018C01B0E0A0E0F0E076
:100D3000E0E02B2F3A2F4F2F5E2FB701C8010E9402
:100D4000F2278823C9F09701A801C301B2010E94CC
:100D5000BA299B01AC01B701C8010E944E2920E0CD
:100D600030E040E05FE30E945828BE2DAF2DF02F09
:100D7000E12F7B018C01DDCF20E030E040E05EE33D
:100D8000B701C8010E94582820E030E040E950E453
:100D90000E9458286093F3027093F4028093F50246
:100DA0009093F6021092F7021092F8021092F90254
:100DB0001092FA0220E030E048EC52E40E94BA2996
:100DC0002B013C016AEF71E0CE0143960E940816A8
:100DD0004AE0B501CE010D960E949B156CEF71E0C3
:100DE000CE0101960E940816BE016F5F7F4FCE01B3
:100DF00007960E94FF15BE01635F7F4FCE010796E5
:100E00000E940415BE016D5E7F4F0E9404150E9472
:100E10005B11CE0107960E946615CE0101960E94D5
:100E20006615CE010D960E946615CE0143960E946E
:100E3000661562E072E0CE0107960E94081620E077
:100E400030E040EF52E4C301B2010E945828AB01E8
:100E5000BC0122E0CE0101960E946B15BE01695FC4
:100E60007F4FCE0101960E9404150E945B11CE01B6
:100E700001960E946615CE0107960E94661580E0D5
:100E800092E00E947A1169E072E0CE0107960E941A
:100E9000081622E0B301A201CE0101960E946B1553
:100EA000BE01695F7F4FCE0101960E9404150E942A
:100EB0006C11CE0101960E946615CE0107960E9424
:100EC0006615E0911103F0911203EE0FFF1FEE0F74
:100ED000FF1FEB5FFC4F40825182628273822AE0E7
:100EE00037ED43E25CE3C301B2010E94F22718161A
:100EF00034F190925D0580925C05C601089690934E
:100F00000403809303034AE0B601CE0107960E94D2
:100F10009B1568E272E0CE0101960E9408166F816F
:100F2000788589819A810E94B30FCE0101960E9433
:100F30006615CE0107960E9466150E94A70522E05D
:100F4000B301A201CE0143960E946B15609111037B
:100F5000709112034AE0CE010D960E949B156FE03E
:100F600072E0CE0101960E940816BE016F5F7F4FAE
:100F7000CE0107960E94FF15BE01635F7F4FCE0131
:100F800007960E9404156B897C89FC018081918100
:100F90000E94B30FCE0107960E946615CE010196FE
:100FA0000E946615CE010D960E946615CE014396ED
:100FB0000E946615809111039091120301969093FF
:100FC000120380931103FFEFCF1ADF0A83E0C816E4
:100FD000D10409F032CE68960FB6F894DEBF0FBE8A
:100FE000CDBFDF91CF911F910F91FF90EF90DF90D8
:100FF000CF90BF90AF909F908F907F906F905F90B9
:101000004F9008952F923F924F925F926F927F92EE
:101010008F929F92AF92BF92CF92DF92EF92FF9208
:101020000F931F93CF93DF93CDB7DEB76A970FB6B9
:10103000F894DEBF0FBECDBF1092F2021092F10203
:1010400060E872E0CE010F960E94C71567E474E075
:101050008E010F5F1F4FC8010E94FF15B801CE011E
:1010600009960E94FF15BE01615F7F4FCE01099670
:101070000E9404150E945B11CE0109960E9466151C
:10108000C8010E946615CE010F960E9466156CE598
:1010900072E08AED94E00E946316E0901D03F090E8
:1010A0001E033701660C771CC30182529D4F2C0131
:1010B000C12CD12CAA24A394B12C62E0262E312C71
:1010C00080911F0390912003E816F9060CF038C1B7
:1010D0000E942505E091F102F091F202EE0FFF1F50
:1010E000E45DFE4F61E080810E942910109226038A
:1010F00080932503882331F08FE294E00E94851EBF
:101100008093F0026AE572E0CE0145960E94C71511
:1011100067E474E0CE0109960E94FF15BE01675F87
:101120007F4FCE010F960E94FF15BE016B5E7F4F71
:10113000CE010F960E9404154C014AE0B801C70188
:101140000E943A25F80101900020E9F73197AF019C
:10115000401B510BB801C4010E94A214811103C0AD
:10116000C4010E94F214C4010E945B11CE010F96CB
:101170000E946615CE0109960E946615CE0145961D
:101180000E9466158AEF91E00E947A119091F00218
:1011900080911B0389238093EF02F201EC0DFD1D6A
:1011A000811140C01092EE0211821082F601E60D0C
:1011B000F71DE050FF4FB182A0824AE060E070E08E
:1011C000CE0145960E949B154AE0B701CE010F96CD
:1011D0000E949B1562E172E0C8010E940816B801E6
:1011E000CE0109960E94FF15BE01615F7F4FCE01BF
:1011F00009960E9404156D897E89FC018081918188
:101200000E94B30FCE0109960E946615C8010E9484
:101210006615CE010F960E946615CE0145960E9476
:10122000661548C081E08093EE02B182A0824AE058
:1012300061E070E0CE0145960E949B154AE0B7013F
:10124000CE010F960E949B1562E172E0C8010E94D8
:101250000816B801CE0109960E94FF15BE01615F14
:101260007F4FCE0109960E9404156D897E89FC018D
:10127000808191810E94B30FCE0109960E9466156C
:10128000C8010E946615CE010F960E946615CE0118
:1012900045960E946615F6E0EF16F1040CF071C059
:1012A000B0925D05A0925C05F0920403E092030306
:1012B0000E94A70568E572E0CE0145960E94C71519
:1012C0006091EE0270E04AE0CE010F960E949B15FD
:1012D00061E572E0C8010E94C715B801CE01099608
:1012E0000E94FF15BE01615F7F4FCE0109960E94EB
:1012F0000415BE016B5E7F4F0E9404150E945B11B6
:10130000CE0109960E946615C8010E946615CE019D
:101310000F960E946615CE0145960E946615809133
:101320001B0390911C03880F991F90931C038093BB
:101330001B038FEFE81AF80A92E0C90ED11CC0CE49
:101340000E946D106DE272E08AED94E00E946316D7
:101350006A960FB6F894DEBF0FBECDBFDF91CF9176
:101360001F910F91FF90EF90DF90CF90BF90AF90C3
:101370009F908F907F906F905F904F903F902F90B5
:10138000089530925D0520925C058ECF2F923F929A
:101390004F925F926F927F928F929F92AF92BF9285
:1013A000CF92DF92EF92FF920F931F93CF93DF9331
:1013B000CDB7DEB7C55BD1090FB6F894DEBF0FBE5F
:1013C000CDBF0E945C030E9465030E9488036DE408
:1013D00074E0CE018B5A9F4F0E9439056CE973E08F
:1013E000CE0101960E94C715BE016F5F7F4FCE01EF
:1013F0008B5A9F4F0E94FB18CE0101960E946615E2
:101400000E94F70F80E291E00E94DA2490931A0381
:10141000809319038091190390911A03892B09F085
:1014200054C00E945C030E9465030E94880368E721
:1014300073E08AED94E00E94631664E573E08AED40
:1014400094E00E9463168DE393E00E94091169E124
:1014500073E08AED94E00E94631665EF72E08AED16
:1014600094E00E94631660E08DE00E94DF1660ED5C
:1014700077E080E090E00E9442176DE474E0CE01D6
:1014800001960E9439056DED72E0CE0187559F4FA0
:101490000E94C715BE0167557F4FCE0101960E947D
:1014A000FB18CE0187559F4F0E9466150E94F70FCB
:1014B00080E291E00E94DA2490931A03809319034A
:1014C000CE0101960E94BE19A5CFCE018B5A9F4F27
:1014D0000E94BE196AEC74E087E494E00E944F1504
:1014E00006E010E01093200300931F0310921E03E8
:1014F00010921D0381E090E090931C0380931B03E6
:101500000E9402086EEB74E087E494E00E944F159D
:1015100088E090E09093200380931F0310931E03B4
:1015200000931D0380E490E090931C0380931B03C1
:101530000E94020868EB74E087E494E00E944F1573
:101540000E94D2056DE474E0CE0101960E94390537
:101550006AEC73E0CE018B5A9F4F0E94C715BE0103
:101560006B5A7F4FCE0101960E94FB18CE018B5A19
:101570009F4F0E94661564EB73E08AED94E00E9431
:101580006316CE0101960E94BE1910925D0510925D
:101590005C0528E1C22ED12C38E0632E712C46E088
:1015A000E42EF12C64EF71E080E090E00E9442179D
:1015B0006DE575E08AED94E00E94631661E08DE0D0
:1015C0000E94DF1664EF71E080E090E00E94421715
:1015D00060E08DE00E94DF168AED94E00E941E1A02
:1015E0008A30F1F021E0C21AD108E1F6CB54DF4F86
:1015F0000FB6F894DEBF0FBECDBFDF91CF911F9124
:101600000F91FF90EF90DF90CF90BF90AF909F90A1
:101610008F907F906F905F904F903F902F900895A4
:101620000E945C030E9465030E94880369E375E0E1
:101630008AED94E00E94631685E295E00E9409110C
:1016400061E075E08AED94E00E94631668EE73E055
:1016500080E090E00E9442178AED94E00E941E1AFA
:10166000CD54DF4F8883C35BD04095E0292E312CC9
:101670008AED94E00E94DE198091E804882309F441
:10168000BFC28AED94E00E941E1A8A3009F0B3C2EC
:1016900084E192E00E94090E882341F00E946E03CB
:1016A0006BEF71E081E494E00E94381588E192E0EC
:1016B0000E94090E882341F06BEF71E081E494E011
:1016C0000E9438150E94C6098DE192E00E94090E21
:1016D0008823F9F00E946E036DE474E0CE01019658
:1016E0000E9439056AEF74E0CE018B5A9F4F0E9429
:1016F000C715BE016B5A7F4FCE0101960E94FB18A1
:10170000CE018B5A9F4F0E946615CE0101960E9412
:10171000BE1984E292E00E94090E8823E9F06DE48C
:1017200074E0CE0101960E94390560EF74E0CE01AD
:101730008B5A9F4F0E94C715BE016B5A7F4FCE0137
:1017400001960E94FB18CE018B5A9F4F0E9466158E
:10175000CE0101960E94BE198AE292E00E94090E13
:10176000882309F48FC087E194E00E9409110E9448
:101770007C11812C912C54018394512C442443944A
:1017800040922703809249031092280310924A0343
:101790000E946D10811151C06CEF73E08AED94E0EE
:1017A0000E9463164AE0C501B4010E941A1180E349
:1017B00092E00E947A1140E1C501B4010E941A1121
:1017C00086E392E00E947A118401F401B097E83038
:1017D000F10570F4EA5AFF4F0C94622A84EC94E00D
:1017E00005C08EEB94E002C08CEA94E00E946C117C
:1017F000F801F897E830F10570F4E25AFF4F0C94C5
:10180000622A88EB94E005C082EB94E002C08CEA87
:1018100094E00E946C11F801E854F109E830F105F8
:1018200058F4EA59FF4F0C94622A88EB94E002C006
:101830008CEA94E00E946C1153948FEF881A980AF6
:10184000A80AB80A98E789169104A104B10409F01E
:1018500097CF86EF93E00E9409118FEE93E00E94EC
:101860000911652D70E080E090E04AE00E941A11B5
:1018700083EE93E00E9409116BEF71E081E494E044
:101880000E94381589E392E00E94090E882341F0F6
:101890006BEF71E081E494E00E9438150E94C60964
:1018A00080E592E00E94090E882341F00E9488039F
:1018B0006BEF71E081E494E00E9438158EE392E0D2
:1018C0000E94090E882361F030925D0520925C052C
:1018D0000E944E056BEF71E081E494E00E943815A0
:1018E00084E492E00E94090E882309F4C3C00E9498
:1018F00088036CEC74E08AED94E00E94631665EB5B
:1019000074E08AED94E00E94631667E974E08AED62
:1019100094E00E94631663E774E08AED94E00E940D
:1019200063166FE474E08AED94E00E9463168AED1A
:1019300094E00E941E1A8BEF91E0CC54DF4F888315
:10194000C45BD040BC0181E494E00E9438158AED6C
:1019500094E00E94DE198091E804882309F47CC099
:101960008AED94E00E941E1A182F082E000C990B85
:10197000C0970A9728F4612F8BE394E00E94D0145B
:101980001A3009F064C08BE394E00E94381EC15500
:10199000DF4F688379838A839B83CF5AD04066E484
:1019A00074E08AED94E00E946316C155DF4F888190
:1019B0009981CF5AD0400E94C9116BEF71E08BE33F
:1019C00094E00E9438152CE3C155DF4F888199813E
:1019D000CF5AD040289F2001299F500C112400E0AD
:1019E00010E00415150554F568EE73E080E090E012
:1019F0000E944217C8016CE370E00E942C2A892BD8
:101A000031F464E474E08AED94E00E94631662E4C9
:101A100074E08AED94E00E9463168AED94E00E94DF
:101A20001E1A8A3041F46BEF71E081E494E00E9469
:101A300038150E94C6090F5F1F4FD3CF6BEF71E0BF
:101A400081E494E00E9438150E94C60905C0612F08
:101A500081E494E00E94D014CC54DF4F2881C45B11
:101A6000D0402A3009F073CF6BEF71E081E494E04D
:101A70000E9438158CE492E00E94090E882309F434
:101A800055C06BEF71E081E494E00E9438150E942C
:101A90005C030E9465036AEC74E087E494E00E94B2
:101AA0004F15F0922003E0921F0310921E03109234
:101AB0001D0381E090E090931C0380931B030E9420
:101AC00002086EEB74E087E494E00E944F15709278
:101AD000200360921F03F0921E03E0921D0380E436
:101AE00090E090931C0380931B030E94020868EB14
:101AF00074E087E494E00E944F150E94D2058AEDBD
:101B000094E00E941E1ACB54DF4F8883C55BD040FF
:101B10000E946503CB54DF4F8881C55BD0408A307B
:101B200009F0B9CF0E945C030E946E0385E592E044
:101B30000E94090E8823E1F06AEC74E087E494E0E7
:101B40000E944F15F0922003E0921F0310921E0393
:101B500010921D0381E090E090931C0380931B037F
:101B60000E9402086BEF71E081E494E00E94381556
:101B70008CE592E00E94090E8823E1F06EEB74E0A0
:101B800087E494E00E944F157092200360921F0337
:101B9000F0921E03E0921D0380E490E090931C03FA
:101BA00080931B030E9402086BEF71E081E494E0D4
:101BB0000E94381583E692E00E94090E882371F096
:101BC00068EB74E087E494E00E944F150E94D20510
:101BD0006BEF71E081E494E00E94381580E090E0C2
:101BE0000E94090E81110CC06BEF71E081E494E05A
:101BF0000E94381505C0682F81E494E00E94D0143B
:101C0000CD54DF4F2881C35BD0402A3009F030CD5E
:101C1000E9CCFC018091450490914604892B21F484
:101C200021E0309749F413C080914104909142041F
:101C3000309731F421E0FC018081882341F006C017
:101C4000BF010E94812C21E0892B09F020E0822F26
:101C500008952F923F924F925F926F927F928F9250
:101C60009F92AF92BF92CF92DF92EF92FF920F932B
:101C70001F93CF93DF93CDB7DEB72B970FB6F894B2
:101C8000DEBF0FBECDBF9B878A875B011901FD8236
:101C9000EC823A01600E711E872C7B82912C4424C9
:101CA0004A94542C9B01240F351F3F832E839101AE
:101CB000200F311F39872887EA85FB858085981694
:101CC00008F036C1AA85BB8514965C924E92139794
:101CD00015968D919C911697DC01ED91FC910190E8
:101CE000F081E02D6FEF09956FEF8A859B850E944B
:101CF000B21FEA85FB8585819681DC01ED91FC911F
:101D00000190F081E02DAA85BB856C910995EA854B
:101D1000FB856081CF010E94B21FAA85BB85159605
:101D20008D919C911697DC01ED91FC910190F081D1
:101D3000E02D682D09956B818A859B850E94B21FD5
:101D4000EA85FB8585819681DC01ED91FC9101900E
:101D5000F081E02D662D0995662D8A859B850E9470
:101D6000B21F75012E813F81E216F306B1F0EA85BC
:101D7000FB85858196818701DC01ED91FC910190C5
:101D8000F081E02DD7016D917D010995F801608109
:101D90008A859B850E94B21FE5CF7101AA85BB850C
:101DA00015968D919C91169728853985E216F30634
:101DB00091F08701DC01ED91FC910190F081E02D23
:101DC000D7016D917D010995F80160818A859B8518
:101DD0000E94B21FE3CFDC01ED91FC91AA85BB8587
:101DE00014966C910190F081E02D0995EA85FB85B0
:101DF00085819681DC01ED91FC910190F081E02DCF
:101E0000AA85BB8513966C91099564E670E08A8576
:101E10009B850E947B1F8F3F910509F07DC0EA855D
:101E2000FB85548243826FEFCF010E94B21F65E0B1
:101E300070E08A859B850E947B1FAA85BB856C917B
:101E4000262F30E08217930709F066C0CD010E946B
:101E5000B21F6AE070E08A859B850E947B1F7C012F
:101E600097FD5AC0682F8A859B850E94B21F6AE041
:101E700070E08A859B850E947B1F8C0197FD4CC07A
:101E8000682F8A859B850E94B21FEA821982E981A8
:101E9000FA810E0F1F1FE12CF12C65E070E08A859E
:101EA0009B85E016F106A9F0EC14FD0491F00E9468
:101EB0007B1F97FD0AC0EC81FD81EE0DFF1D808325
:101EC000682F8A859B850E94B21FFFEFEF1AFF0AD9
:101ED000E4CF0E947B1F7C0197FD1EC065E070E08F
:101EE0008A859B850E947B1F97FD16C0FE2CEE24E1
:101EF0008E0D9F1DAA85BB8513962D913C9114973D
:101F00002817390749F48C918F5F8C93C801C0164C
:101F1000D10680F4C6010EC0939464E670E080E0C0
:101F200090E00E9442178A859B850E945F1FC4CE65
:101F30008FEF9FEF2B960FB6F894DEBF0FBECDBF8D
:101F4000DF91CF911F910F91FF90EF90DF90CF9095
:101F5000BF90AF909F908F907F906F905F904F90C9
:101F60003F902F900895EF92FF920F931F93CF937E
:101F7000DF93CDB7DEB727970FB6F894DEBF0FBE5D
:101F8000CDBF7C018B0161EC72E0CE0101960E9415
:101F90000816B701CE0101960E94E31463EC72E0CB
:101FA000CE0101960E94E314B801CE0101960E9471
:101FB000E3144D815E8169817A8101E010E09E0128
:101FC000295F3F4F8DE494E00E94C91FCE01019626
:101FD0000E94661527960FB6F894DEBF0FBECDBFE0
:101FE000DF91CF911F910F91FF90EF900895CF92C5
:101FF000DF92EF92FF920F931F93CF93DF931F9285
:10200000CDB7DEB784E6898382E0C82ED12C90E27A
:10201000E92E91E0F92E0CE010E025EC32E041E0F1
:1020200050E0BE016F5F7F4F8DE494E00E94290E67
:102030008230910520F4FC01E05EFE4F10820F908B
:10204000DF91CF911F910F91FF90EF90DF90CF9094
:102050000895909191039111FCCF91E09093910399
:10206000909390032FEF20938F0310928E03260FEF
:1020700020938D0390938C0390918C03880F892B70
:1020800080938C0380918B03813061F410928B03D9
:1020900080918C038093BB008091BC0083FDF8CFBE
:1020A00085EC01C085EE8093BC0080919103813066
:1020B000E1F380918E03861710F460918E03ABE6F6
:1020C000B3E02BE433E0F9018E2F821B861718F45E
:1020D0008D918193F9CF862F089520914A03909195
:1020E0004903213208F04AC0809191038111FCCF4D
:1020F00032E03093910331E0309390033FEF30931F
:102100008F0310928E0320938D03A9E2B3E04BE678
:1021100053E0FA013E2F341B321718F43D913193EE
:10212000F9CF10928C0320918C03990F922B9093EE
:102130008C0390918B03913061F410928B039091FA
:102140008C039093BB009091BC0093FDF8CF95EC6D
:1021500001C095EE9093BC00909191039230E1F311
:1021600090918F039F3F79F080918F03803241F0EF
:1021700080918F03803331F084E005C081E003C09B
:1021800082E001C083E01092280310924A0310926B
:10219000270308951F93CF93DF931F92CDB7DEB728
:1021A000162F91E090932703809349031092280300
:1021B00010924A0361E08FE294E079830E94D11E7D
:1021C0007981672F8FE294E00E94D11E612F8FE208
:1021D00094E00E94D11E0F90DF91CF911F910C943B
:1021E0006D10BC01009791F0FC0101900020E9F70F
:1021F0003197AF01481B590BE091DA04F091DB04F1
:102200000280F381E02D8AED94E0099480E090E073
:102210000895CF93DF93BC018AED94E00E9463168A
:10222000EC0187EF91E00E94F1108C0F9D1FDF9170
:10223000CF9108958F929F92AF92BF920F931F9369
:10224000CF93DF93CDB7DEB7A1970FB6F894DEBF7B
:102250000FBECDBF19A2423008F44AE08E010F5DD7
:102260001F4F842E912CA12CB12CA50194010E940A
:10227000402AE62FB901CA0101501109EA3014F4CD
:10228000E05D01C0E95CD801EC93232B242B252BC6
:1022900061F7C8010E94F110A1960FB6F894DEBF55
:1022A0000FBECDBFDF91CF911F910F91BF90AF9027
:1022B0009F908F900895E091DA04F091DB04DC01A7
:1022C00014964D915C9115976D917C910280F381EC
:1022D000E02D8AED94E00994CF93DF930E945B1187
:1022E000EC0187EF91E00E94F1108C0F9D1FDF91B0
:1022F000CF9108950C94F1101092260310922503AB
:102300001092280310924A031092910381E0809367
:10231000900310928B0361E082E00E94DF1661E07F
:1023200083E00E94DF16E9EBF0E080818E7F8083FE
:1023300080818D7F808388E48093B80085E48093DA
:10234000BC000895CF92DF92EF92FF92CF93DF937C
:102350006B017C01E091DA04F091DB040190F081E3
:10236000E02D6DE28AED94E00995EC016627772770
:10237000CB016C197D098E099F094AE00E941A1150
:102380008C0F9D1FDF91CF91FF90EF90DF90CF904A
:102390000895CF93DF93BC01990F880B990B97FF9A
:1023A00003C00E94A21103C04AE00E941A11EC016E
:1023B00087EF91E00E94F1108C0F9D1FDF91CF916C
:1023C00008950F931F930E947C176093600470938D
:1023D00061048093620490936304E0915804F09147
:1023E00059040284F385E02D88E594E0099597FF70
:1023F0001FC00E947C17009160041091610420911D
:10240000620430916304DC01CB01801B910BA20BB1
:10241000B30B00915C0410915D0420915E04309137
:102420005F0480179107A207B307B8F28FEF9FEF01
:102430001F910F910895FC0180912403811103C025
:102440008FEF9FEF08959FB7F89482E08093E900A3
:102450002091F20030E01216130614F421E030E06F
:102460002115310559F0289884E680932303809143
:10247000F10080838091F200882319F09FBFC90189
:1024800008958BE68093E800F9CF2FB7F89483E0A6
:102490008093E9009091E800892F807295FF04C035
:1024A0009091F20080E4891B2FBF08958F929F9234
:1024B000AF92BF92CF92DF92EF92FF920F931F9352
:1024C000CF93DF935C016B017A0180911F01882318
:1024D00009F45BC080912403882309F456C08091DD
:1024E000220380FF05C08091E00082608093E000BD
:1024F000E70110E00AEF83E0882E9AE3992E2097F7
:10250000D9F10E94451281110AC0015009F43DC061
:1025100061E070E080E090E00E944217F0CF282F49
:1025200030E0C217D3070CF48C2F4FB7F894809289
:10253000E9009091E80095FF1DC0282F30E0C21BF4
:10254000D30BF601982F915020F081918093F100E8
:10255000FACFC20ED31E112319F09092E80009C0E1
:102560008091E80085FD06C09092E80011E0209778
:1025700009F010E04FBFC3CF1111C3CF5D9884E6BF
:10258000809321031E141F0444F081E090E0F501C4
:102590009383828380E090E001C0C701DF91CF91F7
:1025A0001F910F91FF90EF90DF90CF90BF90AF9071
:1025B0009F908F9008958091F50481110DC082E065
:1025C0008093F10484E08093F2041092F40410925A
:1025D000F30481E08093F50481EF94E00895CF92B5
:1025E000DF92EF92FF920F931F93CF93DF936C01D3
:1025F0007A018B01C0E0D0E0CE15DF0589F0D8016B
:102600006D918D01D601ED91FC910190F081E02D4D
:10261000C6010995892B11F47E0102C02196ECCFE9
:10262000C701DF91CF911F910F91FF90EF90DF9045
:10263000CF900895FC01538D448D252F30E0842FD9
:1026400090E0821B930B541710F0CF9608950197DA
:102650000895FC01918D828D981761F0828DDF01C4
:10266000A80FB11D5D968C91928D9F5F9F73928F85
:1026700090E008958FEF9FEF0895FC01918D828D7A
:10268000981731F0828DE80FF11D858D90E0089547
:102690008FEF9FEF0895FC01918D228D892F90E09F
:1026A000805C9F4F821B91098F739927089582E95F
:1026B00093E00E944B1321E0892B09F420E0822F44
:1026C0000895FC01848DDF01A80FB11DA35ABF4FEF
:1026D0002C91848D90E001968F739927848FA68921
:1026E000B7892C93A089B1898C9180648C93938D48
:1026F000848D981306C00288F389E02D80818F7D38
:1027000080830895EF92FF920F931F93CF93DF93EF
:10271000EC0181E0888F9B8D8C8D981305C0E88932
:10272000F989808185FD24C0F62E0B8D10E00F5FA6
:102730001F4F0F731127E02E8C8DE8120CC00FB6BF
:1027400007FCFACFE889F989808185FFF5CFCE01B2
:102750000E946113F1CF8B8DFE01E80FF11DE35A4A
:10276000FF4FF0820B8FEA89FB898081806207C06E
:10277000EE89FF896083E889F9898081806480839C
:1027800081E090E0DF91CF911F910F91FF90EF904A
:102790000895CF93DF93EC01888D8823C9F0EA89EF
:1027A000FB89808185FD05C0A889B9898C9186FD4A
:1027B0000FC00FB607FCF5CF808185FFF2CFA88947
:1027C000B9898C9185FFEDCFCE010E946113E7CFCF
:1027D000DF91CF91089580E090E0892B29F00E944D
:1027E000571381110C94000008953FB7F89480911D
:1027F000580590915905A0915A05B0915B0526B5F1
:10280000A89B05C02F3F19F00196A11DB11D3FBF28
:10281000BA2FA92F982F8827820F911DA11DB11DB6
:10282000BC01CD0142E0660F771F881F991F4A95B2
:10283000D1F7089508950F931F93CF93DF93EC0181
:1028400088819981009729F02A813B8126173707D3
:1028500088F48B016F5F7F4F0E94A92B009761F076
:10286000998388831B830A832C813D81232B11F458
:10287000FC01108281E001C080E0DF91CF911F91C7
:102880000F9108951F93CF93DF93182F81E08093CA
:102890002703109349031092280310924A0360E023
:1028A0008FE294E00E94D11E0E946D1062E0812FA1
:1028B0000E94291010922603809325038FE294E052
:1028C0000E94851E182F8FE294E00E94851ED12F52
:1028D00020E0C22F9E01282BC901DF91CF911F91CB
:1028E0000895CF93DF9300D01F92CDB7DEB729E4D0
:1028F0002983FC0126852A836B8343E050E0BE01D7
:102900006F5F7F4F848595850E94DE1F81E090E098
:102910000F900F900F90DF91CF910895CF93DF9399
:10292000FC01228921110BC0EC01438950E065892B
:102930007689848595850E94DE1F81E08B8BDF91EF
:10294000CF910895EF92FF920F931F93CF93DF9350
:10295000FC01248135816115710511F480E019C0F5
:1029600041155105A9F07B01EC018A01020F131FEB
:10297000B8010E941B14882389F3288139818C8136
:102980009D81B701820F931F0E948A2C1D830C83A7
:1029900081E0DF91CF911F910F91FF90EF9008950B
:1029A000CF93DF9300D0CDB7DEB769831A8241E0C1
:1029B00050E0BE016F5F7F4F0E94A2140F900F90F6
:1029C000DF91CF9108956115710551F0FB010190E0
:1029D0000020E9F73197AF01461B570B0C94A21466
:1029E00080E00895CF93DF93EC018881998100976F
:1029F00011F00E94112B198218821D821C821B82E9
:102A00001A82DF91CF910895CF93DF93EC01FB0100
:102A100044815581608171810E94A214811103C09B
:102A2000CE010E94F214CE01DF91CF910895EF9272
:102A3000FF920F931F93CF93DF93EC017B018A01E9
:102A4000BA010E941B14811104C0CE010E94F2142D
:102A500007C01D830C83B701888199810E948A2C4D
:102A6000CE01DF91CF911F910F91FF90EF900895CC
:102A7000CF93DF93EC016115710559F0FB010190D3
:102A80000020E9F73197AF01461B570B0E9417153D
:102A900002C00E94F214CE01DF91CF910895CF932E
:102AA000DF93EC01FB018617970761F0608171816C
:102AB0006115710529F0448155810E94171502C0E6
:102AC0000E94F214CE01DF91CF910895FC01808124
:102AD00091810C94112BEF92FF920F931F93CF9340
:102AE000DF93CDB7DEB7A1970FB6F894DEBF0FBE68
:102AF000CDBF7C01CB01BA01F70111821082138294
:102B000012821582148242E0420F8E010F5F1F4F26
:102B10000E94BA24BC01C7010E943815A1960FB6C5
:102B2000F894DEBF0FBECDBFDF91CF911F910F9103
:102B3000FF90EF9008950F931F93CF93DF93CDB73E
:102B4000DEB762970FB6F894DEBF0FBECDBF8C0123
:102B5000CB01F80111821082138212821582148235
:102B600050E0BE016F5F7F4F0E942F25BE016F5F57
:102B70007F4FC8010E94381562960FB6F894DEBFE9
:102B80000FBECDBFDF91CF911F910F910895EF92AE
:102B9000FF920F931F93CF93DF93EC01198218825A
:102BA0001B821A821D821C826115710509F18B013D
:102BB000CB010E9426257C01BC01CE010E941B1482
:102BC000811109C0CE01DF91CF911F910F91FF902C
:102BD000EF900C94F214FD82EC82B8018881998107
:102BE000DF91CF911F910F91FF90EF900C941F25D3
:102BF000DF91CF911F910F91FF90EF900895FC010D
:102C00001182108213821282158214820C944F1545
:102C1000FC011182108213821282158214826115C6
:102C2000710551F0FB0101900020E9F73197AF01E8
:102C3000461B570B0C9417150895BF92CF92DF9245
:102C4000EF92FF920F931F93CF93DF937C016B0161
:102C50008A01E9012417350720F4812F8901C42F47
:102C6000D82F6BEF71E0C7010E940816D6011496A9
:102C70008D919C91159708171907D0F48C179D0713
:102C800008F4EC01D601ED91FC911197EC0FFD1FBA
:102C9000B08010824D915C91BA01600F711FC70125
:102CA0000E943815D601ED91FC91EC0FFD1FB0820A
:102CB000C701DF91CF911F910F91FF90EF90DF90AF
:102CC000CF90BF900895EF92FF920F931F93CF93F1
:102CD000DF938C017B01C0E0D0E0F701EC0FFD1F1A
:102CE0006491662361F0D801ED91FC910190F0812F
:102CF000E02DC8010995892B11F02196EECFCE0168
:102D0000DF91CF911F910F91FF90EF9008951F9247
:102D10000F920FB60F9211242F933F934F935F930F
:102D20006F937F938F939F93AF93BF93EF93FF9393
:102D300082E993E00E946113FF91EF91BF91AF91FF
:102D40009F918F917F916F915F914F913F912F91C3
:102D50000F900FBE0F901F9018951F920F920FB6F5
:102D60000F9211242F938F939F93EF93FF93E091F2
:102D7000A203F091A3038081E091A803F091A9033D
:102D800082FD12C090818091AB038F5F8F73209181
:102D9000AC03821751F0E091AB03F0E0EE56FC4F2C
:102DA000958F8093AB0301C08081FF91EF919F913C
:102DB0008F912F910F900FBE0F901F901895362F67
:102DC00090E0FC01E15AFA4F4491FC01E754FA4FBC
:102DD0002491FC01E656FA4F8491882309F451C0EE
:102DE0004423E1F150E0FA013197EF30F105B0F5FD
:102DF000E259FF4F0C94622A909180009F7707C0A0
:102E0000909180009F7D03C090918000977F909368
:102E1000800024C094B59F7702C094B59F7D94BD77
:102E20001DC0909190009F7707C0909190009F7D6A
:102E300003C090919000977F909390000FC0909165
:102E4000C0009F7703C09091C0009F7D9093C00009
:102E500005C09091C200977F9093C200E82FF0E0E8
:102E6000EE0FFF1FE258FA4FA591B4918FB7F89477
:102E7000EC91311103C020952E2301C02E2B2C93F1
:102E80008FBF08958F929F92AF92BF92CF92DF92A1
:102E9000EF92FF926B017C010E94F5134B015C01E4
:102EA000C114D104E104F104F1F00E94F513DC0136
:102EB000CB0188199909AA09BB09883E9340A1054D
:102EC000B10570F321E0C21AD108E108F10888EEDB
:102ED000880E83E0981EA11CB11CC114D104E1042A
:102EE000F10419F7DDCFFF90EF90DF90CF90BF9006
:102EF000AF909F908F9008952FB7F89460915405EC
:102F00007091550580915605909157052FBF0895F2
:102F10001F920F920FB60F9211242F933F938F930E
:102F20009F93AF93BF938091540590915505A091C5
:102F30005605B09157053091530523E0230F2D37E7
:102F400020F40196A11DB11D05C026E8230F0296AD
:102F5000A11DB11D209353058093540590935505F1
:102F6000A0935605B0935705809158059091590547
:102F7000A0915A05B0915B050196A11DB11D8093EA
:102F8000580590935905A0935A05B0935B05BF91DE
:102F9000AF919F918F913F912F910F900FBE0F9006
:102FA0001F901895CF93DF93EC016B817C81636850
:102FB000716B88810E94CA10698170E080E090E0A6
:102FC0000E94421788810E9442142A81022E02C068
:102FD000969587950A94E2F7222329F0811528E037
:102FE000920708F0906FDF91CF910895CF93DF9310
:102FF000EC016B817C816368716888810E94CA10D2
:10300000698170E080E090E00E94421788810E9410
:1030100042142A81022E02C0969587950A94E2F7FF
:10302000222329F0811528E0920708F0906FDF91A4
:10303000CF9108950F931F93CF93DF9300D0CDB717
:10304000DEB78C01FC018189882369F087E78983D9
:1030500086858A8342E050E0BE016F5F7F4F8485A2
:1030600095850E94DE1FF801118A0F900F90DF9165
:10307000CF911F910F9108950F931F93CF93DF93DB
:1030800000D000D0CDB7DEB727E52B83FC01268525
:103090002C8302E010E09E012F5F3F4F42E050E0A2
:1030A000BE016D5F7F4F848595850E94C91F898110
:1030B00090E0982F88272A81820F911D0F900F9002
:1030C0000F900F90DF91CF911F910F9108950F9363
:1030D0001F93CF93DF9300D01F92CDB7DEB722E7C7
:1030E0002983FC0126852A8301E010E09E012D5FE3
:1030F0003F4F42E050E0BE016F5F7F4F8485958572
:103100000E94C91F81E09B81913009F080E00F90FF
:103110000F900F90DF91CF911F910F910895AF9273
:10312000BF92CF92DF92EF92FF920F931F93CF93B4
:10313000DF9300D01F92CDB7DEB75C0182E58B83B1
:10314000D5011F96ED91FC91509704811581208146
:10315000318182E0C82ED12CFE0131967F0141E001
:1031600050E0BE016D5F7F4F1C968D919C911D9725
:103170000E94290E8A81D5011E968C931E971F9658
:103180000D911C9150970115110531F0C8010E9455
:103190006615C8010E94112BF501108A17868981D6
:1031A000811102C081E0818B0F900F900F90DF9111
:1031B000CF911F910F91FF90EF90DF90CF90BF9034
:1031C000AF9008950F931F93CF93DF93EC018B0182
:1031D00063EC72E08F8598890E94E314F8014481C2
:1031E0005581608171818F859889DF91CF911F9181
:1031F0000F910C94A214CF92DF92EF92FF920F9353
:103200001F93CF93DF9300D000D000D0CDB7DEB7AF
:103210008C016B0162ED72E0CE0101960E940816EE
:10322000C8010E941A1886E090E00E947C2A7C0166
:10323000BE016F5F7F4F0E94FF15F801F08AE7869D
:10324000CE0101960E9466156BED72E0CE010196EB
:103250000E940816BE016F5F7F4FC8010E94E218EE
:10326000CE0101960E946615B601C8010E94E218BF
:10327000C8010E948F18C8010E946718882339F07E
:1032800064E670E080E090E00E944217F4CFC8014D
:103290000E943C1826960FB6F894DEBF0FBECDBF35
:1032A000DF91CF911F910F91FF90EF90DF90CF9022
:1032B0000895EF92FF920F931F93CF93DF9300D067
:1032C0001F92CDB7DEB7FC012289211118C07C0105
:1032D000138A8FE4898380E48B8386858A839F01A8
:1032E0002C5E3F4F00E410E043E050E0BE016F5F12
:1032F0007F4F848595850E94C91FF701828B0F90AF
:103300000F900F90DF91CF911F910F91FF90EF9051
:103310000895CF93DF93EC010E9459198A8988237D
:1033200031F08B89C80FD11D8C8990E002C08FEFDE
:103330009FEFDF91CF910895CF93DF93EC010E942F
:1033400059198A89882359F081508A8B8B8991E099
:10335000980F9B8BC80FD11D8C8990E002C08FEF16
:103360009FEFDF91CF910895CF93DF93EC010E94FF
:1033700059198A8990E0DF91CF9108952AE931E0C7
:10338000FC01318320830C941A18CF93DF93EC0156
:103390008A89811108C08D899E89009711F00E9449
:1033A000112B81E08A8B88899989009721F00E94EE
:1033B000112B198A188ADF91CF910895EF92FF920D
:1033C0000F931F93CF93DF9300D0CDB7DEB7FC01EF
:1033D0002685211115C07C01178680E7898380E24C
:1033E0008A832089318900E210E042E050E0BE018A
:1033F0006F5F7F4F848595850E94C91FF70186877F
:103400000F900F90DF91CF911F910F91FF90EF9050
:103410000895CF93DF93EC010E94DE198E858823F7
:1034200041F08F85E889F989E80FF11D808190E0EE
:1034300002C08FEF9FEFDF91CF910895CF93DF937D
:10344000EC010E94DE198E85882369F081508E87F9
:10345000E889F9898F8591E0980F9F87E80FF11D22
:10346000808190E002C08FEF9FEFDF91CF910895B0
:10347000CF93DF93EC010E94DE198E8590E0DF91FF
:10348000CF910895CF93DF931F92CDB7DEB76983B5
:10349000DC01ED91FC910280F381E02D41E050E0F0
:1034A000BE016F5F7F4F09950F90DF91CF91089517
:1034B00083E08093E9008091F200882319F08AE389
:1034C0008093E8000895FC018485958597FD0BC0E5
:1034D0009FB7F89482E08093E9008091F2009FBF4B
:1034E00090E0019608959FB7F89482E08093E900F8
:1034F0008091F2009FBF90E0089540916005509147
:10350000610520915E0530915F0542175307B4F4C1
:103510009091E8009570E1F39091E80092FD19C058
:103520008093F100809160059091610501968F7301
:103530009927892B19F48EEF8093E800809160051C
:10354000909161050196909361058093600581E0FB
:10355000089580E00895CF92DF92EF92FF920F934B
:103560001F93CF93DF931F92CDB7DEB7182F062F8F
:10357000E42E862F880F8E5F99830E947D1A83E048
:103580000E947D1AF12EC12E9981D92E8C2D8F1972
:10359000801798F4F601E7FE02C0849101C0808193
:1035A0000E947D1A182F80E00E947D1A8123FFEF70
:1035B000CF1ADF0A8111EACF01C081E00F90DF91BD
:1035C000CF911F910F91FF90EF90DF90CF900895D2
:1035D000DF92EF92FF920F931F93CF93DF93D82E3A
:1035E0008A017B01E40EF51EEB01CE15DF0571F0BB
:1035F000D7FE03C0FE01849101C088810E947D1A1C
:1036000021968111F2CF8FEF9FEF01C0C801DF91AA
:10361000CF911F910F91FF90EF90DF90089561502F
:1036200030F02091F100FC0120830196F8CF28981A
:1036300084E68093230308950E94451290E0089544
:10364000CF93DF931F92CDB7DEB7FC0184859585BC
:1036500097FD05C02FEF3FEF358724870BC0CE01C4
:1036600001960E941B12019719F4898190E002C013
:103670008FEF9FEF0F90DF91CF9108950F931F93DE
:10368000CF93DF931F92CDB7DEB78C01FC01848509
:10369000958597FF0EC0CE0101960E941B120197DF
:1036A00019F4298130E002C02FEF3FEFF801358790
:1036B0002487F801848595850F90DF91CF911F9124
:1036C0000F9108950F931F93CF93DF931F92CDB760
:1036D000DEB782E0898342E450E068ED75E080E87F
:1036E0000E94E81A0E94DB12DC0112960D911C91D7
:1036F00013970115110569F0D801ED91FC91028035
:10370000F381E02DBE016F5F7F4FC801099597FFE0
:1037100007C089810F90DF91CF911F910F9108957C
:10372000F80100851185E5CF0E94732C1F920F923E
:103730000FB60F9211248F939F938091E100909187
:10374000E100937F9093E10083FF0FC01092E900A6
:1037500091E09093EB001092EC0092E39093ED00D7
:103760001092240398E09093F00082FF20C093E031
:103770009093E9009091F200992319F09AE39093C5
:10378000E80090912103992339F090912103915001
:1037900090932103992389F190912303992339F080
:1037A00090912303915090932303992341F184FF37
:1037B00010C08091E2008E7E81608093E200809153
:1037C000E1008F7E8093E100809122038E7E8061F4
:1037D00011C080FF16C08091E2008E7E80618093D0
:1037E000E2008091E1008E7E8093E10080912203CF
:1037F0008E7E81608093220304C05D9ACDCF289A8B
:10380000D6CF9F918F910F900FBE0F901F9018955C
:103810001F920F920FB60F921124CF92DF92EF9268
:10382000FF920F931F932F933F934F935F936F9349
:103830007F938F939F93AF93BF93EF93FF93CF9318
:10384000DF93CDB7DEB76C97DEBFCDBF1092E90036
:103850008091E80083FFEDC168E0CE0145960E94AB
:103860000F1B82EF8093E8008D8987FF05C0909140
:10387000E80090FFFCCF03C09EEF9093E800982FE4
:10388000907609F0C6C09E892F89188D91110CC0C1
:10389000803829F4809163058093F10002C0109272
:1038A000F1001092F10048C1422F50E0512B9130AD
:1038B00051F4811141C14130510509F03DC1809160
:1038C00063058D7F0BC0933061F4811135C14130A8
:1038D000510509F031C180916305826080936305D1
:1038E0002BC1953041F48091E80080FFFCCF206827
:1038F0002093E30021C1963009F05FC0EB8CFC8C73
:103900001092E9001092610510926005123091F555
:1039100010925F0510925E050E94621B99E0BE0145
:103920006F5F7F4FDB01E92F1D92EA95E9F79983DD
:103930001A8391E09E8390EA98879AEF9987209165
:10394000600530916105275F3F4F3C832B838D835A
:103950001092E9001092610510926005F0925F05E7
:10396000E0925E0549E050E080E00E94E81A0E9483
:10397000621BE2C0F0925F05E0925E050E94DB12DE
:10398000DC011296ED90FC901397E114F10409F418
:10399000C0C0D701ED91FC910480F581E02DBE01FE
:1039A0006B5E7F4FC7010995009719F00CF0C4C0FA
:1039B000C7C0F701E084F184E8CF973009F4C0C0B4
:1039C000983021F481E08093F100B6C0993009F07D
:1039D000B3C0837009F0B4C0E9EAF1E081E021E00E
:1039E00036E39081992361F08093E9002093EB0006
:1039F00091919093EC003093ED008F5F873089F7C1
:103A00008EE78093EA001092EA008F898093240366
:103A100093C08B8D9C8D1092E900109261051092DD
:103A2000600590935F0580935E05898D811156C076
:103A30008E899D89913A59F4813209F081C047E01D
:103A400050E068E171E080E00E94E81A75C09132B0
:103A500009F076C0833289F4888D90E0982F88270A
:103A60002F89822BA0E0B0E0809322019093230164
:103A7000A0932401B09325015FC0803269F4809146
:103A8000E80082FFFCCF67E088E191E00E940F1B15
:103A90008BEF8093E80006C0823209F04DC08F8919
:103AA00080931F0180916205882319F0EEEFFAE000
:103AB00002C0E0E0F8E08091180190911901A09116
:103AC0001A01B0911B01803B9440A105B10509F09A
:103AD0007BC080911F0180FF93C076C00E94DB12E3
:103AE000DC0112960D911C9113970115110541F1FE
:103AF000D801ED91FC910190F081E02DBE016B5E4B
:103B00007F4FC8010995811117C0F8010085118503
:103B1000ECCF113009F44EC0133091F48F89882313
:103B200009F445C0823081F440E86BE08CE396E014
:103B30000E94AB1A882321F08EEF8093E80079C0B1
:103B400081E28093EB0075C0813029F440E86BE09E
:103B500080E396E0EDCF833099F70E94DB12DC0121
:103B60001296ED90FC9013978E010F5F1F4F680126
:103B7000E114F10479F0D701ED91FC910680F78111
:103B8000E02DB801C7010995080F111DF701E08468
:103B9000F184EECFD8011C92F60101900020E9F7E4
:103BA0003197BF016C197D0940E0C601C1CF6AE1C0
:103BB00076E002C06EE176E06115710509F2FB0165
:103BC000449150E080E840CF0FB6F894A8958091DA
:103BD0006000886180936000109260000FBEA8951D
:103BE000EE3F2AE0F20739F08091FE0A9091FF0A39
:103BF00091838083A1CF1092FF0A1092FE0A9CCF7E
:103C0000EE3F8AE0F80731F0808191819093FF0ABE
:103C10008093FE0A87E797E7918380839BE088E1A2
:103C20000FB6F894A895809360000FBE9093600043
:103C300083CF6C960FB6F894DEBF0FBECDBFDF9179
:103C4000CF91FF91EF91BF91AF919F918F917F9114
:103C50006F915F914F913F912F911F910F91FF9025
:103C6000EF90DF90CF900F900FBE0F901F901895A0
:103C7000FC0180819181009711F00C94F82460E0A0
:103C800070E0CB01089585ED8093BC008091BC006D
:103C900084FDFCCF10929103089540918605262F54
:103CA00030E0240F311D21323105DCF420919103E5
:103CB0002430C9F4FC0180E090E0861758F430917C
:103CC00086052191DC01AC59BA4FA30FB11D2C938D
:103CD0000196F3CF80918605680F6093860580E09A
:103CE000089581E0089582E008950895E091260303
:103CF00080912503E81730F4F0E0E55BFC4F80810C
:103D000090E008958FEF9FEF0895909126038091A2
:103D10002503981750F4E92FF0E0E55BFC4F208174
:103D200030E09F5F9093260302C02FEF3FEFC90161
:103D300008958091250390E020912603821B91092C
:103D40000895CF92DF92EF92FF920F931F93CF933C
:103D5000DF937C01262F972F8A01809127038823E8
:103D600091F0C62FD72F6E01C40ED51ECC15DD05E0
:103D700071F06991D701ED91FC910190F081E02DF6
:103D8000C7010995F3CF642F822F0E944D1EC801F1
:103D9000DF91CF911F910F91FF90EF90DF90CF9027
:103DA0000895CF93DF931F92CDB7DEB7698320913B
:103DB00027032223D1F020914A03203240F021E052
:103DC00030E0FC013383228380E090E015C08091D5
:103DD0002803E82FF0E0E75DFC4F998190838F5F27
:103DE0008093280380934A0305C061E0CE010196C9
:103DF0000E944D1E81E090E00F90DF91CF910895D9
:103E00008F929F92AF92BF92CF92DF92EF92FF92EA
:103E10000F931F93CF93DF931F92CDB7DEB75C0153
:103E20009B014A01DC0152968C91811105C07B01F6
:103E30008B01040F151F31C080E58983C12CD12C63
:103E4000E12CF12C8A0141E050E0BE016F5F7F4F11
:103E5000F501848595850E94290E22C0D5015596CD
:103E6000ED91FC91569753968C91539791E0980F52
:103E700053969C93D7019D917D01E80FF11D90838E
:103E8000F50193898489981308C00190F081E02D91
:103E90000680F781E02DC5010995E016F106F1F6DF
:103EA000C4010F90DF91CF911F910F91FF90EF9080
:103EB000DF90CF90BF90AF909F908F900895CF9359
:103EC000DF93EC018D819E81DC01ED91FC910084FA
:103ED000F185E02D09951816190654F48D819E81FF
:103EE000DC01ED91FC910284F385E02D0995EACF88
:103EF000DF91CF9108958F929F92AF92BF92CF9210
:103F0000DF92EF92FF92CF93DF93EC016B010E945F
:103F10007C174B015C01E12CF12C8D819E81DC0131
:103F2000ED91FC910284F385E02D099597FF0FC078
:103F30000E947C17DC01CB0188199909AA09BB09E9
:103F40008C159D05AE05BF0540F38FEF9FEFDF9108
:103F5000CF91FF90EF90DF90CF90BF90AF909F9068
:103F60008F900895FC01238134812627022E22950B
:103F7000207F2025032E322F22952F700226269592
:103F800032272327220F220F220F20253483238359
:103F90000895CF92DF92EF92FF920F931F936801E3
:103FA000790100E010E020E030E00E94290E1F912E
:103FB0000F91FF90EF90DF90CF9008950F931F9394
:103FC00000E010E020E030E00E94C91F1F910F9137
:103FD0000895CF93DF9300D0CDB7DEB7DC015296C2
:103FE0008C915297882379F080E589836A8342E037
:103FF00050E0BE016F5F7F4F1C968D919C911D9785
:104000000E94DE1F1FC05596ED91FC915697539666
:104010008C91539791E0980F53969C935397E80F88
:10402000F11D608353969C91539754968C915497AD
:10403000981308C0ED91FC9111970680F781E02D4F
:10404000CD01099581E090E00F900F90DF91CF9125
:104050000895BF92CF92DF92EF92FF920F931F933A
:10406000CF93DF93CDB7DEB72E970FB6F894DEBFB0
:104070000FBECDBF7C01C7010E945F1F68EE73E0D9
:1040800080E090E00E944217D70115968D919C9197
:104090001697DC01ED91FC910084F185E02D0995E6
:1040A0001816190644F385E0D82ECC24C39492E365
:1040B000B92EEFEAF1E0DE0111968D2D01900D92FF
:1040C0008A95E1F7F701C08645E050E0BE016F5FD9
:1040D0007F4FC7010E94DE1FD70115968D919C91DD
:1040E0001697DC01ED91FC910190F081E02D63E0E9
:1040F00009956AEF70E080E090E00E94421766E563
:1041000076E0F701858196810E9463166AEF70E080
:1041100080E090E00E94421764E576E0D7011596B2
:104120008D919C9116970E94631664EF71E080E078
:1041300090E00E94421768E476E0F701858196815D
:104140000E94631664EF71E080E090E00E944217E5
:10415000C7010E945F1FE4EBF1E0DE0116968D2D92
:1041600001900D928A95E1F7D7011896BC9204E070
:1041700010E09E01255F3F4F45E050E0BE016A5FC1
:104180007F4FC7010E94C91F8F3FBFEF9B0739F4C4
:1041900068EE73E080E090E00E9442178ACF2B85A2
:1041A0002111FFCF049701F52C8530E02053310910
:1041B00084E6829FA001839F500D11242D8530E05D
:1041C000205331096AE0629FC001639F900D112462
:1041D000840F951F2E8530E020533109820F931FE5
:1041E000F7019283818307C084E690E0D70112969D
:1041F0009C938E93119782E3F70180872E960FB6DA
:10420000F894DEBF0FBECDBFDF91CF911F910F910C
:10421000FF90EF90DF90CF90BF9008951F920F9284
:104220000FB60F9211242F933F934F935F936F9389
:104230007F938F939F93AF93BF93EF93FF9380915F
:10424000B900887F803609F49CC068F5883209F48B
:104250005BC090F4803109F454C038F4882309F429
:10426000F6C0883009F44DC0F6C0883109F44CC05E
:10427000803209F45DC0EFC0803409F468C048F4AE
:10428000803309F455C0883309F0E5C080938F036B
:10429000D8C0803509F44FC0883509F45DC0883432
:1042A00009F0D9C0D6C0883909F4C7C0A8F4883746
:1042B00009F467C038F4883609F463C0803709F41C
:1042C00060C0C9C0883809F4B8C0803909F45FC03B
:1042D000803809F0C0C05BC0803B09F486C038F468
:1042E000803A09F466C0883A09F47FC0B4C0803CC3
:1042F00009F4A7C0883C09F4A4C0883B09F48AC02B
:10430000AAC080918C0310C090918E0380918D0380
:10431000981770F5E0918E0381E08E0F80938E03E5
:10432000F0E0E559FC4F80818093BB0085EC86C0AE
:1043300080938F038EC0E0918E0381E08E0F809377
:104340008E038091BB00F0E0E559FC4F8083909193
:104350008E0380918D036EC0E0918E0381E08E0FFD
:1043600080938E038091BB00F0E0E559FC4F808381
:104370008091900381116DC081E080938B0384EA6A
:1043800061C083E0809391031092AA05CFCF809102
:10439000AA05803208F051C0E091AA0581E08E0F95
:1043A0008093AA058091BB00F0E0E657FA4F808326
:1043B000BDCF85EC8093BC00109291038091AA053B
:1043C000803230F4E091AA05F0E0E657FA4F10820F
:1043D0006091AA0570E0E0918805F09189058AE86E
:1043E00095E009951092AA0536C084E08093910368
:1043F0001092870510928605E0918405F09185055D
:10440000099580918605811105C081E0809386051C
:1044100010926405E091870581E08E0F80938705F7
:10442000F0E0EC59FA4F80818093BB0090918705B2
:1044300080918605981708F479CF85E88093BC00B1
:104440000AC085EC8093BC001092910304C01092C6
:104450008F030E94431EFF91EF91BF91AF919F91F7
:104460008F917F916F915F914F913F912F910F901D
:104470000FBE0F901F9018958BE394E00E94661575
:1044800081E494E00E94661587E494E00E9466153A
:1044900088E594E00E94BE198DE495E00E946615BF
:1044A0008CEA94E00E94661582EB94E00E94661507
:1044B00088EB94E00E9466158EEB94E00E946615EE
:1044C00084EC94E00E9466158AEC94E00E946615E4
:1044D00088E891E09093DB048093DA048AED94E01D
:1044E0000C94C519CF93DF93EDEFF4E013821282A1
:1044F00048EE53E060E070E0448355836683778341
:1045000084E391E0918380838FEF9FEF9587848789
:10451000E2E9F3E013821282448355836683778352
:1045200086E491E0918380838DEC90E09587848789
:104530008CEC90E09787868788EC90E0918B808B5D
:1045400089EC90E0938B828B8AEC90E0958B848B46
:104550008EEC90E0978B868B118E128E138E148EBC
:10456000AAEDB4E013961C921E92129714964D93E6
:104570005D936D937C93179788E891E011969C93D7
:104580008E93CDE4D4E01D96DC93CE931C971E96BB
:104590001C921E971F961C921F9751961C921E925A
:1045A000509781E052968C931882FE83ED831F8290
:1045B0001886FA87E987EFE2F4E0138212824483D7
:1045C00055836683778388E591E091838083E5ED69
:1045D000F4E088E480831482138288E0818312826D
:1045E000E0EDF4E01482138299E4908381831282D7
:1045F00069E672E08AEC94E00E94081668E772E0CF
:1046000084EC94E00E94081669E872E08EEB94E076
:104610000E94081668E972E088EB94E00E94081690
:1046200066EA72E082EB94E00E94081664EB72E0A6
:104630008CEA94E00E9408166BEF71E08DE495E03F
:104640000E940816BE0188E594E00E9439056BEFD0
:1046500071E087E494E00E9408166BEF71E081E45A
:1046600094E00E9408166BEF71E08BE394E0DF9119
:10467000CF910C940816CF93DF93CDB7DEB72C976C
:104680000FB6F894DEBF0FBECDBF789484B58260BC
:1046900084BD84B5816084BD85B5826085BD85B5E6
:1046A000816085BD80916E00816080936E00109264
:1046B00081008091810082608093810080918100DF
:1046C0008160809381008091800081608093800070
:1046D000809191008260809391008091910081602F
:1046E00080939100809190008160809390008091F0
:1046F000C10084608093C1008091C100826080937A
:10470000C1008091C10081608093C1008091C3008D
:1047100081608093C3008091C00082608093C0005C
:104720008091C20081608093C20080917A00846091
:1047300080937A0080917A00826080937A008091E1
:104740007A00816080937A0080917A0080688093FB
:104750007A00109224031092630510922203809134
:10476000D70081608093D70080EA8093D80089B514
:10477000806189BD89B5826089BD09B400FEFDCF25
:1047800061E070E080E090E00E9442178091D800E4
:104790008F7C80618093D8008091E000807F80933F
:1047A000E0008091E1008E7E8093E1008DE08093B7
:1047B000E200559A209AEEEFFFE7859194918B3FA6
:1047C0009C4D19F481E080936205E6ECF5E02491BC
:1047D000E7EAF5E08491882399F090E0880F991F2B
:1047E000FC01E457FA4FA591B491FC01E258FA4F4D
:1047F000859194918FB7F894EC91E22BEC938FBF55
:104800000FE010E00E94250501501109D9F70E9420
:104810007C11E0915604F0915704A089B18982E09F
:104820008C93A485B5851C92A685B78587E08C936B
:10483000108EA489B58986E08C93A289B3898C9166
:1048400080618C93A289B3898C9188608C93A289B2
:10485000B3898C9180688C930288F389E02D8081E4
:104860008F7D808380915404811107C081E0809303
:1048700054048DE494E00E9429208091E6049091F4
:10488000E704FC012781211104C021E027830E9455
:1048900029208AED94E00E94C51980E290E00E94F0
:1048A0007C2A9093EB048093EA0400E012E01093DA
:1048B000D9040093D8040E947C111093D40400936F
:1048C000D3040E947C1160915C0570915D054AE003
:1048D000CE0101960E949B1569ED71E0CE0107960D
:1048E0000E94081669817A818F8198850E94B30F92
:1048F000CE0107960E946615CE0101960E946615AC
:1049000067ED71E0CE0101960E94081668E272E040
:10491000CE0107960E94081669817A818F81988559
:104920000E94B30FCE0107960E946615CE01019634
:104930000E9466154AE061E070E0CE0101960E9497
:104940009B1565EC72E0CE0107960E9408166981FE
:104950007A818F8198850E94B30FCE0107960E94BD
:104960006615CE0101960E9466150E94C6090E9436
:10497000EB13FBCFEF920F931F93CF93DF93E801DD
:1049800047FD02C034E001C034E1E42F440FFF0BC7
:10499000F7FF03C0F195E195F109E32E022F2E2FC9
:1049A000AE010E947C25CE01DF91CF911F910F9126
:1049B000EF900895FC0188279927E89421912032EF
:1049C000E9F3293010F02E30C8F32B3241F02D32AC
:1049D00039F4689404C00E945A25820F911D2191D8
:1049E00020532A30C0F31EF4909581959F4F08956F
:1049F0001F93FC0199278827BC01E894119110327C
:104A0000E9F3193010F01E30C8F31B3251F01D329B
:104A100049F4689406C00E944525610F711D811DEF
:104A2000911D119110531A30B0F33EF4909580957A
:104A3000709561957F4F8F4F9F4F1F910895FB0198
:104A4000DC0105900D920020E1F70895FC0105902E
:104A50000020E9F7809590958E0F9F1F08954532AD
:104A6000510520F4423010F00C943A25FB011082DD
:104A7000CB010895BB274A3031F4992322F4BDE2DB
:104A8000909581959F4F0C946325592F482F372F70
:104A9000262F660F771F881F991F660F771F881FA5
:104AA000991F620F731F841F951F660F771F881F42
:104AB000991F08957AE0979F902D879F802D910DE3
:104AC00011240895BB27FB015527AA27880F991F9A
:104AD000AA1FA41710F0A41B83955051B9F7A05D2D
:104AE000AA3308F0A95DA193009779F7B111B193AA
:104AF0001192CB010C94E2274F925F926F927F92BA
:104B00009F92AF92BF92CF92DF92EF92FF920F935C
:104B10001F93CF93DF93CDB7DEB729970FB6F894E5
:104B2000DEBF0FBECDBF6A01122FB02E2BE32017C0
:104B300020F0FF24F394F00E02C0BCE3FB2E0F2DF7
:104B400027E0AE014F5F5F4F0E940A27AC018981C9
:104B5000982F9970913031F0E1FC06C0E0FE06C05C
:104B600090E205C09DE203C09BE201C090E0EE2D03
:104B7000E07183FF3CC0911102C083E001C084E07A
:104B8000811718F4212F281B01C020E0E1110BC070
:104B9000F601822F30E2882319F031938150FBCF48
:104BA000C20ED11C20E0992329F0D6019C93F60176
:104BB00031966F01C6010396E2FE0AC03EE4D601BB
:104BC0003C9341E411964C93119712963C9306C086
:104BD0003EE6F601308341E641833283FC01322F09
:104BE00040E2332309F442C041933150FACF82FFAF
:104BF00044C0911102C083E001C084E0811718F421
:104C0000212F281B01C020E0E1110BC0F601822FEB
:104C100030E2882319F031938150FBCFC20ED11CB2
:104C200020E0992329F0D6019C93F60131966F017B
:104C3000C6010396E2FE0BC039E4D6013C933EE484
:104C400011963C93119736E412963C9307C039E6CF
:104C5000F60130833EE6318336E63283FC01322FA3
:104C600040E2332319F041933150FBCFFC01E20FB6
:104C7000F11D10828EEF9FEFB7C0F1E0911101C0DE
:104C8000F0E06F2F70E01416150624F49A012F5FE0
:104C90003F4F02C021E030E0260F371FBB2029F034
:104CA0006B2D70E06F5F7F4F02C060E070E0260FF9
:104CB000371F612F70E0261737071CF4121B212FB6
:104CC00001C020E03E2D387159F4D601322F60E248
:104CD000332319F06D933150FBCFC20ED11C20E06D
:104CE000FF2331F0D6019C93B6016F5F7F4F6B01BC
:104CF000E1110BC0F601922F30E3992319F03193A3
:104D00009150FBCFC20ED11C20E09F2D940F3A8111
:104D1000782F7071A72E84FF03C0313309F49150AE
:104D2000191624F4993018F098E001C091E0E42FAE
:104D3000852F57FF02C0E0E080E06E2F782FE0E083
:104D4000F0E0AEE29A2E3A01691A71082A01461A79
:104D5000570A0B2D10E01195019511096F3F8FEF48
:104D6000780729F4D6019C92C60101966C0146177A
:104D7000570784F0661677066CF47F01E40CF51C87
:104D8000A1E0B0E0AC0FBD1FEA0EFB1ED7011196EB
:104D9000BC9002C090E3B92E615071093196C601F2
:104DA00001967C016017710724F0D601BC926C015A
:104DB000D5CF6417750741F4363320F4353321F429
:104DC000A11002C081E3B82EF601B082F701822F54
:104DD00090E2882319F091938150FBCFF701E20F05
:104DE000F11D108280E090E029960FB6F894DEBFA6
:104DF0000FBECDBFDF91CF911F910F91FF90EF902C
:104E0000DF90CF90BF90AF909F907F906F905F901A
:104E10004F900895283008F027E03327DA01990FE2
:104E2000311D87FD916000966105710539F432608E
:104E30002E5F3D9330E32A95E1F708959F3F30F0D0
:104E400080387105610509F03C5F3C5F3D9391300E
:104E500008F08068911DDF93CF931F930F93FF920B
:104E6000EF92192F987F9695E92F96959695E90FD1
:104E7000FF27EC5AFE4F99273327EE24FF24A70182
:104E8000E70105900894079428F4360FE71EF81EF2
:104E9000491F511D660F771F881F991F0694A1F7A0
:104EA0000590079428F4E70EF81E491F561FC11DF0
:104EB000770F881F991F661F0694A1F70590079426
:104EC00028F4F80E491F561FC71FD11D880F991FC0
:104ED000661F771F0694A1F70590079420F4490FE9
:104EE000561FC71FD81F990F661F771F881F06946C
:104EF000A9F784911095177041F0D695C7955795ED
:104F00004795F794E7941A95C1F7EAEFF0E06894B3
:104F10001590159135916591959105907FE2739566
:104F2000E118F10A430B560BC90BD009C0F7E10C8D
:104F3000F11E431F561FC91FD01D7EF4703311F49C
:104F40008A95E6CFE894015030F0080F0AF4002764
:104F5000021708F4202F2395022F7A3328F079E3E3
:104F60007D932A95E9F710C07D932A9589F60694DA
:104F700097956795379517951794E118F10A430BA4
:104F8000560BC90BD00998F023957E9173957A330F
:104F900008F070E37C932013B8F77E9170617D93E5
:104FA00030F0839571E37D9370E32A95E1F7112446
:104FB000EF90FF900F911F91CF91DF91992787FD7F
:104FC00090950895DC01FC01672F71917723E1F73B
:104FD000329704C07C916D9370836291AE17BF07C6
:104FE000C8F308950E94342808F481E00895E894F5
:104FF00009C097FB3EF490958095709561957F4F21
:105000008F4F9F4F9923A9F0F92F96E9BB279395CE
:10501000F695879577956795B795F111F8CFFAF4DE
:10502000BB0F11F460FF1BC06F5F7F4F8F4F9F4F0F
:1050300016C0882311F096E911C0772321F09EE86D
:10504000872F762F05C0662371F096E8862F70E0D3
:1050500060E02AF09A95660F771F881FDAF7880FAD
:105060009695879597F90895990F0008550FAA0B03
:10507000E0E8FEEF16161706E807F907C0F012166B
:105080001306E407F50798F0621B730B840B950B6E
:1050900039F40A2661F0232B242B252B21F40895C3
:1050A0000A2609F4A140A6958FEF811D811D089560
:1050B0000E946B280C94DC280E94CE2838F00E94B5
:1050C000D52820F0952311F00C94C5280C94CB28FA
:1050D00011240C9410290E94ED2870F3959FC1F3C0
:1050E000950F50E0551F629FF001729FBB27F00D96
:1050F000B11D639FAA27F00DB11DAA1F649F6627EB
:10510000B00DA11D661F829F2227B00DA11D621F39
:10511000739FB00DA11D621F839FA00D611D221FF3
:10512000749F3327A00D611D231F849F600D211DD7
:10513000822F762F6A2F11249F5750409AF0F1F05A
:1051400088234AF0EE0FFF1FBB1F661F771F881FC3
:1051500091505040A9F79E3F510580F00C94C5280E
:105160000C9410295F3FE4F3983ED4F3869577952D
:105170006795B795F795E7959F5FC1F7FE2B880F69
:10518000911D9695879597F9089597F99F6780E8FF
:1051900070E060E008959FEF80EC089500240A9489
:1051A0001616170618060906089500240A94121602
:1051B0001306140605060895092E0394000C11F435
:1051C000882352F0BB0F40F4BF2B11F460FF04C0E2
:1051D0006F5F7F4F8F4F9F4F089557FD9058440F3B
:1051E000551F59F05F3F71F04795880F97FB991F46
:1051F00061F09F3F79F08795089512161306140603
:10520000551FF2CF4695F1DF08C01616170618068F
:10521000991FF1CF86957105610508940895E8946A
:10522000BB2766277727CB0197F908952F923F92E6
:105230004F925F926F927F928F929F92AF92BF92A6
:10524000CF92DF92EF92FF920F931F93CF93DF9352
:10525000CDB7DEB7CA1BDB0B0FB6F894DEBF0FBEAF
:10526000CDBF09942A88398848885F846E847D84FC
:105270008C849B84AA84B984C884DF80EE80FD80FE
:105280000C811B81AA81B981CE0FD11D0FB6F89474
:10529000DEBF0FBECDBFED0108955058BB27AA2732
:1052A0000E9465290C94DC280E94CE2838F00E94C8
:1052B000D52820F039F49F3F19F426F40C94CB281C
:1052C0000EF4E095E7FB0C94C528E92F0E94ED2829
:1052D00058F3BA17620773078407950720F079F42B
:1052E000A6F50C940F290EF4E0950B2EBA2FA02DE5
:1052F0000B01B90190010C01CA01A0011124FF2783
:10530000591B99F0593F50F4503E68F11A16F0407D
:10531000A22F232F342F4427585FF3CF469537957C
:105320002795A795F0405395C9F77EF41F16BA0B41
:10533000620B730B840BBAF09150A1F0FF0FBB1FEF
:10534000661F771F881FC2F70EC0BA0F621F731F38
:10535000841F48F4879577956795B795F7959E3F95
:1053600008F0B0CF9395880F08F09927EE0F979526
:10537000879508950E94CE290C94DC280E94D52898
:1053800058F00E94CE2840F029F45F3F29F00C9499
:10539000C52851110C9410290C94CB280E94ED289B
:1053A00068F39923B1F3552391F3951B550BBB2754
:1053B000AA2762177307840738F09F5F5F4F220F99
:1053C000331F441FAA1FA9F335D00E2E3AF0E0E890
:1053D00032D091505040E695001CCAF72BD0FE2FDA
:1053E00029D0660F771F881FBB1F2617370748076E
:1053F000AB07B0E809F0BB0B802DBF01FF27935826
:105400005F4F3AF09E3F510578F00C94C5280C94FC
:1054100010295F3FE4F3983ED4F38695779567951E
:10542000B795F7959F5FC9F7880F911D969587955A
:1054300097F90895E1E0660F771F881FBB1F621779
:1054400073078407BA0720F0621B730B840BBA0B37
:10545000EE1F88F7E095089597FB072E16F4009449
:1054600007D077FD09D00E94682A07FC05D03EF4DA
:10547000909581959F4F0895709561957F4F089500
:10548000A1E21A2EAA1BBB1BFD010DC0AA1FBB1F48
:10549000EE1FFF1FA217B307E407F50720F0A21BBA
:1054A000B30BE40BF50B661F771F881F991F1A9427
:1054B00069F760957095809590959B01AC01BD0151
:1054C000CF010895EE0FFF1F0590F491E02D099490
:1054D000AA1BBB1B51E107C0AA1FBB1FA617B7071A
:1054E00010F0A61BB70B881F991F5A95A9F7809536
:1054F0009095BC01CD010895CF93DF938230910543
:1055000010F482E090E0E091AD05F091AE0520E06E
:1055100030E0C0E0D0E0309711F140815181481770
:105520005907C0F04817590761F482819381209789
:1055300019F09B838A832BC09093AE058093AD05B1
:1055400026C02115310519F04217530718F49A01A6
:10555000BE01DF01EF010280F381E02DDCCF2115D8
:10556000310509F1281B390B2430310590F41296CE
:105570008D919C9113976115710521F0FB01938327
:10558000828304C09093AE058093AD05FD013296F1
:1055900044C0FD01E20FF31F819391932250310922
:1055A0002D933C933AC02091AB053091AC05232B51
:1055B00041F420912801309129013093AC052093CA
:1055C000AB0520912601309127012115310541F4C9
:1055D0002DB73EB740912A0150912B01241B350B6A
:1055E000E091AB05F091AC05E217F307A0F42E1B98
:1055F0003F0B2817390778F0AC014E5F5F4F241737
:10560000350748F04E0F5F1F5093AC054093AB0534
:105610008193919302C0E0E0F0E0CF01DF91CF9160
:1056200008950F931F93CF93DF93009709F48CC0D5
:10563000FC013297138212820091AD051091AE05E4
:105640000115110581F420813181820F931F209172
:10565000AB053091AC052817390779F5F093AC0507
:10566000E093AB0571C0D80140E050E0AE17BF0732
:1056700050F412962D913C911397AD0121153105EF
:1056800009F1D901F3CF9D01DA01338322836081CF
:105690007181860F971F8217930769F4EC012881A7
:1056A0003981260F371F2E5F3F4F318320838A8138
:1056B0009B8193838283452B29F4F093AE05E0937D
:1056C000AD0542C01396FC93EE931297ED014991FC
:1056D00059919E01240F351FE217F30771F4808161
:1056E0009181840F951F029611969C938E938281CF
:1056F000938113969C938E931297E0E0F0E0D8018B
:1057000012968D919C911397009719F0F8018C01D6
:10571000F6CF8D919C9198012E5F3F4F820F931F82
:105720002091AB053091AC052817390769F4309703
:1057300029F41092AE051092AD0502C013821282B8
:105740001093AC050093AB05DF91CF911F910F91A2
:105750000895A0E0B0E0EFEAFBE20C941A29EC0116
:10576000009721F4CB010E947C2AB8C0FC01E60F0F
:10577000F71F9C0122503109E217F30708F4ACC06F
:10578000D9010D911C91119706171707B0F005303C
:10579000110508F49FC0C80104978617970708F4FD
:1057A00099C002501109061B170B019311936D93B9
:1057B0007C93CF010E94112B8DC05B01A01AB10A0E
:1057C0004C01800E911EA091AD05B091AE0540E058
:1057D00050E0E12CF12C109709F44AC0A815B90546
:1057E000D1F56D907C901197630182E0C80ED11CB9
:1057F000CA14DB0480F1A3014A195B096A0182E043
:10580000C80ED11C1296BC9012971396AC91B5E0BD
:10581000CB16D10440F0B282A38351834083D901D7
:105820006D937C930AC00E5F1F4FC301800F911FC1
:10583000F90191838083EB2DFA2FE114F10431F00B
:10584000D7011396FC93EE93129744C0F093AE05E4
:10585000E093AD053FC08D919C9111974817590772
:1058600008F4AC017D0112960D90BC91A02DB3CF30
:105870008091AB059091AC0588159905E1F4461728
:105880005707C8F48091260190912701009741F4B1
:105890008DB79EB740912A0150912B01841B950B27
:1058A000E817F907C8F4F093AC05E093AB05F901EC
:1058B000718360830FC0CB010E947C2A7C0100971A
:1058C00059F0A801BE010E94782CCE010E94112B34
:1058D000C70104C0CE0102C080E090E0CDB7DEB7C2
:1058E000EEE00C94362981E090E0F8940C94AB2C17
:1058F000FB01DC0102C001900D9241505040D8F7ED
:105900000895FB01DC018D91019080190110D9F3FC
:10591000990B0895FB01DC0101900D920020E1F745
:105920000895FB0151915523A9F0BF01DC014D9170
:1059300045174111E1F759F4CD010190002049F0DC
:105940004D9140154111C9F3FB014111EFCF81E0A9
:1059500090E00197089513E0CDE2D3E004C0FE018A
:105960000E94622A2196CE32D107C9F7F894FFCF60
:10597000010001000100010001000100010001001F
:10598000010001000100FFFF00E100000000000035
:105990003000FFFFFFFF0000AF0580002000220065
:1059A00000000000421A56121C1B581A631A201BD2
:1059B0003E1B000000008213EF121A13C9134B1391
:1059C00029133D1300000000D11EA11E5903751EAE
:1059D000991E851E761E00000000941BEF125903CD
:1059E0005803941B941B941B00000000941BEF129F
:1059F0005903580300000000E91F001F59038E14CB
:105A0000381A1E1A091A000000007114EF12590307
:105A10001A14B4199C19891900C18081000000581A
:105A20005858585858583130305B324A005B48005B
:105A300064617465002B25542C25412C25642C258C
:105A4000422C2559003A003000646576696365454B
:105A50006D61696C007265696E696369617220616C
:105A6000206365726F0A000D0A000900486F6F6BB2
:105A700020002057617474730020416D70730050D2
:105A800048004100636C730071756974007265624F
:105A90006F6F74007265736574007363616E6E007E
:105AA0006420283078006829006578697400656D85
:105AB00061696C0073657276696365007265616C1B
:105AC00074696D6500616363657373006469736114
:105AD000726D007068617365007C41636365737308
