:100000000C94CF020C94F7020C94F7020C94F702B4
:100010000C94F7020C94F7020C94F7020C94F7027C
:100020000C94F7020C94F7020C94A61B0C94181C69
:100030000C94F7020C94F7020C94F7020C94F7025C
:100040000C94F7020C94F7020C94F7020C94F7024C
:100050000C94F7020C94F7020C94F7020C945215CE
:100060000C94F7020C9427130C9401130C94F702D0
:100070000C94F7020C94F7020C94F7020C94F7021C
:100080000C94F7020C94F7020C94F7020C94F7020C
:100090000C94C1030C94F7020C94F7020C94F70231
:1000A0000C94F7020C94F7020C94F70249074C07E2
:1000B0004F074F074F074F074F074F075C075F0773
:1000C00062076207620762076207620770077007CC
:1000D000730773077307730773077307D414D71471
:1000E000C614CA14CE14F814F814F814DB14DF1470
:1000F000E314E914ED14F814F31400407A10F35AE1
:1001000000A0724E18090010A5D4E80000E8764857
:10011000170000E40B54020000CA9A3B000000E103
:10012000F505000080969800000040420F00000096
:10013000A08601000000102700000000E803000076
:1001400000006400000000000A0000000000010040
:10015000000000002C76D888DC674F0823DFC1DF61
:10016000AE59E1B1B796E5E3E453C63AE651997664
:1001700096E8E6C28426EB898C9B62ED407C6FFC9E
:10018000EFBC9C9F40F2BAA56FA5F490055A2AF7E0
:100190005C936B6CF9676DC11BFCE0E40D47FEF5E9
:1001A00020E6B500D0ED902E030094357705008051
:1001B000841E080000204E0A000000C80C333333B0
:1001C000330F986E12831141EF8D2114893BE65550
:1001D00016CFFEE6DB18D1844B381BF77C1D901D33
:1001E000A4BBE424203284725E228100C9F124EC95
:1001F000A1E53D270A2053656E7420456D61696C49
:100200002066726F6D20507974686F6E2E2E2E0AE4
:1002100000707974686F6E202F726F6F742F69662B
:100220005F6D61696C2E7079000A20506F737420C5
:1002300044617461204D7953514C2E2E2E0A00706A
:100240007974686F6E202F726F6F742F706F737474
:10025000446174612E707900206465766963652855
:1002600073292E00466F756E642000446F6E652EF4
:1002700000466F756E642069326320446576696359
:100280006520416464726573733A200049324320EB
:1002900041646472657373205363616E6E65722E80
:1002A000200A5363616E6E696E67202E2E2E2E2EED
:1002B0002E2E2E2E2E2E002E000A006D696E7574C5
:1002C0006F730A00496E74726F64757A6361206C93
:1002D0006F73206D696E75746F732064652073652C
:1002E00072766963696F0A003D3D3D3D3D3D3D3D90
:1002F0003D3D3D3D3D3D3D3D3D3D3D3D3D3D3D3D2E
:100300003D3D3D3D3D3D3D3D3D3D0A002020202001
:100310002020202020507265737320456E74657212
:1003200020746F20457869740A0020202020202046
:10033000202020536572766963652054696D650AD3
:10034000003D3D3D3D3D3D3D3D3D3D3D3D3D3D3D1A
:100350003D3D3D3D3D3D3D3D3D3D3D3D3D3D3D3DCD
:100360003D3D3D0A0072657365742D6D63750072C5
:1003700065626F6F74003D3D3D3D3D3D3D3D3D3D02
:100380003D3D3D3D3D3D3D3D3D3D3D3D3D3D3D3D9D
:100390003D3D3D3D3D3D3D3D0A00436F6E736F6CFD
:1003A0006120646520536572766963696F003D3D25
:1003B0003D3D3D3D3D3D3D3D3D3D3D3D3D3D3D3D6D
:1003C0003D3D3D3D3D3D3D3D3D3D3D3D3D3D3D3D5D
:1003D0000A002E005265666572656E6369612030A1
:1003E0002C302C3130302C3130302E2E2E2E2E2E23
:1003F00000436F6E736F6C612E2E2E2E2E2E2E2EBE
:100400002E2E2E2E2E2E2E2E2E2E2E2E003D3D3D0D
:100410003D3D3D3D3D3D3D3D3D3D3D3D3D3D3D3D0C
:100420003D3D3D3D3D3D3D3D3D3D3D3D3D3D3D0A2F
:100430000056414C554520000A0023003D3D3D3DFE
:100440003D3D3D3D3D3D3D3D3D3D3D3D3D3D3D3DDC
:100450003D3D3D3D3D3D3D3D3D3D3D3D3D3D0A003C
:100460000A003D3D3D3D3D3D3D3D3D3D3D3D3D3D2C
:100470003D3D3D3D3D3D3D3D3D3D3D3D3D3D3D3DAC
:100480003D3D3D3D0A000A00707974686F6E202F73
:10049000726F6F742F736572766963652E70790061
:1004A00000000000250028002B002E003100000075
:1004B0000000240027002A002D003000040404045A
:1004C00004030405020202020403020202020606F9
:1004D00006060606040402020204040408020110CF
:1004E000408040102040804080080204018040206D
:1004F0001002011080102040402072756E2D627233
:10050000696467650A000A000A0000000002000929
:100510000F0000030401000C0000000000000000B8
:10052000000000000000000000080B0002020201B1
:10053000000904000001020200000524001001056A
:100540002401010104240206052406000107058197
:100550000310004009040100020A00000007050220
:100560000240000007058302400000040309041252
:10057000010002EF0201404123418000010102031A
:100580000141726475696E6F204C4C430041726486
:1005900075696E6F2059756E0000E523A92311243B
:1005A0001FBECFEFDAE0DEBFCDBF25E0A0E0B3E0B5
:1005B00001C01D92AF3CB207E1F713E0A0E0B1E04B
:1005C000E8E3F9E502C005900D92A030B107D9F734
:1005D00012E0CEECD2E004C02197FE010E94462A30
:1005E000CD3CD107C9F70E94D6210C948F2C0C94D6
:1005F000000085ED8093BC008091BC0084FDFCCFA1
:1006000010921504089540912803262F30E0240FFE
:10061000311D21323105DCF4209115042430C9F458
:10062000FC0180E090E0861758F430912803219176
:10063000DC01AA5FBC4FA30FB11D2C930196F3CF31
:1006400080912803680F6093280380E0089581E07B
:10065000089582E008950895E091AA038091A90386
:10066000E81730F4F0E0E153FC4F808190E008950A
:100670008FEF9FEF08959091AA038091A903981797
:1006800050F4E92FF0E0E153FC4F208130E09F5F10
:100690009093AA0302C02FEF3FEFC9010895809104
:1006A000A90390E02091AA03821B91090895CF929B
:1006B000DF92EF92FF920F931F93CF93DF937C0112
:1006C000262F972F8A018091AB03882391F0C62FA4
:1006D000D72F6E01C40ED51ECC15DD0571F06991C2
:1006E000D701ED91FC910190F081E02DC7010995B2
:1006F000F3CF642F822F0E940303C801DF91CF91B3
:100700001F910F91FF90EF90DF90CF900895CF93BE
:10071000DF931F92CDB7DEB769832091AB0322230D
:10072000D1F02091CE03203240F021E030E0FC01F6
:100730003383228380E090E015C08091AC03E82FE2
:10074000F0E0E355FC4F998190838F5F8093AC0379
:100750008093CE0305C061E0CE0101960E940303A1
:1007600081E090E00F90DF91CF9108950F931F9358
:1007700000E010E020E030E00E94F5161F910F919C
:1007800008951F920F920FB60F9211242F933F934B
:100790004F935F936F937F938F939F93AF93BF9389
:1007A000EF93FF938091B900887F803609F49CC055
:1007B00068F5883209F45BC090F4803109F454C0C4
:1007C00038F4882309F4F6C0883009F44DC0F6C027
:1007D000883109F44CC0803209F45DC0EFC0803428
:1007E00009F468C048F4803309F455C0883309F02F
:1007F000E5C080931304D8C0803509F44FC0883514
:1008000009F45DC0883409F0D9C0D6C0883909F42C
:10081000C7C0A8F4883709F467C038F4883609F4EB
:1008200063C0803709F460C0C9C0883809F4B8C013
:10083000803909F45FC0803809F0C0C05BC0803BDC
:1008400009F486C038F4803A09F466C0883A09F49D
:100850007FC0B4C0803C09F4A7C0883C09F4A4C0A0
:10086000883B09F48AC0AAC08091100410C09091FE
:10087000120480911104981770F5E091120481E040
:100880008E0F80931204F0E0E151FC4F8081809341
:10089000BB0085EC86C0809313048EC0E0911204E7
:1008A00081E08E0F809312048091BB00F0E0E15153
:1008B000FC4F808390911204809111046EC0E091EE
:1008C000120481E08E0F809312048091BB00F0E04F
:1008D000E151FC4F80838091140481116DC081E04F
:1008E00080930F0484EA61C083E080931504109222
:1008F0004C03CFCF80914C03803208F051C0E0917F
:100900004C0381E08E0F80934C038091BB00F0E09C
:10091000E45DFC4F8083BDCF85EC8093BC001092DA
:10092000150480914C03803230F4E0914C03F0E0E8
:10093000E45DFC4F108260914C0370E0E0912A036B
:10094000F0912B038CE293E0099510924C0336C092
:1009500084E0809315041092290310922803E091FB
:100960002603F0912703099580912803811105C082
:1009700081E08093280310920603E091290381E02F
:100980008E0F80932903F0E0EA5FFC4F8081809313
:10099000BB009091290380912803981708F479CF20
:1009A00085E88093BC000AC085EC8093BC0010925F
:1009B000150404C0109213040E94F902FF91EF91F4
:1009C000BF91AF919F918F917F916F915F914F9167
:1009D0003F912F910F900FBE0F901F90189561E0DF
:1009E0008DE00E94A91464E670E080E090E00E942F
:1009F0000C1560E08DE00E94A91464E670E080E0D0
:100A000090E00C940C150F931F93CF93DF93CDB709
:100A1000DEB7CA55D1090FB6F894DEBF0FBECDBF01
:100A200060918803709189034AE0CE018B5A9F4FF1
:100A30000E94151267EB71E0CE0101960E948212AE
:100A400067966EAD7FAD679789819A810E94F21F8C
:100A5000CE0101960E94E011CE018B5A9F4F0E9459
:100A6000E0111C821B8288EE93E0A0E0B0E08D8351
:100A70009E83AF83B88707E911E01A83098381ED6C
:100A800094E09E878D871A8A1B8A1C8A61E172E036
:100A9000CE018B5A9F4F0E944112BE016B5A7F4F6D
:100AA000CE0101960E945D17CE018B5A9F4F0E9486
:100AB000E01164EF71E08EE595E00E94DD121A838B
:100AC0000983CE0101960E94E415C65ADF4F0FB686
:100AD000F894DEBF0FBECDBFDF91CF911F910F9174
:100AE00008952F923F924F925F926F927F928F92D2
:100AF0009F92AF92BF92CF92DF92EF92FF920F93AD
:100B00001F93CF93DF93CDB7DEB7C156D1090FB690
:100B1000F894DEBF0FBECDBF0E94A60F0E94AF0F9C
:100B20000E9483090E94150A6EE475E08BEC94E044
:100B30000E94C91106E010E010930503009304031E
:100B4000109203031092020381E090E0909301035E
:100B5000809300030E94E20D62E475E08BEC94E068
:100B60000E94C91188E090E09093050380930403EC
:100B7000109303030093020380E490E09093010339
:100B8000809300030E94E20D6CE375E08BEC94E02F
:100B90000E94C9110E94B20B1C821B8288EE93E056
:100BA000A0E0B0E08D839E83AF83B88707E911E0B2
:100BB0001A83098381ED94E09E878D871A8A1B8AA8
:100BC0001C8A6FE372E0CE018B5A9F4F0E94411244
:100BD000BE016B5A7F4FCE0101960E945D17CE0178
:100BE0008B5A9F4F0E94E01169E272E08EE595E01A
:100BF0000E94DD121A830983CE0101960E94E4153A
:100C0000109289031092880328E1C22ED12C38E07B
:100C1000632E712C46E0E42EF12C64EF71E080E04D
:100C200090E00E940C1562ED73E08EE595E00E9465
:100C3000DD1261E08DE00E94A91464EF71E080E0B4
:100C400090E00E940C1560E08DE00E94A9148EE5F2
:100C500095E00E9460188A30F1F021E0C21AD108B4
:100C6000E1F6CF59DF4F0FB6F894DEBF0FBECDBF10
:100C7000DF91CF911F910F91FF90EF90DF90CF9078
:100C8000BF90AF909F908F907F906F905F904F90AC
:100C90003F902F9008950E94A60F0E94AF0F0E94D0
:100CA000150A6EEA73E08EE595E00E94DD128AE98E
:100CB00093E00E94162166E773E08EE595E00E94BE
:100CC000DD1268EE73E080E090E00E940C158EE586
:100CD00095E00E946018A0968FAFA09795E0292E0E
:100CE000312C8EE595E00E94201880916C058823B8
:100CF00009F4D3C28EE595E00E9460188A3009F0AD
:100D0000C7C283EC91E00E94481E882341F00E94F4
:100D1000B80F67E772E085EC94E00E94B21187ECAF
:100D200091E00E94481E882341F067E772E085EC5D
:100D300094E00E94B2110E9471058CEC91E00E9437
:100D4000481E882381F10E94B80F1C821B8288EE06
:100D500093E0A0E0B0E08D839E83AF83B88707E97E
:100D600011E01A83098381ED94E09E878D871A8AAA
:100D70001B8A1C8A6FE673E0CE018B5A9F4F0E943C
:100D80004112BE016B5A7F4FCE0101960E945D1742
:100D9000CE018B5A9F4F0E94E0111A830983CE0126
:100DA00001960E94E41583ED91E00E94481E88237D
:100DB00071F11C821B8288EE93E0A0E0B0E08D838D
:100DC0009E83AF83B88707E911E01A83098381ED19
:100DD00094E09E878D871A8A1B8A1C8A65E673E0D9
:100DE000CE018B5A9F4F0E944112BE016B5A7F4F1A
:100DF000CE0101960E945D17CE018B5A9F4F0E9433
:100E0000E0111A830983CE0101960E94E41589ED51
:100E100091E00E94481E882309F48FC08CE892E07C
:100E20000E9416210E948921812C912C54018394C7
:100E3000512C442443944092AB038092CD031092F2
:100E4000AC031092CE030E947A20811151C061E759
:100E500072E08EE595E00E94DD124AE0C501B40122
:100E60000E9427218FED91E00E94872140E1C5017A
:100E7000B4010E94272185EE91E00E948721840120
:100E8000F401B097E830F10570F4EA5AFF4F0C9482
:100E9000462A88E495E005C082E495E002C080E33C
:100EA00095E00E947921F801F897E830F10570F497
:100EB000E25AFF4F0C94462A8CE395E005C086E386
:100EC00095E002C080E395E00E947921F801E854A2
:100ED000F109E830F10558F4EA59FF4F0C94462A1D
:100EE0008CE395E002C080E395E00E947921539461
:100EF0008FEF881A980AA80AB80A98E78916910409
:100F0000A104B10409F097CF8BE692E00E9416216C
:100F100084E692E00E941621652D70E080E090E06A
:100F20004AE00E94272188E592E00E94162167E7A7
:100F300072E085EC94E00E94B21188EE91E00E948C
:100F4000481E882341F067E772E085EC94E00E9438
:100F5000B2110E9471058FEF91E00E94481E882314
:100F600041F00E94150A67E772E085EC94E00E9468
:100F7000B2118DEE91E00E94481E882361F03092FC
:100F80008903209288030E94030567E772E085ECDD
:100F900094E00E94B21183EF91E00E94481E8823E2
:100FA00009F4B9C00E94150A61E473E08EE595E08A
:100FB0000E94DD126AE273E08EE595E00E94DD1288
:100FC0006CE073E08EE595E00E94DD1268EE72E061
:100FD0008EE595E00E94DD1264EC72E08EE595E00E
:100FE0000E94DD128EE595E00E94601887E792E08E
:100FF000A1968FAFA197BC0185EC94E00E94B2113D
:101000008EE595E00E94201880916C05882309F4F4
:1010100076C08EE595E00E946018182F082E000C0F
:10102000990BC0970A9728F4612F8FEB94E00E94E8
:101030004A111A3009F05EC08FEB94E00E94111142
:101040006F966CAF7DAF8EAF9FAF6F976BEB72E01B
:101050008EE595E00E94DD126D968EAD9FAD6D9789
:101060000E94541B67E772E08FEB94E00E94B2117C
:101070002CE36D968EAD9FAD6D97289F2001299F23
:10108000500C112400E010E00415150554F568EE2D
:1010900073E080E090E00E940C15C8016CE370E002
:1010A0000E94102A892B31F469EB72E08EE595E0FD
:1010B0000E94DD1267EB72E08EE595E00E94DD1282
:1010C0008EE595E00E9460188A3041F467E772E08F
:1010D00085EC94E00E94B2110E9471050F5F1F4FD2
:1010E000D3CF67E772E085EC94E00E94B2110E94D2
:1010F000710505C0612F85EC94E00E944A11A1960C
:101100002FADA1972A3009F07BCF67E772E085EC1D
:1011100094E00E94B2118BEF91E00E94481E882358
:1011200009F451C067E772E085EC94E00E94B211C7
:101130000E94A60F0E94AF0F6EE475E08BEC94E066
:101140000E94C911F0920503E09204031092030378
:101150001092020381E090E09093010380930003DA
:101160000E94E20D62E475E08BEC94E00E94C911EC
:101170007092050360920403F0920303E09202036D
:1011800080E490E090930103809300030E94E20DBD
:101190006CE375E08BEC94E00E94C9110E94B20BE5
:1011A0008EE595E00E946018A2968FAFA2970E94EC
:1011B000AF0FA2968FADA2978A3009F0BDCF0E94E3
:1011C000A60F0E94B80F84E092E00E94481E882378
:1011D000E1F06EE475E08BEC94E00E94C911F092AE
:1011E0000503E0920403109203031092020381E0CE
:1011F00090E090930103809300030E94E20D67E763
:1012000072E085EC94E00E94B2118BE092E00E94C3
:10121000481E8823E1F062E475E08BEC94E00E94C4
:10122000C9117092050360920403F0920303E092E7
:10123000020380E490E090930103809300030E94F6
:10124000E20D67E772E085EC94E00E94B21182E162
:1012500092E00E94481E882371F06CE375E08BECED
:1012600094E00E94C9110E94B20B67E772E085EC1E
:1012700094E00E94B21180E090E00E94481E81112B
:101280000CC067E772E085EC94E00E94B21105C0E3
:10129000682F85EC94E00E944A11A0962FADA0978C
:1012A0002A3009F01ECDD9CC089580E090E0089551
:1012B000E0917203F0917303EE0FFF1FE050FF4FB8
:1012C00080819181019711F40E940305E0917203DE
:1012D000F0917303EE0FFF1FE050FF4F808191816B
:1012E0008A30910561F481E090E09183808388E108
:1012F00092E00E94FE208AE292E00C94FE20019689
:10130000918380830895CF92DF92EF92FF920F93A3
:101310001F93CF93DF93CDB7DEB7C456D1090FB675
:10132000F894DEBF0FBECDBF1C821B8288EE93E017
:10133000A0E0B0E08D839E83AF83B88787E991E01A
:101340009A83898381ED94E09E878D871A8A1B8A10
:101350001C8A68E874E0CE018B5A9F4F0E944112AC
:10136000BE016B5A7F4FCE0101960E945D17CE01E0
:101370008B5A9F4F0E94E01184E6A0968FAFA097F2
:101380008AE0C82ED12CCE018B5A9F4F7C010CE0F5
:1013900010E02DE232E041E050E0BE01615A7F4FA3
:1013A00081ED94E00E94681E8A30910520F4F701D7
:1013B000E80FF91F1082BE016B5A7F4FCE01815A90
:1013C0009F4F0E948212CE01815A9F4F0E9411119D
:1013D000672B71F48AE392E00E94FE208AE292E099
:1013E0000E94FE2060E08DE00E94A9140E94830903
:1013F000CE01815A9F4F0E94E01187E991E09A83C4
:101400008983CE0101960E94E415CC59DF4F0FB6B7
:10141000F894DEBF0FBECDBFDF91CF911F910F912A
:10142000FF90EF90DF90CF9008956F927F928F9210
:101430009F92AF92BF92CF92DF92EF92FF920F9363
:101440001F93CF93DF93CDB7DEB768970FB6F894AD
:10145000DEBF0FBECDBF8CED94E00E943517811129
:10146000CBC06DE572E0CE0101960E9482128CED38
:1014700094E00E94E41586E090E00E94602A8C01CE
:10148000BE016F5F7F4F0E9479121093EC040093AE
:10149000EB04CE0101960E94E01162E672E0CE01FB
:1014A00001960E948212BE016F5F7F4F8CED94E027
:1014B0000E945916CE0101960E94E0118CED94E035
:1014C0000E9406168CED94E00E943517882339F0AF
:1014D00064E670E080E090E00E940C15F3CF8CEDA4
:1014E00094E00E940A1788C0CE0143960E946821AA
:1014F00062E772E0CE0101960E9482128F89988D78
:10150000892B09F492C00B891C8969817A81C801F1
:101510000E94752C009709F488C07C01E01AF10A3A
:10152000CE0101960E94E01162E772E0CE010196C1
:101530000E9482128F89988D2D813E818C01021B21
:10154000130B2115310509F074C00FEF1FEFCE0109
:1015500001960E94E011970140E050E0BE016D5EEF
:101560007F4FCE010D960E949712A7014F5F5F4FEC
:101570009801BE016D5E7F4FCE0107960E949712C3
:101580002F89388DA8014F5F5F4FBE016D5E7F4F81
:10159000CE0101960E949712CE010D960E94111164
:1015A0007093870360938603CE0107960E94111102
:1015B00070938503609384038091820390918303E9
:1015C0009093170180931601CE0101960E9411118C
:1015D0007093830360938203CE0101960E94E01111
:1015E000CE0107960E94E011CE010D960E94E011F7
:1015F000CE0143960E94E0118CED94E00E94BB174F
:101600008091EE04882309F440C067E772E0CE01C0
:1016100043960E9482120E946C1B97FD65CF682F33
:10162000CE0143960E944A11F6CFEE24EA94FE2C96
:1016300077CF009709F489CF8217930708F485CFF5
:101640000817190718F08C01015011098B889C8824
:10165000A980BA80C40166246A9477247A946401CC
:10166000C00ED11EC816D90670F0B5010E94752CA7
:10167000009749F09C01281939090217130708F04F
:1016800039010196EFCF830162CF2091160130918D
:10169000170180918203909183032817390709F479
:1016A0004CC080918603909187030A9724F484E7C5
:1016B00092E00E9487216091860370918703072E34
:1016C000000C880B990B97FF03C00E94AF2103C049
:1016D0004AE00E94272182E792E00E9487218091C0
:1016E0008403909185030A9724F484E792E00E9492
:1016F00087216091840370918503072E000C880B6D
:10170000990B97FF03C00E94AF2103C04AE00E94DB
:10171000272182E792E00E948721809182039091A5
:1017200083030A9724F484E792E00E948721809142
:101730008203909183030E94541B68960FB6F8941D
:10174000DEBF0FBECDBFDF91CF911F910F91FF90F4
:10175000EF90DF90CF90BF90AF909F908F907F9051
:101760006F9008954F925F926F927F928F929F92A7
:10177000AF92BF92CF92DF92EF92FF920F931F939F
:10178000CF93DF93CDB7DEB768970FB6F894DEBF7F
:101790000FBECDBF66E874E0CE010D960E944112E7
:1017A0006BEC74E0CE0101960E947912BE016F5F6E
:1017B0007F4FCE0107960E947912BE01635F7F4F73
:1017C000CE0107960E947E110E946821CE010796E5
:1017D0000E94E011CE0101960E94E011CE010D960B
:1017E0000E94E01162E674E08EE595E00E94DD1251
:1017F000C12CD12C93E0892E912C0E94EF04809172
:10180000800390918103039721F410928103109239
:10181000800300E410E0A0908003B0908103A11445
:10182000B10419F489E595E00DC081E0A816B10472
:1018300019F489E595E00FC0E2E0AE16B10429F491
:1018400084E595E00E94C01508C0F3E0AF16B1042E
:1018500091F484E595E00E949C15BC01990F880BDA
:10186000990B0E94DD2760936E0370936F03809342
:1018700070039093710360916E0370916F03809178
:101880007003909171039B01AC010E943C2860930E
:101890006A0370936B0380936C0390936D032091A4
:1018A00066033091670340916803509169030E9479
:1018B0003229609366037093670380936803909363
:1018C00069030150110909F0A6CF20E030E040E89B
:1018D0005CE30E943C282B013C0120E030E040E02A
:1018E0005FE30E943C287B018C01B0E0A0E0F0E0C7
:1018F000E0E02B2F3A2F4F2F5E2FB701C8010E9437
:10190000D6278823C9F09701A801C301B2010E941C
:101910009E299B01AC01B701C8010E94322920E039
:1019200030E040E05FE30E943C28BE2DAF2DF02F59
:10193000E12F7B018C01DDCF20E030E040E05EE371
:10194000B701C8010E943C2820E030E040E950E4A3
:101950000E943C2860936203709363038093640346
:1019600090936503109266031092670310926803C8
:101970001092690320E030E048EC52E40E949E2976
:101980002B013C0166E772E0CE0143960E94821271
:101990004AE0B501CE010D960E94151268E772E08B
:1019A000CE0101960E948212BE016F5F7F4FCE0171
:1019B00007960E947912BE01635F7F4FCE010796A2
:1019C0000E947E11BE016D5E7F4F0E947E110E94BB
:1019D0006821CE0107960E94E011CE0101960E9477
:1019E000E011CE010D960E94E011CE0143960E94B7
:1019F000E0116EE772E0CE0107960E94821220E0AD
:101A000030E040EF52E4C301B2010E943C28AB0138
:101A1000BC0122E0CE0101960E94E511BE01695F82
:101A20007F4FCE0101960E947E110E946821CE0157
:101A300001960E94E011CE0107960E94E0118CE70A
:101A400092E00E94872165E872E0CE0107960E942D
:101A5000821222E0B301A201CE0101960E94E5119B
:101A6000BE01695F7F4FCE0101960E947E110E94E8
:101A70007921CE0101960E94E011CE0107960E94C5
:101A8000E011E0918003F0918103EE0FFF1FEE0F54
:101A9000FF1FEC58FC4F40825182628273822AE021
:101AA00037ED43E25CE3C301B2010E94D62718166A
:101AB00034F19092890380928803C601089690932E
:101AC0007303809372034AE0B601CE0107960E9429
:101AD000151267ED71E0CE0101960E9482126F81AE
:101AE000788589819A810E94F21FCE0101960E9419
:101AF000E011CE0107960E94E0110E94580922E0F1
:101B0000B301A201CE0143960E94E51160918003CA
:101B1000709181034AE0CE010D960E9415126BE888
:101B200072E0CE0101960E948212BE016F5F7F4F6C
:101B3000CE0107960E947912BE01635F7F4FCE01EE
:101B400007960E947E116B897C89FC0180819181BE
:101B50000E94F21FCE0107960E94E011CE0101966D
:101B60000E94E011CE010D960E94E011CE01439635
:101B70000E94E011809180039091810301969093DF
:101B8000810380938003FFEFCF1ADF0A83E0C8163A
:101B9000D10409F032CE68960FB6F894DEBF0FBEBE
:101BA000CDBFDF91CF911F910F91FF90EF90DF900C
:101BB000CF90BF90AF909F908F907F906F905F90ED
:101BC0004F9008952F923F924F925F926F927F9223
:101BD0008F929F92AF92BF92CF92DF92EF92FF923D
:101BE0000F931F93CF93DF93CDB7DEB76A970FB6EE
:101BF000F894DEBF0FBECDBF109261031092600358
:101C000060E674E0CE010F960E9441126BEC74E026
:101C10008E010F5F1F4FC8010E947912B801CE01DB
:101C200009960E947912BE01615F7F4FCE0109962D
:101C30000E947E110E946821CE0109960E94E01147
:101C4000C8010E94E011CE010F960E94E0116CE3E2
:101C500074E08EE595E00E94DD12E0900203F090C2
:101C600003033701660C771CC301835B9C4F2C0177
:101C7000C12CD12CAA24A394B12C62E0262E312CA5
:101C80008091040390910503E816F9060CF038C121
:101C90000E94EF04E0916003F0916103EE0FFF1FDB
:101CA000E65DFE4F61E080810E9436201092AA031B
:101CB0008093A903882331F083EB94E00E943B03D7
:101CC00080935F036AE374E0CE0145960E9441125F
:101CD0006BEC74E0CE0109960E947912BE01675F39
:101CE0007F4FCE010F960E947912BE016B5E7F4F2F
:101CF000CE010F960E947E114C014AE0B801C70147
:101D00000E942625F80101900020E9F73197AF01E4
:101D1000401B510BB801C4010E941C11811103C06A
:101D2000C4010E946C11C4010E946821CE010F966B
:101D30000E94E011CE0109960E94E011CE01459665
:101D40000E94E01186E792E00E94872190915F0354
:101D500080910003892380935E03F201EC0DFD1D49
:101D6000811140C010925D0311821082F601E60DD0
:101D7000F71DE050FF4FB182A0824AE060E070E0C2
:101D8000CE0145960E9415124AE0B701CE010F968A
:101D90000E9415126EE872E0C8010E948212B8011A
:101DA000CE0109960E947912BE01615F7F4FCE017C
:101DB00009960E947E116D897E89FC018081918146
:101DC0000E94F21FCE0109960E94E011C8010E94F4
:101DD000E011CE010F960E94E011CE0145960E94BF
:101DE000E01148C081E080935D03B182A0824AE0A7
:101DF00061E070E0CE0145960E9415124AE0B701FD
:101E0000CE010F960E9415126EE872E0C8010E9482
:101E10008212B801CE0109960E947912BE01615F5B
:101E20007F4FCE0109960E947E116D897E89FC014B
:101E3000808191810E94F21FCE0109960E94E011DB
:101E4000C8010E94E011CE010F960E94E011CE0160
:101E500045960E94E011F6E0EF16F1040CF071C017
:101E6000B0928903A0928803F0927303E092720308
:101E70000E94580968E374E0CE0145960E94411221
:101E800060915D0370E04AE0CE010F960E9415124A
:101E900061E374E0C8010E944112B801CE010996C5
:101EA0000E947912BE01615F7F4FCE0109960E94A8
:101EB0007E11BE016B5E7F4F0E947E110E946821E1
:101EC000CE0109960E94E011C8010E94E011CE01E6
:101ED0000F960E94E011CE0145960E94E01180917C
:101EE000000390910103880F991F90930103809341
:101EF00000038FEFE81AF80A92E0C90ED11CC0CE99
:101F00000E947A206DE074E08EE595E00E94DD127B
:101F10006A960FB6F894DEBF0FBECDBFDF91CF91AA
:101F20001F910F91FF90EF90DF90CF90BF90AF90F7
:101F30009F908F907F906F905F904F903F902F90E9
:101F4000089530928903209288038ECF6BE18EE54D
:101F500095E00E94E91380E992E00C9487216BE1FF
:101F60008EE595E00E94E91384E992E00C948721C4
:101F70006BE18EE595E00E94E91380E992E00E9412
:101F800087216BE18EE595E00E94E91384E992E0F8
:101F90000E94872181EF93E00E94162184ED93E057
:101FA0000C941621CF92DF92EF92FF920F931F9322
:101FB000CF93DF936C017A018B01C0E0D0E0CE15A6
:101FC000DF0589F0D8016D918D01D601ED91FC916D
:101FD0000190F081E02DC6010995892B11F47E0155
:101FE00002C02196ECCFC701DF91CF911F910F91D5
:101FF000FF90EF90DF90CF900895FC01538D448DBA
:10200000252F30E0842F90E0821B930B541710F0A3
:10201000CF96089501970895FC01918D828D9817B0
:1020200061F0828DDF01A80FB11D5D968C91928DBC
:102030009F5F9F73928F90E008958FEF9FEF0895B9
:10204000FC01918D828D981731F0828DE80FF11D82
:10205000858D90E008958FEF9FEF0895FC01918D9D
:10206000228D892F90E0805C9F4F821B91098F7396
:102070009927089586E194E00E942E1021E0892B93
:1020800009F420E0822F08950E94572C0F931F938C
:10209000CF93DF93EC0188819981009729F02A8101
:1020A0003B812617370788F48B016F5F7F4F0E94B3
:1020B0008D2B009761F0998388831B830A832C8181
:1020C0003D81232B11F4FC01108281E001C080E0EE
:1020D000DF91CF911F910F910895EF92FF920F938F
:1020E0001F93CF93DF93EC0181E0888F9B8D8C8DC4
:1020F000981305C0E889F989808185FD24C0F62EF2
:102100000B8D10E00F5F1F4F0F731127E02E8C8D8A
:10211000E8120CC00FB607FCFACFE889F989808174
:1021200085FFF5CFCE010E948814F1CF8B8DFE0183
:10213000E80FF11DE35AFF4FF0820B8FEA89FB890C
:102140008081806207C0EE89FF896083E889F98910
:1021500080818064808381E090E0DF91CF911F9146
:102160000F91FF90EF900895CF93DF93EC01888D4E
:102170008823C9F0EA89FB89808185FD05C0A8898B
:10218000B9898C9186FD0FC00FB607FCF5CF808111
:1021900085FFF2CFA889B9898C9185FFEDCFCE015B
:1021A0000E948814E7CFDF91CF9108954091950365
:1021B0005091960320919303309194034217530753
:1021C000B4F49091E8009570E1F39091E80092FDED
:1021D00019C08093F1008091950390919603019628
:1021E0008F739927892B19F48EEF8093E8008091E3
:1021F000950390919603019690939603809395038F
:1022000081E0089580E00895615030F02091F10060
:10221000FC0120830196F8CF289884E680939A03E6
:102220000895FC0180819181009711F00C94E424C1
:1022300060E070E0CB010895EF92FF920F931F933F
:10224000CF93DF93FC01248135816115710511F471
:1022500080E019C041155105A9F07B01EC018A010C
:10226000020F131FB8010E944610882389F32881AA
:1022700039818C819D81B701820F931F0E946E2C42
:102280001D830C8381E0DF91CF911F910F91FF900F
:10229000EF900895CF93DF9300D0CDB7DEB7698379
:1022A0001A8241E050E0BE016F5F7F4F0E941C1117
:1022B0000F900F90DF91CF9108956115710551F046
:1022C000FB0101900020E9F73197AF01461B570B46
:1022D0000C941C1180E00895CF93DF93EC0188816A
:1022E0009981009711F00E94F52A198218821D82A7
:1022F0001C821B821A82DF91CF910895CF93DF93C6
:10230000EC01FB0144815581608171810E941C11A7
:10231000811103C0CE010E946C11CE01DF91CF91DB
:102320000895EF92FF920F931F93CF93DF93EC01E9
:102330007B018A01BA010E944610811104C0CE01BE
:102340000E946C1107C01D830C83B701888199819D
:102350000E946E2CCE01DF91CF911F910F91FF90C3
:10236000EF900895CF93DF93EC016115710559F05B
:10237000FB0101900020E9F73197AF01461B570B95
:102380000E94911102C00E946C11CE01DF91CF9189
:102390000895CF93DF93EC01FB018617970761F057
:1023A000608171816115710529F0448155810E9418
:1023B000911102C00E946C11CE01DF91CF9108955E
:1023C000FC01808191810C94F52AEF92FF920F938A
:1023D0001F93CF93DF93CDB7DEB7A1970FB6F894D5
:1023E000DEBF0FBECDBF7C01CB01BA01F701118268
:1023F0001082138212821582148242E0420F8E01F3
:102400000F5F1F4F0E94C424BC01C7010E94B2117C
:10241000A1960FB6F894DEBF0FBECDBFDF91CF916E
:102420001F910F91FF90EF9008950F931F93CF93FB
:10243000DF93CDB7DEB762970FB6F894DEBF0FBE5D
:10244000CDBF8C01CB01F801118210821382128260
:102450001582148250E0BE016F5F7F4F0E941B25E2
:10246000BE016F5F7F4FC8010E94B21162960FB626
:10247000F894DEBF0FBECDBFDF91CF911F910F91BA
:102480000895EF92FF920F931F93CF93DF93EC0188
:10249000198218821B821A821D821C8261157105A5
:1024A00009F18B01CB010E9412257C01BC01CE01F8
:1024B0000E944610811109C0CE01DF91CF911F917A
:1024C0000F91FF90EF900C946C11FD82EC82B8019B
:1024D00088819981DF91CF911F910F91FF90EF90AB
:1024E0000C940B25DF91CF911F910F91FF90EF90EE
:1024F0000895FC01118210821382128215821482C7
:102500000C94C911FC01118210821382128215826F
:1025100014826115710551F0FB0101900020E9F76B
:102520003197AF01461B570B0C9491110895BF9240
:10253000CF92DF92EF92FF920F931F93CF93DF938F
:102540007C016B018A01E9012417350720F4812FF2
:102550008901C42FD82F67E772E0C7010E94821259
:10256000D60114968D919C91159708171907D0F4F0
:102570008C179D0708F4EC01D601ED91FC911197A1
:10258000EC0FFD1FB08010824D915C91BA01600F7D
:10259000711FC7010E94B211D601ED91FC91EC0FA1
:1025A000FD1FB082C701DF91CF911F910F91FF9066
:1025B000EF90DF90CF90BF900895EF92FF920F932E
:1025C0001F93CF93DF938C017B01C0E0D0E0F70134
:1025D000EC0FFD1F6491662361F0D801ED91FC9131
:1025E0000190F081E02DC8010995892B11F0219609
:1025F000EECFCE01DF91CF911F910F91FF90EF9021
:1026000008951F920F920FB60F9211242F933F93AC
:102610004F935F936F937F938F939F93AF93BF93EA
:10262000EF93FF9386E194E00E948814FF91EF916D
:10263000BF91AF919F918F917F916F915F914F91DA
:102640003F912F910F900FBE0F901F9018951F92E2
:102650000F920FB60F9211242F938F939F93EF93A6
:10266000FF93E0912604F09127048081E0912C04EF
:10267000F0912D0482FD12C0908180912F048F5F14
:102680008F7320913004821751F0E0912F04F0E015
:10269000EA5EFB4F958F80932F0401C08081FF91EC
:1026A000EF919F918F912F910F900FBE0F901F90E0
:1026B000189580E090E0892B29F00E943A10811152
:1026C0000C94000008953FB7F89480918F03909187
:1026D0009003A0919103B091920326B5A89B05C0E9
:1026E0002F3F19F00196A11DB11D3FBFBA2FA92F91
:1026F000982F8827820F911DA11DB11DBC01CD010E
:1027000042E0660F771F881F991F4A95D1F70895F9
:1027100008951F93CF93DF93182F81E08093AB032D
:102720001093CD031092AC031092CE0360E083EBC4
:1027300094E00E9487030E947A2062E0812F0E9429
:1027400036201092AA038093A90383EB94E00E94A1
:102750003B03182F83EB94E00E943B03D12F20E032
:10276000C22F9E01282BC901DF91CF911F9108959F
:10277000CF93DF9300D01F92CDB7DEB729E4298332
:10278000FC0126852A836B8343E050E0BE016F5F26
:102790007F4F848595850E94B60381E090E00F907D
:1027A0000F900F90DF91CF910895CF93DF93FC01AD
:1027B000228921110BC0EC01438950E0658976899B
:1027C000848595850E94B60381E08B8BDF91CF9144
:1027D0000895CF93DF9300D0CDB7DEB7DC015296DA
:1027E0008C915297882379F080E589836A8342E04F
:1027F00050E0BE016F5F7F4F1C968D919C911D979D
:102800000E94B6031FC05596ED91FC9156975396C2
:102810008C91539791E0980F53969C935397E80FA0
:10282000F11D608353969C91539754968C915497C5
:10283000981308C0ED91FC9111970680F781E02D67
:10284000CD01099581E090E00F900F90DF91CF913D
:1028500008958F929F92AF92BF92CF92DF92EF92A4
:10286000FF920F931F93CF93DF931F92CDB7DEB7E5
:102870005C019B014A01DC0152968C91811105C0DB
:102880007B018B01040F151F31C080E58983C12CAA
:10289000D12CE12CF12C8A0141E050E0BE016F5FA8
:1028A0007F4FF501848595850E94681E22C0D50161
:1028B0005596ED91FC91569753968C91539791E0D4
:1028C000980F53969C93D7019D917D01E80FF11DC0
:1028D0009083F50193898489981308C00190F08151
:1028E000E02D0680F781E02DC5010995E016F1067F
:1028F000F1F6C4010F90DF91CF911F910F91FF90DE
:10290000EF90DF90CF90BF90AF909F908F90089501
:10291000FC01848DDF01A80FB11DA35ABF4F2C917C
:10292000848D90E001968F739927848FA689B7894B
:102930002C93A089B1898C9180648C93938D848D24
:10294000981306C00288F389E02D80818F7D8083F3
:102950000895362F90E0FC01E65FFA4F4491FC01A8
:10296000E552FB4F2491FC01E454FB4F84918823F2
:1029700009F451C04423E1F150E0FA013197EF30FE
:10298000F105B0F5E259FF4F0C94462A9091800072
:102990009F7707C0909180009F7D03C09091800039
:1029A000977F9093800024C094B59F7702C094B520
:1029B0009F7D94BD1DC0909190009F7707C090911E
:1029C00090009F7D03C090919000977F909390001E
:1029D0000FC09091C0009F7703C09091C0009F7D71
:1029E0009093C00005C09091C200977F9093C20061
:1029F000E82FF0E0EE0FFF1FE056FB4FA591B491DA
:102A00008FB7F894EC91311103C020952E2301C0AB
:102A10002E2B2C938FBF08958F929F92AF92BF92CF
:102A2000CF92DF92EF92FF926B017C010E946313C1
:102A30004B015C01C114D104E104F104F1F00E94E6
:102A40006313DC01CB0188199909AA09BB09883EE7
:102A50009340A105B10570F321E0C21AD108E10845
:102A6000F10888EE880E83E0981EA11CB11CC114E9
:102A7000D104E104F10419F7DDCFFF90EF90DF906E
:102A8000CF90BF90AF909F908F9008952FB7F894FC
:102A900060918B0370918C0380918D0390918E03D4
:102AA0002FBF08951F920F920FB60F9211242F93EC
:102AB0003F938F939F93AF93BF9380918B0390919C
:102AC0008C03A0918D03B0918E0330918A0323E093
:102AD000230F2D3720F40196A11DB11D05C026E856
:102AE000230F0296A11DB11D20938A0380938B03AF
:102AF00090938C03A0938D03B0938E0380918F03EA
:102B000090919003A0919103B09192030196A11D21
:102B1000B11D80938F0390939003A0939103B09382
:102B20009203BF91AF919F918F913F912F910F9001
:102B30000FBE0F901F901895CF93DF93EC016B8120
:102B40007C816368716B88810E94D720698170E005
:102B500080E090E00E940C1588810E9489132A81F0
:102B6000022E02C0969587950A94E2F7222329F057
:102B7000811528E0920708F0906FDF91CF910895BA
:102B8000CF93DF93EC016B817C81636871688881EE
:102B90000E94D720698170E080E090E00E940C15CF
:102BA00088810E9489132A81022E02C096958795FA
:102BB0000A94E2F7222329F0811528E0920708F011
:102BC000906FDF91CF9108950F931F93CF93DF9371
:102BD00000D0CDB7DEB78C01FC018189882369F074
:102BE00087E7898386858A8342E050E0BE016F5F74
:102BF0007F4F848595850E94B603F801118A0F9056
:102C00000F90DF91CF911F910F910895AF92BF92D6
:102C1000CF92DF92EF92FF920F931F93CF93DF93A8
:102C200000D01F92CDB7DEB75C0182E58B83D50162
:102C30001F96ED91FC91509704811581208131817F
:102C400082E0C82ED12CFE0131967F0141E050E098
:102C5000BE016D5F7F4F1C968D919C911D970E94C8
:102C6000681E8A81D5011E968C931E971F960D9122
:102C70001C9150970115110531F0C8010E94E01117
:102C8000C8010E94F52AF501108A178689818111F1
:102C900002C081E0818B0F900F900F90DF91CF9158
:102CA0001F910F91FF90EF90DF90CF90BF90AF906A
:102CB00008950F931F93CF93DF93EC018B0167E986
:102CC00072E08F8598890E945D11F80144815581D9
:102CD000608171818F859889DF91CF911F910F91CC
:102CE0000C941C11CF93DF93EC018A89811108C0E9
:102CF0008D899E89009711F00E94F52A81E08A8BC8
:102D000088899989009721F00E94F52A198A188AE2
:102D1000DF91CF910895CF93DF93EC018D819E8158
:102D2000DC01ED91FC910084F185E02D09951816E8
:102D3000190654F48D819E81DC01ED91FC91028491
:102D4000F385E02D0995EACFDF91CF9108958F9219
:102D50009F92AF92BF92CF92DF92EF92FF92CF936A
:102D6000DF93EC016B010E9446154B015C01E12CE5
:102D7000F12C8D819E81DC01ED91FC910284F38523
:102D8000E02D099597FF0FC00E944615DC01CB018D
:102D900088199909AA09BB098C159D05AE05BF05BF
:102DA00040F38FEF9FEFDF91CF91FF90EF90DF9097
:102DB000CF90BF90AF909F908F900895FC0123819A
:102DC00034812627022E2295207F2025032E322FA4
:102DD00022952F700226269532272327220F220FB5
:102DE000220F2025348323830895CF92DF92EF9220
:102DF000FF920F931F936801790100E010E020E03B
:102E000030E00E94681E1F910F91FF90EF90DF90BD
:102E1000CF9008950F931F93CF93DF9300D000D0EE
:102E2000CDB7DEB727E52B83FC0126852C8302E096
:102E300010E09E012F5F3F4F42E050E0BE016D5F0A
:102E40007F4F848595850E94F516898190E0982FA3
:102E500088272A81820F911D0F900F900F900F905D
:102E6000DF91CF911F910F9108950F931F93CF93EF
:102E7000DF9300D01F92CDB7DEB722E72983FC0194
:102E800026852A8301E010E09E012D5F3F4F42E03E
:102E900050E0BE016F5F7F4F848595850E94F516D7
:102EA00081E09B81913009F080E00F900F900F90AE
:102EB000DF91CF911F910F910895CF92DF92EF9202
:102EC000FF920F931F93CF93DF9300D000D000D0D9
:102ED000CDB7DEB78C016B0169E972E0CE010196D6
:102EE0000E948212C8010E94E41586E090E00E94D0
:102EF000602A7C01BE016F5F7F4F0E947912F8014A
:102F0000F08AE786CE0101960E94E01162EA72E043
:102F1000CE0101960E948212BE016F5F7F4FC801F1
:102F20000E945916CE0101960E94E011B601C80117
:102F30000E945916C8010E940616C8010E94351742
:102F4000882339F064E670E080E090E00E940C1580
:102F5000F4CFC8010E940A1726960FB6F894DEBF78
:102F60000FBECDBFDF91CF911F910F91FF90EF90DA
:102F7000DF90CF900895EF92FF920F931F93CF931E
:102F8000DF9300D01F92CDB7DEB7FC01228921115B
:102F900018C07C01138A8FE4898380E48B83868543
:102FA0008A839F012C5E3F4F00E410E043E050E035
:102FB000BE016F5F7F4F848595850E94F516F701EE
:102FC000828B0F900F900F90DF91CF911F910F91F7
:102FD000FF90EF900895CF93DF93EC010E94BB1711
:102FE0008A89882331F08B89C80FD11D8C8990E0A4
:102FF00002C08FEF9FEFDF91CF910895CF93DF93C2
:10300000EC010E94BB178A89882359F081508A8B72
:103010008B8991E0980F9B8BC80FD11D8C8990E014
:1030200002C08FEF9FEFDF91CF910895CF93DF9391
:10303000EC010E94BB178A8990E0DF91CF9108953F
:10304000EF92FF920F931F93CF93DF9300D0CDB7F2
:10305000DEB7FC012685211115C07C01178680E7AB
:10306000898380E28A832089318900E210E042E08E
:1030700050E0BE016F5F7F4F848595850E94F516F5
:10308000F70186870F900F90DF91CF911F910F91DD
:10309000FF90EF900895CF93DF93EC010E942018EA
:1030A0008E85882341F08F85E889F989E80FF11D25
:1030B000808190E002C08FEF9FEFDF91CF91089564
:1030C000CF93DF93EC010E9420188E85882369F04E
:1030D00081508E87E889F9898F8591E0980F9F87C5
:1030E000E80FF11D808190E002C08FEF9FEFDF912C
:1030F000CF910895CF93DF93EC010E9420188E8525
:1031000090E0DF91CF910895BF92CF92DF92EF923E
:10311000FF920F931F93CF93DF93CDB7DEB72E9718
:103120000FB6F894DEBF0FBECDBF7C01C7010E9471
:103130008B1668EE73E080E090E00E940C15D701DA
:1031400015968D919C911697DC01ED91FC91008470
:10315000F185E02D09951816190644F385E0D82E5F
:10316000CC24C39492E3B92EEEE2F1E0DE01119695
:103170008D2D01900D928A95E1F7F701C08645E00B
:1031800050E0BE016F5F7F4FC7010E94B603D701B9
:1031900015968D919C911697DC01ED91FC91019013
:1031A000F081E02D63E009956AEF70E080E090E047
:1031B0000E940C1568E075E0F701858196810E94F8
:1031C000DD126AEF70E080E090E00E940C1566E08E
:1031D00075E0D70115968D919C9116970E94DD128E
:1031E00064EF71E080E090E00E940C156AEF74E0FB
:1031F000F701858196810E94DD1264EF71E080E025
:1032000090E00E940C15C7010E948B16E3E3F1E0E9
:10321000DE0116968D2D01900D928A95E1F7D7016A
:103220001896BC9204E010E09E01255F3F4F45E0F8
:1032300050E0BE016A5F7F4FC7010E94F5168F3FC5
:10324000BFEF9B0739F468EE73E080E090E00E94E6
:103250000C158ACF2B852111FFCF049701F52C8502
:1032600030E02053310984E6829FA001839F500DF6
:1032700011242D8530E0205331096AE0629FC0019E
:10328000639F900D1124840F951F2E8530E02053ED
:103290003109820F931FF7019283818307C084E66F
:1032A00090E0D70112969C938E93119782E3F701D9
:1032B00080872E960FB6F894DEBF0FBECDBFDF918C
:1032C000CF911F910F91FF90EF90DF90CF90BF9023
:1032D0000895FC0180919B03811103C08FEF9FEF44
:1032E00008959FB7F89482E08093E9002091F2005E
:1032F00030E01216130614F421E030E021153105F8
:1033000059F0289884E680939A038091F100808395
:103310008091F200882319F09FBFC90108958BE6C0
:103320008093E800F9CF2FB7F89483E08093E90009
:103330009091E800892F807295FF04C09091F2006F
:1033400080E4891B2FBF08958091A10381110DC0D6
:1033500082E080939D0384E080939E031092A003FB
:1033600010929F0381E08093A1038DE993E008957B
:10337000CF93DF931F92CDB7DEB76983DC01ED9168
:10338000FC910280F381E02D41E050E0BE016F5FCF
:103390007F4F09950F90DF91CF91089583E080933F
:1033A000E9008091F200882319F08AE38093E80015
:1033B00008950E94931990E00895CF93DF931F9290
:1033C000CDB7DEB7FC018485958597FD05C02FEF4D
:1033D0003FEF358724870BC0CE0101960E94691903
:1033E000019719F4898190E002C08FEF9FEF0F9051
:1033F000DF91CF9108950F931F93CF93DF931F9287
:10340000CDB7DEB78C01FC018485958597FF0EC092
:10341000CE0101960E946919019719F4298130E0C3
:1034200002C02FEF3FEFF80135872487F80184852C
:1034300095850F90DF91CF911F910F910895FC0119
:103440008485958597FD0BC09FB7F89482E08093A3
:10345000E9008091F2009FBF90E0019608959FB728
:10346000F89482E08093E9008091F2009FBF90E0A1
:1034700008958F929F92AF92BF92CF92DF92EF9278
:10348000FF920F931F93CF93DF935C016B017A013F
:1034900080912301882309F45BC080919B038823DA
:1034A00009F456C08091990380FF05C08091E00027
:1034B00082608093E000E70110E00AEF83E0882E4D
:1034C0009AE3992E2097D9F10E94931981110AC08D
:1034D000015009F43DC061E070E080E090E00E949E
:1034E0000C15F0CF282F30E0C217D3070CF48C2F27
:1034F0004FB7F8948092E9009091E80095FF1DC0C5
:10350000282F30E0C21BD30BF601982F915020F0EA
:1035100081918093F100FACFC20ED31E112319F0CE
:103520009092E80009C08091E80085FD06C0909265
:10353000E80011E0209709F010E04FBFC3CF111150
:10354000C3CF5D9884E680939C031E141F0444F04F
:1035500081E090E0F5019383828380E090E001C0F8
:10356000C701DF91CF911F910F91FF90EF90DF90F6
:10357000CF90BF90AF909F908F900895CF92DF92A1
:10358000EF92FF920F931F93CF93DF931F92CDB7CC
:10359000DEB7182F062FE42E862F880F8E5F9983B3
:1035A0000E94D61083E00E94D610F12EC12E998180
:1035B000D92E8C2D8F19801798F4F601E7FE02C0E2
:1035C000849101C080810E94D610182F80E00E9453
:1035D000D6108123FFEFCF1ADF0A8111EACF01C095
:1035E00081E00F90DF91CF911F910F91FF90EF90AD
:1035F000DF90CF900895DF92EF92FF920F931F9389
:10360000CF93DF93D82E8A017B01E40EF51EEB01E8
:10361000CE15DF0571F0D7FE03C0FE01849101C015
:1036200088810E94D61021968111F2CF8FEF9FEFF3
:1036300001C0C801DF91CF911F910F91FF90EF90D2
:10364000DF9008950F931F93CF93DF931F92CDB711
:10365000DEB782E0898342E450E069E275E080E809
:103660000E94FB1A0E94A419DC0112960D911C9174
:1036700013970115110569F0D801ED91FC910280B5
:10368000F381E02DBE016F5F7F4FC801099597FF61
:1036900007C089810F90DF91CF911F910F910895FD
:1036A000F80100851185E5CFCF93DF93BC01990F19
:1036B000880B990B97FF03C00E94AF2103C04AE01B
:1036C0000E942721EC018AE292E00E94FE208C0FEA
:1036D0009D1FDF91CF9108950F931F930E94461570
:1036E0006093E4047093E5048093E6049093E70408
:1036F000E091DC04F091DD040284F385E02D8CED93
:1037000094E0099597FF1FC00E9446150091E404BC
:103710001091E5042091E6043091E704DC01CB012F
:10372000801B910BA20BB30B0091E0041091E104FC
:103730002091E2043091E30480179107A207B307B8
:10374000B8F28FEF9FEF1F910F9108951F920F9284
:103750000FB60F9211248F939F938091E100909167
:10376000E100937F9093E10083FF0FC01092E90086
:1037700091E09093EB001092EC0092E39093ED00B7
:1037800010929B0398E09093F00082FF20C093E09A
:103790009093E9009091F200992319F09AE39093A5
:1037A000E80090919C03992339F090919C039150EB
:1037B00090939C03992389F190919A03992339F06E
:1037C00090919A03915090939A03992341F184FF29
:1037D00010C08091E2008E7E81608093E200809133
:1037E000E1008F7E8093E100809199038E7E80615D
:1037F00011C080FF16C08091E2008E7E80618093B0
:10380000E2008091E1008E7E8093E1008091990337
:103810008E7E81608093990304C05D9ACDCF289AF3
:10382000D6CF9F918F910F900FBE0F901F9018953C
:103830001F920F920FB60F921124CF92DF92EF9248
:10384000FF920F931F932F933F934F935F936F9329
:103850007F938F939F93AF93BF93EF93FF93CF93F8
:10386000DF93CDB7DEB76C97DEBFCDBF1092E90016
:103870008091E80083FFEDC168E0CE0145960E948B
:10388000041182EF8093E8008D8987FF05C0909135
:10389000E80090FFFCCF03C09EEF9093E800982FC4
:1038A000907609F0C6C09E892F89188D91110CC0A1
:1038B000803829F4809198038093F10002C010921F
:1038C000F1001092F10048C1422F50E0512B91308D
:1038D00051F4811141C14130510509F03DC1809140
:1038E00098038D7F0BC0933061F4811135C1413055
:1038F000510509F031C1809198038260809398034B
:103900002BC1953041F48091E80080FFFCCF206806
:103910002093E30021C1963009F05FC0EB8CFC8C52
:103920001092E9001092960310929503123091F5CF
:1039300010929403109293030E94221B99E0BE01FF
:103940006F5F7F4FDB01E92F1D92EA95E9F79983BD
:103950001A8391E09E8390EA98879AEF9987209145
:10396000950330919603275F3F4F3C832B838D83D4
:103970001092E9001092960310929503F09294032E
:10398000E092930349E050E080E00E94FB1A0E941D
:10399000221BE2C0F0929403E09293030E94A419C8
:1039A000DC011296ED90FC901397E114F10409F4F8
:1039B000C0C0D701ED91FC910480F581E02DBE01DE
:1039C0006B5E7F4FC7010995009719F00CF0C4C0DA
:1039D000C7C0F701E084F184E8CF973009F4C0C094
:1039E000983021F481E08093F100B6C0993009F05D
:1039F000B3C0837009F0B4C0E9E3F1E081E021E0F5
:103A000036E39081992361F08093E9002093EB00E5
:103A100091919093EC003093ED008F5F873089F7A0
:103A20008EE78093EA001092EA008F8980939B03CF
:103A300093C08B8D9C8D1092E9001092960310928A
:103A400095039093940380939303898D811156C0BD
:103A50008E899D89913A59F4813209F081C047E0FD
:103A600050E06CE171E080E00E94FB1A75C0913279
:103A700009F076C0833289F4888D90E0982F8827EA
:103A80002F89822BA0E0B0E0809318019093190158
:103A9000A0931A01B0931B015FC0803269F480913A
:103AA000E80082FFFCCF67E08CE191E00E94041106
:103AB0008BEF8093E80006C0823209F04DC08F89F9
:103AC0008093230180919703882319F0EEEFFAE0A9
:103AD00002C0E0E0F8E080911C0190911D01A091EE
:103AE0001E01B0911F01803B9440A105B10509F072
:103AF0007BC08091230180FF93C076C00E94A419EF
:103B0000DC0112960D911C9113970115110541F1DD
:103B1000D801ED91FC910190F081E02DBE016B5E2A
:103B20007F4FC8010995811117C0F80100851185E3
:103B3000ECCF113009F44EC0133091F48F898823F3
:103B400009F445C0823081F440E86BE08DE895E0EF
:103B50000E94BE1A882321F08EEF8093E80079C07E
:103B600081E28093EB0075C0813029F440E86BE07E
:103B700081E895E0EDCF833099F70E94A419DC012C
:103B80001296ED90FC9013978E010F5F1F4F680106
:103B9000E114F10479F0D701ED91FC910680F781F1
:103BA000E02DB801C7010995080F111DF701E08448
:103BB000F184EECFD8011C92F60101900020E9F7C4
:103BC0003197BF016C197D0940E0C601C1CF6BE69A
:103BD00075E002C06FE675E06115710509F2FB0141
:103BE000449150E080E840CF0FB6F894A8958091BA
:103BF0006000886180936000109260000FBEA895FD
:103C0000EE3F2AE0F20739F08091FE0A9091FF0A18
:103C100091838083A1CF1092FF0A1092FE0A9CCF5D
:103C2000EE3F8AE0F80731F0808191819093FF0A9E
:103C30008093FE0A87E797E7918380839BE088E182
:103C40000FB6F894A895809360000FBE9093600023
:103C500083CF6C960FB6F894DEBF0FBECDBFDF9159
:103C6000CF91FF91EF91BF91AF919F918F917F91F4
:103C70006F915F914F913F912F911F910F91FF9005
:103C8000EF90DF90CF900F900FBE0F901F90189580
:103C9000FC018091C9049091CA04892B21F421E090
:103CA000309749F413C08091C5049091C6043097B1
:103CB00031F421E0FC018081882341F006C0BF017E
:103CC0000E94652C21E0892B09F020E0822F0895C5
:103CD0002F923F924F925F926F927F928F929F921C
:103CE000AF92BF92CF92DF92EF92FF920F931F930A
:103CF000CF93DF93CDB7DEB72B970FB6F894DEBF27
:103D00000FBECDBF9B878A875B011901FD82EC82C4
:103D10003A01600E711E872C7B82912C44244A94B8
:103D2000542C9B01240F351F3F832E839101200FBC
:103D3000311F39872887EA85FB858085981608F02A
:103D400036C1AA85BB8514965C924E921397159640
:103D50008D919C911697DC01ED91FC910190F08181
:103D6000E02D6FEF09956FEF8A859B850E94DE1627
:103D7000EA85FB8585819681DC01ED91FC910190BE
:103D8000F081E02DAA85BB856C910995EA85FB85BC
:103D90006081CF010E94DE16AA85BB8515968D91A4
:103DA0009C911697DC01ED91FC910190F081E02D42
:103DB000682D09956B818A859B850E94DE16EA85B0
:103DC000FB8585819681DC01ED91FC910190F0816C
:103DD000E02D662D0995662D8A859B850E94DE164D
:103DE00075012E813F81E216F306B1F0EA85FB856D
:103DF000858196818701DC01ED91FC910190F08134
:103E0000E02DD7016D917D010995F80160818A85CA
:103E10009B850E94DE16E5CF7101AA85BB851596AC
:103E20008D919C91169728853985E216F30691F0BD
:103E30008701DC01ED91FC910190F081E02DD7012B
:103E40006D917D010995F80160818A859B850E94AD
:103E5000DE16E3CFDC01ED91FC91AA85BB851496BB
:103E60006C910190F081E02D0995EA85FB858581B3
:103E70009681DC01ED91FC910190F081E02DAA8505
:103E8000BB8513966C91099564E670E08A859B85E5
:103E90000E94A7168F3F910509F07DC0EA85FB853A
:103EA000548243826FEFCF010E94DE1665E070E01E
:103EB0008A859B850E94A716AA85BB856C91262FB3
:103EC00030E08217930709F066C0CD010E94DE162C
:103ED0006AE070E08A859B850E94A7167C0197FDA9
:103EE0005AC0682F8A859B850E94DE166AE070E0C2
:103EF0008A859B850E94A7168C0197FD4CC0682F70
:103F00008A859B850E94DE16EA821982E981FA8100
:103F10000E0F1F1FE12CF12C65E070E08A859B8558
:103F2000E016F106A9F0EC14FD0491F00E94A7162A
:103F300097FD0AC0EC81FD81EE0DFF1D8083682F87
:103F40008A859B850E94DE16FFEFEF1AFF0AE4CFF9
:103F50000E94A7167C0197FD1EC065E070E08A856F
:103F60009B850E94A71697FD16C0FE2CEE248E0D91
:103F70009F1DAA85BB8513962D913C9114972817F8
:103F8000390749F48C918F5F8C93C801C016D10614
:103F900080F4C6010EC0939464E670E080E090E087
:103FA0000E940C158A859B850E948B16C4CE8FEFCC
:103FB0009FEF2B960FB6F894DEBF0FBECDBFDF91FB
:103FC000CF911F910F91FF90EF90DF90CF90BF9016
:103FD000AF909F908F907F906F905F904F903F90A9
:103FE0002F900895EF92FF920F931F93CF93DF933B
:103FF000CDB7DEB727970FB6F894DEBF0FBECDBFA3
:104000007C018B016DEF72E0CE0101960E9482125D
:10401000B701CE0101960E945D1167E972E0CE0101
:1040200001960E945D11B801CE0101960E945D11BA
:104030004D815E8169817A8101E010E09E01295FF6
:104040003F4F81ED94E00E94F516CE0101960E944B
:10405000E01127960FB6F894DEBF0FBECDBFDF91FB
:10406000CF911F910F91FF90EF90089590911504BB
:104070009111FCCF91E090931504909314042FEFCD
:104080002093130410921204260F2093110490938E
:10409000100490911004880F892B80931004809154
:1040A0000F04813061F410920F048091100480930A
:1040B000BB008091BC0083FDF8CF85EC01C085EE8C
:1040C0008093BC00809115048130E1F3809112044B
:1040D000861710F460911204AFEEB3E02FEC33E0DA
:1040E000F9018E2F821B861718F48D918193F9CFD9
:1040F000862F08952091CE039091CD03213208F0B0
:104100004AC0809115048111FCCF32E03093150430
:1041100031E0309314043FEF3093130410921204F3
:1041200020931104ADEAB3E04FEE53E0FA013E2FC5
:10413000341B321718F43D913193F9CF10921004CB
:1041400020911004990F922B9093100490910F04DA
:10415000913061F410920F04909110049093BB0081
:104160009091BC0093FDF8CF95EC01C095EE909333
:10417000BC00909115049230E1F3909113049F3F9D
:1041800079F080911304803241F0809113048033E0
:1041900031F084E005C081E003C082E001C083E02B
:1041A0001092AC031092CE031092AB0308951F93AC
:1041B000CF93DF931F92CDB7DEB7162F91E0909388
:1041C000AB038093CD031092AC031092CE0361E059
:1041D00083EB94E079830E9487037981672F83EBD7
:1041E00094E00E948703612F83EB94E00E94870391
:1041F0000F90DF91CF911F910C947A20BC01009712
:1042000091F0FC0101900020E9F73197AF01481BC4
:10421000590BE0915E05F0915F050280F381E02D7E
:104220008EE595E0099480E090E00895CF93DF93C8
:10423000BC018EE595E00E94DD12EC018AE292E07D
:104240000E94FE208C0F9D1FDF91CF9108958F92C9
:104250009F92AF92BF920F931F93CF93DF93CDB7EF
:10426000DEB7A1970FB6F894DEBF0FBECDBF19A27F
:10427000423008F44AE08E010F5D1F4F842E912CCE
:10428000A12CB12CA50194010E94242AE62FB9018A
:10429000CA0101501109EA3014F4E05D01C0E95C83
:1042A000D801EC93232B242B252B61F7C8010E9406
:1042B000FE20A1960FB6F894DEBF0FBECDBFDF91F2
:1042C000CF911F910F91BF90AF909F908F900895C5
:1042D000E0915E05F0915F05DC0114964D915C91D3
:1042E00015976D917C910280F381E02D8EE595E02C
:1042F0000994CF93DF930E946821EC018AE292E057
:104300000E94FE208C0F9D1FDF91CF9108950C9489
:10431000FE201092AA031092A9031092AC031092EF
:10432000CE031092150481E08093140410920F04C0
:1043300061E082E00E94A91461E083E00E94A91478
:10434000E9EBF0E080818E7F808380818D7F8083A8
:1043500088E48093B80085E48093BC000895CF92F0
:10436000DF92EF92FF92CF93DF936B017C01E0919C
:104370005E05F0915F050190F081E02D6DE28EE524
:1043800095E00995EC0166277727CB016C197D092B
:104390008E099F094AE00E9427218C0F9D1FDF9103
:1043A000CF91FF90EF90DF90CF900895CF93DF9360
:1043B000CDB7DEB72C970FB6F894DEBF0FBECDBFDA
:1043C000789484B5826084BD84B5816084BD85B5F0
:1043D000826085BD85B5816085BD80916E008160FC
:1043E00080936E00109281008091810082608093A2
:1043F00081008091810081608093810080918000A4
:104400008160809380008091910082608093910010
:1044100080919100816080939100809190008160F3
:10442000809390008091C10084608093C10080914E
:10443000C10082608093C1008091C100816080933F
:10444000C1008091C30081608093C3008091C0004F
:1044500082608093C0008091C20081608093C2001E
:1044600080917A00846080937A0080917A008260E3
:1044700080937A0080917A00816080937A008091A5
:104480007A00806880937A0010929B0310929803C0
:10449000109299038091D70081608093D70080EAC1
:1044A0008093D80089B5806189BD89B5826089BD56
:1044B00009B400FEFDCF61E070E080E090E00E9472
:1044C0000C158091D8008F7C80618093D8008091FA
:1044D000E000807F8093E0008091E1008E7E8093F9
:1044E000E1008DE08093E200559A209AEEEFFFE71D
:1044F000859194918B3F9C4D19F481E080939703B3
:10450000E8EEF4E02491E9ECF4E08491882399F05A
:1045100090E0880F991FFC01E255FB4FA591B491E3
:10452000FC01E056FB4F859194918FB7F894EC9184
:10453000E22BEC938FBF0EE110E00E94EF040150DC
:104540001109D9F760ED77E080E090E00E940C154A
:10455000E0912604F091270482E08083E091220418
:10456000F09123041082E0912404F091250480E16D
:10457000808310922E04E0912A04F0912B0486E0AF
:104580008083E0912804F0912904808180618083F8
:10459000E0912804F0912904808188608083E09173
:1045A0002804F0912904808180688083E0912804A8
:1045B000F091290480818F7D808386E194E00E94C0
:1045C0002E10181619062CF486E194E00E940C10A7
:1045D000F4CF68EE73E080E090E00E940C1586E175
:1045E00094E00E942E10181619063CF30E948921AF
:1045F000E091DA04F091DB04A089B18982E08C9328
:10460000A485B5851C92A685B78587E08C93108E0E
:10461000A489B58986E08C93A289B3898C91806145
:104620008C93A289B3898C9188608C93A289B38979
:104630008C9180688C930288F389E02D80818F7D36
:1046400080838091D804811107C081E08093D804D1
:1046500081ED94E00E94841880916A0590916B0529
:10466000FC012781211104C021E027830E948418C6
:104670008EE595E00E94721680E290E00E94602A2A
:1046800090936F0580936E0500E012E010935D0536
:1046900000935C050E9489211093580500935705EB
:1046A0000E94892160918803709189034AE0CE01BC
:1046B00001960E94151267EB71E0CE0107960E94E9
:1046C000821269817A818F8198850E94F21FCE01C2
:1046D00007960E94E011CE0101960E94E01164E766
:1046E00072E0CE0101960E94821267ED71E0CE0168
:1046F00007960E94821269817A818F8198850E9433
:10470000F21FCE0107960E94E011CE0101960E9491
:10471000E0114AE061E070E0CE0101960E941512BE
:104720006DE272E0CE0107960E94821269817A8161
:104730008F8198850E94F21FCE0107960E94E0119A
:10474000CE0101960E94E0110E9471050E9459134A
:10475000FBCF8FEB94E00E94E01185EC94E00E9487
:10476000E0118BEC94E00E94E01187E991E09093D6
:10477000DD048093DC048CED94E00E94E41585EC6C
:1047800095E00E94E01180E395E00E94E01186E34D
:1047900095E00E94E0118CE395E00E94E01182E434
:1047A00095E00E94E01188E495E00E94E0118EE41B
:1047B00095E00E94E01189EA91E090935F05809373
:1047C0005E058EE595E00C947216CF92DF92EF9223
:1047D000FF92CF93DF93E5E7F5E01382128288EE34
:1047E000C82E83E0D82EE12CF12CC482D582E6823B
:1047F000F78283E491E0918380838FEF9FEF958729
:104800008487E6E1F4E013821282C482D582E682D4
:10481000F78285E591E0918380838DEC90E0958728
:1048200084878CEC90E09787868788EC90E0918B6A
:10483000808B89EC90E0938B828B8AEC90E0958B57
:10484000848B8EEC90E0978B868B118E128E138E5C
:10485000148EAEE5B5E013961C921E921297149634
:10486000CD92DD92ED92FC92179789EA91E0119634
:104870009C938E93C1EDD4E01D96DC93CE931C9750
:104880001E961C921E971F961C921F9751961C9263
:104890001E92509781E052968C931882FE83ED838E
:1048A0001F821886FA87E987E3EBF4E0138212820D
:1048B000C482D582E682F78287E691E09183808385
:1048C000E9E5F5E088E480831482138288E081833F
:1048D0001282E4E5F5E01482138299E490838183E7
:1048E000128265EA72E08EE495E00E94821264EB27
:1048F00072E088E495E00E94821265EC72E082E446
:1049000095E00E94821264ED72E08CE395E00E94D3
:10491000821262EE72E086E395E00E94821260EFFE
:1049200072E080E395E00E94821267E772E085EC16
:1049300095E00E948212ECEDF4E013821282C482B0
:10494000D582E682F78287E991E091838083D587DB
:10495000C487118A128A138A67E772E08BEC94E0AD
:104960000E94821267E772E085EC94E00E94821256
:1049700067E772E08FEB94E0DF91CF91FF90EF90CB
:10498000DF90CF900C948212EF920F931F93CF93EE
:10499000DF93E80147FD02C034E001C034E1E42FB9
:1049A000440FFF0BF7FF03C0F195E195F109E32EEA
:1049B000022F2E2FAE010E946025CE01DF91CF91F4
:1049C0001F910F91EF9008951F93FC01992788275D
:1049D000BC01E89411911032E9F3193010F01E3047
:1049E000C8F31B3251F01D3249F4689406C00E948E
:1049F0003125610F711D811D911D119110531A30C8
:104A0000B0F33EF490958095709561957F4F8F4FF0
:104A10009F4F1F910895FB01DC0105900D9200202E
:104A2000E1F70895FC0105900020E9F78095909545
:104A30008E0F9F1F08954532510520F4423010F02B
:104A40000C942625FB011082CB010895BB274A3028
:104A500031F4992322F4BDE2909581959F4F0C94F7
:104A60004725592F482F372F262F660F771F881F6E
:104A7000991F660F771F881F991F620F731F841F6E
:104A8000951F660F771F881F991F0895BB27FB018D
:104A90005527AA27880F991FAA1FA41710F0A41B37
:104AA00083955051B9F7A05DAA3308F0A95DA19391
:104AB000009779F7B111B1931192CB010C94C627ED
:104AC0004F925F926F927F929F92AF92BF92CF92DE
:104AD000DF92EF92FF920F931F93CF93DF93CDB7A7
:104AE000DEB729970FB6F894DEBF0FBECDBF6A01BF
:104AF000122FB02E2BE3201720F0FF24F394F00E9A
:104B000002C0BCE3FB2E0F2D27E0AE014F5F5F4FCD
:104B10000E94EE26AC018981982F9970913031F076
:104B2000E1FC06C0E0FE06C090E205C09DE203C0C5
:104B30009BE201C090E0EE2DE07183FF3CC091113B
:104B400002C083E001C084E0811718F4212F281BE4
:104B500001C020E0E1110BC0F601822F30E2882372
:104B600019F031938150FBCFC20ED11C20E0992364
:104B700029F0D6019C93F60131966F01C601039688
:104B8000E2FE0AC03EE4D6013C9341E411964C9308
:104B9000119712963C9306C03EE6F601308341E63B
:104BA00041833283FC01322F40E2332309F442C0B7
:104BB00041933150FACF82FF44C0911102C083E08B
:104BC00001C084E0811718F4212F281B01C020E0C8
:104BD000E1110BC0F601822F30E2882319F03193E6
:104BE0008150FBCFC20ED11C20E0992329F0D601C1
:104BF0009C93F60131966F01C6010396E2FE0BC04D
:104C000039E4D6013C933EE411963C93119736E487
:104C100012963C9307C039E6F60130833EE63183B5
:104C200036E63283FC01322F40E2332319F0419300
:104C30003150FBCFFC01E20FF11D10828EEF9FEF90
:104C4000B7C0F1E0911101C0F0E06F2F70E01416D1
:104C5000150624F49A012F5F3F4F02C021E030E097
:104C6000260F371FBB2029F06B2D70E06F5F7F4F41
:104C700002C060E070E0260F371F612F70E026173A
:104C800037071CF4121B212F01C020E03E2D387184
:104C900059F4D601322F60E2332319F06D9331506D
:104CA000FBCFC20ED11C20E0FF2331F0D6019C9334
:104CB000B6016F5F7F4F6B01E1110BC0F601922FC0
:104CC00030E3992319F031939150FBCFC20ED11CE0
:104CD00020E09F2D940F3A81782F7071A72E84FFCA
:104CE00003C0313309F49150191624F4993018F0A7
:104CF00098E001C091E0E42F852F57FF02C0E0E06B
:104D000080E06E2F782FE0E0F0E0AEE29A2E3A01DC
:104D1000691A71082A01461A570A0B2D10E01195DD
:104D2000019511096F3F8FEF780729F4D6019C9206
:104D3000C60101966C014617570784F06616770680
:104D40006CF47F01E40CF51CA1E0B0E0AC0FBD1FDA
:104D5000EA0EFB1ED7011196BC9002C090E3B92E5B
:104D6000615071093196C60101967C016017710787
:104D700024F0D601BC926C01D5CF6417750741F4BD
:104D8000363320F4353321F4A11002C081E3B82E6C
:104D9000F601B082F701822F90E2882319F09193F7
:104DA0008150FBCFF701E20FF11D108280E090E00F
:104DB00029960FB6F894DEBF0FBECDBFDF91CF911D
:104DC0001F910F91FF90EF90DF90CF90BF90AF9029
:104DD0009F907F906F905F904F900895283008F0DB
:104DE00027E03327DA01990F311D87FD9160009686
:104DF0006105710539F432602E5F3D9330E32A95E9
:104E0000E1F708959F3F30F080387105610509F0A2
:104E10003C5F3C5F3D93913008F08068911DDF93CB
:104E2000CF931F930F93FF92EF92192F987F969530
:104E3000E92F96959695E90FFF27EC5AFE4F992793
:104E40003327EE24FF24A701E70105900894079477
:104E500028F4360FE71EF81E491F511D660F771FF5
:104E6000881F991F0694A1F70590079428F4E70E70
:104E7000F81E491F561FC11D770F881F991F661FF7
:104E80000694A1F70590079428F4F80E491F561FC1
:104E9000C71FD11D880F991F661F771F0694A1F7A2
:104EA0000590079420F4490F561FC71FD81F990F6C
:104EB000661F771F881F0694A9F7849110951770B5
:104EC00041F0D695C79557954795F794E7941A956D
:104ED000C1F7EAEFF0E0689415901591359165916E
:104EE000959105907FE27395E118F10A430B560BFB
:104EF000C90BD009C0F7E10CF11E431F561FC91F93
:104F0000D01D7EF4703311F48A95E6CFE8940150F9
:104F100030F0080F0AF40027021708F4202F239519
:104F2000022F7A3328F079E37D932A95E9F710C0B0
:104F30007D932A9589F606949795679537951795E9
:104F40001794E118F10A430B560BC90BD00998F0DE
:104F500023957E9173957A3308F070E37C93201348
:104F6000B8F77E9170617D9330F0839571E37D9306
:104F700070E32A95E1F71124EF90FF900F911F91B4
:104F8000CF91DF91992787FD90950895DC01FC0171
:104F9000672F71917723E1F7329704C07C916D936D
:104FA00070836291AE17BF07C8F308950E94182856
:104FB00008F481E00895E89409C097FB3EF49095C9
:104FC0008095709561957F4F8F4F9F4F9923A9F0E2
:104FD000F92F96E9BB279395F69587957795679571
:104FE000B795F111F8CFFAF4BB0F11F460FF1BC0B5
:104FF0006F5F7F4F8F4F9F4F16C0882311F096E948
:1050000011C0772321F09EE8872F762F05C06623F5
:1050100071F096E8862F70E060E02AF09A95660FAE
:10502000771F881FDAF7880F9695879597F9089567
:10503000990F0008550FAA0BE0E8FEEF16161706A9
:10504000E807F907C0F012161306E407F50798F011
:10505000621B730B840B950B39F40A2661F0232B2A
:10506000242B252B21F408950A2609F4A140A695A6
:105070008FEF811D811D08950E944F280C94C02838
:105080000E94B22838F00E94B92820F0952311F030
:105090000C94A9280C94AF2811240C94F4280E9495
:1050A000D12870F3959FC1F3950F50E0551F629F73
:1050B000F001729FBB27F00DB11D639FAA27F00D71
:1050C000B11DAA1F649F6627B00DA11D661F829F98
:1050D0002227B00DA11D621F739FB00DA11D621F7D
:1050E000839FA00D611D221F749F3327A00D611D9A
:1050F000231F849F600D211D822F762F6A2F11247C
:105100009F5750409AF0F1F088234AF0EE0FFF1FAE
:10511000BB1F661F771F881F91505040A9F79E3F05
:10512000510580F00C94A9280C94F4285F3FE4F317
:10513000983ED4F3869577956795B795F795E7955B
:105140009F5FC1F7FE2B880F911D9695879597F964
:10515000089597F99F6780E870E060E008959FEFF9
:1051600080EC089500240A941616170618060906FE
:10517000089500240A9412161306140605060895CD
:10518000092E0394000C11F4882352F0BB0F40F455
:10519000BF2B11F460FF04C06F5F7F4F8F4F9F4F95
:1051A000089557FD9058440F551F59F05F3F71F017
:1051B0004795880F97FB991F61F09F3F79F087957E
:1051C0000895121613061406551FF2CF4695F1DF07
:1051D00008C0161617061806991FF1CF8695710597
:1051E000610508940895E894BB2766277727CB01CB
:1051F00097F908952F923F924F925F926F927F920C
:105200008F929F92AF92BF92CF92DF92EF92FF92D6
:105210000F931F93CF93DF93CDB7DEB7CA1BDB0B82
:105220000FB6F894DEBF0FBECDBF09942A88398827
:1052300048885F846E847D848C849B84AA84B9842E
:10524000C884DF80EE80FD800C811B81AA81B9813A
:10525000CE0FD11D0FB6F894DEBF0FBECDBFED014E
:1052600008955058BB27AA270E9449290C94C028AA
:105270000E94B22838F00E94B92820F039F49F3FEC
:1052800019F426F40C94AF280EF4E095E7FB0C9487
:10529000A928E92F0E94D12858F3BA17620773078B
:1052A0008407950720F079F4A6F50C94F3280EF402
:1052B000E0950B2EBA2FA02D0B01B90190010C0126
:1052C000CA01A0011124FF27591B99F0593F50F43E
:1052D000503E68F11A16F040A22F232F342F442796
:1052E000585FF3CF469537952795A795F04053958E
:1052F000C9F77EF41F16BA0B620B730B840BBAF05E
:105300009150A1F0FF0FBB1F661F771F881FC2F7C8
:105310000EC0BA0F621F731F841F48F487957795DC
:105320006795B795F7959E3F08F0B0CF9395880F96
:1053300008F09927EE0F9795879508950E94B22956
:105340000C94C0280E94B92858F00E94B22840F05E
:1053500029F45F3F29F00C94A92851110C94F428EA
:105360000C94AF280E94D12868F39923B1F35523F8
:1053700091F3951B550BBB27AA2762177307840768
:1053800038F09F5F5F4F220F331F441FAA1FA9F3FE
:1053900035D00E2E3AF0E0E832D091505040E695EC
:1053A000001CCAF72BD0FE2F29D0660F771F881F4D
:1053B000BB1F261737074807AB07B0E809F0BB0B40
:1053C000802DBF01FF2793585F4F3AF09E3F510554
:1053D00078F00C94A9280C94F4285F3FE4F3983EED
:1053E000D4F3869577956795B795F7959F5FC9F73D
:1053F000880F911D9695879597F90895E1E0660FBE
:10540000771F881FBB1F621773078407BA0720F036
:10541000621B730B840BBA0BEE1F88F7E09508959F
:1054200097FB072E16F4009407D077FD09D00E9451
:105430004C2A07FC05D03EF4909581959F4F089526
:10544000709561957F4F0895A1E21A2EAA1BBB1B90
:10545000FD010DC0AA1FBB1FEE1FFF1FA217B30740
:10546000E407F50720F0A21BB30BE40BF50B661F56
:10547000771F881F991F1A9469F76095709580951A
:1054800090959B01AC01BD01CF010895EE0FFF1F68
:105490000590F491E02D0994AA1BBB1B51E107C0B4
:1054A000AA1FBB1FA617B70710F0A61BB70B881FB4
:1054B000991F5A95A9F780959095BC01CD01089543
:1054C000CF93DF938230910510F482E090E0E09179
:1054D000CD05F091CE0520E030E0C0E0D0E030977F
:1054E00011F14081518148175907C0F048175907F9
:1054F00061F482819381209719F09B838A832BC06A
:105500009093CE058093CD0526C02115310519F065
:105510004217530718F49A01BE01DF01EF01028020
:10552000F381E02DDCCF2115310509F1281B390B62
:105530002430310590F412968D919C91139761154A
:10554000710521F0FB019383828304C09093CE0503
:105550008093CD05FD01329644C0FD01E20FF31F9B
:1055600081939193225031092D933C933AC020911D
:10557000CB053091CC05232B41F4209126013091AD
:1055800027013093CC052093CB0520912401309145
:1055900025012115310541F42DB73EB74091280171
:1055A00050912901241B350BE091CB05F091CC05DE
:1055B000E217F307A0F42E1B3F0B2817390778F0EA
:1055C000AC014E5F5F4F2417350748F04E0F5F1F49
:1055D0005093CC054093CB058193919302C0E0E0BA
:1055E000F0E0CF01DF91CF9108950F931F93CF93F8
:1055F000DF93009709F48CC0FC013297138212826A
:105600000091CD051091CE050115110581F4208181
:105610003181820F931F2091CB053091CC05281743
:10562000390779F5F093CC05E093CB0571C0D8012B
:1056300040E050E0AE17BF0750F412962D913C9118
:105640001397AD012115310509F1D901F3CF9D0162
:10565000DA013383228360817181860F971F82175D
:10566000930769F4EC0128813981260F371F2E5FDB
:105670003F4F318320838A819B8193838283452B93
:1056800029F4F093CE05E093CD0542C01396FC9328
:10569000EE931297ED01499159919E01240F351F08
:1056A000E217F30771F480819181840F951F0296B0
:1056B00011969C938E938281938113969C938E93E3
:1056C0001297E0E0F0E0D80112968D919C9113972B
:1056D000009719F0F8018C01F6CF8D919C919801FB
:1056E0002E5F3F4F820F931F2091CB053091CC0549
:1056F0002817390769F4309729F41092CE051092D3
:10570000CD0502C0138212821093CC050093CB0505
:10571000DF91CF911F910F910895A0E0B0E0E3E9F0
:10572000FBE20C94FE28EC01009721F4CB010E94CF
:10573000602AB8C0FC01E60FF71F9C012250310916
:10574000E217F30708F4ACC0D9010D911C91119731
:1057500006171707B0F00530110508F49FC0C801FF
:1057600004978617970708F499C002501109061B81
:10577000170B019311936D937C93CF010E94F52A2F
:105780008DC05B01A01AB10A4C01800E911EA09140
:10579000CD05B091CE0540E050E0E12CF12C109702
:1057A00009F44AC0A815B905D1F56D907C90119700
:1057B000630182E0C80ED11CCA14DB0480F1A3018E
:1057C0004A195B096A0182E0C80ED11C1296BC908E
:1057D00012971396AC91B5E0CB16D10440F0B2828B
:1057E000A38351834083D9016D937C930AC00E5FDC
:1057F0001F4FC301800F911FF90191838083EB2D0F
:10580000FA2FE114F10431F0D7011396FC93EE93D3
:10581000129744C0F093CE05E093CD053FC08D9123
:105820009C9111974817590708F4AC017D01129615
:105830000D90BC91A02DB3CF8091CB059091CC055C
:1058400088159905E1F446175707C8F4809124019B
:1058500090912501009741F48DB79EB740912801A2
:1058600050912901841B950BE817F907C8F4F093B0
:10587000CC05E093CB05F901718360830FC0CB01A8
:105880000E94602A7C01009759F0A801BE010E9485
:105890005C2CCE010E94F52AC70104C0CE0102C0D3
:1058A00080E090E0CDB7DEB7EEE00C941A2981E0FD
:1058B00090E0F8940C948F2CFB01DC0102C0019065
:1058C0000D9241505040D8F70895FB01DC018D91B5
:1058D000019080190110D9F3990B0895FB01DC01A7
:1058E00001900D920020E1F70895FB01519155239D
:1058F000A9F0BF01DC014D9145174111E1F759F4C1
:10590000CD010190002049F04D9140154111C9F39E
:10591000FB014111EFCF81E090E00197089512E083
:10592000CEECD2E004C0FE010E94462A2196CF3C74
:08593000D107C9F7F894FFCF7D
:105938000100010001000100010001000100010057
:10594800010001000100FFFFFFFFFFFF00E1000071
:10595800000000000000CF058000200022005858F9
:10596800585858585831303000C180810000000024
:10597800000000B819391AD919CE191F1ADD19FBF8
:1059880019000000006D10D20FFD0FB4102E100C7E
:10599800102010000000008703570355092B034F00
:1059A800033B032C03000000004410D20F55095498
:1059B80009441044104410000000004410D20F5550
:1059C80009540900000000B813D20F5509881316AE
:1059D80018FE17EB1700000000E91329145509D524
:1059E800137A1860184B18646576696365456D61AC
:1059F800696C00636C730071756974007265626F1D
:105A08006F74007265736574007363616E6E006411
:105A180020283078006829006578697400656D6110
:105A2800696C0073657276696365007265616C7490
:105A3800696D65006163636573730064697361729E
:105A48006D007068617365007265696E696369618C
:105A5800722061206365726F0A000D0A0073746119
:105A68007475734272696467650053657276696319
:105A7800696F206465204D616E74656E696D696536
:105A88006E746F20416374697661646F0064617439
:105A980065002B25542C25412C25642C25422C25CA
:105AA80059003A0030000900486F6F6B20002057FA
:105AB800617474730020416D707300504800410098
:105AC8005B324A005B4800FE002F62696E2F6173EB
