:100000000C94C3020C94EB020C94EB020C94EB02E4
:100010000C94EB020C94EB020C94EB020C94EB02AC
:100020000C94EB020C94EB020C944A130C94BC134A
:100030000C94EB020C94EB020C94EB020C94EB028C
:100040000C94EB020C94EB020C94EB020C94EB027C
:100050000C94EB020C94EB020C94EB020C947C1AC3
:100060000C94EB020C94A1190C947B190C94EB02E8
:100070000C94EB020C94EB020C94EB020C94EB024C
:100080000C94EB020C94EB020C94EB020C94EB023C
:100090000C940E200C94EB020C94EB020C94EB02EB
:1000A0000C94EB020C94EB020C94EB02370B3A0B22
:1000B0003D0B3D0B3D0B3D0B3D0B3D0B4A0B4D0BE3
:1000C000500B500B500B500B500B500B5E0B5E0B3C
:1000D000610B610B610B610B610B610BFE19011A66
:1000E000F019F419F819221A221A221A051A091AF3
:1000F0000D1A131A171A221A1D1A00407A10F35AF1
:1001000000A0724E18090010A5D4E80000E8764857
:10011000170000E40B54020000CA9A3B000000E103
:10012000F505000080969800000040420F00000096
:10013000A08601000000102700000000E803000076
:1001400000006400000000000A0000000000010040
:10015000000000002C76D888DC674F0823DFC1DF61
:10016000AE59E1B1B796E5E3E453C63AE651997664
:1001700096E8E6C28426EB898C9B62ED407C6FFC9E
:10018000EFBC9C9F40F2BAA56FA5F490055A2AF7E0
:100190005C936B6CF9676DC11BFCE0E40D47FEF5E9
:1001A00020E6B500D0ED902E030094357705008051
:1001B000841E080000204E0A000000C80C333333B0
:1001C000330F986E12831141EF8D2114893BE65550
:1001D00016CFFEE6DB18D1844B381BF77C1D901D33
:1001E000A4BBE424203284725E228100C9F124EC95
:1001F000A1E53D275265666572656E6369612030D1
:100200002C302C3130302C3130302E2E2E2E2E2E04
:1002100000436F6E736F6C612E2E2E2E2E2E2E2E9F
:100220002E2E2E2E2E2E2E2E2E2E2E2E003D3D3DEF
:100230003D3D3D3D3D3D3D3D3D3D3D3D3D3D3D3DEE
:100240003D3D3D3D3D3D3D3D3D3D3D3D3D3D3D0A11
:100250000056414C554520000A0023003D3D3D3DE0
:100260003D3D3D3D3D3D3D3D3D3D3D3D3D3D3D3DBE
:100270003D3D3D3D3D3D3D3D3D3D3D3D3D3D0A001E
:100280000A003D3D3D3D3D3D3D3D3D3D3D3D3D3D0E
:100290003D3D3D3D3D3D3D3D3D3D3D3D3D3D3D3D8E
:1002A0003D3D3D3D0A000A000A2053656E7420451D
:1002B0006D61696C2066726F6D20507974686F6E25
:1002C0002E2E2E0A00707974686F6E202F726F6F59
:1002D000742F69665F6D61696C2E7079000A205019
:1002E0006F73742044617461204D7953514C2E2EEC
:1002F0002E0A00707974686F6E202F726F6F742FE2
:10030000706F7374446174612E7079002064657637
:100310006963652873292E00466F756E642000445A
:100320006F6E652E00466F756E64206932632044DF
:10033000657669636520416464726573733A200071
:100340004932432041646472657373205363616E64
:100350006E65722E200A5363616E6E696E67202E81
:100360002E2E2E2E2E2E2E2E2E2E002E000A006D1C
:10037000696E75746F730A00496E74726F64757A72
:100380006361206C6F73206D696E75746F73206488
:100390006520736572766963696F0A003D3D3D3D76
:1003A0003D3D3D3D3D3D3D3D3D3D3D3D3D3D3D3D7D
:1003B0003D3D3D3D3D3D3D3D3D3D3D3D3D3D0A00DD
:1003C000202020202020202020507265737320459B
:1003D0006E74657220746F20457869740A0020205D
:1003E00020202020202020536572766963652054E8
:1003F000696D650A003D3D3D3D3D3D3D3D3D3D3D19
:100400003D3D3D3D3D3D3D3D3D3D3D3D3D3D3D3D1C
:100410003D3D3D3D3D3D3D0A0072657365742D6D6A
:100420006375007265626F6F74003D3D3D3D3D3DFB
:100430003D3D3D3D3D3D3D3D3D3D3D3D3D3D3D3DEC
:100440003D3D3D3D3D3D3D3D3D3D3D3D0A00436F14
:100450006E736F6C612064652053657276696369A1
:100460006F003D3D3D3D3D3D3D3D3D3D3D3D3D3DC7
:100470003D3D3D3D3D3D3D3D3D3D3D3D3D3D3D3DAC
:100480003D3D3D3D0A002E000000000025002800F3
:100490002B002E00310000000000240027002A005D
:1004A0002D003000040404040403040502020202C7
:1004B00004030202020206060606060604040202FD
:1004C00002040404080201104080401020408040D3
:1004D000800802040180402010020110801020409A
:1004E0004020080B00020202010009040000010282
:1004F000020000052400100105240101010424026A
:1005000006052406000107058103100040090401C7
:1005100000020A00000007050202400000070583F0
:10052000024000000403090412010002EF0201402E
:100530004123418000010102030141726475696E2B
:100540006F204C4C430041726475696E6F20597581
:100550006E000000000200090F0000030401000CFF
:10056000000000000000000000000000000000008B
:100570000072756E2D6272696467650A000A000A6E
:10058000000078213C2111241FBECFEFDAE0DEBF4E
:10059000CDBF25E0A0EDB2E001C01D92AF39B2079A
:1005A000E1F712E0A0E0B1E0EEECF7E502C0059063
:1005B0000D92A03DB107D9F712E0C2ECD2E004C021
:1005C0002197FE010E949129C13CD107C9F70E94E1
:1005D00057220C94DA2B0C940000089580E090E0F0
:1005E00008956BE18AEC94E00E94E91E87EB91E0AC
:1005F0000C9481106BE18AEC94E00E94E91E8BEB75
:1006000091E00C9481106BE18AEC94E00E94E91E69
:1006100087EB91E00E9481106BE18AEC94E00E94EC
:10062000E91E8BEB91E00E94811081E192E00E9433
:10063000101084EF91E00C9410100F931F93CF9340
:10064000DF93CDB7DEB7CA55D1090FB6F894DEBF38
:100650000FBECDBF60914305709144054AE0CE01C5
:100660008B5A9F4F0E94D5186EEB71E0CE01019618
:100670000E94421967966EAD7FAD679789819A8116
:100680000E94EC0ECE0101960E94A018CE018B5A5A
:100690009F4F0E94A0181C821B8288EE93E0A0E06E
:1006A000B0E08D839E83AF83B88706E811E01A839C
:1006B00009838DE394E09E878D871A8A1B8A1C8AA2
:1006C00065EC72E0CE018B5A9F4F0E940119BE016A
:1006D0006B5A7F4FCE0101960E94EF1BCE018B5AC1
:1006E0009F4F0E94A01868EA72E08AEC94E00E9492
:1006F00057191A830983CE0101960E940E1BC65A10
:10070000DF4F0FB6F894DEBF0FBECDBFDF91CF91A4
:100710001F910F9108956F927F928F929F92AF9247
:10072000BF92CF92DF92EF92FF920F931F93CF93DE
:10073000DF93CDB7DEB768970FB6F894DEBF0FBE74
:10074000CDBF88E494E00E945B1B8111CBC06AECB2
:1007500071E0CE0101960E94421988E494E00E9463
:100760000E1B86E090E00E94AB298C01BE016F5FFA
:100770007F4F0E9439191093580400935704CE01FB
:1007800001960E94A0186FEC71E0CE0101960E94C4
:100790004219BE016F5F7F4F88E494E00E94D61B30
:1007A000CE0101960E94A01888E494E00E94831B69
:1007B00088E494E00E945B1B882339F064E670E0D3
:1007C00080E090E00E94361AF3CF88E494E00E9423
:1007D000301B88C0CE0143960E9462106FED71E01D
:1007E000CE0101960E9442198F89988D892B09F4B8
:1007F00092C00B891C8969817A81C8010E94C02B33
:10080000009709F488C07C01E01AF10ACE01019634
:100810000E94A0186FED71E0CE0101960E9442196E
:100820008F89988D2D813E818C01021B130B211520
:10083000310509F074C00FEF1FEFCE0101960E9441
:10084000A018970140E050E0BE016D5E7F4FCE01E1
:100850000D960E94F715A7014F5F5F4F9801BE01EB
:100860006D5E7F4FCE0107960E94F7152F89388D58
:10087000A8014F5F5F4FBE016D5E7F4FCE010196B5
:100880000E94F715CE010D960E94EC1570930A0395
:1008900060930903CE0107960E94EC15709308033C
:1008A00060930703809105039091060390931701CD
:1008B00080931601CE0101960E94EC1570930603F9
:1008C00060930503CE0101960E94A018CE01079601
:1008D0000E94A018CE010D960E94A018CE0143964A
:1008E0000E94A01888E494E00E944D1C80915A0454
:1008F000882309F440C069EF71E0CE0143960E945D
:1009000042190E94E81097FD65CF682FCE014396EB
:100910000E941D18F6CFEE24EA94FE2C77CF0097A4
:1009200009F489CF8217930708F485CF08171907B0
:1009300018F08C01015011098B889C88A980BA801D
:10094000C40166246A9477247A946401C00ED11E8F
:10095000C816D90670F0B5010E94C02B009749F067
:100960009C01281939090217130708F0390101966B
:10097000EFCF830162CF2091160130911701809152
:100980000503909106032817390709F44CC080919C
:10099000090390910A030A9724F481EE91E00E94E2
:1009A00081106091090370910A03072E000C880BD7
:1009B000990B97FF03C00E94A91003C04AE00E9450
:1009C00021108FED91E00E9481108091070390919A
:1009D00008030A9724F481EE91E00E94811060914F
:1009E000070370910803072E000C880B990B97FFE3
:1009F00003C00E94A91003C04AE00E9421108FED9D
:100A000091E00E94811080910503909106030A975E
:100A100024F481EE91E00E94811080910503909171
:100A200006030E94D01068960FB6F894DEBF0FBE82
:100A3000CDBFDF91CF911F910F91FF90EF90DF908D
:100A4000CF90BF90AF909F908F907F906F900895C0
:100A5000E091F502F091F602EE0FFF1FE050FF4F1C
:100A600080819181019711F40E941D03E091F502AC
:100A7000F091F602EE0FFF1FE050FF4F8081918151
:100A80008530910561F481E090E09183808383EE6D
:100A900091E00E94F80F85EF91E00C94F80F019619
:100AA00091838083089561E08DE00E94D31964E60C
:100AB00070E080E090E00E94361A60E08DE00E94D5
:100AC000D31964E670E080E090E00C94361A4F92FF
:100AD0005F926F927F928F929F92AF92BF92CF92CE
:100AE000DF92EF92FF920F931F93CF93DF93CDB7D7
:100AF000DEB768970FB6F894DEBF0FBECDBF66EACB
:100B000072E0CE010D960E94011967E374E0CE01F8
:100B100001960E943919BE016F5F7F4FCE01079683
:100B20000E943919BE01635F7F4FCE0107960E9474
:100B30003D160E946210CE0107960E94A018CE01B9
:100B400001960E94A018CE010D960E94A01862E89E
:100B500072E08AEC94E00E945719C12CD12C93E0EA
:100B6000892E912C0E9453058091030390910403D8
:100B7000039721F4109204031092030300E410E0A1
:100B8000A0900303B0900403A114B10419F485EC00
:100B900094E00DC081E0A816B10419F485EC94E04E
:100BA0000FC0E2E0AE16B10429F480EC94E00E949C
:100BB000EA1A08C0F3E0AF16B10491F480EC94E0B7
:100BC0000E94C61ABC01990F880B990B0E94282716
:100BD0006093F1027093F2028093F3029093F40217
:100BE0006091F1027091F2028091F3029091F4020F
:100BF0009B01AC010E9487276093ED027093EE0287
:100C00008093EF029093F0022091E9023091EA0282
:100C10004091EB025091EC020E947D286093E90222
:100C20007093EA028093EB029093EC020150110959
:100C300009F0A6CF20E030E040E85CE30E9487277F
:100C40002B013C0120E030E040E05FE30E94872779
:100C50007B018C01B0E0A0E0F0E0E0E02B2F3A2F28
:100C60004F2F5E2FB701C8010E9421278823C9F0AA
:100C70009701A801C301B2010E94E9289B01AC01C0
:100C8000B701C8010E947D2820E030E040E05FE32A
:100C90000E948727BE2DAF2DF02FE12F7B018C0105
:100CA000DDCF20E030E040E05EE3B701C8010E9404
:100CB000872720E030E040E950E40E9487276093D6
:100CC000E5027093E6028093E7029093E8021092A7
:100CD000E9021092EA021092EB021092EC0220E07C
:100CE00030E048EC52E40E94E9282B013C0168EF17
:100CF00071E0CE0143960E9442194AE0B501CE014F
:100D00000D960E94D5186AEF71E0CE0101960E94FF
:100D10004219BE016F5F7F4FCE0107960E943919BD
:100D2000BE01635F7F4FCE0107960E943D16BE0154
:100D30006D5E7F4F0E943D160E946210CE010796A5
:100D40000E94A018CE0101960E94A018CE010D9617
:100D50000E94A018CE0143960E94A01860E072E0A5
:100D6000CE0107960E94421920E030E040EF52E4A5
:100D7000C301B2010E948727AB01BC0122E0CE0172
:100D800001960E94A518BE01695F7F4FCE010196B2
:100D90000E943D160E946210CE0101960E94A0188A
:100DA000CE0107960E94A0188EEF91E00E9481105C
:100DB00067E072E0CE0107960E94421922E0B3017B
:100DC000A201CE0101960E94A518BE01695F7F4F66
:100DD000CE0101960E943D160E947310CE0101962D
:100DE0000E94A018CE0107960E94A018E09103036C
:100DF000F0910403EE0FFF1FEE0FFF1FE950FD4FB0
:100E000040825182628273822AE037ED43E25CE3E2
:100E1000C301B2010E942127181664F19092440583
:100E200080924305C60108969093F6028093F502DE
:100E30004AE0B601CE0107960E94D51866E272E03C
:100E4000CE0101960E9442196F81788589819A812D
:100E50000E94EC0ECE0101960E94A018CE010796CA
:100E60000E94A0180E94280568EE73E080E090E0E0
:100E70000E94361A22E0B301A201CE0143960E94DD
:100E8000A51860910303709104034AE0CE010D960A
:100E90000E94D5186DE072E0CE0101960E944219C1
:100EA000BE016F5F7F4FCE0107960E943919BE01C8
:100EB000635F7F4FCE0107960E943D166B897C8948
:100EC000FC01808191810E94EC0ECE0107960E9468
:100ED000A018CE0101960E94A018CE010D960E9486
:100EE000A018CE0143960E94A01880910303909110
:100EF000040301969093040380930303FFEFCF1A3A
:100F0000DF0A83E0C816D10409F02CCE68960FB62C
:100F1000F894DEBF0FBECDBFDF91CF911F910F912F
:100F2000FF90EF90DF90CF90BF90AF909F908F9009
:100F30007F906F905F904F9008952F923F924F92C5
:100F40005F926F927F928F929F92AF92BF92CF9259
:100F5000DF92EF92FF920F931F93CF93DF93CDB762
:100F6000DEB76A970FB6F894DEBF0FBECDBF109202
:100F7000E4021092E30260E872E0CE010F960E9454
:100F8000011967E374E08E010F5F1F4FC8010E94D3
:100F90003919B801CE0109960E943919BE01615F65
:100FA0007F4FCE0109960E943D160E946210CE012D
:100FB00009960E94A018C8010E94A018CE010F96A1
:100FC0000E94A0186CE572E08AEC94E00E94571928
:100FD000E0900D03F0900E033701660C771CC301FF
:100FE00080539D4F2C01C12CD12CAA24A394B12C49
:100FF00062E0262E312C80910F0390911003E816A9
:10100000F9060CF038C10E945305E091E302F0911B
:10101000E402EE0FFF1FE65DFE4F61E080810E945B
:10102000300F1092160380931503882331F08FE15F
:1010300094E00E94671D8093E2026AE572E0CE01AF
:1010400045960E94011967E374E0CE0109960E945B
:101050003919BE01675F7F4FCE010F960E94391983
:10106000BE016B5E7F4FCE010F960E943D164C0174
:101070004AE0B801C7010E947124F80101900020E4
:10108000E9F73197AF01401B510BB801C4010E9431
:10109000EF17811103C0C4010E943F18C4010E94D0
:1010A0006210CE010F960E94A018CE0109960E94F0
:1010B000A018CE0145960E94A01888EF91E00E94EA
:1010C00081109091E20280910B0389238093E102C9
:1010D000F201EC0DFD1D811140C01092E002118261
:1010E0001082F601E60DF71DE050FF4FB182A0829D
:1010F0004AE060E070E0CE0145960E94D5184AE0D3
:10110000B701CE010F960E94D51860E172E0C801C8
:101110000E944219B801CE0109960E943919BE01F8
:10112000615F7F4FCE0109960E943D166D897E89D1
:10113000FC01808191810E94EC0ECE0109960E94F3
:10114000A018C8010E94A018CE010F960E94A018F6
:10115000CE0145960E94A01848C081E08093E0022D
:10116000B182A0824AE061E070E0CE0145960E9423
:10117000D5184AE0B701CE010F960E94D51860E15C
:1011800072E0C8010E944219B801CE0109960E947E
:101190003919BE01615F7F4FCE0109960E943D164D
:1011A0006D897E89FC01808191810E94EC0ECE01C7
:1011B00009960E94A018C8010E94A018CE010F969F
:1011C0000E94A018CE0145960E94A018F6E0EF16E6
:1011D000F1040CF071C0B0924405A0924305F09266
:1011E000F602E092F5020E94280568E572E0CE0161
:1011F00045960E9401196091E00270E04AE0CE013C
:101200000F960E94D51861E572E0C8010E9401198D
:10121000B801CE0109960E943919BE01615F7F4F66
:10122000CE0109960E943D16BE016B5E7F4F0E9463
:101230003D160E946210CE0109960E94A018C801B6
:101240000E94A018CE010F960E94A018CE014596CC
:101250000E94A01880910B0390910C03880F991F96
:1012600090930C0380930B038FEFE81AF80A92E037
:10127000C90ED11CC0CE0E94740F6DE272E08AECE0
:1012800094E00E9457196A960FB6F894DEBF0FBE1D
:10129000CDBFDF91CF911F910F91FF90EF90DF9025
:1012A000CF90BF90AF909F908F907F906F905F9006
:1012B0004F903F902F90089530924405209243051F
:1012C0008ECF2F923F924F925F926F927F928F922A
:1012D0009F92AF92BF92CF92DF92EF92FF920F93C5
:1012E0001F93CF93DF93CDB7DEB7C156D1090FB6A9
:1012F000F894DEBF0FBECDBF0E94F1020E94FA0239
:101300000E948B036AEB74E087E394E00E948918E3
:1013100006E010E01093100300930F0310920E03E9
:1013200010920D0381E090E090930C0380930B03E7
:101330000E949D076EEA74E087E394E00E9489189A
:1013400088E090E09093100380930F0310930E03B6
:1013500000930D0380E490E090930C0380930B03C3
:101360000E949D0768EA74E087E394E00E94891870
:101370000E9467051C821B8288EE93E0A0E0B0E02B
:101380008D839E83AF83B88706E811E01A830983B3
:101390008DE394E09E878D871A8A1B8A1C8A63EFEF
:1013A00072E0CE018B5A9F4F0E940119BE016B5A09
:1013B0007F4FCE0101960E94EF1BCE018B5A9F4FAB
:1013C0000E94A0186DED72E08AEC94E00E9457191B
:1013D0001A830983CE0101960E940E1B10924405C8
:1013E0001092430520E3C22ED12C38E0632E712CDD
:1013F00046E0E42EF12C64EF71E080E090E00E9482
:10140000361A66E874E08AEC94E00E94571961E0AD
:101410008DE00E94D31964EF71E080E090E00E94BB
:10142000361A60E08DE00E94D3198AEC94E00E94A5
:101430000B1D8A30F1F021E0C21AD108E1F6CF5934
:10144000DF4F0FB6F894DEBF0FBECDBFDF91CF9157
:101450001F910F91FF90EF90DF90CF90BF90AF90D2
:101460009F908F907F906F905F904F903F902F90C4
:1014700008950E94F1020E94FA020E948B0362E624
:1014800074E08AEC94E00E9457198EE494E00E9484
:1014900010106AE274E08AEC94E00E94571968EE3A
:1014A00073E080E090E00E94361A8AEC94E00E949B
:1014B0000B1DA0968FAFA09795E0292E312C8AECBA
:1014C00094E00E94CB1C8091D804882309F4D3C2F5
:1014D0008AEC94E00E940B1D8A3009F0C7C282E1B9
:1014E00092E00E94420D882341F00E94030369EFBD
:1014F00071E081E394E00E94721886E192E00E941C
:10150000420D882341F069EF71E081E394E00E948D
:1015100072180E9461098BE192E00E94420D8823BB
:1015200081F10E9403031C821B8288EE93E0A0E0FD
:10153000B0E08D839E83AF83B88706E811E01A83FD
:1015400009838DE394E09E878D871A8A1B8A1C8A03
:1015500063E274E0CE018B5A9F4F0E940119BE01D5
:101560006B5A7F4FCE0101960E94EF1BCE018B5A22
:101570009F4F0E94A0181A830983CE0101960E94F2
:101580000E1B82E292E00E94420D882371F11C82C0
:101590001B8288EE93E0A0E0B0E08D839E83AF8352
:1015A000B88706E811E01A8309838DE394E09E87EB
:1015B0008D871A8A1B8A1C8A69E174E0CE018B5AD6
:1015C0009F4F0E940119BE016B5A7F4FCE010196B9
:1015D0000E94EF1BCE018B5A9F4F0E94A0181A83C6
:1015E0000983CE0101960E940E1B88E292E00E94C0
:1015F000420D882309F48FC080E493E00E9410100C
:101600000E948310812C912C54018394512C4424EA
:10161000439440921703809239031092180310925A
:101620003A030E94740F811151C065E273E08AECA5
:1016300094E00E9457194AE0C501B4010E942110AC
:101640008EE292E00E94811040E1C501B4010E9447
:10165000211084E392E00E9481108401F401B0978C
:10166000E830F10570F4EA5AFF4F0C94912984EBAD
:1016700094E005C08EEA94E002C08CE994E00E94F8
:101680007310F801F897E830F10570F4E25AFF4F53
:101690000C94912988EA94E005C082EA94E002C0A3
:1016A0008CE994E00E947310F801E854F109E830E5
:1016B000F10558F4EA59FF4F0C94912988EA94E017
:1016C00002C08CE994E00E94731053948FEF881A43
:1016D000980AA80AB80A98E789169104A104B104E7
:1016E00009F097CF8FE193E00E94101088E193E01A
:1016F0000E941010652D70E080E090E04AE00E94AA
:1017000021108CE093E00E94101069EF71E081E3FA
:1017100094E00E94721887E392E00E94420D8823B1
:1017200041F069EF71E081E394E00E9472180E9439
:1017300061098EE492E00E94420D882341F00E94EC
:101740008B0369EF71E081E394E00E9472188CE3EF
:1017500092E00E94420D882361F03092440520926D
:1017600043050E941D0369EF71E081E394E00E944C
:10177000721882E492E00E94420D882309F4B9C0F5
:101780000E948B0365EF73E08AEC94E00E94571986
:101790006EED73E08AEC94E00E94571960EC73E000
:1017A0008AEC94E00E9457196CE973E08AEC94E0AB
:1017B0000E94571968E773E08AEC94E00E94571979
:1017C0008AEC94E00E940B1D89EF91E0A1968FAF07
:1017D000A197BC0181E394E00E9472188AEC94E026
:1017E0000E94CB1C8091D804882309F476C08AEC2F
:1017F00094E00E940B1D182F082E000C990BC09727
:101800000A9728F4612F8BE294E00E941D181A3089
:1018100009F05EC08BE294E00E94EC156F966CAF0D
:101820007DAF8EAF9FAF6F976FE673E08AEC94E069
:101830000E9457196D968EAD9FAD6D970E94D01086
:1018400069EF71E08BE294E00E9472182CE36D96D0
:101850008EAD9FAD6D97289F2001299F500C1124BC
:1018600000E010E00415150554F568EE73E080E023
:1018700090E00E94361AC8016CE370E00E945B2978
:10188000892B31F46DE673E08AEC94E00E945719DD
:101890006BE673E08AEC94E00E9457198AEC94E0BE
:1018A0000E940B1D8A3041F469EF71E081E394E0FE
:1018B0000E9472180E9461090F5F1F4FD3CF69EF1A
:1018C00071E081E394E00E9472180E94610905C0F2
:1018D000612F81E394E00E941D18A1962FADA1977E
:1018E0002A3009F07BCF69EF71E081E394E00E9438
:1018F00072188AE492E00E94420D882309F451C0D4
:1019000069EF71E081E394E00E9472180E94F10295
:101910000E94FA026AEB74E087E394E00E9489185F
:10192000F0921003E0920F0310920E0310920D0339
:1019300081E090E090930C0380930B030E949D073D
:101940006EEA74E087E394E00E94891870921003B5
:1019500060920F03F0920E03E0920D0380E490E09A
:1019600090930C0380930B030E949D0768EA74E038
:1019700087E394E00E9489180E9467058AEC94E04E
:101980000E940B1DA2968FAFA2970E94FA02A29608
:101990008FADA2978A3009F0BDCF0E94F1020E945C
:1019A000030383E592E00E94420D8823E1F06AEB95
:1019B00074E087E394E00E948918F0921003E092AB
:1019C0000F0310920E0310920D0381E090E09093AC
:1019D0000C0380930B030E949D0769EF71E081E384
:1019E00094E00E9472188AE592E00E94420D8823DA
:1019F000E1F06EEA74E087E394E00E948918709247
:101A0000100360920F03F0920E03E0920D0380E446
:101A100090E090930C0380930B030E949D0769EF65
:101A200071E081E394E00E94721881E692E00E94E6
:101A3000420D882371F068EA74E087E394E00E9425
:101A400089180E94670569EF71E081E394E00E94C4
:101A5000721880E090E00E94420D81110CC069EF85
:101A600071E081E394E00E94721805C0682F81E361
:101A700094E00E941D18A0962FADA0972A3009F07F
:101A80001ECDD9CCFC018091350490913604892B70
:101A900021F421E0309749F413C0809131049091F2
:101AA0003204309731F421E0FC018081882341F039
:101AB00006C0BF010E94B02B21E0892B09F020E075
:101AC000822F08952F923F924F925F926F927F9252
:101AD0008F929F92AF92BF92CF92DF92EF92FF923E
:101AE0000F931F93CF93DF93CDB7DEB72B970FB62E
:101AF000F894DEBF0FBECDBF9B878A875B011901BB
:101B0000FD82EC823A01600E711E872C7B82912C43
:101B100044244A94542C9B01240F351F3F832E8369
:101B20009101200F311F39872887EA85FB85808541
:101B3000981608F036C1AA85BB8514965C924E9221
:101B4000139715968D919C911697DC01ED91FC9160
:101B50000190F081E02D6FEF09956FEF8A859B85ED
:101B60000E949E1EEA85FB8585819681DC01ED91B0
:101B7000FC910190F081E02DAA85BB856C910995BF
:101B8000EA85FB856081CF010E949E1EAA85BB85E8
:101B900015968D919C911697DC01ED91FC91019029
:101BA000F081E02D682D09956B818A859B850E94C7
:101BB0009E1EEA85FB8585819681DC01ED91FC9175
:101BC0000190F081E02D662D0995662D8A859B8513
:101BD0000E949E1E75012E813F81E216F306B1F030
:101BE000EA85FB85858196818701DC01ED91FC9179
:101BF0000190F081E02DD7016D917D010995F801EB
:101C000060818A859B850E949E1EE5CF7101AA8511
:101C1000BB8515968D919C91169728853985E2167E
:101C2000F30691F08701DC01ED91FC910190F081C8
:101C3000E02DD7016D917D010995F80160818A85BC
:101C40009B850E949E1EE3CFDC01ED91FC91AA854D
:101C5000BB8514966C910190F081E02D0995EA8581
:101C6000FB8585819681DC01ED91FC910190F081ED
:101C7000E02DAA85BB8513966C91099564E670E00A
:101C80008A859B850E94671E8F3F910509F07DC064
:101C9000EA85FB85548243826FEFCF010E949E1E2E
:101CA00065E070E08A859B850E94671EAA85BB85DA
:101CB0006C91262F30E08217930709F066C0CD01A2
:101CC0000E949E1E6AE070E08A859B850E94671EC6
:101CD0007C0197FD5AC0682F8A859B850E949E1EB5
:101CE0006AE070E08A859B850E94671E8C0197FDE3
:101CF0004CC0682F8A859B850E949E1EEA821982AD
:101D0000E981FA810E0F1F1FE12CF12C65E070E0D4
:101D10008A859B85E016F106A9F0EC14FD0491F08C
:101D20000E94671E97FD0AC0EC81FD81EE0DFF1D2C
:101D30008083682F8A859B850E949E1EFFEFEF1A85
:101D4000FF0AE4CF0E94671E7C0197FD1EC065E07C
:101D500070E08A859B850E94671E97FD16C0FE2C49
:101D6000EE248E0D9F1DAA85BB8513962D913C9167
:101D700014972817390749F48C918F5F8C93C80109
:101D8000C016D10680F4C6010EC0939464E670E0DC
:101D900080E090E00E94361A8A859B850E944B1E47
:101DA000C4CE8FEF9FEF2B960FB6F894DEBF0FBE19
:101DB000CDBFDF91CF911F910F91FF90EF90DF90FA
:101DC000CF90BF90AF909F908F907F906F905F90DB
:101DD0004F903F902F900895EF92FF920F931F9393
:101DE000CF93DF93CDB7DEB727970FB6F894DEBF5A
:101DF0000FBECDBF7C018B016FEB72E0CE0101966F
:101E00000E944219B701CE0101960E94301861EC80
:101E100072E0CE0101960E943018B801CE01019601
:101E20000E9430184D815E8169817A8101E010E065
:101E30009E01295F3F4F8DE394E00E94B51ECE01C5
:101E400001960E94A01827960FB6F894DEBF0FBE29
:101E5000CDBFDF91CF911F910F91FF90EF9008952B
:101E6000909181039111FCCF91E090938103909325
:101E700080032FEF20937F0310927E03260F209381
:101E80007D0390937C0390917C03880F892B809332
:101E90007C0380917B03813061F410927B038091FD
:101EA0007C038093BB008091BC0083FDF8CF85EC60
:101EB00001C085EE8093BC00809181038130E1F305
:101EC00080917E03861710F460917E03ABE5B3E04A
:101ED0002BE333E0F9018E2F821B861718F48D91C6
:101EE0008193F9CF862F089520913A039091390379
:101EF000213208F04AC0809181038111FCCF32E089
:101F00003093810331E0309380033FEF30937F03C0
:101F100010927E0320937D03A9E1B3E04BE553E0EB
:101F2000FA013E2F341B321718F43D913193F9CF4B
:101F300010927C0320917C03990F922B90937C0349
:101F400090917B03913061F410927B0390917C031C
:101F50009093BB009091BC0093FDF8CF95EC01C02D
:101F600095EE9093BC00909181039230E1F39091B3
:101F70007F039F3F79F080917F03803241F0809111
:101F80007F03803331F084E005C081E003C082E04C
:101F900001C083E01092180310923A0310921703C5
:101FA00008951F93CF93DF931F92CDB7DEB7162FFF
:101FB00091E09093170380933903109218031092C5
:101FC0003A0361E08FE194E079830E94B31D798147
:101FD000672F8FE194E00E94B31D612F8FE194E0A1
:101FE0000E94B31D0F90DF91CF911F910C94740F3D
:101FF000BC01009791F0FC0101900020E9F73197B6
:10200000AF01481B590BE091CA04F091CB04028048
:10201000F381E02D8AEC94E0099480E090E008954B
:10202000CF93DF93BC018AEC94E00E945719EC0136
:1020300085EF91E00E94F80F8C0F9D1FDF91CF91EB
:1020400008958F929F92AF92BF920F931F93CF9359
:10205000DF93CDB7DEB7A1970FB6F894DEBF0FBE02
:10206000CDBF19A2423008F44AE08E010F5D1F4F28
:10207000842E912CA12CB12CA50194010E946F29D2
:10208000E62FB901CA0101501109EA3014F4E05DEC
:1020900001C0E95CD801EC93232B242B252B61F79D
:1020A000C8010E94F80FA1960FB6F894DEBF0FBECC
:1020B000CDBFDF91CF911F910F91BF90AF909F90B7
:1020C0008F900895E091CA04F091CB04DC0114963E
:1020D0004D915C9115976D917C910280F381E02D7B
:1020E0008AEC94E00994CF93DF930E946210EC0194
:1020F00085EF91E00E94F80F8C0F9D1FDF91CF912B
:1021000008950C94F80F1092160310921503109274
:10211000180310923A031092810381E080938003A8
:1021200010927B0361E082E00E94D31961E083E0BA
:102130000E94D319E9EBF0E080818E7F808380815B
:102140008D7F808388E48093B80085E48093BC0011
:102150000895CF92DF92EF92FF92CF93DF936B01BE
:102160007C01E091CA04F091CB040190F081E02D54
:102170006DE28AEC94E00995EC0166277727CB01A4
:102180006C197D098E099F094AE00E9421108C0F6D
:102190009D1FDF91CF91FF90EF90DF90CF9008953A
:1021A000CF93DF93BC01990F880B990B97FF03C066
:1021B0000E94A91003C04AE00E942110EC0185EFA3
:1021C00091E00E94F80F8C0F9D1FDF91CF91089531
:1021D0000F931F930E94701A6093500470935104E0
:1021E0008093520490935304E0914804F091490481
:1021F0000284F385E02D88E494E0099597FF1FC0E1
:102200000E94701A009150041091510420915204C0
:1022100030915304DC01CB01801B910BA20BB30B5B
:1022200000914C0410914D0420914E0430914F04C4
:1022300080179107A207B307B8F28FEF9FEF1F91A6
:102240000F910895FC0180911403811103C08FEF59
:102250009FEF08959FB7F89482E08093E900209162
:10226000F20030E01216130614F421E030E02115DC
:10227000310559F0289884E6809313038091F1008A
:1022800080838091F200882319F09FBFC9010895CF
:102290008BE68093E800F9CF2FB7F89483E0809322
:1022A000E9009091E800892F807295FF04C0909119
:1022B000F20080E4891B2FBF08958F929F92AF9206
:1022C000BF92CF92DF92EF92FF920F931F93CF9323
:1022D000DF935C016B017A0180911F01882309F46F
:1022E0005BC080911403882309F456C080911203C7
:1022F00080FF05C08091E00082608093E000E701EC
:1023000010E00AEF83E0882E9AE3992E2097D9F106
:102310000E944C1181110AC0015009F43DC061E0D6
:1023200070E080E090E00E94361AF0CF282F30E075
:10233000C217D3070CF48C2F4FB7F8948092E900A2
:102340009091E80095FF1DC0282F30E0C21BD30BF1
:10235000F601982F915020F081918093F100FACFEF
:10236000C20ED31E112319F09092E80009C080918B
:10237000E80085FD06C09092E80011E0209709F082
:1023800010E04FBFC3CF1111C3CF5D9884E6809397
:1023900011031E141F0444F081E090E0F5019383C3
:1023A000828380E090E001C0C701DF91CF911F914F
:1023B0000F91FF90EF90DF90CF90BF90AF909F90E4
:1023C0008F9008958091E50481110DC082E0809383
:1023D000E10484E08093E2041092E4041092E304A8
:1023E00081E08093E50481EE94E00895CF93DF933C
:1023F0001F92CDB7DEB76983DC01ED91FC910280BD
:10240000F381E02D41E050E0BE016F5F7F4F099501
:102410000F90DF91CF91089583E08093E900809140
:10242000F200882319F08AE38093E8000895FC0104
:102430008485958597FD0BC09FB7F89482E08093C3
:10244000E9008091F2009FBF90E0019608959FB748
:10245000F89482E08093E9008091F2009FBF90E0C1
:1024600008954091470550914805209145053091C8
:10247000460542175307B4F49091E8009570E1F3D4
:102480009091E80092FD19C08093F100809147057A
:102490009091480501968F739927892B19F48EEF37
:1024A0008093E800809147059091480501969093AC
:1024B00048058093470581E0089580E00895CF9214
:1024C000DF92EF92FF920F931F93CF93DF931F92B0
:1024D000CDB7DEB7182F062FE42E862F880F8E5F1C
:1024E00099830E94311283E00E943112F12EC12E95
:1024F0009981D92E8C2D8F19801798F4F601E7FE5B
:1025000002C0849101C080810E943112182F80E0A6
:102510000E9431128123FFEFCF1ADF0A8111EACF27
:1025200001C081E00F90DF91CF911F910F91FF903B
:10253000EF90DF90CF900895DF92EF92FF920F938C
:102540001F93CF93DF93D82E8A017B01E40EF51EF3
:10255000EB01CE15DF0571F0D7FE03C0FE018491BB
:1025600001C088810E94311221968111F2CF8FEF34
:102570009FEF01C0C801DF91CF911F910F91FF9094
:10258000EF90DF900895615030F02091F100FC0150
:1025900020830196F8CF289884E68093130308954A
:1025A0000E944C1190E00895CF93DF931F92CDB716
:1025B000DEB7FC018485958597FD05C02FEF3FEFC1
:1025C000358724870BC0CE0101960E942211019706
:1025D00019F4898190E002C08FEF9FEF0F90DF9197
:1025E000CF9108950F931F93CF93DF931F92CDB791
:1025F000DEB78C01FC018485958597FF0EC0CE0166
:1026000001960E942211019719F4298130E002C03D
:102610002FEF3FEFF80135872487F80184859585F2
:102620000F90DF91CF911F910F9108950F931F93FA
:10263000CF93DF931F92CDB7DEB782E0898342E468
:1026400050E062EE74E080E80E949C120E94E21169
:10265000DC0112960D911C9113970115110569F07B
:10266000D801ED91FC910280F381E02DBE016F5FF6
:102670007F4FC801099597FF07C089810F90DF91AF
:10268000CF911F910F910895F80100851185E5CF35
:102690000E94A22B1F920F920FB60F9211248F93BC
:1026A0009F938091E1009091E100937F9093E100EE
:1026B00083FF0FC01092E90091E09093EB0010921D
:1026C000EC0092E39093ED001092140398E0909345
:1026D000F00082FF20C093E09093E9009091F20017
:1026E000992319F09AE39093E800909111039923AC
:1026F00039F090911103915090931103992389F12E
:1027000090911303992339F0909113039150909372
:102710001303992341F184FF10C08091E2008E7E63
:1027200081608093E2008091E1008F7E8093E100E0
:10273000809112038E7E806111C080FF16C080914F
:10274000E2008E7E80618093E2008091E1008E7EC7
:102750008093E100809112038E7E8160809312034A
:1027600004C05D9ACDCF289AD6CF9F918F910F90BC
:102770000FBE0F901F9018951F920F920FB60F92D9
:102780001124CF92DF92EF92FF920F931F932F931A
:102790003F934F935F936F937F938F939F93AF93E9
:1027A000BF93EF93FF93CF93DF93CDB7DEB76C97D3
:1027B000DEBFCDBF1092E9008091E80083FFEDC13C
:1027C00068E0CE0145960E94C31282EF8093E80034
:1027D0008D8987FF05C09091E80090FFFCCF03C072
:1027E0009EEF9093E800982F907609F0C6C09E89DE
:1027F0002F89188D91110CC0803829F480914A05D9
:102800008093F10002C01092F1001092F10048C1D3
:10281000422F50E0512B913051F4811141C1413090
:10282000510509F03DC180914A058D7F0BC0933061
:1028300061F4811135C14130510509F031C18091F8
:102840004A05826080934A052BC1953041F48091FE
:10285000E80080FFFCCF20682093E30021C1963080
:1028600009F05FC0EB8CFC8C1092E90010924805D7
:1028700010924705123091F51092460510924505C9
:102880000E94161399E0BE016F5F7F4FDB01E92FB5
:102890001D92EA95E9F799831A8391E09E8390EA65
:1028A00098879AEF99872091470530914805275FCF
:1028B0003F4F3C832B838D831092E9001092480593
:1028C00010924705F0924605E092450549E050E038
:1028D00080E00E949C120E941613E2C0F09246050E
:1028E000E09245050E94E211DC011296ED90FC9009
:1028F0001397E114F10409F4C0C0D701ED91FC91E4
:102900000480F581E02DBE016B5E7F4FC701099504
:10291000009719F00CF0C4C0C7C0F701E084F1843F
:10292000E8CF973009F4C0C0983021F481E080935B
:10293000F100B6C0993009F0B3C0837009F0B4C09B
:10294000E7EAF1E081E021E036E39081992361F04C
:102950008093E9002093EB0091919093EC003093E9
:10296000ED008F5F873089F78EE78093EA00109241
:10297000EA008F898093140393C08B8D9C8D1092F5
:10298000E900109248051092470590934605809300
:102990004505898D811156C08E899D89913A59F4DA
:1029A000813209F081C047E050E068E171E080E0E9
:1029B0000E949C1275C0913209F076C0833289F46E
:1029C000888D90E0982F88272F89822BA0E0B0E097
:1029D0008093200190932101A0932201B0932301C1
:1029E0005FC0803269F48091E80082FFFCCF67E02D
:1029F00088E191E00E94C3128BEF8093E80006C04B
:102A0000823209F04DC08F8980931F018091490562
:102A1000882319F0EEEFFAE002C0E0E0F8E08091E0
:102A2000180190911901A0911A01B0911B01803BEE
:102A30009440A105B10509F07BC080911F0180FF82
:102A400093C076C00E94E211DC0112960D911C9198
:102A500013970115110541F1D801ED91FC910190F9
:102A6000F081E02DBE016B5E7F4FC8010995811199
:102A700017C0F80100851185ECCF113009F44EC064
:102A8000133091F48F89882309F445C0823081F492
:102A900040E86BE086E495E00E945F12882321F015
:102AA0008EEF8093E80079C081E28093EB0075C0DF
:102AB000813029F440E86BE08AE395E0EDCF833084
:102AC00099F70E94E211DC011296ED90FC901397A9
:102AD0008E010F5F1F4F6801E114F10479F0D701F7
:102AE000ED91FC910680F781E02DB801C7010995B1
:102AF000080F111DF701E084F184EECFD8011C927C
:102B0000F60101900020E9F73197BF016C197D09AA
:102B100040E0C601C1CF64E275E002C068E275E042
:102B20006115710509F2FB01449150E080E840CF46
:102B30000FB6F894A895809160008861809360003A
:102B4000109260000FBEA895EE3F2AE0F20739F020
:102B50008091FE0A9091FF0A91838083A1CF109209
:102B6000FF0A1092FE0A9CCFEE3F8AE0F80731F090
:102B7000808191819093FF0A8093FE0A87E797E70F
:102B8000918380839BE088E10FB6F894A8958093A9
:102B900060000FBE9093600083CF6C960FB6F894E0
:102BA000DEBF0FBECDBFDF91CF91FF91EF91BF91FF
:102BB000AF919F918F917F916F915F914F913F91D5
:102BC0002F911F910F91FF90EF90DF90CF900F907A
:102BD0000FBE0F901F901895FC0180819181009786
:102BE00011F00C942F2460E070E0CB010895BF92A7
:102BF000CF92DF92EF92FF920F931F93CF93DF93C9
:102C00007C016B018A01E9012417350720F4812F2B
:102C10008901C42FD82F69EF71E0C7010E944219C2
:102C2000D60114968D919C91159708171907D0F429
:102C30008C179D0708F4EC01D601ED91FC911197DA
:102C4000EC0FFD1FB08010824D915C91BA01600FB6
:102C5000711FC7010E947218D601ED91FC91EC0F13
:102C6000FD1FB082C701DF91CF911F910F91FF909F
:102C7000EF90DF90CF90BF900895CF93DF93EC015A
:102C8000FB0144815581608171810E94EF178111A0
:102C900003C0CE010E943F18CE01DF91CF9108956D
:102CA000CF92DF92EF92FF920F931F93CF93DF9318
:102CB0006C017A018B01C0E0D0E0CE15DF0589F010
:102CC000D8016D918D01D601ED91FC910190F081BB
:102CD000E02DC6010995892B11F47E0102C02196D1
:102CE000ECCFC701DF91CF911F910F91FF90EF9033
:102CF000DF90CF900895FC01538D448D252F30E057
:102D0000842F90E0821B930B541710F0CF960895F8
:102D100001970895FC01918D828D981761F0828D45
:102D2000DF01A80FB11D5D968C91928D9F5F9F73FF
:102D3000928F90E008958FEF9FEF0895FC01918DA1
:102D4000828D981731F0828DE80FF11D858D90E00E
:102D500008958FEF9FEF0895FC01918D228D892FAB
:102D600090E0805C9F4F821B91098F739927089593
:102D700082E893E00E94AC1621E0892B09F420E060
:102D8000822F0895FC01848DDF01A80FB11DA35A85
:102D9000BF4F2C91848D90E001968F739927848F7B
:102DA000A689B7892C93A089B1898C9180648C9372
:102DB000938D848D981306C00288F389E02D80815D
:102DC0008F7D80830895EF92FF920F931F93CF938F
:102DD000DF93EC0181E0888F9B8D8C8D981305C06B
:102DE000E889F989808185FD24C0F62E0B8D10E0DD
:102DF0000F5F1F4F0F731127E02E8C8DE8120CC050
:102E00000FB607FCFACFE889F989808185FFF5CFF5
:102E1000CE010E94C216F1CF8B8DFE01E80FF11D8D
:102E2000E35AFF4FF0820B8FEA89FB898081806231
:102E300007C0EE89FF896083E889F9898081806411
:102E4000808381E090E0DF91CF911F910F91FF90FF
:102E5000EF900895CF93DF93EC01888D8823C9F01C
:102E6000EA89FB89808185FD05C0A889B9898C9193
:102E700086FD0FC00FB607FCF5CF808185FFF2CF2E
:102E8000A889B9898C9185FFEDCFCE010E94C21629
:102E9000E7CFDF91CF91089580E090E0892B29F072
:102EA0000E94B81681110C94000008953FB7F89461
:102EB0008091500590915105A0915205B091530514
:102EC00026B5A89B05C02F3F19F00196A11DB11D85
:102ED0003FBFBA2FA92F982F8827820F911DA11DC0
:102EE000B11DBC01CD0142E0660F771F881F991FFD
:102EF0004A95D1F7089508950F931F93CF93DF93C9
:102F0000EC0188819981009729F02A813B8126175D
:102F1000370788F48B016F5F7F4F0E94D82A009794
:102F200061F0998388831B830A832C813D81232B45
:102F300011F4FC01108281E001C080E0DF91CF91AB
:102F40001F910F9108951F93CF93DF93182F81E066
:102F500080931703109339031092180310923A03C9
:102F600060E08FE194E00E94B31D0E94740F62E064
:102F7000812F0E94300F10921603809315038FE16A
:102F800094E00E94671D182F8FE194E00E94671D56
:102F9000D12F20E0C22F9E01282BC901DF91CF91B4
:102FA0001F910895CF93DF9300D01F92CDB7DEB766
:102FB00029E42983FC0126852A836B8343E050E0C2
:102FC000BE016F5F7F4F848595850E94CA1E81E098
:102FD00090E00F900F900F90DF91CF910895EF92B6
:102FE000FF920F931F93CF93DF93FC0124813581D0
:102FF0006115710511F480E019C041155105A9F062
:103000007B01EC018A01020F131FB8010E947C179B
:10301000882389F3288139818C819D81B701820FB2
:10302000931F0E94B92B1D830C8381E0DF91CF9108
:103030001F910F91FF90EF900895CF93DF9300D0F1
:10304000CDB7DEB769831A8241E050E0BE016F5F01
:103050007F4F0E94EF170F900F90DF91CF9108954F
:103060006115710551F0FB0101900020E9F73197DE
:10307000AF01461B570B0C94EF1780E00895CF93D8
:10308000DF93EC0188819981009711F00E94402A1A
:10309000198218821D821C821B821A82DF91CF91B5
:1030A0000895EF92FF920F931F93CF93DF93EC015C
:1030B0007B018A01BA010E947C17811104C0CE01F4
:1030C0000E943F1807C01D830C83B7018881998136
:1030D0000E94B92BCE01DF91CF911F910F91FF90EC
:1030E000EF900895CF93DF93EC016115710559F0CE
:1030F000FB0101900020E9F73197AF01461B570B08
:103100000E94511802C00E943F18CE01DF91CF915A
:103110000895CF93DF93EC01FB018617970761F0C9
:10312000608171816115710529F0448155810E948A
:10313000511802C00E943F18CE01DF91CF9108952F
:10314000FC01808191810C94402AEF92FF920F93B1
:103150001F93CF93DF93CDB7DEB7A1970FB6F89447
:10316000DEBF0FBECDBF7C01CB01BA01F7011182DA
:103170001082138212821582148242E0420F8E0165
:103180000F5F1F4F0E940F24BC01C7010E947218DD
:10319000A1960FB6F894DEBF0FBECDBFDF91CF91E1
:1031A0001F910F91FF90EF9008950F931F93CF936E
:1031B000DF93CDB7DEB762970FB6F894DEBF0FBED0
:1031C000CDBF8C01CB01F8011182108213821282D3
:1031D0001582148250E0BE016F5F7F4F0E9466240B
:1031E000BE016F5F7F4FC8010E94721862960FB6D2
:1031F000F894DEBF0FBECDBFDF91CF911F910F912D
:103200000895EF92FF920F931F93CF93DF93EC01FA
:10321000198218821B821A821D821C826115710517
:1032200009F18B01CB010E945D247C01BC01CE0120
:103230000E947C17811109C0CE01DF91CF911F91AF
:103240000F91FF90EF900C943F18FD82EC82B80133
:1032500088819981DF91CF911F910F91FF90EF901D
:103260000C945624DF91CF911F910F91FF90EF9016
:103270000895FC0111821082138212821582148239
:103280000C948918FC01118210821382128215821B
:1032900014826115710551F0FB0101900020E9F7DE
:1032A0003197AF01461B570B0C9451180895EF92BC
:1032B000FF920F931F93CF93DF938C017B01C0E0AC
:1032C000D0E0F701EC0FFD1F6491662361F0D80197
:1032D000ED91FC910190F081E02DC8010995892BB9
:1032E00011F02196EECFCE01DF91CF911F910F917A
:1032F000FF90EF9008951F920F920FB60F92112436
:103300002F933F934F935F936F937F938F939F93ED
:10331000AF93BF93EF93FF9382E893E00E94C216AE
:10332000FF91EF91BF91AF919F918F917F916F919D
:103330005F914F913F912F910F900FBE0F901F9073
:1033400018951F920F920FB60F9211242F938F93FF
:103350009F93EF93FF93E0919203F0919303808109
:10336000E0919803F091990382FD12C090818091C1
:103370009B038F5F8F7320919C03821751F0E09124
:103380009B03F0E0EE57FC4F958F80939B0301C0A9
:103390008081FF91EF919F918F912F910F900FBEA0
:1033A0000F901F901895362F90E0FC01EE5AFA4FBF
:1033B0004491FC01ED53FB4F2491FC01EC55FB4F74
:1033C0008491882309F451C04423E1F150E0FA01CB
:1033D0003197EF30F105B0F5E259FF4F0C94912988
:1033E000909180009F7707C0909180009F7D03C0DF
:1033F00090918000977F9093800024C094B59F7730
:1034000002C094B59F7D94BD1DC0909190009F77A0
:1034100007C0909190009F7D03C090919000977F8E
:10342000909390000FC09091C0009F7703C090913F
:10343000C0009F7D9093C00005C09091C200977F0F
:103440009093C200E82FF0E0EE0FFF1FE857FB4F0C
:10345000A591B4918FB7F894EC91311103C02095E8
:103460002E2301C02E2B2C938FBF08958F929F92F5
:10347000AF92BF92CF92DF92EF92FF926B017C01ED
:103480000E9456174B015C01C114D104E104F10400
:10349000F1F00E945617DC01CB0188199909AA099D
:1034A000BB09883E9340A105B10570F321E0C21A23
:1034B000D108E108F10888EE880E83E0981EA11C6F
:1034C000B11CC114D104E104F10419F7DDCFFF9060
:1034D000EF90DF90CF90BF90AF909F908F90089526
:1034E0002FB7F89460914C0570914D0580914E0571
:1034F00090914F052FBF08951F920F920FB60F9214
:1035000011242F933F938F939F93AF93BF938091F9
:103510004C0590914D05A0914E05B0914F0530910D
:103520004B0523E0230F2D3720F40196A11DB11D7B
:1035300005C026E8230F0296A11DB11D20934B055F
:1035400080934C0590934D05A0934E05B0934F0585
:103550008091500590915105A0915205B09153056D
:103560000196A11DB11D8093500590935105A09324
:103570005205B0935305BF91AF919F918F913F91A9
:103580002F910F900FBE0F901F901895CF93DF9340
:10359000EC016B817C816368716B88810E94D10F23
:1035A000698170E080E090E00E94361A88810E9474
:1035B000A3172A81022E02C0969587950A94E2F7F6
:1035C000222329F0811528E0920708F0906FDF91FF
:1035D000CF910895CF93DF93EC016B817C81636879
:1035E000716888810E94D10F698170E080E090E06D
:1035F0000E94361A88810E94A3172A81022E02C0D7
:10360000969587950A94E2F7222329F0811528E000
:10361000920708F0906FDF91CF9108950F931F9359
:10362000CF93DF9300D0CDB7DEB78C01FC01818949
:10363000882369F087E7898386858A8342E050E0A2
:10364000BE016F5F7F4F848595850E94CA1EF80179
:10365000118A0F900F90DF91CF911F910F910895D4
:103660000F931F93CF93DF9300D000D0CDB7DEB779
:1036700027E52B83FC0126852C8302E010E09E01C8
:103680002F5F3F4F42E050E0BE016D5F7F4F84856A
:1036900095850E94B51E898190E0982F88272A8100
:1036A000820F911D0F900F900F900F90DF91CF918F
:1036B0001F910F9108950F931F93CF93DF9300D025
:1036C0001F92CDB7DEB722E72983FC0126852A8326
:1036D00001E010E09E012D5F3F4F42E050E0BE014F
:1036E0006F5F7F4F848595850E94B51E81E09B8129
:1036F000913009F080E00F900F900F90DF91CF9103
:103700001F910F910895AF92BF92CF92DF92EF92E7
:10371000FF920F931F93CF93DF9300D01F92CDB7EB
:10372000DEB75C0182E58B83D5011F96ED91FC919C
:103730005097048115812081318182E0C82ED12CDF
:10374000FE0131967F0141E050E0BE016D5F7F4F89
:103750001C968D919C911D970E94620D8A81D501C6
:103760001E968C931E971F960D911C9150970115D4
:10377000110531F0C8010E94A018C8010E94402A1A
:10378000F501108A17868981811102C081E0818B41
:103790000F900F900F90DF91CF911F910F91FF909D
:1037A000EF90DF90CF90BF90AF9008950F931F934D
:1037B000CF93DF93EC018B0161EC72E08F859889E8
:1037C0000E943018F80144815581608171818F8594
:1037D0009889DF91CF911F910F910C94EF17CF92A1
:1037E000DF92EF92FF920F931F93CF93DF9300D05E
:1037F00000D000D0CDB7DEB78C016B0163EC72E076
:10380000CE0101960E944219C8010E940E1B86E05B
:1038100090E00E94AB297C01BE016F5F7F4F0E9448
:103820003919F801F08AE786CE0101960E94A018A6
:103830006CEC72E0CE0101960E944219BE016F5FEE
:103840007F4FC8010E94D61BCE0101960E94A0188E
:10385000B601C8010E94D61BC8010E94831BC80183
:103860000E945B1B882339F064E670E080E090E002
:103870000E94361AF4CFC8010E94301B26960FB65C
:10388000F894DEBF0FBECDBFDF91CF911F910F9196
:10389000FF90EF90DF90CF900895EF92FF920F93FB
:1038A0001F93CF93DF9300D01F92CDB7DEB7FC01FB
:1038B0002289211118C07C01138A8FE4898380E456
:1038C0008B8386858A839F012C5E3F4F00E410E046
:1038D00043E050E0BE016F5F7F4F848595850E9475
:1038E000B51EF701828B0F900F900F90DF91CF9153
:1038F0001F910F91FF90EF900895CF93DF93EC010C
:103900000E944D1C8A89882331F08B89C80FD11DF4
:103910008C8990E002C08FEF9FEFDF91CF910895E7
:10392000CF93DF93EC010E944D1C8A89882359F0C4
:1039300081508A8B8B8991E0980F9B8BC80FD11D8A
:103940008C8990E002C08FEF9FEFDF91CF910895B7
:10395000CF93DF93EC010E944D1C8A8990E0DF91A8
:10396000CF910895CF93DF93EC018A89811108C02C
:103970008D899E89009711F00E94402A81E08A8BF0
:1039800088899989009721F00E94402A198A188A0B
:10399000DF91CF910895EF92FF920F931F93CF93F2
:1039A000DF9300D0CDB7DEB7FC012685211115C00D
:1039B0007C01178680E7898380E28A8320893189A8
:1039C00000E210E042E050E0BE016F5F7F4F84856F
:1039D00095850E94B51EF70186870F900F90DF91A5
:1039E000CF911F910F91FF90EF900895CF93DF93A8
:1039F000EC010E94CB1C8E85882341F08F85E889DD
:103A0000F989E80FF11D808190E002C08FEF9FEFF0
:103A1000DF91CF910895CF93DF93EC010E94CB1CEF
:103A20008E85882369F081508E87E889F9898F8592
:103A300091E0980F9F87E80FF11D808190E002C010
:103A40008FEF9FEFDF91CF91089585ED8093BC00BC
:103A50008091BC0084FDFCCF1092810308954091B9
:103A60007605262F30E0240F311D21323105DCF49C
:103A7000209181032430C9F4FC0180E090E0861796
:103A800058F4309176052191DC01AC5ABA4FA30F5E
:103A9000B11D2C930196F3CF80917605680F60934A
:103AA000760580E0089581E0089582E00895089504
:103AB000E091160380911503E81730F4F0E0E55C1F
:103AC000FC4F808190E008958FEF9FEF08959091D3
:103AD000160380911503981750F4E92FF0E0E55C88
:103AE000FC4F208130E09F5F9093160302C02FEFC0
:103AF0003FEFC90108958091150390E020911603CE
:103B0000821B91090895CF92DF92EF92FF920F935B
:103B10001F93CF93DF937C01262F972F8A018091EB
:103B20001703882391F0C62FD72F6E01C40ED51E20
:103B3000CC15DD0571F06991D701ED91FC910190F3
:103B4000F081E02DC7010995F3CF642F822F0E94E9
:103B50002F1DC801DF91CF911F910F91FF90EF9022
:103B6000DF90CF900895CF93DF931F92CDB7DEB74C
:103B70006983209117032223D1F020913A03203248
:103B800040F021E030E0FC013383228380E090E0CC
:103B900015C080911803E82FF0E0E75EFC4F998193
:103BA00090838F5F8093180380933A0305C061E090
:103BB000CE0101960E942F1D81E090E00F90DF91D1
:103BC000CF910895CF93DF93EC010E94CB1C8E859B
:103BD00090E0DF91CF9108958F929F92AF92BF9224
:103BE000CF92DF92EF92FF920F931F93CF93DF93C9
:103BF0001F92CDB7DEB75C019B014A01DC015296F2
:103C00008C91811105C07B018B01040F151F31C000
:103C100080E58983C12CD12CE12CF12C8A0141E073
:103C200050E0BE016F5F7F4FF501848595850E944E
:103C3000620D22C0D5015596ED91FC915697539691
:103C40008C91539791E0980F53969C93D7019D9137
:103C50007D01E80FF11D9083F50193898489981304
:103C600008C00190F081E02D0680F781E02DC501AC
:103C70000995E016F106F1F6C4010F90DF91CF919E
:103C80001F910F91FF90EF90DF90CF90BF90AF907A
:103C90009F908F900895CF93DF93EC018D819E814B
:103CA000DC01ED91FC910084F185E02D0995181659
:103CB000190654F48D819E81DC01ED91FC91028402
:103CC000F385E02D0995EACFDF91CF9108958F928A
:103CD0009F92AF92BF92CF92DF92EF92FF92CF93DB
:103CE000DF93EC016B010E94701A4B015C01E12C27
:103CF000F12C8D819E81DC01ED91FC910284F38594
:103D0000E02D099597FF0FC00E94701ADC01CB01CE
:103D100088199909AA09BB098C159D05AE05BF052F
:103D200040F38FEF9FEFDF91CF91FF90EF90DF9007
:103D3000CF90BF90AF909F908F900895FC0123810A
:103D400034812627022E2295207F2025032E322F14
:103D500022952F700226269532272327220F220F25
:103D6000220F2025348323830895CF92DF92EF9290
:103D7000FF920F931F936801790100E010E020E0AB
:103D800030E00E94620D1F910F91FF90EF90DF9045
:103D9000CF9008950F931F9300E010E020E030E0F3
:103DA0000E94B51E1F910F910895CF93DF93FC01E0
:103DB000228921110BC0EC01438950E06589768985
:103DC000848595850E94CA1E81E08B8BDF91CF91FF
:103DD0000895CF93DF9300D0CDB7DEB7DC015296C4
:103DE0008C915297882379F080E589836A8342E039
:103DF00050E0BE016F5F7F4F1C968D919C911D9787
:103E00000E94CA1E1FC05596ED91FC91569753967D
:103E10008C91539791E0980F53969C935397E80F8A
:103E2000F11D608353969C91539754968C915497AF
:103E3000981308C0ED91FC9111970680F781E02D51
:103E4000CD01099581E090E00F900F90DF91CF9127
:103E50000895BF92CF92DF92EF92FF920F931F933C
:103E6000CF93DF93CDB7DEB72E970FB6F894DEBFB2
:103E70000FBECDBF7C01C7010E944B1E68EE73E0F0
:103E800080E090E00E94361AD70115968D919C91A2
:103E90001697DC01ED91FC910084F185E02D0995E8
:103EA0001816190644F385E0D82ECC24C39492E367
:103EB000B92EEDEAF1E0DE0111968D2D01900D9203
:103EC0008A95E1F7F701C08645E050E0BE016F5FDB
:103ED0007F4FC7010E94CA1ED70115968D919C91F4
:103EE0001697DC01ED91FC910190F081E02D63E0EB
:103EF00009956AEF70E080E090E00E94361A6FE763
:103F000075E0F701858196810E9457196AEF70E08C
:103F100080E090E00E94361A6DE775E0D7011596B3
:103F20008D919C9116970E94571964EF71E080E083
:103F300090E00E94361A61E775E0F701858196816D
:103F40000E94571964EF71E080E090E00E94361AF9
:103F5000C7010E944B1EE2EBF1E0DE0116968D2DAB
:103F600001900D928A95E1F7D7011896BC9204E072
:103F700010E09E01255F3F4F45E050E0BE016A5FC3
:103F80007F4FC7010E94B51E8F3FBFEF9B0739F4DB
:103F900068EE73E080E090E00E94361A8ACF2B85AD
:103FA0002111FFCF049701F52C8530E02053310912
:103FB00084E6829FA001839F500D11242D8530E05F
:103FC000205331096AE0629FC001639F900D112464
:103FD000840F951F2E8530E020533109820F931FE7
:103FE000F7019283818307C084E690E0D70112969F
:103FF0009C938E93119782E3F70180872E960FB6DC
:10400000F894DEBF0FBECDBFDF91CF911F910F910E
:10401000FF90EF90DF90CF90BF9008951F920F9286
:104020000FB60F9211242F933F934F935F936F938B
:104030007F938F939F93AF93BF93EF93FF93809161
:10404000B900887F803609F49CC068F5883209F48D
:104050005BC090F4803109F454C038F4882309F42B
:10406000F6C0883009F44DC0F6C0883109F44CC060
:10407000803209F45DC0EFC0803409F468C048F4B0
:10408000803309F455C0883309F0E5C080937F037D
:10409000D8C0803509F44FC0883509F45DC0883434
:1040A00009F0D9C0D6C0883909F4C7C0A8F4883748
:1040B00009F467C038F4883609F463C0803709F41E
:1040C00060C0C9C0883809F4B8C0803909F45FC03D
:1040D000803809F0C0C05BC0803B09F486C038F46A
:1040E000803A09F466C0883A09F47FC0B4C0803CC5
:1040F00009F4A7C0883C09F4A4C0883B09F48AC02D
:10410000AAC080917C0310C090917E0380917D03B2
:10411000981770F5E0917E0381E08E0F80937E0307
:10412000F0E0E55AFC4F80818093BB0085EC86C0AF
:1041300080937F038EC0E0917E0381E08E0F809399
:104140007E038091BB00F0E0E55AFC4F80839091A4
:104150007E0380917D036EC0E0917E0381E08E0F2F
:1041600080937E038091BB00F0E0E55AFC4F808392
:104170008091800381116DC081E080937B0384EA8C
:1041800061C083E08093810310929A05CFCF809124
:104190009A05803208F051C0E0919A0581E08E0FB7
:1041A00080939A058091BB00F0E0E658FA4F808337
:1041B000BDCF85EC8093BC001092810380919A055D
:1041C000803230F4E0919A05F0E0E658FA4F108220
:1041D00060919A0570E0E0917805F09179058AE7A1
:1041E00095E0099510929A0536C084E0809381038A
:1041F0001092770510927605E0917405F09175059F
:10420000099580917605811105C081E0809376053E
:1042100010925405E091770581E08E0F8093770529
:10422000F0E0EC5AFA4F80818093BB0090917705C3
:1042300080917605981708F479CF85E88093BC00C3
:104240000AC085EC8093BC001092810304C01092D8
:104250007F030E94251DFF91EF91BF91AF919F9128
:104260008F917F916F915F914F913F912F910F901F
:104270000FBE0F901F9018958BE294E00E94A0183B
:1042800081E394E00E94A01887E394E00E94A018C4
:1042900086E891E0909349048093480488E494E090
:1042A0000E940E1B8DE395E00E94A0188CE994E01B
:1042B0000E94A01882EA94E00E94A01888EA94E084
:1042C0000E94A0188EEA94E00E94A01884EB94E06B
:1042D0000E94A0188AEB94E00E94A01888E991E05F
:1042E0009093CB048093CA048AEC94E00C94B21CA3
:1042F000CF92DF92EF92FF92CF93DF93EDEEF4E057
:104300001382128288EEC82E83E0D82EE12CF12C85
:10431000C482D582E682F78282E391E09183808332
:104320008FEF9FEF95878487E2E8F3E01382128294
:10433000C482D582E682F78284E491E0918380830F
:104340008DEC90E0958784878CEC90E0978786874A
:1043500088EC90E0918B808B89EC90E0938B828B42
:104360008AEC90E0958B848B8EEC90E0978B868B1B
:10437000118E128E138E148EAAECB4E013961C923A
:104380001E9212971496CD92DD92ED92FC921797A1
:1043900088E991E011969C938E93CDE3D4E01D962D
:1043A000DC93CE931C971E961C921E971F961C9210
:1043B0001F9751961C921E92509781E052968C93B3
:1043C0001882FE83ED831F821886FA87E987EFE162
:1043D000F4E013821282C482D582E682F78286E5F7
:1043E00091E091838083E5ECF4E088E4808314829B
:1043F000138288E081831282E0ECF4E0148213825D
:1044000099E490838183128267E672E08AEB94E0FC
:104410000E94421966E772E084EB94E00E94421920
:1044200067E872E08EEA94E00E94421966E972E061
:1044300088EA94E00E94421964EA72E082EA94E019
:104440000E94421962EB72E08CE994E00E944219EA
:1044500069EF71E08DE395E00E944219E8E4F4E031
:1044600013821282C482D582E682F78286E891E0C6
:1044700091838083D587C487118A128A138A69EF52
:1044800071E087E394E00E94421969EF71E081E3F3
:1044900094E00E94421969EF71E08BE294E0DF91B1
:1044A000CF91FF90EF90DF90CF900C944219CF9373
:1044B000DF93CDB7DEB72C970FB6F894DEBF0FBEF3
:1044C000CDBF789484B5826084BD84B5816084BD9D
:1044D00085B5826085BD85B5816085BD80916E00A2
:1044E000816080936E0010928100809181008260D3
:1044F0008093810080918100816080938100809110
:104500008000816080938000809191008260809320
:104510009100809191008160809391008091900042
:104520008160809390008091C10084608093C1007D
:104530008091C10082608093C1008091C100816040
:104540008093C1008091C30081608093C3008091FB
:10455000C00082608093C0008091C200816080931F
:10456000C20080917A00846080937A0080917A0002
:10457000826080937A0080917A00816080937A00D3
:1045800080917A00806880937A00109214031092D0
:104590004A05109212038091D70081608093D70062
:1045A00080EA8093D80089B5806189BD89B5826031
:1045B00089BD09B400FEFDCF61E070E080E090E0CD
:1045C0000E94361A8091D8008F7C80618093D80039
:1045D0008091E000807F8093E0008091E1008E7EFA
:1045E0008093E1008DE08093E200559A209AEEEFEF
:1045F000FFE7859194918B3F9C4D19F481E0809366
:104600004905E0EDF4E02491E1EBF4E084918823A6
:1046100099F090E0880F991FFC01EA56FB4FA59195
:10462000B491FC01E857FB4F859194918FB7F894B2
:10463000EC91E22BEC938FBF0CE211E00E9453054A
:1046400001501109D9F760ED77E080E090E00E9419
:10465000361AE0919203F091930382E08083E09117
:104660008E03F0918F031082E0919003F0919103FB
:1046700080E1808310929A03E0919603F091970372
:1046800086E08083E0919403F091950380818061BE
:104690008083E0919403F09195038081886080830A
:1046A000E0919403F0919503808180688083E0918C
:1046B0009403F091950380818F7D808382E893E05D
:1046C0000E94AC16181619062CF482E893E00E949A
:1046D0008A16F4CF68EE73E080E090E00E94361A0C
:1046E00082E893E00E94AC16181619063CF30E946B
:1046F0008310E0914604F0914704A089B18982E0DB
:104700008C93A485B5851C92A685B78587E08C938C
:10471000108EA489B58986E08C93A289B3898C9187
:1047200080618C93A289B3898C9188608C93A289D3
:10473000B3898C9180688C930288F389E02D808105
:104740008F7D808380914404811107C081E0809334
:1047500044048DE394E00E94291F8091D604909137
:10476000D704FC012781211104C021E027830E9486
:10477000291F8AEC94E00E94B21C80E290E00E9423
:10478000AB299093DB048093DA0400E012E01093ED
:10479000C9040093C8040E9483101093C4040093BA
:1047A000C3040E94831060914305709144054AE060
:1047B000CE0101960E94D5186EEB71E0CE010796EE
:1047C0000E94421969817A818F8198850E94EC0E3E
:1047D000CE0107960E94A018CE0101960E94A01853
:1047E00061EE71E0CE0101960E94421966E272E02C
:1047F000CE0107960E94421969817A818F8198853E
:104800000E94EC0ECE0107960E94A018CE010196E0
:104810000E94A0180E9461090E944C17FBCFEF92E2
:104820000F931F93CF93DF93E80147FD02C034E05D
:1048300001C034E1E42F440FFF0BF7FF03C0F195F3
:10484000E195F109E32E022F2E2FAE010E94AB2439
:10485000CE01DF91CF911F910F91EF9008951F939B
:10486000FC0199278827BC01E89411911032E9F3E3
:10487000193010F01E30C8F31B3251F01D3249F4CC
:10488000689406C00E947C24610F711D811D911DDA
:10489000119110531A30B0F33EF4909580957095B5
:1048A00061957F4F8F4F9F4F1F910895FB01DC0152
:1048B00005900D920020E1F70895FC01059000207D
:1048C000E9F7809590958E0F9F1F08954532510509
:1048D00020F4423010F00C947124FB011082CB01C3
:1048E0000895BB274A3031F4992322F4BDE2909514
:1048F00081959F4F0C949224592F482F372F262FA4
:10490000660F771F881F991F660F771F881F991FD3
:10491000620F731F841F951F660F771F881F991FD3
:104920000895BB27FB015527AA27880F991FAA1FA7
:10493000A41710F0A41B83955051B9F7A05DAA33BA
:1049400008F0A95DA193009779F7B111B193119285
:10495000CB010C9411274F925F926F927F929F929E
:10496000AF92BF92CF92DF92EF92FF920F931F937D
:10497000CF93DF93CDB7DEB729970FB6F894DEBF9C
:104980000FBECDBF6A01122FB02E2BE3201720F0EF
:10499000FF24F394F00E02C0BCE3FB2E0F2D27E0A2
:1049A000AE014F5F5F4F0E943926AC018981982F7D
:1049B0009970913031F0E1FC06C0E0FE06C090E253
:1049C00005C09DE203C09BE201C090E0EE2DE071C6
:1049D00083FF3CC0911102C083E001C084E08117D5
:1049E00018F4212F281B01C020E0E1110BC0F601B3
:1049F000822F30E2882319F031938150FBCFC20E11
:104A0000D11C20E0992329F0D6019C93F601319620
:104A10006F01C6010396E2FE0AC03EE4D6013C9354
:104A200041E411964C93119712963C9306C03EE6D2
:104A3000F601308341E641833283FC01322F40E2AC
:104A4000332309F442C041933150FACF82FF44C06E
:104A5000911102C083E001C084E0811718F4212F76
:104A6000281B01C020E0E1110BC0F601822F30E2CB
:104A7000882319F031938150FBCFC20ED11C20E066
:104A8000992329F0D6019C93F60131966F01C60156
:104A90000396E2FE0BC039E4D6013C933EE4119646
:104AA0003C93119736E412963C9307C039E6F60121
:104AB00030833EE6318336E63283FC01322F40E21A
:104AC000332319F041933150FBCFFC01E20FF11D6C
:104AD00010828EEF9FEFB7C0F1E0911101C0F0E0BE
:104AE0006F2F70E01416150624F49A012F5F3F4FC4
:104AF00002C021E030E0260F371FBB2029F06B2DCC
:104B000070E06F5F7F4F02C060E070E0260F371FDC
:104B1000612F70E0261737071CF4121B212F01C0EC
:104B200020E03E2D387159F4D601322F60E2332354
:104B300019F06D933150FBCFC20ED11C20E0FF2342
:104B400031F0D6019C93B6016F5F7F4F6B01E1118D
:104B50000BC0F601922F30E3992319F03193915055
:104B6000FBCFC20ED11C20E09F2D940F3A81782FED
:104B70007071A72E84FF03C0313309F491501916C8
:104B800024F4993018F098E001C091E0E42F852FCB
:104B900057FF02C0E0E080E06E2F782FE0E0F0E009
:104BA000AEE29A2E3A01691A71082A01461A570A8A
:104BB0000B2D10E01195019511096F3F8FEF7807CC
:104BC00029F4D6019C92C60101966C01461757073D
:104BD00084F0661677066CF47F01E40CF51CA1E006
:104BE000B0E0AC0FBD1FEA0EFB1ED7011196BC90C2
:104BF00002C090E3B92E615071093196C601019649
:104C00007C016017710724F0D601BC926C01D5CFEE
:104C10006417750741F4363320F4353321F4A110BD
:104C200002C081E3B82EF601B082F701822F90E234
:104C3000882319F091938150FBCFF701E20FF11D0A
:104C4000108280E090E029960FB6F894DEBF0FBE88
:104C5000CDBFDF91CF911F910F91FF90EF90DF902B
:104C6000CF90BF90AF909F907F906F905F904F904C
:104C70000895283008F027E03327DA01990F311D15
:104C800087FD916000966105710539F432602E5FF1
:104C90003D9330E32A95E1F708959F3F30F0803847
:104CA0007105610509F03C5F3C5F3D93913008F070
:104CB0008068911DDF93CF931F930F93FF92EF9224
:104CC000192F987F9695E92F96959695E90FFF27CE
:104CD000EC5AFE4F99273327EE24FF24A701E70162
:104CE00005900894079428F4360FE71EF81E491F14
:104CF000511D660F771F881F991F0694A1F7059015
:104D0000079428F4E70EF81E491F561FC11D770FA0
:104D1000881F991F661F0694A1F70590079428F431
:104D2000F80E491F561FC71FD11D880F991F661FF8
:104D3000771F0694A1F70590079420F4490F561F9A
:104D4000C71FD81F990F661F771F881F0694A9F7E2
:104D500084911095177041F0D695C7955795479552
:104D6000F794E7941A95C1F7EAEFF0E0689415908C
:104D7000159135916591959105907FE27395E118B4
:104D8000F10A430B560BC90BD009C0F7E10CF11E19
:104D9000431F561FC91FD01D7EF4703311F48A952E
:104DA000E6CFE894015030F0080F0AF4002702170C
:104DB00008F4202F2395022F7A3328F079E37D938E
:104DC0002A95E9F710C07D932A9589F60694979560
:104DD0006795379517951794E118F10A430B560B11
:104DE000C90BD00998F023957E9173957A3308F01A
:104DF00070E37C932013B8F77E9170617D9330F05F
:104E0000839571E37D9370E32A95E1F71124EF9088
:104E1000FF900F911F91CF91DF91992787FD90957A
:104E20000895DC01FC01672F71917723E1F7329738
:104E300004C07C916D9370836291AE17BF07C8F375
:104E400008950E94632708F481E00895E89409C05A
:104E500097FB3EF490958095709561957F4F8F4FAD
:104E60009F4F9923A9F0F92F96E9BB279395F695C3
:104E7000879577956795B795F111F8CFFAF4BB0F41
:104E800011F460FF1BC06F5F7F4F8F4F9F4F16C0A5
:104E9000882311F096E911C0772321F09EE8872F2F
:104EA000762F05C0662371F096E8862F70E060E0EB
:104EB0002AF09A95660F771F881FDAF7880F969564
:104EC000879597F90895990F0008550FAA0BE0E808
:104ED000FEEF16161706E807F907C0F012161306BC
:104EE000E407F50798F0621B730B840B950B39F4FC
:104EF0000A2661F0232B242B252B21F408950A2662
:104F000009F4A140A6958FEF811D811D08950E948F
:104F10009A270C940B280E94FD2738F00E94042841
:104F200020F0952311F00C94F4270C94FA27112407
:104F30000C943F280E941C2870F3959FC1F3950F95
:104F400050E0551F629FF001729FBB27F00DB11D0D
:104F5000639FAA27F00DB11DAA1F649F6627B00D9D
:104F6000A11D661F829F2227B00DA11D621F739F86
:104F7000B00DA11D621F839FA00D611D221F749F94
:104F80003327A00D611D231F849F600D211D822FDB
:104F9000762F6A2F11249F5750409AF0F1F0882302
:104FA0004AF0EE0FFF1FBB1F661F771F881F91502F
:104FB0005040A9F79E3F510580F00C94F4270C94C3
:104FC0003F285F3FE4F3983ED4F386957795679545
:104FD000B795F795E7959F5FC1F7FE2B880F911D59
:104FE0009695879597F9089597F99F6780E870E0FF
:104FF00060E008959FEF80EC089500240A9416164F
:10500000170618060906089500240A9412161306B6
:10501000140605060895092E0394000C11F4882344
:1050200052F0BB0F40F4BF2B11F460FF04C06F5F60
:105030007F4F8F4F9F4F089557FD9058440F551F36
:1050400059F05F3F71F04795880F97FB991F61F00A
:105050009F3F79F087950895121613061406551F81
:10506000F2CF4695F1DF08C0161617061806991FED
:10507000F1CF86957105610508940895E894BB27E2
:1050800066277727CB0197F908952F923F924F9289
:105090005F926F927F928F929F92AF92BF92CF92C8
:1050A000DF92EF92FF920F931F93CF93DF93CDB7D1
:1050B000DEB7CA1BDB0B0FB6F894DEBF0FBECDBF49
:1050C00009942A88398848885F846E847D848C841A
:1050D0009B84AA84B984C884DF80EE80FD800C8123
:1050E0001B81AA81B981CE0FD11D0FB6F894DEBF06
:1050F0000FBECDBFED0108955058BB27AA270E94CF
:1051000094280C940B280E94FD2738F00E94042854
:1051100020F039F49F3F19F426F40C94FA270EF48A
:10512000E095E7FB0C94F427E92F0E941C2858F324
:10513000BA17620773078407950720F079F4A6F57C
:105140000C943E280EF4E0950B2EBA2FA02D0B01E7
:10515000B90190010C01CA01A0011124FF27591BBC
:1051600099F0593F50F4503E68F11A16F040A22FC2
:10517000232F342F4427585FF3CF46953795279533
:10518000A795F0405395C9F77EF41F16BA0B620B32
:10519000730B840BBAF09150A1F0FF0FBB1F661F79
:1051A000771F881FC2F70EC0BA0F621F731F841FBC
:1051B00048F4879577956795B795F7959E3F08F0E2
:1051C000B0CF9395880F08F09927EE0F97958795A4
:1051D00008950E94FD280C940B280E94042858F082
:1051E0000E94FD2740F029F45F3F29F00C94F4273A
:1051F00051110C943F280C94FA270E941C2868F344
:105200009923B1F3552391F3951B550BBB27AA277F
:1052100062177307840738F09F5F5F4F220F331FB9
:10522000441FAA1FA9F335D00E2E3AF0E0E832D081
:1052300091505040E695001CCAF72BD0FE2F29D084
:10524000660F771F881FBB1F261737074807AB0756
:10525000B0E809F0BB0B802DBF01FF2793585F4FCB
:105260003AF09E3F510578F00C94F4270C943F28B7
:105270005F3FE4F3983ED4F3869577956795B795AD
:10528000F7959F5FC9F7880F911D9695879597F9B8
:105290000895E1E0660F771F881FBB1F6217730731
:1052A0008407BA0720F0621B730B840BBA0BEE1F46
:1052B00088F7E095089597FB072E16F4009407D021
:1052C00077FD09D00E94972907FC05D03EF4909500
:1052D00081959F4F0895709561957F4F0895A1E244
:1052E0001A2EAA1BBB1BFD010DC0AA1FBB1FEE1F60
:1052F000FF1FA217B307E407F50720F0A21BB30BAB
:10530000E40BF50B661F771F881F991F1A9469F726
:1053100060957095809590959B01AC01BD01CF0182
:105320000895EE0FFF1F0590F491E02D0994AA1B3C
:10533000BB1B51E107C0AA1FBB1FA617B70710F080
:10534000A61BB70B881F991F5A95A9F780959095B2
:10535000BC01CD010895CF93DF938230910510F405
:1053600082E090E0E0919D05F0919E0520E030E024
:10537000C0E0D0E0309711F14081518148175907C2
:10538000C0F04817590761F482819381209719F082
:105390009B838A832BC090939E0580939D0526C096
:1053A0002115310519F04217530718F49A01BE016F
:1053B000DF01EF010280F381E02DDCCF2115310503
:1053C00009F1281B390B2430310590F412968D9188
:1053D0009C9113976115710521F0FB0193838283E2
:1053E00004C090939E0580939D05FD01329644C0B4
:1053F000FD01E20FF31F81939193225031092D9308
:105400003C933AC020919B0530919C05232B41F49D
:10541000209126013091270130939C0520939B0514
:1054200020912401309125012115310541F42DB73A
:105430003EB74091280150912901241B350BE09182
:105440009B05F0919C05E217F307A0F42E1B3F0B80
:105450002817390778F0AC014E5F5F4F24173507E6
:1054600048F04E0F5F1F50939C0540939B0581931E
:10547000919302C0E0E0F0E0CF01DF91CF91089579
:105480000F931F93CF93DF93009709F48CC0FC0117
:1054900032971382128200919D0510919E0501158D
:1054A000110581F420813181820F931F20919B058A
:1054B00030919C052817390779F5F0939C05E09306
:1054C0009B0571C0D80140E050E0AE17BF0750F413
:1054D00012962D913C911397AD012115310509F1DB
:1054E000D901F3CF9D01DA01338322836081718179
:1054F000860F971F8217930769F4EC012881398181
:10550000260F371F2E5F3F4F318320838A819B8177
:1055100093838283452B29F4F0939E05E0939D05A8
:1055200042C01396FC93EE931297ED014991599165
:105530009E01240F351FE217F30771F480819181DA
:10554000840F951F029611969C938E93828193816E
:1055500013969C938E931297E0E0F0E0D801129698
:105560008D919C911397009719F0F8018C01F6CF5B
:105570008D919C9198012E5F3F4F820F931F209138
:105580009B0530919C052817390769F4309729F459
:1055900010929E0510929D0502C0138212821093F4
:1055A0009C0500939B05DF91CF911F910F9108956A
:1055B000A0E0B0E0EEEDFAE20C944928EC0100978F
:1055C00021F4CB010E94AB29B8C0FC01E60FF71F04
:1055D0009C0122503109E217F30708F4ACC0D9014D
:1055E0000D911C91119706171707B0F005301105A2
:1055F00008F49FC0C80104978617970708F499C05C
:1056000002501109061B170B019311936D937C93A4
:10561000CF010E94402A8DC05B01A01AB10A4C0143
:10562000800E911EA0919D05B0919E0540E050E036
:10563000E12CF12C109709F44AC0A815B905D1F551
:105640006D907C901197630182E0C80ED11CCA1442
:10565000DB0480F1A3014A195B096A0182E0C80EEC
:10566000D11C1296BC9012971396AC91B5E0CB1654
:10567000D10440F0B282A38351834083D9016D935A
:105680007C930AC00E5F1F4FC301800F911FF90169
:1056900091838083EB2DFA2FE114F10431F0D701CF
:1056A0001396FC93EE93129744C0F0939E05E093FB
:1056B0009D053FC08D919C9111974817590708F49B
:1056C000AC017D0112960D90BC91A02DB3CF8091BD
:1056D0009B0590919C0588159905E1F4461757079D
:1056E000C8F48091240190912501009741F48DB771
:1056F0009EB74091280150912901841B950BE81712
:10570000F907C8F4F0939C05E0939B05F9017183B8
:1057100060830FC0CB010E94AB297C01009759F038
:10572000A801BE010E94A72BCE010E94402AC701FA
:1057300004C0CE0102C080E090E0CDB7DEB7EEE05D
:105740000C94652881E090E0F8940C94DA2BFB012E
:10575000DC0102C001900D9241505040D8F70895ED
:10576000FB01DC018D91019080190110D9F3990B97
:105770000895FB01DC0101900D920020E1F70895EE
:10578000FB0151915523A9F0BF01DC014D91451753
:105790004111E1F759F4CD010190002049F04D91FC
:1057A00040154111C9F3FB014111EFCF81E090E0B9
:1057B0000197089512E0C2ECD2E004C0FE010E94FD
:0E57C00091292196C33CD107C9F7F894FFCF79
:1057CE0001000100010001000100010001000100C3
:1057DE00010001000100FFFF00E1000000000000D9
:1057EE00FFFFFFFF00009F05800020002200000049
:1057FE000000F6115D11D0120C121712D412F21213
:10580E0000000000E31650167B162A17AC168A16F7
:10581E009E1600000000B31D831DEE02571D7B1D5A
:10582E00671D581D0000000048135016EE02ED02D1
:10583E004813481348130000000048135016EE0298
:10584E00ED0200000000D2175016EE027B17A81CC6
:10585E00901C7D1C00000000E91EEC1DEE02D51E02
:10586E00E21D0B1DF61C00C1808100000058585827
:10587E00585858583130305B324A005B48006465E6
:10588E0076696365456D61696C0064617465002BB2
:10589E0025542C25412C25642C25422C2559003AC3
:1058AE000030007265696E69636961722061206300
:1058BE0065726F0A000D0A000900486F6F6B2000B9
:1058CE002057617474730020416D7073005048004E
:1058DE004100636C730071756974007265626F6F5D
:1058EE0074007265736574007363616E6E0064207C
:1058FE00283078006829006578697400656D6169E3
:10590E006C0073657276696365007265616C7469AB
:10591E006D65006163636573730064697361726DB5
:10592E00007068617365007C416363657373205317
:10593E00656E736F72007C4D61676E65746963206E
:10594E0053656E736F72007C44697361726D205380
:10595E00656E736F72007C50686173652053656E5F
:10596E00736F72007C4C696768742053656E736F39
:10597E0072007C4E6F7420646566696E65640044C7
:10598E0000FE002F62696E2F617368002D630000A8
:00000001FF
