:100000000C94CF020C94F7020C94F7020C94F702B4
:100010000C94F7020C94F7020C94F7020C94F7027C
:100020000C94F7020C94F7020C94E91B0C945B1CE3
:100030000C94F7020C94F7020C94F7020C94F7025C
:100040000C94F7020C94F7020C94F7020C94F7024C
:100050000C94F7020C94F7020C94F7020C946B0FBB
:100060000C94F7020C94D1180C94AB180C94F70272
:100070000C94F7020C94F7020C94F7020C94F7021C
:100080000C94F7020C94F7020C94F7020C94F7020C
:100090000C94FE130C94F7020C94F7020C94F702E4
:1000A0000C94F7020C94F7020C94F7025A0B5D0BB8
:1000B000600B600B600B600B600B600B6D0B700BCB
:1000C000730B730B730B730B730B730B810B810B24
:1000D000840B840B840B840B840B840B2E19311935
:1000E0002019241928195219521952193519391978
:1000F0003D194319471952194D1900407A10F35A06
:1001000000A0724E18090010A5D4E80000E8764857
:10011000170000E40B54020000CA9A3B000000E103
:10012000F505000080969800000040420F00000096
:10013000A08601000000102700000000E803000076
:1001400000006400000000000A0000000000010040
:10015000000000002C76D888DC674F0823DFC1DF61
:10016000AE59E1B1B796E5E3E453C63AE651997664
:1001700096E8E6C28426EB898C9B62ED407C6FFC9E
:10018000EFBC9C9F40F2BAA56FA5F490055A2AF7E0
:100190005C936B6CF9676DC11BFCE0E40D47FEF5E9
:1001A00020E6B500D0ED902E030094357705008051
:1001B000841E080000204E0A000000C80C333333B0
:1001C000330F986E12831141EF8D2114893BE65550
:1001D00016CFFEE6DB18D1844B381BF77C1D901D33
:1001E000A4BBE424203284725E228100C9F124EC95
:1001F000A1E53D275265666572656E6369612030D1
:100200002C302C3130302C3130302E2E2E2E2E2E04
:1002100000436F6E736F6C612E2E2E2E2E2E2E2E9F
:100220002E2E2E2E2E2E2E2E2E2E2E2E003D3D3DEF
:100230003D3D3D3D3D3D3D3D3D3D3D3D3D3D3D3DEE
:100240003D3D3D3D3D3D3D3D3D3D3D3D3D3D3D0A11
:100250000056414C554520000A0023003D3D3D3DE0
:100260003D3D3D3D3D3D3D3D3D3D3D3D3D3D3D3DBE
:100270003D3D3D3D3D3D3D3D3D3D3D3D3D3D0A001E
:100280000A003D3D3D3D3D3D3D3D3D3D3D3D3D3D0E
:100290003D3D3D3D3D3D3D3D3D3D3D3D3D3D3D3D8E
:1002A0003D3D3D3D0A000A000A20506F7374204412
:1002B000617461204D7953514C2E2E2E0A007079B5
:1002C00074686F6E202F726F6F742F706F73744429
:1002D0006174612E707900707974686F6E202F726E
:1002E0006F6F742F736572766963652E7079000A7B
:1002F0002053656E7420456D61696C2066726F6D68
:1003000020507974686F6E2E2E2E0A0070797468F2
:100310006F6E202F726F6F742F69665F6D61696CED
:100320002E707900206465766963652873292E0034
:10033000466F756E642000446F6E652E00466F75C3
:100340006E64206932632044657669636520416488
:1003500064726573733A20004932432041646472C9
:10036000657373205363616E6E65722E200A53634A
:10037000616E6E696E67202E2E2E2E2E2E2E2E2E44
:100380002E2E002E000A006D696E75746F730A00C0
:10039000496E74726F64757A6361206C6F73206D3F
:1003A000696E75746F732064652073657276696316
:1003B000696F0A003D3D3D3D3D3D3D3D3D3D3D3D7F
:1003C0003D3D3D3D3D3D3D3D3D3D3D3D3D3D3D3D5D
:1003D0003D3D3D3D3D3D0A002020202020202020A5
:1003E00020507265737320456E74657220746F209F
:1003F000457869740A0020202020202020202053E6
:100400006572766963652054696D650A003D3D3DFE
:100410003D3D3D3D3D3D3D3D3D3D3D3D3D3D3D3D0C
:100420003D3D3D3D3D3D3D3D3D3D3D3D3D3D3D0A2F
:100430000072657365742D6D6375007265626F6F10
:1004400074003D3D3D3D3D3D3D3D3D3D3D3D3D3DE2
:100450003D3D3D3D3D3D3D3D3D3D3D3D3D3D3D3DCC
:100460003D3D3D3D0A00436F6E736F6C61206465D6
:1004700020536572766963696F003D3D3D3D3D3DAA
:100480003D3D3D3D3D3D3D3D3D3D3D3D3D3D3D3D9C
:100490003D3D3D3D3D3D3D3D3D3D3D3D0A002E0048
:1004A00072756E2D6272696467650A000A000A003F
:1004B0000000000200090F0000030401000C00000E
:1004C000000000000000000000000000000000002C
:1004D000000000250028002B002E00310000000045
:1004E00000240027002A002D003000040404040426
:1004F00003040502020202040302020202060606C7
:100500000606060404020202040404080201104064
:10051000804010204080408008020401804020106C
:10052000020110801020404020080B00020202014E
:10053000000904000001020200000524001001056A
:100540002401010104240206052406000107058197
:100550000310004009040100020A00000007050220
:100560000240000007058302400000040309041252
:10057000010002EF0201404123418000010102031A
:100580000141726475696E6F204C4C430041726486
:1005900075696E6F2059756E0000D423982311245D
:1005A0001FBECFEFDAE0DEBFCDBF25E0A4EFB2E0A3
:1005B00001C01D92A33CB207E1F712E0A0E0B1E058
:1005C000E6E1F9E502C005900D92A43FB107D9F725
:1005D00012E0CEECD2E004C02197FE010E94352A41
:1005E000CD3CD107C9F70E9419220C947E2C0C94A3
:1005F0000000089580E090E008956BE182E595E0C9
:100600000E94D91287EB91E00C94CA216BE182E53C
:1006100095E00E94D9128BEB91E00C94CA216BE11A
:1006200082E595E00E94D91287EB91E00E94CA21F1
:100630006BE182E595E00E94D9128BEB91E00E947C
:10064000CA2181E192E00E94592184EF91E00C944B
:1006500059210F931F93CF93DF93CDB7DEB7CA55C0
:10066000D1090FB6F894DEBF0FBECDBF60918503F0
:10067000709186034AE0CE018B5A9F4F0E94BF17AC
:100680006EEB71E0CE0101960E942C1867966EAD5C
:100690007FAD679789819A810E943520CE010196AE
:1006A0000E948A17CE018B5A9F4F0E948A171C8284
:1006B0001B8288EE93E0A0E0B0E08D839E83AF8341
:1006C000B88707E911E01A83098385EC94E09E87D7
:1006D0008D871A8A1B8A1C8A6CE073E0CE018B5AC4
:1006E0009F4F0E94EB17BE016B5A7F4FCE010196C0
:1006F0000E944A12CE018B5A9F4F0E948A176FEEBA
:1007000072E082E595E00E9487181A830983CE0182
:1007100001960E942812C65ADF4F0FB6F894DEBF2A
:100720000FBECDBFDF91CF911F910F910895E09142
:100730001903F0911A03EE0FFF1FE050FF4F808165
:100740009181019711F40E942903E0911903F0911E
:100750001A03EE0FFF1FE050FF4F808191818A3016
:10076000910561F481E090E0918380838AEC91E0CF
:100770000E9441218CED91E00C94412101969183DE
:10078000808308956F927F928F929F92AF92BF92D3
:10079000CF92DF92EF92FF920F931F93CF93DF934D
:1007A000CDB7DEB768970FB6F894DEBF0FBECDBFEA
:1007B00080ED94E00E942C118111CBC06FED71E0AF
:1007C000CE0101960E942C1880ED94E00E94281220
:1007D00086E090E00E944F2A8C01BE016F5F7F4F40
:1007E0000E9423181093E0040093DF04CE010196C9
:1007F0000E948A1764EE71E0CE0101960E942C18C7
:10080000BE016F5F7F4F80ED94E00E945010CE01DB
:1008100001960E948A1780ED94E00E94FD0F80ED02
:1008200094E00E942C11882339F064E670E080E0A7
:1008300090E00E946619F3CF80ED94E00E940111D0
:1008400088C0CE0143960E94AB2164EF71E0CE01D7
:1008500001960E942C188F89988D892B09F492C0DB
:100860000B891C8969817A81C8010E94642C0097D8
:1008700009F488C07C01E01AF10ACE0101960E94B9
:100880008A1764EF71E0CE0101960E942C188F89BF
:10089000988D2D813E818C01021B130B2115310592
:1008A00009F074C00FEF1FEFCE0101960E948A1766
:1008B000970140E050E0BE016D5E7F4FCE010D9686
:1008C0000E944118A7014F5F5F4F9801BE016D5E06
:1008D0007F4FCE0107960E9441182F89388DA801BD
:1008E0004F5F5F4FBE016D5E7F4FCE0101960E944C
:1008F0004118CE010D960E94BB1670932E03609393
:100900002D03CE0107960E94BB1670932C036093B3
:100910002B038091290390912A03909317018093D0
:100920001601CE0101960E94BB1670932A036093B4
:100930002903CE0101960E948A17CE0107960E94D4
:100940008A17CE010D960E948A17CE0143960E9407
:100950008A1780ED94E00E9454118091E20488236C
:1009600009F440C069EF71E0CE0143960E942C1853
:100970000E94AF1B97FD65CF682FCE0143960E9462
:10098000F416F6CFEE24EA94FE2C77CF009709F404
:1009900089CF8217930708F485CF0817190718F035
:1009A0008C01015011098B889C88A980BA80C401F0
:1009B00066246A9477247A946401C00ED11EC81606
:1009C000D90670F0B5010E94642C009749F09C0193
:1009D000281939090217130708F039010196EFCFDA
:1009E000830162CF20911601309117018091290374
:1009F00090912A032817390709F44CC080912D03E0
:100A000090912E030A9724F486EF91E00E94CA2168
:100A100060912D0370912E03072E000C880B990B0B
:100A200097FF03C00E94F22103C04AE00E946A219E
:100A300084EF91E00E94CA2180912B0390912C03B6
:100A40000A9724F486EF91E00E94CA2160912B035B
:100A500070912C03072E000C880B990B97FF03C095
:100A60000E94F22103C04AE00E946A2184EF91E0D3
:100A70000E94CA218091290390912A030A9724F4A5
:100A800086EF91E00E94CA218091290390912A0368
:100A90000E94971B68960FB6F894DEBF0FBECDBFBD
:100AA000DF91CF911F910F91FF90EF90DF90CF904A
:100AB000BF90AF909F908F907F906F90089561E06E
:100AC0008DE00E94031964E670E080E090E00E94EF
:100AD000661960E08DE00E94031964E670E080E032
:100AE00090E00C9466194F925F926F927F928F9272
:100AF0009F92AF92BF92CF92DF92EF92FF920F93AD
:100B00001F93CF93DF93CDB7DEB768970FB6F894F6
:100B1000DEBF0FBECDBF66EA72E0CE010D960E9429
:100B2000EB176FEB74E0CE0101960E942318BE0113
:100B30006F5F7F4FCE0107960E942318BE01635F4F
:100B40007F4FCE0107960E9428170E94AB21CE014D
:100B500007960E948A17CE0101960E948A17CE013D
:100B60000D960E948A1762E872E082E595E00E9485
:100B70008718C12CD12C93E0892E912C0E945F05FF
:100B80008091270390912803039721F41092280362
:100B90001092270300E410E0A0902703B0902803F0
:100BA000A114B10419F48DE495E00DC081E0A816FC
:100BB000B10419F48DE495E00FC0E2E0AE16B10483
:100BC00029F488E495E00E94D90F08C0F3E0AF163D
:100BD000B10491F488E495E00E94B50FBC01990F2F
:100BE000880B990B0E94CC27609315037093160312
:100BF0008093170390931803609115037091160367
:100C000080911703909118039B01AC010E942B283F
:100C10006093110370931203809313039093140352
:100C200020910D0330910E0340910F03509110035A
:100C30000E94212960930D0370930E0380930F038C
:100C4000909310030150110909F0A6CF20E030E085
:100C500040E85CE30E942B282B013C0120E030E0BF
:100C600040E05FE30E942B287B018C01B0E0A0E014
:100C7000F0E0E0E02B2F3A2F4F2F5E2FB701C80195
:100C80000E94C5278823C9F09701A801C301B201BA
:100C90000E948D299B01AC01B701C8010E94212946
:100CA00020E030E040E05FE30E942B28BE2DAF2D16
:100CB000F02FE12F7B018C01DDCF20E030E040E020
:100CC0005EE3B701C8010E942B2820E030E040E934
:100CD00050E40E942B286093090370930A038093C9
:100CE0000B0390930C0310920D0310920E031092BD
:100CF0000F031092100320E030E048EC52E40E9411
:100D00008D292B013C0168EF71E0CE0143960E94D2
:100D10002C184AE0B501CE010D960E94BF176AEF6C
:100D200071E0CE0101960E942C18BE016F5F7F4FCB
:100D3000CE0107960E942318BE01635F7F4FCE014C
:100D400007960E942817BE016D5E7F4F0E942817EC
:100D50000E94AB21CE0107960E948A17CE01019610
:100D60000E948A17CE010D960E948A17CE014396E3
:100D70000E948A1760E072E0CE0107960E942C184C
:100D800020E030E040EF52E4C301B2010E942B2882
:100D9000AB01BC0122E0CE0101960E948F17BE017B
:100DA000695F7F4FCE0101960E9428170E94AB21F8
:100DB000CE0101960E948A17CE0107960E948A17DB
:100DC0008EEF91E00E94CA2167E072E0CE010796A3
:100DD0000E942C1822E0B301A201CE0101960E94CC
:100DE0008F17BE01695F7F4FCE0101960E942817C1
:100DF0000E94BC21CE0101960E948A17CE0107965F
:100E00000E948A17E0912703F0912803EE0FFF1F3D
:100E1000EE0FFF1FE55EFC4F4082518262827382BB
:100E20002AE037ED43E25CE3C301B2010E94C5272B
:100E3000181634F19092860380928503C6010896B5
:100E400090931A03809319034AE0B601CE010796E6
:100E50000E94BF1766E272E0CE0101960E942C1834
:100E60006F81788589819A810E943520CE01019613
:100E70000E948A17CE0107960E948A170E94970344
:100E800022E0B301A201CE0143960E948F17609128
:100E90002703709128034AE0CE010D960E94BF17E8
:100EA0006DE072E0CE0101960E942C18BE016F5FCA
:100EB0007F4FCE0107960E942318BE01635F7F4FCC
:100EC000CE0107960E9428176B897C89FC018081DE
:100ED00091810E943520CE0107960E948A17CE018B
:100EE00001960E948A17CE010D960E948A17CE01A4
:100EF00043960E948A1780912703909128030196B8
:100F00009093280380932703FFEFCF1ADF0A83E033
:100F1000C816D10409F032CE68960FB6F894DEBF39
:100F20000FBECDBFDF91CF911F910F91FF90EF903A
:100F3000DF90CF90BF90AF909F908F907F906F90F9
:100F40005F904F9008952F923F924F925F926F92D1
:100F50007F928F929F92AF92BF92CF92DF92EF9249
:100F6000FF920F931F93CF93DF93CDB7DEB76A97AE
:100F70000FB6F894DEBF0FBECDBF109208031092DB
:100F8000070360E872E0CE010F960E94EB176FEB4B
:100F900074E08E010F5F1F4FC8010E942318B80133
:100FA000CE0109960E942318BE01615F7F4FCE01DA
:100FB00009960E9428170E94AB21CE0109960E9433
:100FC0008A17C8010E948A17CE010F960E948A17BD
:100FD0006CE572E082E595E00E948718E0903103AD
:100FE000F09032033701660C771CC3018C509D4F83
:100FF0002C01C12CD12CAA24A394B12C62E0262E62
:10100000312C8091330390913403E816F9060CF0EB
:1010100038C10E945F05E0910703F0910803EE0FCD
:10102000FF1FE65DFE4F61E080810E9479201092F3
:101030009E0380939D03882331F087EA94E00E9409
:10104000620E809306036AE572E0CE0145960E9427
:10105000EB176FEB74E0CE0109960E942318BE01D6
:10106000675F7F4FCE010F960E942318BE016B5E13
:101070007F4FCE010F960E9428174C014AE0B8011D
:10108000C7010E941525F80101900020E9F731976A
:10109000AF01401B510BB801C4010E94C61681115B
:1010A00003C0C4010E941617C4010E94AB21CE01E7
:1010B0000F960E948A17CE0109960E948A17CE01C8
:1010C00045960E948A1788EF91E00E94CA2190916C
:1010D000060380912F03892380930503F201EC0D11
:1010E000FD1D811140C01092040311821082F6018F
:1010F000E60DF71DE050FF4FB182A0824AE060E0AC
:1011000070E0CE0145960E94BF174AE0B701CE01BC
:101110000F960E94BF1760E172E0C8010E942C1870
:10112000B801CE0109960E942318BE01615F7F4F6E
:10113000CE0109960E9428176D897E89FC01808165
:1011400091810E943520CE0109960E948A17C8011C
:101150000E948A17CE010F960E948A17CE014596EB
:101160000E948A1748C081E080930403B182A08264
:101170004AE061E070E0CE0145960E94BF174AE068
:10118000B701CE010F960E94BF1760E172E0C8015F
:101190000E942C18B801CE0109960E942318BE01A6
:1011A000615F7F4FCE0109960E9428176D897E8965
:1011B000FC01808191810E943520CE0109960E9418
:1011C0008A17C8010E948A17CE010F960E948A17BB
:1011D000CE0145960E948A17F6E0EF16F1040CF056
:1011E00071C0B0928603A0928503F0921A03E09238
:1011F00019030E94970368E572E0CE0145960E94AC
:10120000EB176091040370E04AE0CE010F960E9454
:10121000BF1761E572E0C8010E94EB17B801CE016B
:1012200009960E942318BE01615F7F4FCE01099687
:101230000E942817BE016B5E7F4F0E9428170E94F4
:10124000AB21CE0109960E948A17C8010E948A1715
:10125000CE010F960E948A17CE0145960E948A17EA
:1012600080912F0390913003880F991F9093300342
:1012700080932F038FEFE81AF80A92E0C90ED11C71
:10128000C0CE0E94BD206DE272E082E595E00E9432
:1012900087186A960FB6F894DEBF0FBECDBFDF91F8
:1012A000CF911F910F91FF90EF90DF90CF90BF9063
:1012B000AF909F908F907F906F905F904F903F90F6
:1012C0002F90089530928603209285038ECF0F933E
:1012D0001F93CF93DF93CDB7DEB7CA55D1090FB6B1
:1012E000F894DEBF0FBECDBF0E94FD020E94060330
:1012F0000E94C2030E94650D62E475E08FEB94E0EA
:101300000E94731706E010E0109334030093330338
:10131000109232031092310381E090E090933003F9
:1013200080932F030E94A30766E375E08FEB94E0A0
:101330000E94731788E090E0909334038093330306
:10134000109332030093310380E490E090933003D4
:1013500080932F030E94A30760E375E08FEB94E076
:101360000E9473170E9473051C821B8288EE93E013
:10137000A0E0B0E08D839E83AF83B88707E911E0DA
:101380001A83098385EC94E09E878D871A8A1B8ACD
:101390001C8A6EEB72E0CE018B5A9F4F0E94EB17B6
:1013A000BE016B5A7F4FCE0101960E944A12CE01B8
:1013B0008B5A9F4F0E948A1768EA72E082E595E097
:1013C0000E9487181A830983CE0101960E94281271
:1013D0001092860310928503C65ADF4F0FB6F89419
:1013E000DEBF0FBECDBFDF91CF911F910F9108954A
:1013F0002F923F924F925F926F927F928F929F9225
:10140000AF92BF92CF92DF92EF92FF920F931F9312
:10141000CF93DF93CDB7DEB7C156D1090FB6F8949D
:10142000DEBF0FBECDBF0E94670928E1C22ED12CBE
:1014300036E0E32EF12C48E0642E712C64EF71E06D
:1014400080E090E00E9466196EE974E082E595E024
:101450000E94871861E08DE00E94031964EF71E03B
:1014600080E090E00E94661960E08DE00E94031920
:1014700082E595E00E94F9118A30F1F021E0C21A6C
:10148000D108E1F6CF59DF4F0FB6F894DEBF0FBE9B
:10149000CDBFDF91CF911F910F91FF90EF90DF9023
:1014A000CF90BF90AF909F908F907F906F905F9004
:1014B0004F903F902F9008950E94FD020E940603D6
:1014C0000E94C2036AE774E082E595E00E948718F3
:1014D00086E694E00E94592162E474E082E595E09A
:1014E0000E94871868EE73E080E090E00E94661921
:1014F00082E595E00E94F911A0968FAFA09795E044
:10150000292E312C82E595E00E94B9118091600569
:10151000882309F4D3C282E595E00E94F9118A304C
:1015200009F0C7C282E192E00E948B1E882341F03D
:101530000E940F0369EF71E089EB94E00E945C1751
:1015400086E192E00E948B1E882341F069EF71E0F2
:1015500089EB94E00E945C170E94F8098BE192E00D
:101560000E948B1E882381F10E940F031C821B8224
:1015700088EE93E0A0E0B0E08D839E83AF83B887D0
:1015800007E911E01A83098385EC94E09E878D8733
:101590001A8A1B8A1C8A6BE374E0CE018B5A9F4F18
:1015A0000E94EB17BE016B5A7F4FCE0101960E943D
:1015B0004A12CE018B5A9F4F0E948A171A830983C1
:1015C000CE0101960E94281282E292E00E948B1EB8
:1015D000882371F11C821B8288EE93E0A0E0B0E0CA
:1015E0008D839E83AF83B88707E911E01A8309834F
:1015F00085EC94E09E878D871A8A1B8A1C8A61E39A
:1016000074E0CE018B5A9F4F0E94EB17BE016B5ABC
:101610007F4FCE0101960E944A12CE018B5A9F4FF6
:101620000E948A171A830983CE0101960E9428120C
:1016300088E292E00E948B1E882309F48FC088E51F
:1016400093E00E9459210E94CC21812C912C5401BD
:101650008394512C4424439440929F038092C1036D
:101660001092A0031092C2030E94BD20811151C0AC
:101670006DE373E082E595E00E9487184AE0C501BA
:10168000B4010E946A218EE292E00E94CA2140E1E8
:10169000C501B4010E946A2184E392E00E94CA213C
:1016A0008401F401B097E830F10570F4EA5AFF4F75
:1016B0000C94352A8CE395E005C086E395E002C0E2
:1016C00084E295E00E94BC21F801F897E830F1052A
:1016D00070F4E25AFF4F0C94352A80E395E005C080
:1016E0008AE295E002C084E295E00E94BC21F80104
:1016F000E854F109E830F10558F4EA59FF4F0C9429
:10170000352A80E395E002C084E295E00E94BC2186
:1017100053948FEF881A980AA80AB80A98E789168E
:101720009104A104B10409F097CF87E393E00E94EC
:10173000592180E393E00E945921652D70E080E0FB
:1017400090E04AE00E946A2184E293E00E945921DD
:1017500069EF71E089EB94E00E945C1787E392E007
:101760000E948B1E882341F069EF71E089EB94E0C1
:101770000E945C170E94F8098EE492E00E948B1E82
:10178000882341F00E94C20369EF71E089EB94E085
:101790000E945C178CE392E00E948B1E882361F00C
:1017A00030928603209285030E94290369EF71E03D
:1017B00089EB94E00E945C1782E492E00E948B1E09
:1017C000882309F4B9C00E94C2036DE074E082E589
:1017D00095E00E94871866EF73E082E595E00E942D
:1017E000871868ED73E082E595E00E94871864EB46
:1017F00073E082E595E00E94871860E973E082E576
:1018000095E00E94871882E595E00E94F91189EF22
:1018100091E0A1968FAFA197BC0189EB94E00E9463
:101820005C1782E595E00E94B911809160058823DC
:1018300009F476C082E595E00E94F911182F082E70
:10184000000C990BC0970A9728F4612F83EB94E062
:101850000E94F4161A3009F05EC083EB94E00E94F7
:10186000BB166F966CAF7DAF8EAF9FAF6F9767E87B
:1018700073E082E595E00E9487186D968EAD9FAD6E
:101880006D970E94971B69EF71E083EB94E00E94D3
:101890005C172CE36D968EAD9FAD6D97289F200150
:1018A000299F500C112400E010E00415150554F593
:1018B00068EE73E080E090E00E946619C8016CE376
:1018C00070E00E94FF29892B31F465E873E082E51E
:1018D00095E00E94871863E873E082E595E00E9436
:1018E000871882E595E00E94F9118A3041F469EF8A
:1018F00071E089EB94E00E945C170E94F8090F5F89
:101900001F4FD3CF69EF71E089EB94E00E945C1721
:101910000E94F80905C0612F89EB94E00E94F4163B
:10192000A1962FADA1972A3009F07BCF69EF71E026
:1019300089EB94E00E945C178AE492E00E948B1E7F
:10194000882309F451C069EF71E089EB94E00E94AB
:101950005C170E94FD020E94060362E475E08FEBB3
:1019600094E00E947317F0923403E09233031092D4
:1019700032031092310381E090E090933003809322
:101980002F030E94A30766E375E08FEB94E00E94AB
:1019900073177092340360923303F0923203E09233
:1019A000310380E490E09093300380932F030E94F2
:1019B000A30760E375E08FEB94E00E9473170E9429
:1019C000730582E595E00E94F911A2968FAFA29768
:1019D0000E940603A2968FADA2978A3009F0BDCF70
:1019E0000E94FD020E940F0383E592E00E948B1E7D
:1019F0008823E1F062E475E08FEB94E00E947317B6
:101A0000F0923403E09233031092320310923103C8
:101A100081E090E09093300380932F030E94A3070E
:101A200069EF71E089EB94E00E945C178AE592E02F
:101A30000E948B1E8823E1F066E375E08FEB94E053
:101A40000E9473177092340360923303F092320352
:101A5000E092310380E490E09093300380932F0371
:101A60000E94A30769EF71E089EB94E00E945C1784
:101A700081E692E00E948B1E882371F060E375E09E
:101A80008FEB94E00E9473170E94730569EF71E079
:101A900089EB94E00E945C1780E090E00E948B1E2E
:101AA00081110CC069EF71E089EB94E00E945C1732
:101AB00005C0682F89EB94E00E94F416A0962FAD24
:101AC000A0972A3009F01ECDD9CCCF92DF92EF92A9
:101AD000FF920F931F93CF93DF93CDB7DEB7CA5515
:101AE000D1400FB6F894DEBF0FBECDBFCD5FDE4F45
:101AF00019821882C350D14088EE93E0A0E0B0E094
:101B0000CB5FDE4F88839983AA83BB83C550D140C6
:101B100087E991E0CF5FDE4F99838883C150D14040
:101B200085EC94E0C35FDE4F99838883CD50D1402C
:101B3000CE5EDE4F1882C251D140CD5EDE4F18829C
:101B4000C351D140CC5EDE4F1882C451D14067ED05
:101B500072E0CE0101960E94EB17BE016F5F7F4FCE
:101B6000CE018F5F9E4F0E944A12CE0101960E94C5
:101B70008A1784E6CB5ADE4F8883C555D140C12CE5
:101B8000DD24D394CE0101967C010CE010E027E621
:101B900032E041E050E0BE016B5A7E4F85EC94E0AC
:101BA0000E94AB1E8F3F910509F020F4F701E80F6A
:101BB000F91F1082BE016F5F7F4FCE018B5A9E4F7F
:101BC0000E942C18CE018B5A9E4F0E94BB16672B89
:101BD000A1F484E792E00E9441218CED91E00E9403
:101BE000412160E08DE00E94031968EE73E080E01F
:101BF00090E00E9466190E946709CE018B5A9E4FA1
:101C00000E948A1787E991E0CF5FDE4F998388832E
:101C1000C150D140CE018F5F9E4F0E942812C65AFC
:101C2000DE4F0FB6F894DEBF0FBECDBFDF91CF9170
:101C30001F910F91FF90EF90DF90CF90089508953E
:101C400085ED8093BC008091BC0084FDFCCF109298
:101C50000904089540915703262F30E0240F311DC9
:101C600021323105DCF4209109042430C9F4FC014F
:101C700080E090E0861758F4309157032191DC0101
:101C8000AB5CBC4FA30FB11D2C930196F3CF809199
:101C90005703680F6093570380E0089581E008952B
:101CA00082E008950895E0919E0380919D03E817D6
:101CB00030F4F0E0ED53FC4F808190E008958FEF19
:101CC0009FEF089590919E0380919D03981750F483
:101CD000E92FF0E0ED53FC4F208130E09F5F9093BF
:101CE0009E0302C02FEF3FEFC901089580919D032D
:101CF00090E020919E03821B91090895CF92DF927C
:101D0000EF92FF920F931F93CF93DF937C01262FC7
:101D1000972F8A0180919F03882391F0C62FD72F98
:101D20006E01C40ED51ECC15DD0571F06991D70189
:101D3000ED91FC910190F081E02DC7010995F3CF61
:101D4000642F822F0E942A0EC801DF91CF911F912C
:101D50000F91FF90EF90DF90CF900895CF93DF9396
:101D60001F92CDB7DEB7698320919F032223D1F064
:101D70002091C203203240F021E030E0FC013383A7
:101D8000228380E090E015C08091A003E82FF0E06E
:101D9000EF55FC4F998190838F5F8093A0038093D0
:101DA000C20305C061E0CE0101960E942A0E81E0C7
:101DB00090E00F90DF91CF9108951F93CF93DF9321
:101DC000182F81E080939F031093C1031092A0030A
:101DD0001092C20360E087EA94E00E94AE0E0E9477
:101DE000BD2062E0812F0E94792010929E03809393
:101DF0009D0387EA94E00E94620E182F87EA94E020
:101E00000E94620ED12F20E0C22F9E01282BC90113
:101E1000DF91CF911F9108958F929F92AF92BF92C1
:101E2000CF92DF92EF92FF920F931F93CF93DF93A6
:101E30001F92CDB7DEB75C019B014A01DC015296CF
:101E40008C91811105C07B018B01040F151F31C0DE
:101E500080E58983C12CD12CE12CF12C8A0141E051
:101E600050E0BE016F5F7F4FF501848595850E942C
:101E7000AB1E22C0D5015596ED91FC915697539615
:101E80008C91539791E0980F53969C93D7019D9115
:101E90007D01E80FF11D9083F501938984899813E2
:101EA00008C00190F081E02D0680F781E02DC5018A
:101EB0000995E016F106F1F6C4010F90DF91CF917C
:101EC0001F910F91FF90EF90DF90CF90BF90AF9058
:101ED0009F908F9008951F920F920FB60F9211242A
:101EE0002F933F938F939F93AF93BF9380917D03E5
:101EF00090917E03A0917F03B091800330917C0389
:101F000023E0230F2D3720F40196A11DB11D05C03C
:101F100026E8230F0296A11DB11D20937C03809318
:101F20007D0390937E03A0937F03B0938003809101
:101F3000810390918203A0918303B0918403019661
:101F4000A11DB11D8093810390938203A09383030D
:101F5000B0938403BF91AF919F918F913F912F9147
:101F60000F900FBE0F901F901895CF93DF93EC0149
:101F70006B817C816368716B88810E941A21698101
:101F800070E080E090E00E94661988810E94DD0E7A
:101F90002A81022E02C0969587950A94E2F72223A1
:101FA00029F0811528E0920708F0906FDF91CF911A
:101FB0000895CF93DF93EC016B817C816368716836
:101FC00088810E941A21698170E080E090E00E947F
:101FD000661988810E94DD0E2A81022E02C0969524
:101FE00087950A94E2F7222329F0811528E09207C9
:101FF00008F0906FDF91CF910895AF92BF92CF928A
:10200000DF92EF92FF920F931F93CF93DF9300D055
:102010001F92CDB7DEB75C0182E58B83D5011F9699
:10202000ED91FC915097048115812081318182E0EE
:10203000C82ED12CFE0131967F0141E050E0BE0157
:102040006D5F7F4F1C968D919C911D970E94AB1EDA
:102050008A81D5011E968C931E971F960D911C9117
:1020600050970115110531F0C8010E948A17C80167
:102070000E94E42AF501108A17868981811102C025
:1020800081E0818B0F900F900F90DF91CF911F9186
:102090000F91FF90EF90DF90CF90BF90AF90089599
:1020A0000F931F93CF93DF93EC018B016BE872E0EA
:1020B0008F8598890E940717F801448155816081B6
:1020C00071818F859889DF91CF911F910F910C9429
:1020D000C616CF93DF93EC018A89811108C08D89E0
:1020E0009E89009711F00E94E42A81E08A8B8889FA
:1020F0009989009721F00E94E42A198A188ADF91B1
:10210000CF910895CF93DF93EC018D819E81DC0107
:10211000ED91FC910084F185E02D099518161906C2
:1021200054F48D819E81DC01ED91FC910284F38554
:10213000E02D0995EACFDF91CF9108958F929F927C
:10214000AF92BF92CF92DF92EF92FF92CF93DF9345
:10215000EC016B010E94A0194B015C01E12CF12CF8
:102160008D819E81DC01ED91FC910284F385E02D4F
:10217000099597FF0FC00E94A019DC01CB018819B7
:102180009909AA09BB098C159D05AE05BF0540F349
:102190008FEF9FEFDF91CF91FF90EF90DF90CF9087
:1021A000BF90AF909F908F900895FC012381348160
:1021B0002627022E2295207F2025032E322F2295BE
:1021C0002F700226269532272327220F220F220F57
:1021D0002025348323830895CF92DF92EF92FF92DC
:1021E0000F931F936801790100E010E020E030E0D8
:1021F0000E94AB1E1F910F91FF90EF90DF90CF9048
:1022000008950F931F93CF93DF9300D000D0CDB7E5
:10221000DEB727E52B83FC0126852C8302E010E046
:102220009E012F5F3F4F42E050E0BE016D5F7F4F48
:10223000848595850E94EC10898190E0982F8827ED
:102240002A81820F911D0F900F900F900F90DF91B8
:10225000CF911F910F9108950F931F93CF93DF9309
:1022600000D01F92CDB7DEB722E72983FC01268577
:102270002A8301E010E09E012D5F3F4F42E050E0D5
:10228000BE016F5F7F4F848595850E94EC1081E0D1
:102290009B81913009F080E00F900F900F90DF91BB
:1022A000CF911F910F910895EF92FF920F931F937B
:1022B000CF93DF9300D01F92CDB7DEB7FC01228908
:1022C000211118C07C01138A8FE4898380E48B83F9
:1022D00086858A839F012C5E3F4F00E410E043E037
:1022E00050E0BE016F5F7F4F848595850E94EC10A2
:1022F000F701828B0F900F900F90DF91CF911F917C
:102300000F91FF90EF900895CF93DF93EC010E941F
:1023100054118A89882331F08B89C80FD11D8C898B
:1023200090E002C08FEF9FEFDF91CF910895CF93A0
:10233000DF93EC010E9454118A89882359F081505F
:102340008A8B8B8991E0980F9B8BC80FD11D8C894C
:1023500090E002C08FEF9FEFDF91CF910895CF9370
:10236000DF93EC010E9454118A8990E0DF91CF91B4
:102370000895EF92FF920F931F93CF93DF9300D0B6
:10238000CDB7DEB7FC012685211115C07C0117866B
:1023900080E7898380E28A832089318900E210E026
:1023A00042E050E0BE016F5F7F4F848595850E94BB
:1023B000EC10F70186870F900F90DF91CF911F915E
:1023C0000F91FF90EF900895CF93DF93EC010E945F
:1023D000B9118E85882341F08F85E889F989E80F46
:1023E000F11D808190E002C08FEF9FEFDF91CF91D0
:1023F0000895CF93DF93EC010E94B9118E85882355
:1024000069F081508E87E889F9898F8591E0980F6E
:102410009F87E80FF11D808190E002C08FEF9FEF52
:10242000DF91CF910895CF93DF93EC010E94B91112
:102430008E8590E0DF91CF9108950F931F9300E078
:1024400010E020E030E00E94EC101F910F91089501
:102450000F931F93CF93DF9300D0CDB7DEB78C01DE
:10246000FC018189882369F087E7898386858A83CF
:1024700042E050E0BE016F5F7F4F848595850E94EA
:102480001D12F801118A0F900F90DF91CF911F91CB
:102490000F910895CF92DF92EF92FF920F931F93C7
:1024A000CF93DF9300D000D000D0CDB7DEB78C0142
:1024B0006B016DE872E0CE0101960E942C18C801F4
:1024C0000E94281286E090E00E944F2A7C01BE0103
:1024D0006F5F7F4F0E942318F801F08AE786CE01D4
:1024E00001960E948A1766E972E0CE0101960E9469
:1024F0002C18BE016F5F7F4FC8010E945010CE01A3
:1025000001960E948A17B601C8010E945010C801A6
:102510000E94FD0FC8010E942C11882339F064E647
:1025200070E080E090E00E946619F4CFC8010E943C
:10253000011126960FB6F894DEBF0FBECDBFDF9116
:10254000CF911F910F91FF90EF90DF90CF90089562
:10255000CF93DF9300D01F92CDB7DEB729E4298354
:10256000FC0126852A836B8343E050E0BE016F5F48
:102570007F4F848595850E941D1281E090E00F9029
:102580000F900F90DF91CF910895CF93DF93FC01CF
:10259000228921110BC0EC01438950E065897689BD
:1025A000848595850E941D1281E08B8BDF91CF91F0
:1025B0000895CF93DF9300D0CDB7DEB7DC015296FC
:1025C0008C915297882379F080E589836A8342E071
:1025D00050E0BE016F5F7F4F1C968D919C911D97BF
:1025E0000E941D121FC05596ED91FC91569753966F
:1025F0008C91539791E0980F53969C935397E80FC3
:10260000F11D608353969C91539754968C915497E7
:10261000981308C0ED91FC9111970680F781E02D89
:10262000CD01099581E090E00F900F90DF91CF915F
:102630000895BF92CF92DF92EF92FF920F931F9374
:10264000CF93DF93CDB7DEB72E970FB6F894DEBFEA
:102650000FBECDBF7C01C7010E94821068EE73E0FF
:1026600080E090E00E946619D70115968D919C91AB
:102670001697DC01ED91FC910084F185E02D099520
:102680001816190644F385E0D82ECC24C39492E39F
:10269000B92EEEE2F1E0DE0111968D2D01900D9242
:1026A0008A95E1F7F701C08645E050E0BE016F5F13
:1026B0007F4FC7010E941D12D70115968D919C91E5
:1026C0001697DC01ED91FC910190F081E02D63E023
:1026D00009956AEF70E080E090E00E9466196EEA6A
:1026E00074E0F701858196810E9487186AEF70E097
:1026F00080E090E00E9466196CEA74E0D7011596BC
:102700008D919C9116970E94871864EF71E080E08C
:1027100090E00E94661960EA74E0F7018581968175
:102720000E94871864EF71E080E090E00E946619D3
:10273000C7010E948210E3E3F1E0DE0116968D2DC1
:1027400001900D928A95E1F7D7011896BC9204E0AA
:1027500010E09E01255F3F4F45E050E0BE016A5FFB
:102760007F4FC7010E94EC108F3FBFEF9B0739F4EA
:1027700068EE73E080E090E00E9466198ACF2B85B6
:102780002111FFCF049701F52C8530E0205331094A
:1027900084E6829FA001839F500D11242D8530E097
:1027A000205331096AE0629FC001639F900D11249C
:1027B000840F951F2E8530E020533109820F931F1F
:1027C000F7019283818307C084E690E0D7011296D7
:1027D0009C938E93119782E3F70180872E960FB614
:1027E000F894DEBF0FBECDBFDF91CF911F910F9147
:1027F000FF90EF90DF90CF90BF9008951F920F92BF
:102800000FB60F9211242F933F934F935F936F93C3
:102810007F938F939F93AF93BF93EF93FF93809199
:10282000B900887F803609F49CC068F5883209F4C5
:102830005BC090F4803109F454C038F4882309F463
:10284000F6C0883009F44DC0F6C0883109F44CC098
:10285000803209F45DC0EFC0803409F468C048F4E8
:10286000803309F455C0883309F0E5C0809307042C
:10287000D8C0803509F44FC0883509F45DC088346C
:1028800009F0D9C0D6C0883909F4C7C0A8F4883780
:1028900009F467C038F4883609F463C0803709F456
:1028A00060C0C9C0883809F4B8C0803909F45FC075
:1028B000803809F0C0C05BC0803B09F486C038F4A2
:1028C000803A09F466C0883A09F47FC0B4C0803CFD
:1028D00009F4A7C0883C09F4A4C0883B09F48AC065
:1028E000AAC08091040410C0909106048091050450
:1028F000981770F5E091060481E08E0F809306042E
:10290000F0E0ED51FC4F80818093BB0085EC86C0E8
:10291000809307048EC0E091060481E08E0F8093BF
:1029200006048091BB00F0E0ED51FC4F8083909154
:102930000604809105046EC0E091060481E08E0FCC
:10294000809306048091BB00F0E0ED51FC4F808342
:102950008091080481116DC081E08093030484EAB2
:1029600061C083E08093090410927B03CFCF8091F4
:102970007B03803208F051C0E0917B0381E08E0F31
:1029800080937B038091BB00F0E0E55AFC4F80838D
:10299000BDCF85EC8093BC001092090480917B032D
:1029A000803230F4E0917B03F0E0E55AFC4F108276
:1029B00060917B0370E0E0915903F0915A038BE53D
:1029C00093E0099510927B0336C084E0809309045C
:1029D0001092580310925703E0915503F09156035B
:1029E000099580915703811105C081E080935703B9
:1029F00010923503E091580381E08E0F80935803C5
:102A0000F0E0EB5CFC4F80818093BB009091580319
:102A100080915703981708F479CF85E88093BC001C
:102A20000AC085EC8093BC001092090404C0109287
:102A300007040E94200EFF91EF91BF91AF919F91EB
:102A40008F917F916F915F914F913F912F910F9057
:102A50000FBE0F901F901895CF92DF92EF92FF92CA
:102A60000F931F93CF93DF936C017A018B01C0E02A
:102A7000D0E0CE15DF0589F0D8016D918D01D6012A
:102A8000ED91FC910190F081E02DC6010995892B13
:102A900011F47E0102C02196ECCFC701DF91CF91E6
:102AA0001F910F91FF90EF90DF90CF900895FC0160
:102AB000538D448D252F30E0842F90E0821B930BA3
:102AC000541710F0CF96089501970895FC01918D49
:102AD000828D981761F0828DDF01A80FB11D5D9680
:102AE0008C91928D9F5F9F73928F90E008958FEFEE
:102AF0009FEF0895FC01918D828D981731F0828DA2
:102B0000E80FF11D858D90E008958FEF9FEF0895F8
:102B1000FC01918D228D892F90E0805C9F4F821B5C
:102B200091098F73992708958AE094E00E9488158F
:102B300021E0892B09F420E0822F0895FC01848D87
:102B4000DF01A80FB11DA35ABF4F2C91848D90E0D7
:102B500001968F739927848FA689B7892C93A089B2
:102B6000B1898C9180648C93938D848D981306C069
:102B70000288F389E02D80818F7D80830895EF9214
:102B8000FF920F931F93CF93DF93EC0181E0888F27
:102B90009B8D8C8D981305C0E889F989808185FD0E
:102BA00024C0F62E0B8D10E00F5F1F4F0F731127FF
:102BB000E02E8C8DE8120CC00FB607FCFACFE88926
:102BC000F989808185FFF5CFCE010E949E15F1CF56
:102BD0008B8DFE01E80FF11DE35AFF4FF0820B8F42
:102BE000EA89FB898081806207C0EE89FF89608362
:102BF000E889F98980818064808381E090E0DF91B9
:102C0000CF911F910F91FF90EF900895CF93DF9395
:102C1000EC01888D8823C9F0EA89FB89808185FDD4
:102C200005C0A889B9898C9186FD0FC00FB607FC35
:102C3000F5CF808185FFF2CFA889B9898C9185FF76
:102C4000EDCFCE010E949E15E7CFDF91CF91089581
:102C500080E090E0892B29F00E94941581110C945A
:102C6000000008953FB7F89480918103909182030A
:102C7000A0918303B091840326B5A89B05C02F3F84
:102C800019F00196A11DB11D3FBFBA2FA92F982F92
:102C90008827820F911DA11DB11DBC01CD0142E00D
:102CA000660F771F881F991F4A95D1F708950E94D4
:102CB000462C0F931F93CF93DF93EC01888199816A
:102CC000009729F02A813B812617370788F48B016A
:102CD0006F5F7F4F0E947C2B009761F09983888300
:102CE0001B830A832C813D81232B11F4FC0110826C
:102CF00081E001C080E0DF91CF911F910F91089595
:102D00004091890350918A03209187033091880371
:102D100042175307B4F49091E8009570E1F3909155
:102D2000E80092FD19C08093F10080918903909191
:102D30008A0301968F739927892B19F48EEF80935C
:102D4000E8008091890390918A03019690938A0309
:102D50008093890381E0089580E00895615030F008
:102D60002091F100FC0120830196F8CF289884E699
:102D700080938E030895FC0180819181009711F06A
:102D80000C94D32460E070E0CB010895EF92FF92A1
:102D90000F931F93CF93DF93FC012481358161153D
:102DA000710511F480E019C041155105A9F07B01AE
:102DB000EC018A01020F131FB8010E9459168823E3
:102DC00089F3288139818C819D81B701820F931FFE
:102DD0000E945D2C1D830C8381E0DF91CF911F91B8
:102DE0000F91FF90EF900895CF93DF9300D0CDB770
:102DF000DEB769831A8241E050E0BE016F5F7F4F0A
:102E00000E94C6160F900F90DF91CF910895611523
:102E1000710551F0FB0101900020E9F73197AF01F6
:102E2000461B570B0C94C61680E00895CF93DF9392
:102E3000EC0188819981009711F00E94E42A19829F
:102E400018821D821C821B821A82DF91CF91089505
:102E5000CF93DF93EC01FB01448155816081718147
:102E60000E94C616811103C0CE010E941617CE0122
:102E7000DF91CF910895EF92FF920F931F93CF931D
:102E8000DF93EC017B018A01BA010E94591681117E
:102E900004C0CE010E94161707C01D830C83B70122
:102EA000888199810E945D2CCE01DF91CF911F9185
:102EB0000F91FF90EF900895CF93DF93EC01611590
:102EC000710559F0FB0101900020E9F73197AF013E
:102ED000461B570B0E943B1702C00E941617CE01DB
:102EE000DF91CF910895CF93DF93EC01FB0186171B
:102EF000970761F0608171816115710529F0448146
:102F000055810E943B1702C00E941617CE01DF9127
:102F1000CF910895FC01808191810C94E42AEF9275
:102F2000FF920F931F93CF93DF93CDB7DEB7A19797
:102F30000FB6F894DEBF0FBECDBF7C01CB01BA0146
:102F4000F70111821082138212821582148242E0EC
:102F5000420F8E010F5F1F4F0E94B324BC01C701B7
:102F60000E945C17A1960FB6F894DEBF0FBECDBFCE
:102F7000DF91CF911F910F91FF90EF9008950F93E4
:102F80001F93CF93DF93CDB7DEB762970FB6F89458
:102F9000DEBF0FBECDBF8C01CB01F80111821082C4
:102FA000138212821582148250E0BE016F5F7F4F40
:102FB0000E940A25BE016F5F7F4FC8010E945C1707
:102FC00062960FB6F894DEBF0FBECDBFDF91CF91F2
:102FD0001F910F910895EF92FF920F931F93CF933C
:102FE000DF93EC01198218821B821A821D821C82D7
:102FF0006115710509F18B01CB010E9401257C014E
:10300000BC01CE010E945916811109C0CE01DF9189
:10301000CF911F910F91FF90EF900C941617FD82A6
:10302000EC82B80188819981DF91CF911F910F9136
:10303000FF90EF900C94FA24DF91CF911F910F91A4
:10304000FF90EF900895FC0111821082138212828A
:10305000158214820C947317FC0111821082138262
:103060001282158214826115710551F0FB010190E5
:103070000020E9F73197AF01461B570B0C943B1723
:103080000895BF92CF92DF92EF92FF920F931F931A
:10309000CF93DF937C016B018A01E9012417350787
:1030A00020F4812F8901C42FD82F69EF71E0C70167
:1030B0000E942C18D60114968D919C911597081793
:1030C0001907D0F48C179D0708F4EC01D601ED9197
:1030D000FC911197EC0FFD1FB08010824D915C9117
:1030E000BA01600F711FC7010E945C17D601ED91F4
:1030F000FC91EC0FFD1FB082C701DF91CF911F91B2
:103100000F91FF90EF90DF90CF90BF900895EF92D6
:10311000FF920F931F93CF93DF938C017B01C0E04D
:10312000D0E0F701EC0FFD1F6491662361F0D80138
:10313000ED91FC910190F081E02DC8010995892B5A
:1031400011F02196EECFCE01DF91CF911F910F911B
:10315000FF90EF9008951F920F920FB60F921124D7
:103160002F933F934F935F936F937F938F939F938F
:10317000AF93BF93EF93FF938AE094E00E949E1574
:10318000FF91EF91BF91AF919F918F917F916F913F
:103190005F914F913F912F910F900FBE0F901F9015
:1031A00018951F920F920FB60F9211242F938F93A1
:1031B0009F93EF93FF93E0911A04F0911B04808199
:1031C000E0912004F091210482FD12C09081809151
:1031D00023048F5F8F7320912404821751F0E091B4
:1031E0002304F0E0E65FFB4F958F8093230401C03A
:1031F0008081FF91EF919F918F912F910F900FBE42
:103200000F901F901895362F90E0FC01E055FB4F72
:103210004491FC01E65FFA4F2491FC01E551FB4F1C
:103220008491882309F451C04423E1F150E0FA016C
:103230003197EF30F105B0F5E259FF4F0C94352A84
:10324000909180009F7707C0909180009F7D03C080
:1032500090918000977F9093800024C094B59F77D1
:1032600002C094B59F7D94BD1DC0909190009F7742
:1032700007C0909190009F7D03C090919000977F30
:10328000909390000FC09091C0009F7703C09091E1
:10329000C0009F7D9093C00005C09091C200977FB1
:1032A0009093C200E82FF0E0EE0FFF1FE153FB4FB9
:1032B000A591B4918FB7F894EC91311103C020958A
:1032C0002E2301C02E2B2C938FBF08958F929F9297
:1032D000AF92BF92CF92DF92EF92FF926B017C018F
:1032E0000E9432164B015C01C114D104E104F104C7
:1032F000F1F00E943216DC01CB0188199909AA0964
:10330000BB09883E9340A105B10570F321E0C21AC4
:10331000D108E108F10888EE880E83E0981EA11C10
:10332000B11CC114D104E104F10419F7DDCFFF9001
:10333000EF90DF90CF90BF90AF909F908F900895C7
:103340002FB7F89460917D0370917E0380917F0385
:10335000909180032FBF0895FC0180918F0381110C
:1033600003C08FEF9FEF08959FB7F89482E080939A
:10337000E9002091F20030E01216130614F421E067
:1033800030E02115310559F0289884E680938E03AA
:103390008091F10080838091F200882319F09FBF13
:1033A000C90108958BE68093E800F9CF2FB7F89410
:1033B00083E08093E9009091E800892F807295FF67
:1033C00004C09091F20080E4891B2FBF0895809182
:1033D000950381110DC082E08093910384E0809376
:1033E0009203109294031092930381E080939503CB
:1033F00081E993E00895CF93DF931F92CDB7DEB7B5
:103400006983DC01ED91FC910280F381E02D41E0C4
:1034100050E0BE016F5F7F4F09950F90DF91CF9114
:10342000089583E08093E9008091F200882319F0E9
:103430008AE38093E80008950E94D61990E00895E9
:10344000CF93DF931F92CDB7DEB7FC0184859585BE
:1034500097FD05C02FEF3FEF358724870BC0CE01C6
:1034600001960E94AC19019719F4898190E002C07D
:103470008FEF9FEF0F90DF91CF9108950F931F93E0
:10348000CF93DF931F92CDB7DEB78C01FC0184850B
:10349000958597FF0EC0CE0101960E94AC19019749
:1034A00019F4298130E002C02FEF3FEFF801358792
:1034B0002487F801848595850F90DF91CF911F9126
:1034C0000F910895FC018485958597FD0BC09FB7EA
:1034D000F89482E08093E9008091F2009FBF90E031
:1034E000019608959FB7F89482E08093E900809157
:1034F000F2009FBF90E008958F929F92AF92BF928B
:10350000CF92DF92EF92FF920F931F93CF93DF93AF
:103510005C016B017A0180912301882309F45BC06F
:1035200080918F03882309F456C080918D0380FF1A
:1035300005C08091E00082608093E000E70110E028
:103540000AEF83E0882E9AE3992E2097D9F10E9402
:10355000D61981110AC0015009F43DC061E070E044
:1035600080E090E00E946619F0CF282F30E0C2176B
:10357000D3070CF48C2F4FB7F8948092E900909108
:10358000E80095FF1DC0282F30E0C21BD30BF601C9
:10359000982F915020F081918093F100FACFC20EC4
:1035A000D31E112319F09092E80009C08091E80021
:1035B00085FD06C09092E80011E0209709F010E028
:1035C0004FBFC3CF1111C3CF5D9884E680939003A2
:1035D0001E141F0444F081E090E0F5019383828380
:1035E00080E090E001C0C701DF91CF911F910F9162
:1035F000FF90EF90DF90CF90BF90AF909F908F9013
:103600000895CF92DF92EF92FF920F931F93CF9383
:10361000DF931F92CDB7DEB7182F062FE42E862F2B
:10362000880F8E5F99830E94801683E00E94801627
:10363000F12EC12E9981D92E8C2D8F19801798F4D7
:10364000F601E7FE02C0849101C080810E948016CD
:10365000182F80E00E9480168123FFEFCF1ADF0A27
:103660008111EACF01C081E00F90DF91CF911F91CE
:103670000F91FF90EF90DF90CF900895DF92EF923F
:10368000FF920F931F93CF93DF93D82E8A017B0174
:10369000E40EF51EEB01CE15DF0571F0D7FE03C079
:1036A000FE01849101C088810E94801621968111BB
:1036B000F2CF8FEF9FEF01C0C801DF91CF911F9133
:1036C0000F91FF90EF90DF9008950F931F93CF938A
:1036D000DF931F92CDB7DEB782E0898342E450E0EA
:1036E00069E275E080E80E943E1B0E94E719DC0158
:1036F00012960D911C9113970115110569F0D801CF
:10370000ED91FC910280F381E02DBE016F5F7F4F50
:10371000C801099597FF07C089810F90DF91CF916C
:103720001F910F910895F80100851185E5CFCF9382
:10373000DF93BC01990F880B990B97FF03C00E9480
:10374000F22103C04AE00E946A21EC018CED91E075
:103750000E9441218C0F9D1FDF91CF9108950F93FF
:103760001F930E94A0196093D8047093D90480938A
:10377000DA049093DB04E091D004F091D104028448
:10378000F385E02D80ED94E0099597FF1FC00E941E
:10379000A0190091D8041091D9042091DA04309135
:1037A000DB04DC01CB01801B910BA20BB30B00915E
:1037B000D4041091D5042091D6043091D7048017F9
:1037C0009107A207B307B8F28FEF9FEF1F910F91F8
:1037D00008951F920F920FB60F9211248F939F930B
:1037E0008091E1009091E100937F9093E10083FF4D
:1037F0000FC01092E90091E09093EB001092EC0062
:1038000092E39093ED0010928F0398E09093F00074
:1038100082FF20C093E09093E9009091F2009923F9
:1038200019F09AE39093E80090919003992339F06E
:1038300090919003915090939003992389F19091E6
:103840008E03992339F090918E03915090938E03BB
:10385000992341F184FF10C08091E2008E7E816047
:103860008093E2008091E1008F7E8093E10080915F
:103870008D038E7E806111C080FF16C08091E200B2
:103880008E7E80618093E2008091E1008E7E809345
:10389000E10080918D038E7E816080938D0304C052
:1038A0005D9ACDCF289AD6CF9F918F910F900FBE62
:1038B0000F901F9018951F920F920FB60F92112420
:1038C000CF92DF92EF92FF920F931F932F933F932C
:1038D0004F935F936F937F938F939F93AF93BF9318
:1038E000EF93FF93CF93DF93CDB7DEB76C97DEBF37
:1038F000CDBF1092E9008091E80083FFEDC168E040
:10390000CE0145960E94AE1682EF8093E8008D8925
:1039100087FF05C09091E80090FFFCCF03C09EEFA9
:103920009093E800982F907609F0C6C09E892F8961
:10393000188D91110CC0803829F480918C038093EC
:10394000F10002C01092F1001092F10048C1422F24
:1039500050E0512B913051F4811141C1413051055A
:1039600009F03DC180918C038D7F0BC0933061F4D1
:10397000811135C14130510509F031C180918C036D
:10398000826080938C032BC1953041F48091E800D4
:1039900080FFFCCF20682093E30021C1963009F01E
:1039A0005FC0EB8CFC8C1092E90010928A0310929D
:1039B0008903123091F510928803109287030E94B8
:1039C000651B99E0BE016F5F7F4FDB01E92F1D9200
:1039D000EA95E9F799831A8391E09E8390EA9887A4
:1039E0009AEF99872091890330918A03275F3F4F8F
:1039F0003C832B838D831092E90010928A031092EE
:103A00008903F0928803E092870349E050E080E068
:103A10000E943E1B0E94651BE2C0F0928803E09268
:103A200087030E94E719DC011296ED90FC90139732
:103A3000E114F10409F4C0C0D701ED91FC910480B8
:103A4000F581E02DBE016B5E7F4FC70109950097A0
:103A500019F00CF0C4C0C7C0F701E084F184E8CFCE
:103A6000973009F4C0C0983021F481E08093F100D0
:103A7000B6C0993009F0B3C0837009F0B4C0E9E36F
:103A8000F1E081E021E036E39081992361F08093B9
:103A9000E9002093EB0091919093EC003093ED00BE
:103AA0008F5F873089F78EE78093EA001092EA00F3
:103AB0008F8980938F0393C08B8D9C8D1092E9002A
:103AC00010928A031092890390938803809387034E
:103AD000898D811156C08E899D89913A59F4813220
:103AE00009F081C047E050E06CE171E080E00E94A5
:103AF0003E1B75C0913209F076C0833289F4888DFF
:103B000090E0982F88272F89822BA0E0B0E0809347
:103B1000180190931901A0931A01B0931B015FC083
:103B2000803269F48091E80082FFFCCF67E08CE18D
:103B300091E00E94AE168BEF8093E80006C08232BF
:103B400009F04DC08F898093230180918B038823D6
:103B500019F0EEEFFAE002C0E0E0F8E080911C011D
:103B600090911D01A0911E01B0911F01803B9440D6
:103B7000A105B10509F07BC08091230180FF93C0AE
:103B800076C00E94E719DC0112960D911C911397E3
:103B90000115110541F1D801ED91FC910190F081E1
:103BA000E02DBE016B5E7F4FC8010995811117C0E2
:103BB000F80100851185ECCF113009F44EC01330A7
:103BC00091F48F89882309F445C0823081F440E85C
:103BD0006BE08DE895E00E94011B882321F08EEFB9
:103BE0008093E80079C081E28093EB0075C081305A
:103BF00029F440E86BE081E895E0EDCF833099F758
:103C00000E94E719DC011296ED90FC9013978E014B
:103C10000F5F1F4F6801E114F10479F0D701ED91B6
:103C2000FC910680F781E02DB801C7010995080FC6
:103C3000111DF701E084F184EECFD8011C92F6014A
:103C400001900020E9F73197BF016C197D0940E030
:103C5000C601C1CF6BE675E002C06FE675E0611585
:103C6000710509F2FB01449150E080E840CF0FB6A6
:103C7000F894A8958091600088618093600010920C
:103C800060000FBEA895EE3F2AE0F20739F0809160
:103C9000FE0A9091FF0A91838083A1CF1092FF0AC0
:103CA0001092FE0A9CCFEE3F8AE0F80731F0808147
:103CB00091819093FF0A8093FE0A87E797E79183AB
:103CC00080839BE088E10FB6F894A895809360000C
:103CD0000FBE9093600083CF6C960FB6F894DEBF52
:103CE0000FBECDBFDF91CF91FF91EF91BF91AF910B
:103CF0009F918F917F916F915F914F913F912F9104
:103D00001F910F91FF90EF90DF90CF900F900FBE1B
:103D10000F901F901895FC018091BD049091BE04F6
:103D2000892B21F421E0309749F413C08091B90424
:103D30009091BA04309731F421E0FC01808188230E
:103D400041F006C0BF010E94542C21E0892B09F0EC
:103D500020E0822F08952F923F924F925F926F92B0
:103D60007F928F929F92AF92BF92CF92DF92EF920B
:103D7000FF920F931F93CF93DF93CDB7DEB72B97AF
:103D80000FB6F894DEBF0FBECDBF9B878A875B015D
:103D90001901FD82EC823A01600E711E872C7B8234
:103DA000912C44244A94542C9B01240F351F3F83AB
:103DB0002E839101200F311F39872887EA85FB85E3
:103DC0008085981608F036C1AA85BB8514965C924A
:103DD0004E92139715968D919C911697DC01ED915B
:103DE000FC910190F081E02D6FEF09956FEF8A85CE
:103DF0009B850E94D510EA85FB8585819681DC0133
:103E0000ED91FC910190F081E02DAA85BB856C912C
:103E10000995EA85FB856081CF010E94D510AA85AE
:103E2000BB8515968D919C911697DC01ED91FC91C7
:103E30000190F081E02D682D09956B818A859B8525
:103E40000E94D510EA85FB8585819681DC01ED9184
:103E5000FC910190F081E02D662D0995662D8A85F3
:103E60009B850E94D51075012E813F81E216F306D5
:103E7000B1F0EA85FB85858196818701DC01ED91B2
:103E8000FC910190F081E02DD7016D917D010995A4
:103E9000F80160818A859B850E94D510E5CF71016C
:103EA000AA85BB8515968D919C9116972885398595
:103EB000E216F30691F08701DC01ED91FC9101908F
:103EC000F081E02DD7016D917D010995F8016081A8
:103ED0008A859B850E94D510E3CFDC01ED91FC9192
:103EE000AA85BB8514966C910190F081E02D09950F
:103EF000EA85FB8585819681DC01ED91FC9101903D
:103F0000F081E02DAA85BB8513966C91099564E636
:103F100070E08A859B850E949E108F3F910509F075
:103F20007DC0EA85FB85548243826FEFCF010E94FA
:103F3000D51065E070E08A859B850E949E10AA8559
:103F4000BB856C91262F30E08217930709F066C07D
:103F5000CD010E94D5106AE070E08A859B850E94A1
:103F60009E107C0197FD5AC0682F8A859B850E9410
:103F7000D5106AE070E08A859B850E949E108C01B6
:103F800097FD4CC0682F8A859B850E94D510EA82D8
:103F90001982E981FA810E0F1F1FE12CF12C65E0D7
:103FA00070E08A859B85E016F106A9F0EC14FD040B
:103FB00091F00E949E1097FD0AC0EC81FD81EE0DEC
:103FC000FF1D8083682F8A859B850E94D510FFEF97
:103FD000EF1AFF0AE4CF0E949E107C0197FD1EC0DD
:103FE00065E070E08A859B850E949E1097FD16C053
:103FF000FE2CEE248E0D9F1DAA85BB8513962D9158
:104000003C9114972817390749F48C918F5F8C9352
:10401000C801C016D10680F4C6010EC0939464E6B0
:1040200070E080E090E00E9466198A859B850E947E
:104030008210C4CE8FEF9FEF2B960FB6F894DEBFA1
:104040000FBECDBFDF91CF911F910F91FF90EF90E9
:10405000DF90CF90BF90AF909F908F907F906F90A8
:104060005F904F903F902F900895EF92FF920F93A3
:104070001F93CF93DF93CDB7DEB727970FB6F89492
:10408000DEBF0FBECDBF7C018B0161EF72E0CE01C0
:1040900001960E942C18B701CE0101960E940717C5
:1040A0006BE872E0CE0101960E940717B801CE01BD
:1040B00001960E9407174D815E8169817A8101E036
:1040C00010E09E01295F3F4F85EC94E00E94EC10C8
:1040D000CE0101960E948A1727960FB6F894DEBF8C
:1040E0000FBECDBFDF91CF911F910F91FF90EF9049
:1040F0000895909109049111FCCF91E090930904E7
:10410000909308042FEF2093070410920604260FC3
:10411000209305049093040490910404880F892B44
:104120008093040480910304813061F410920304AD
:10413000809104048093BB008091BC0083FDF8CF84
:1041400085EC01C085EE8093BC008091090481302C
:10415000E1F380910604861710F460910604A3EE43
:10416000B3E023EC33E0F9018E2F821B861718F49D
:104170008D918193F9CF862F08952091C20390915C
:10418000C103213208F04AC0809109048111FCCF9B
:1041900032E03093090431E0309308043FEF30936C
:1041A00007041092060420930504A1EAB3E043EE4D
:1041B00053E0FA013E2F341B321718F43D9131932E
:1041C000F9CF1092040420910404990F922B90933C
:1041D000040490910304913061F4109203049091CF
:1041E00004049093BB009091BC0093FDF8CF95EC34
:1041F00001C095EE9093BC00909109049230E1F3D8
:10420000909107049F3F79F080910704803241F03C
:1042100080910704803331F084E005C081E003C061
:1042200082E001C083E01092A0031092C2031092BA
:104230009F0308951F93CF93DF931F92CDB7DEB7EF
:10424000162F91E090939F038093C1031092A003D7
:104250001092C20361E087EA94E079830E94AE0E77
:104260007981672F87EA94E00E94AE0E612F87EA7A
:1042700094E00E94AE0E0F90DF91CF911F910C94AD
:10428000BD20BC01009791F0FC0101900020E9F7EE
:104290003197AF01481B590BE0915205F09153053E
:1042A0000280F381E02D82E595E0099480E090E0C2
:1042B0000895CF93DF93BC0182E595E00E948718B3
:1042C000EC018CED91E00E9441218C0F9D1FDF914C
:1042D000CF9108958F929F92AF92BF920F931F93A9
:1042E000CF93DF93CDB7DEB7A1970FB6F894DEBFBB
:1042F0000FBECDBF19A2423008F44AE08E010F5D17
:104300001F4F842E912CA12CB12CA50194010E9449
:10431000132AE62FB901CA0101501109EA3014F439
:10432000E05D01C0E95CD801EC93232B242B252B05
:1043300061F7C8010E944121A1960FB6F894DEBF33
:104340000FBECDBFDF91CF911F910F91BF90AF9066
:104350009F908F900895E0915205F0915305DC01F4
:1043600014964D915C9115976D917C910280F3812B
:10437000E02D82E595E00994CF93DF930E94AB2175
:10438000EC018CED91E00E9441218C0F9D1FDF918B
:10439000CF9108950C94412110929E0310929D0399
:1043A0001092A0031092C2031092090481E080933E
:1043B00008041092030461E082E00E94031961E0A6
:1043C00083E00E940319E9EBF0E080818E7F808317
:1043D00080818D7F808388E48093B80085E480931A
:1043E000BC000895CF92DF92EF92FF92CF93DF93BC
:1043F0006B017C01E0915205F09153050190F08131
:10440000E02D6DE282E595E00995EC0166277727BE
:10441000CB016C197D098E099F094AE00E946A212F
:104420008C0F9D1FDF91CF91FF90EF90DF90CF9089
:104430000895CF93DF93CDB7DEB72C970FB6F894DE
:10444000DEBF0FBECDBF789484B5826084BD84B5D5
:10445000816084BD85B5826085BD85B5816085BD7F
:1044600080916E00816080936E0010928100809137
:1044700081008260809381008091810081608093BF
:104480008100809180008160809380008091910004
:10449000826080939100809191008160809391006F
:1044A000809190008160809390008091C100846031
:1044B0008093C1008091C10082608093C10080918F
:1044C000C10081608093C1008091C30081608093AE
:1044D000C3008091C00082608093C0008091C200C0
:1044E00081608093C20080917A00846080937A001A
:1044F00080917A00826080937A0080917A00816056
:1045000080937A0080917A00806880937A0010927C
:104510008F0310928C0310928D038091D7008160DD
:104520008093D70080EA8093D80089B5806189BDE7
:1045300089B5826089BD09B400FEFDCF61E070E0FD
:1045400080E090E00E9466198091D8008F7C8061A5
:104550008093D8008091E000807F8093E00080917C
:10456000E1008E7E8093E1008DE08093E200559A19
:10457000209AEEEFFFE7859194918B3F9C4D19F4C3
:1045800081E080938B03E7E1F5E02491E8EFF4E02C
:104590008491882399F090E0880F991FFC01E352E1
:1045A000FB4FA591B491FC01E153FB4F8591949190
:1045B0008FB7F894EC91E22BEC938FBF0FE010E0F3
:1045C0000E945F0501501109D9F70E94CC21E091AA
:1045D000CE04F091CF04A089B18982E08C93A485A8
:1045E000B5851C92A685B78587E08C93108EA4892B
:1045F000B58986E08C93A289B3898C9180618C9374
:10460000A289B3898C9188608C93A289B3898C919B
:1046100080688C930288F389E02D80818F7D808370
:104620008091CC04811107C081E08093CC0485EC9B
:1046300094E00E94191380915E0590915F05FC0142
:104640002781211104C021E027830E94191382E5EC
:1046500095E00E94691080E290E00E944F2A9093BA
:1046600063058093620500E012E01093510500930A
:1046700050050E94CC2110934C0500934B050E94DD
:10468000CC2160918503709186034AE0CE010196AA
:104690000E94BF176EEB71E0CE0107960E942C18A6
:1046A00069817A818F8198850E943520CE01079695
:1046B0000E948A17CE0101960E948A1766EF71E068
:1046C000CE0101960E942C1866E272E0CE01079698
:1046D0000E942C1869817A818F8198850E943520EB
:1046E000CE0107960E948A17CE0101960E948A1772
:1046F0004AE061E070E0CE0101960E94BF1767E6D4
:1047000072E0CE0107960E942C1869817A818F8110
:1047100098850E943520CE0107960E948A17CE0107
:1047200001960E948A170E94F8090E942816FBCF62
:1047300083EB94E00E948A1789EB94E00E948A1729
:104740008FEB94E00E948A1787E991E09093D1045F
:104750008093D00480ED94E00E94281289EB95E0CC
:104760000E948A1784E295E00E948A178AE295E007
:104770000E948A1780E395E00E948A1786E395E0FD
:104780000E948A178CE395E00E948A1782E495E0E4
:104790000E948A1789EA91E090935305809352050D
:1047A00082E595E00C946910CF92DF92EF92FF9230
:1047B000CF93DF93E9E6F5E01382128288EEC82EEC
:1047C00083E0D82EE12CF12CC482D582E682F782D8
:1047D00083E491E0918380838FEF9FEF95878487B7
:1047E000EAE0F4E013821282C482D582E682F78284
:1047F00085E591E0918380838DEC90E095878487B7
:104800008CEC90E09787868788EC90E0918B808B8A
:1048100089EC90E0938B828B8AEC90E0958B848B73
:104820008EEC90E0978B868B118E128E138E148EE9
:10483000A2E5B5E013961C921E9212971496CD92A3
:10484000DD92ED92FC92179789EA91E011969C9384
:104850008E93C5ECD4E01D96DC93CE931C971E96E8
:104860001C921E971F961C921F9751961C921E9287
:10487000509781E052968C931882FE83ED831F82BD
:104880001886FA87E987E7EAF4E013821282C48285
:10489000D582E682F78287E691E091838083EDE41A
:1048A000F5E088E480831482138288E08183128299
:1048B000E8E4F5E01482138299E490838183128204
:1048C00069E972E082E495E00E942C1868EA72E0DF
:1048D0008CE395E00E942C1869EB72E086E395E08A
:1048E0000E942C1868EC72E080E395E00E942C187E
:1048F00066ED72E08AE295E00E942C1864EE72E0A8
:1049000084E295E00E942C1869EF71E089EB95E054
:104910000E942C18E0EDF4E013821282C482D5824A
:10492000E682F78287E991E091838083D587C48707
:10493000118A128A138A69EF71E08FEB94E00E946A
:104940002C1869EF71E089EB94E00E942C1869EF54
:1049500071E083EB94E0DF91CF91FF90EF90DF90D7
:10496000CF900C942C18EF920F931F93CF93DF935B
:10497000E80147FD02C034E001C034E1E42F440FF8
:10498000FF0BF7FF03C0F195E195F109E32E022F2C
:104990002E2FAE010E944F25CE01DF91CF911F91A6
:1049A0000F91EF9008951F93FC0199278827BC0170
:1049B000E89411911032E9F3193010F01E30C8F369
:1049C0001B3251F01D3249F4689406C00E94202524
:1049D000610F711D811D911D119110531A30B0F39B
:1049E0003EF490958095709561957F4F8F4F9F4FC6
:1049F0001F910895FB01DC0105900D920020E1F765
:104A00000895FC0105900020E9F7809590958E0FA0
:104A10009F1F08954532510520F4423010F00C9448
:104A20001525FB011082CB010895BB274A3031F4D4
:104A3000992322F4BDE2909581959F4F0C943625E1
:104A4000592F482F372F262F660F771F881F991F42
:104A5000660F771F881F991F620F731F841F951F92
:104A6000660F771F881F991F0895BB27FB015527E5
:104A7000AA27880F991FAA1FA41710F0A41B8395BB
:104A80005051B9F7A05DAA3308F0A95DA193009732
:104A900079F7B111B1931192CB010C94B5274F92D4
:104AA0005F926F927F929F92AF92BF92CF92DF926E
:104AB000EF92FF920F931F93CF93DF93CDB7DEB7A3
:104AC00029970FB6F894DEBF0FBECDBF6A01122F33
:104AD000B02E2BE3201720F0FF24F394F00E02C039
:104AE000BCE3FB2E0F2D27E0AE014F5F5F4F0E940E
:104AF000DD26AC018981982F9970913031F0E1FC6D
:104B000006C0E0FE06C090E205C09DE203C09BE245
:104B100001C090E0EE2DE07183FF3CC0911102C016
:104B200083E001C084E0811718F4212F281B01C005
:104B300020E0E1110BC0F601822F30E2882319F04A
:104B400031938150FBCFC20ED11C20E0992329F074
:104B5000D6019C93F60131966F01C6010396E2FEE1
:104B60000AC03EE4D6013C9341E411964C93119760
:104B700012963C9306C03EE6F601308341E641833F
:104B80003283FC01322F40E2332309F442C04193C7
:104B90003150FACF82FF44C0911102C083E001C0BE
:104BA00084E0811718F4212F281B01C020E0E111B7
:104BB0000BC0F601822F30E2882319F03193815027
:104BC000FBCFC20ED11C20E0992329F0D6019C9383
:104BD000F60131966F01C6010396E2FE0BC039E47F
:104BE000D6013C933EE411963C93119736E412961D
:104BF0003C9307C039E6F60130833EE6318336E662
:104C00003283FC01322F40E2332319F041933150BB
:104C1000FBCFFC01E20FF11D10828EEF9FEFB7C0BA
:104C2000F1E0911101C0F0E06F2F70E0141615064D
:104C300024F49A012F5F3F4F02C021E030E0260F9D
:104C4000371FBB2029F06B2D70E06F5F7F4F02C0D4
:104C500060E070E0260F371F612F70E026173707DE
:104C60001CF4121B212F01C020E03E2D387159F495
:104C7000D601322F60E2332319F06D933150FBCF10
:104C8000C20ED11C20E0FF2331F0D6019C93B60167
:104C90006F5F7F4F6B01E1110BC0F601922F30E384
:104CA000992319F031939150FBCFC20ED11C20E013
:104CB0009F2D940F3A81782F7071A72E84FF03C027
:104CC000313309F49150191624F4993018F098E012
:104CD00001C091E0E42F852F57FF02C0E0E080E0A3
:104CE0006E2F782FE0E0F0E0AEE29A2E3A01691ADA
:104CF00071082A01461A570A0B2D10E011950195EB
:104D000011096F3F8FEF780729F4D6019C92C601F5
:104D100001966C014617570784F0661677066CF407
:104D20007F01E40CF51CA1E0B0E0AC0FBD1FEA0E62
:104D3000FB1ED7011196BC9002C090E3B92E6150C2
:104D400071093196C60101967C016017710724F044
:104D5000D601BC926C01D5CF6417750741F4363388
:104D600020F4353321F4A11002C081E3B82EF601FE
:104D7000B082F701822F90E2882319F0919381503D
:104D8000FBCFF701E20FF11D108280E090E0299641
:104D90000FB6F894DEBF0FBECDBFDF91CF911F914C
:104DA0000F91FF90EF90DF90CF90BF90AF909F90CA
:104DB0007F906F905F904F900895283008F027E023
:104DC0003327DA01990F311D87FD91600096610547
:104DD000710539F432602E5F3D9330E32A95E1F797
:104DE00008959F3F30F080387105610509F03C5F00
:104DF0003C5F3D93913008F08068911DDF93CF9325
:104E00001F930F93FF92EF92192F987F9695E92F9A
:104E100096959695E90FFF27EC5AFE4F9927332771
:104E2000EE24FF24A701E70105900894079428F4D5
:104E3000360FE71EF81E491F511D660F771F881F8A
:104E4000991F0694A1F70590079428F4E70EF81E21
:104E5000491F561FC11D770F881F991F661F069493
:104E6000A1F70590079428F4F80E491F561FC71F95
:104E7000D11D880F991F661F771F0694A1F7059013
:104E8000079420F4490F561FC71FD81F990F661F9C
:104E9000771F881F0694A9F784911095177041F029
:104EA000D695C79557954795F794E7941A95C1F706
:104EB000EAEFF0E068941590159135916591959120
:104EC00005907FE27395E118F10A430B560BC90B6D
:104ED000D009C0F7E10CF11E431F561FC91FD01D9A
:104EE0007EF4703311F48A95E6CFE894015030F0E7
:104EF000080F0AF40027021708F4202F2395022F29
:104F00007A3328F079E37D932A95E9F710C07D93F1
:104F10002A9589F60694979567953795179517946E
:104F2000E118F10A430B560BC90BD00998F02395F1
:104F30007E9173957A3308F070E37C932013B8F771
:104F40007E9170617D9330F0839571E37D9370E382
:104F50002A95E1F71124EF90FF900F911F91CF91C7
:104F6000DF91992787FD90950895DC01FC01672F5B
:104F700071917723E1F7329704C07C916D93708330
:104F80006291AE17BF07C8F308950E94072808F47E
:104F900081E00895E89409C097FB3EF490958095D0
:104FA000709561957F4F8F4F9F4F9923A9F0F92FEF
:104FB00096E9BB279395F695879577956795B7956D
:104FC000F111F8CFFAF4BB0F11F460FF1BC06F5F53
:104FD0007F4F8F4F9F4F16C0882311F096E911C065
:104FE000772321F09EE8872F762F05C0662371F086
:104FF00096E8862F70E060E02AF09A95660F771F9A
:10500000881FDAF7880F9695879597F90895990F75
:105010000008550FAA0BE0E8FEEF16161706E80782
:10502000F907C0F012161306E407F50798F0621BA3
:10503000730B840B950B39F40A2661F0232B242B78
:10504000252B21F408950A2609F4A140A6958FEF97
:10505000811D811D08950E943E280C94AF280E9456
:10506000A12838F00E94A82820F0952311F00C9474
:1050700098280C949E2811240C94E3280E94C028A0
:1050800070F3959FC1F3950F50E0551F629FF0019B
:10509000729FBB27F00DB11D639FAA27F00DB11DB4
:1050A000AA1F649F6627B00DA11D661F829F22273D
:1050B000B00DA11D621F739FB00DA11D621F839FC4
:1050C000A00D611D221F749F3327A00D611D231F9A
:1050D000849F600D211D822F762F6A2F11249F57E8
:1050E00050409AF0F1F088234AF0EE0FFF1FBB1FEB
:1050F000661F771F881F91505040A9F79E3F5105AA
:1051000080F00C9498280C94E3285F3FE4F3983ED9
:10511000D4F3869577956795B795F795E7959F5F53
:10512000C1F7FE2B880F911D9695879597F90895E5
:1051300097F99F6780E870E060E008959FEF80EC4A
:10514000089500240A9416161706180609060895ED
:1051500000240A9412161306140605060895092E53
:105160000394000C11F4882352F0BB0F40F4BF2BC2
:1051700011F460FF04C06F5F7F4F8F4F9F4F089502
:1051800057FD9058440F551F59F05F3F71F04795F8
:10519000880F97FB991F61F09F3F79F087950895DD
:1051A000121613061406551FF2CF4695F1DF08C0FC
:1051B000161617061806991FF1CF86957105610519
:1051C00008940895E894BB2766277727CB0197F9C1
:1051D00008952F923F924F925F926F927F928F929B
:1051E0009F92AF92BF92CF92DF92EF92FF920F9376
:1051F0001F93CF93DF93CDB7DEB7CA1BDB0B0FB680
:10520000F894DEBF0FBECDBF09942A88398848883C
:105210005F846E847D848C849B84AA84B984C884D2
:10522000DF80EE80FD800C811B81AA81B981CE0FC9
:10523000D11D0FB6F894DEBF0FBECDBFED010895AE
:105240005058BB27AA270E9438290C94AF280E94E7
:10525000A12838F00E94A82820F039F49F3F19F4C3
:1052600026F40C949E280EF4E095E7FB0C94982805
:10527000E92F0E94C02858F3BA1762077307840702
:10528000950720F079F4A6F50C94E2280EF4E09549
:105290000B2EBA2FA02D0B01B90190010C01CA01F0
:1052A000A0011124FF27591B99F0593F50F4503E9B
:1052B00068F11A16F040A22F232F342F4427585F8D
:1052C000F3CF469537952795A795F0405395C9F7A5
:1052D0007EF41F16BA0B620B730B840BBAF091505D
:1052E000A1F0FF0FBB1F661F771F881FC2F70EC0FC
:1052F000BA0F621F731F841F48F4879577956795CF
:10530000B795F7959E3F08F0B0CF9395880F08F0BA
:105310009927EE0F9795879508950E94A1290C94DF
:10532000AF280E94A82858F00E94A12840F029F434
:105330005F3F29F00C94982851110C94E3280C94A9
:105340009E280E94C02868F39923B1F3552391F356
:10535000951B550BBB27AA2762177307840738F0E4
:105360009F5F5F4F220F331F441FAA1FA9F335D041
:105370000E2E3AF0E0E832D091505040E695001CF5
:10538000CAF72BD0FE2F29D0660F771F881FBB1FAF
:10539000261737074807AB07B0E809F0BB0B802D8D
:1053A000BF01FF2793585F4F3AF09E3F510578F0B9
:1053B0000C9498280C94E3285F3FE4F3983ED4F3D0
:1053C000869577956795B795F7959F5FC9F7880F8D
:1053D000911D9695879597F90895E1E0660F771FDF
:1053E000881FBB1F621773078407BA0720F0621B70
:1053F000730B840BBA0BEE1F88F7E095089597FBAB
:10540000072E16F4009407D077FD09D00E943B2A9E
:1054100007FC05D03EF4909581959F4F08957095B7
:1054200061957F4F0895A1E21A2EAA1BBB1BFD01B7
:105430000DC0AA1FBB1FEE1FFF1FA217B307E40773
:10544000F50720F0A21BB30BE40BF50B661F771FCB
:10545000881F991F1A9469F76095709580959095AB
:105460009B01AC01BD01CF010895EE0FFF1F059018
:10547000F491E02D0994AA1BBB1B51E107C0AA1FA0
:10548000BB1FA617B70710F0A61BB70B881F991FE5
:105490005A95A9F780959095BC01CD010895CF93B9
:1054A000DF938230910510F482E090E0E091C10535
:1054B000F091C20520E030E0C0E0D0E0309711F17B
:1054C0004081518148175907C0F04817590761F4C6
:1054D00082819381209719F09B838A832BC09093BC
:1054E000C2058093C10526C02115310519F0421768
:1054F000530718F49A01BE01DF01EF010280F38126
:10550000E02DDCCF2115310509F1281B390B2430A2
:10551000310590F412968D919C9113976115710548
:1055200021F0FB019383828304C09093C205809392
:10553000C105FD01329644C0FD01E20FF31F8193C6
:105540009193225031092D933C933AC02091BF058D
:105550003091C005232B41F4209126013091270181
:105560003093C0052093BF0520912401309125017F
:105570002115310541F42DB73EB7409128015091D6
:105580002901241B350BE091BF05F091C005E217FE
:10559000F307A0F42E1B3F0B2817390778F0AC0156
:1055A0004E5F5F4F2417350748F04E0F5F1F509333
:1055B000C0054093BF058193919302C0E0E0F0E005
:1055C000CF01DF91CF9108950F931F93CF93DF9376
:1055D000009709F48CC0FC0132971382128200916B
:1055E000C1051091C2050115110581F42081318199
:1055F000820F931F2091BF053091C00528173907EE
:1056000079F5F093C005E093BF0571C0D80140E083
:1056100050E0AE17BF0750F412962D913C911397AE
:10562000AD012115310509F1D901F3CF9D01DA0151
:105630003383228360817181860F971F82179307BE
:1056400069F4EC0128813981260F371F2E5F3F4F07
:10565000318320838A819B8193838283452B29F424
:10566000F093C205E093C10542C01396FC93EE93FC
:105670001297ED01499159919E01240F351FE217B0
:10568000F30771F480819181840F951F0296119622
:105690009C938E938281938113969C938E93129701
:1056A000E0E0F0E0D80112968D919C91139700975D
:1056B00019F0F8018C01F6CF8D919C9198012E5F25
:1056C0003F4F820F931F2091BF053091C0052817CF
:1056D000390769F4309729F41092C2051092C10578
:1056E00002C0138212821093C0050093BF05DF91A0
:1056F000CF911F910F910895A0E0B0E0E2E8FBE2A6
:105700000C94ED28EC01009721F4CB010E944F2A64
:10571000B8C0FC01E60FF71F9C0122503109E217C7
:10572000F30708F4ACC0D9010D911C91119706172D
:105730001707B0F00530110508F49FC0C8010497A1
:105740008617970708F499C002501109061B170B1A
:10575000019311936D937C93CF010E94E42A8DC035
:105760005B01A01AB10A4C01800E911EA091C105E7
:10577000B091C20540E050E0E12CF12C109709F403
:105780004AC0A815B905D1F56D907C9011976301B9
:1057900082E0C80ED11CCA14DB0480F1A3014A19AF
:1057A0005B096A0182E0C80ED11C1296BC90129768
:1057B0001396AC91B5E0CB16D10440F0B282A3832E
:1057C00051834083D9016D937C930AC00E5F1F4FB4
:1057D000C301800F911FF90191838083EB2DFA2F74
:1057E000E114F10431F0D7011396FC93EE93129774
:1057F00044C0F093C205E093C1053FC08D919C91D8
:1058000011974817590708F4AC017D0112960D90C5
:10581000BC91A02DB3CF8091BF059091C005881594
:105820009905E1F446175707C8F480912401909137
:105830002501009741F48DB79EB740912801509102
:105840002901841B950BE817F907C8F4F093C005EC
:10585000E093BF05F901718360830FC0CB010E9403
:105860004F2A7C01009759F0A801BE010E944B2CE1
:10587000CE010E94E42AC70104C0CE0102C080E02C
:1058800090E0CDB7DEB7EEE00C94092981E090E01E
:10589000F8940C947E2CFB01DC0102C001900D9267
:1058A00041505040D8F70895FB01DC018D910190E3
:1058B00080190110D9F3990B0895FB01DC010190C7
:1058C0000D920020E1F70895FB0151915523A9F0B5
:1058D000BF01DC014D9145174111E1F759F4CD01AC
:1058E0000190002049F04D9140154111C9F3FB0191
:1058F0004111EFCF81E090E00197089512E0CEECE6
:10590000D2E004C0FE010E94352A2196CF3CD10787
:06591000C9F7F894FFCF77
:105916000100010001000100010001000100010079
:10592600010001000100FFFFFFFFFFFF00E1000093
:10593600000000000000C305800020002200585827
:10594600585858585831303000C180810000000046
:10595600000000FB197C1A1C1A111A621A201A3E42
:105966001A00000000BF152C155715061688156677
:10597600157A1500000000AE0E7E0EFA02520E7663
:105986000E620E530E0000000057162C15FA02F98F
:10599600025716571657160000000057162C15FA10
:1059A60002F90200000000A8122C15FA021F0EAF21
:1059B600119711841100000000D9120C0FFA02C5CC
:1059C600121312F911E4115B324A005B4800646558
:1059D60076696365456D61696C007265696E6963B8
:1059E6006961722061206365726F0A000D0A0064A6
:1059F600617465002B25542C25412C25642C2542E9
:105A06002C2559003A0030000900486F6F6B2000C2
:105A16002057617474730020416D70730050480004
:105A26004100636C730071756974007265626F6F13
:105A360074007265736574007363616E6E00642032
:105A4600283078006829006578697400656D616999
:105A56006C0073657276696365007265616C746962
:105A66006D65006163636573730064697361726D6C
:105A7600007068617365007374617475734272694E
:105A8600646765004D616E74656E696D69656E74F7
:105A96006F20416374697661646F00FE002F62694E
:105AA6006E2F617368002D63007C416363657373B9
:105AB6002053656E736F72007C4D61676E65746905
:105AC600632053656E736F72007C44697361726DF7
:105AD6002053656E736F72007C5068617365205346
