:100000000C94C3020C94EB020C94EB020C94EB02E4
:100010000C94EB020C94EB020C94EB020C94EB02AC
:100020000C94EB020C94EB020C94061B0C94781BC2
:100030000C94EB020C94EB020C94EB020C94EB028C
:100040000C94EB020C94EB020C94EB020C94EB027C
:100050000C94EB020C94EB020C94EB020C94B21493
:100060000C94EB020C949B0C0C94750C0C94EB020E
:100070000C94EB020C94EB020C94EB020C94EB024C
:100080000C94EB020C94EB020C94EB020C94EB023C
:100090000C94B5030C94EB020C94EB020C94EB0261
:1000A0000C94EB020C94EB020C94EB023B073E0722
:1000B0004107410741074107410741074E075107E3
:1000C000540754075407540754075407620762073C
:1000D0006507650765076507650765073414371405
:1000E00026142A142E145814581458143B143F1470
:1000F000431449144D145814531400407A10F35A01
:1001000000A0724E18090010A5D4E80000E8764857
:10011000170000E40B54020000CA9A3B000000E103
:10012000F505000080969800000040420F00000096
:10013000A08601000000102700000000E803000076
:1001400000006400000000000A0000000000010040
:10015000000000002C76D888DC674F0823DFC1DF61
:10016000AE59E1B1B796E5E3E453C63AE651997664
:1001700096E8E6C28426EB898C9B62ED407C6FFC9E
:10018000EFBC9C9F40F2BAA56FA5F490055A2AF7E0
:100190005C936B6CF9676DC11BFCE0E40D47FEF5E9
:1001A00020E6B500D0ED902E030094357705008051
:1001B000841E080000204E0A000000C80C333333B0
:1001C000330F986E12831141EF8D2114893BE65550
:1001D00016CFFEE6DB18D1844B381BF77C1D901D33
:1001E000A4BBE424203284725E228100C9F124EC95
:1001F000A1E53D270A2053656E7420456D61696C49
:100200002066726F6D20507974686F6E2E2E2E0AE4
:1002100000707974686F6E202F726F6F742F69662B
:100220005F6D61696C2E7079000A20506F737420C5
:1002300044617461204D7953514C2E2E2E0A00706A
:100240007974686F6E202F726F6F742F706F737474
:10025000446174612E707900206465766963652855
:1002600073292E00466F756E642000446F6E652EF4
:1002700000466F756E642069326320446576696359
:100280006520416464726573733A200049324320EB
:1002900041646472657373205363616E6E65722E80
:1002A000200A5363616E6E696E67202E2E2E2E2EED
:1002B0002E2E2E2E2E2E002E000A006D696E7574C5
:1002C0006F730A00496E74726F64757A6361206C93
:1002D0006F73206D696E75746F732064652073652C
:1002E00072766963696F0A003D3D3D3D3D3D3D3D90
:1002F0003D3D3D3D3D3D3D3D3D3D3D3D3D3D3D3D2E
:100300003D3D3D3D3D3D3D3D3D3D0A002020202001
:100310002020202020507265737320456E74657212
:1003200020746F20457869740A0020202020202046
:10033000202020536572766963652054696D650AD3
:10034000003D3D3D3D3D3D3D3D3D3D3D3D3D3D3D1A
:100350003D3D3D3D3D3D3D3D3D3D3D3D3D3D3D3DCD
:100360003D3D3D0A0072657365742D6D63750072C5
:1003700065626F6F74003D3D3D3D3D3D3D3D3D3D02
:100380003D3D3D3D3D3D3D3D3D3D3D3D3D3D3D3D9D
:100390003D3D3D3D3D3D3D3D0A00436F6E736F6CFD
:1003A0006120646520536572766963696F003D3D25
:1003B0003D3D3D3D3D3D3D3D3D3D3D3D3D3D3D3D6D
:1003C0003D3D3D3D3D3D3D3D3D3D3D3D3D3D3D3D5D
:1003D0000A002E0000000000250028002B002E003F
:1003E000310000000000240027002A002D0030000A
:1003F00004040404040304050202020204030202CA
:1004000002020606060606060404020202040404AA
:100410000802011040804010204080408008020403
:1004200001804020100201108010204040205265C1
:10043000666572656E63696120302C302C31303016
:100440002C3130302E2E2E2E2E2E00436F6E736FD9
:100450006C612E2E2E2E2E2E2E2E2E2E2E2E2E2E4B
:100460002E2E2E2E2E2E003D3D3D3D3D3D3D3D3D53
:100470003D3D3D3D3D3D3D3D3D3D3D3D3D3D3D3DAC
:100480003D3D3D3D3D3D3D3D3D0A0056414C5545C0
:1004900020000A0023003D3D3D3D3D3D3D3D3D3DAD
:1004A0003D3D3D3D3D3D3D3D3D3D3D3D3D3D3D3D7C
:1004B0003D3D3D3D3D3D3D3D0A000A003D3D3D3D4C
:1004C0003D3D3D3D3D3D3D3D3D3D3D3D3D3D3D3D5C
:1004D0003D3D3D3D3D3D3D3D3D3D3D3D3D3D0A00BC
:1004E0000A0072756E2D6272696467650A000A00FF
:1004F0000A000000000200090F0000030401000CC4
:1005000000000000000000000000000000000000EB
:1005100000080B00020202010009040000010202AF
:100520000000052400100105240101010424020635
:10053000052406000107058103100040090401009D
:10054000020A0000000705020240000007058302BE
:100550004000000403090412010002EF02014041BF
:1005600023418000010102030141726475696E6FCD
:10057000204C4C430041726475696E6F2059756E52
:1005800000004523092311241FBECFEFDAE0DEBFB0
:10059000CDBF25E0ACEDB2E001C01D92AB3AB20791
:1005A000E1F712E0A0E0B1E0E8EFF7E502C0059066
:1005B0000D92AC3DB107D9F712E0C2ECD2E004C015
:1005C0002197FE010E94A629C13CD107C9F70E94CC
:1005D00036210C94EF2B0C94000085ED8093BC0029
:1005E0008091BC0084FDFCCF1092F10308954091EE
:1005F0000403262F30E0240F311D21323105DCF4B5
:100600002091F1032430C9F4FC0180E090E08617CA
:1006100058F4309104032191DC01AE51BD4FA30F7A
:10062000B11D2C930196F3CF80910403680F609362
:10063000040380E0089581E0089582E0089508951C
:10064000E091860380918503E81730F4F0E0E555EA
:10065000FC4F808190E008958FEF9FEF0895909177
:10066000860380918503981750F4E92FF0E0E55553
:10067000FC4F208130E09F5F9093860302C02FEFF4
:100680003FEFC90108958091850390E02091860392
:10069000821B91090895CF92DF92EF92FF920F9300
:1006A0001F93CF93DF937C01262F972F8A01809190
:1006B0008703882391F0C62FD72F6E01C40ED51E55
:1006C000CC15DD0571F06991D701ED91FC91019098
:1006D000F081E02DC7010995F3CF642F822F0E948E
:1006E000F702C801DF91CF911F910F91FF90EF901A
:1006F000DF90CF900895CF93DF931F92CDB7DEB7F1
:100700006983209187032223D1F02091AA0320320C
:1007100040F021E030E0FC013383228380E090E070
:1007200015C080918803E82FF0E0E757FC4F9981CE
:1007300090838F5F809388038093AA0305C061E054
:10074000CE0101960E94F70281E090E00F90DF91C8
:10075000CF9108950F931F9300E010E020E030E068
:100760000E9455161F910F9108951F920F920FB678
:100770000F9211242F933F934F935F936F937F9327
:100780008F939F93AF93BF93EF93FF938091B900A3
:10079000887F803609F49CC068F5883209F45BC014
:1007A00090F4803109F454C038F4882309F4F6C079
:1007B000883009F44DC0F6C0883109F44CC080324D
:1007C00009F45DC0EFC0803409F468C048F4803398
:1007D00009F455C0883309F0E5C08093EF03D8C011
:1007E000803509F44FC0883509F45DC0883409F0BC
:1007F000D9C0D6C0883909F4C7C0A8F4883709F42D
:1008000067C038F4883609F463C0803709F460C0E3
:10081000C9C0883809F4B8C0803909F45FC080388D
:1008200009F0C0C05BC0803B09F486C038F4803A50
:1008300009F466C0883A09F47FC0B4C0803C09F46A
:10084000A7C0883C09F4A4C0883B09F48AC0AAC0A8
:100850008091EC0310C09091EE038091ED03981706
:1008600070F5E091EE0381E08E0F8093EE03F0E0EF
:10087000E553FC4F80818093BB0085EC86C080935C
:10088000EF038EC0E091EE0381E08E0F8093EE03C4
:100890008091BB00F0E0E553FC4F80839091EE0324
:1008A0008091ED036EC0E091EE0381E08E0F8093A6
:1008B000EE038091BB00F0E0E553FC4F8083809114
:1008C000F00381116DC081E08093EB0384EA61C085
:1008D00083E08093F10310922803CFCF8091280307
:1008E000803208F051C0E091280381E08E0F8093A0
:1008F00028038091BB00F0E0E85FFC4F8083BDCF10
:1009000085EC8093BC001092F10380912803803223
:1009100030F4E0912803F0E0E85FFC4F1082609132
:10092000280370E0E0910603F091070388E093E06C
:1009300009951092280336C084E08093F103109249
:10094000050310920403E0910203F091030309955B
:1009500080910403811105C081E08093040310920B
:10096000E202E091050381E08E0F80930503F0E041
:10097000EE51FD4F80818093BB00909105038091E3
:100980000403981708F479CF85E88093BC000AC067
:1009900085EC8093BC001092F10304C01092EF0329
:1009A0000E94ED02FF91EF91BF91AF919F918F91C6
:1009B0007F916F915F914F913F912F910F900FBE5B
:1009C0000F901F90189561E08DE00E94091464E675
:1009D00070E080E090E00E946C1460E08DE00E9486
:1009E000091464E670E080E090E00C946C140F93BE
:1009F0001F93CF93DF93CDB7DEB7CA55D1090FB69A
:100A0000F894DEBF0FBECDBF6091290370912A0319
:100A10004AE0CE018B5A9F4F0E94890B67EB71E031
:100A2000CE0101960E94F60B67966EAD7FAD67977B
:100A300089819A810E94521FCE0101960E94540B17
:100A4000CE018B5A9F4F0E94540B1C821B8288EE52
:100A500093E0A0E0B0E08D839E83AF83B88707E981
:100A600011E01A8309838DEA94E09E878D871A8AA4
:100A70001B8A1C8A61E172E0CE018B5A9F4F0E9453
:100A8000B50BBE016B5A7F4FCE0101960E94BD1679
:100A9000CE018B5A9F4F0E94540B64EF71E08AE3A2
:100AA00095E00E94510C1A830983CE0101960E94A1
:100AB0004415C65ADF4F0FB6F894DEBF0FBECDBF48
:100AC000DF91CF911F910F9108952F923F924F92F6
:100AD0005F926F927F928F929F92AF92BF92CF92CE
:100AE000DF92EF92FF920F931F93CF93DF93CDB7D7
:100AF000DEB7C156D1090FB6F894DEBF0FBECDBF29
:100B00000E948D120E9496120E94FC0C6AE275E00F
:100B100087EA94E00E943D0B06E010E01093E102AA
:100B20000093E0021092DF021092DE0281E090E07A
:100B30009093DD028093DC020E94C9106EE175E0A3
:100B400087EA94E00E943D0B88E090E09093E102F8
:100B50008093E0021093DF020093DE0280E490E0D5
:100B60009093DD028093DC020E94C91068E175E079
:100B700087EA94E00E943D0B0E94990E1C821B8222
:100B800088EE93E0A0E0B0E08D839E83AF83B887CA
:100B900007E911E01A8309838DEA94E09E878D8727
:100BA0001A8A1B8A1C8A6FE372E0CE018B5A9F4F10
:100BB0000E94B50BBE016B5A7F4FCE0101960E9479
:100BC000BD16CE018B5A9F4F0E94540B69E272E012
:100BD0008AE395E00E94510C1A830983CE010196A5
:100BE0000E94441510922A031092290328E1C22E74
:100BF000D12C38E0632E712C46E0E42EF12C64EF0A
:100C000071E080E090E00E946C1462ED73E08AE392
:100C100095E00E94510C61E08DE00E94091464EFA0
:100C200071E080E090E00E946C1460E08DE00E9432
:100C300009148AE395E00E94C0178A30F1F021E0A0
:100C4000C21AD108E1F6CF59DF4F0FB6F894DEBFD4
:100C50000FBECDBFDF91CF911F910F91FF90EF900D
:100C6000DF90CF90BF90AF909F908F907F906F90CC
:100C70005F904F903F902F9008950E948D120E9498
:100C800096120E94FC0C6EEA73E08AE395E00E94E3
:100C9000510C8AE993E00E94762066E773E08AE3CC
:100CA00095E00E94510C68EE73E080E090E00E94B5
:100CB0006C148AE395E00E94C017A0968FAFA097AE
:100CC00095E0292E312C8AE395E00E9480178091CF
:100CD0004805882309F4D3C28AE395E00E94C0172F
:100CE0008A3009F0C7C283EC91E00E94A81D8823D6
:100CF00041F00E949F1264E572E081EA94E00E9454
:100D0000260B87EC91E00E94A81D882341F064E542
:100D100072E081EA94E00E94260B0E9465058CEC4B
:100D200091E00E94A81D882381F10E949F121C82DD
:100D30001B8288EE93E0A0E0B0E08D839E83AF83BA
:100D4000B88707E911E01A8309838DEA94E09E874A
:100D50008D871A8A1B8A1C8A6FE673E0CE018B5A34
:100D60009F4F0E94B50BBE016B5A7F4FCE0101967B
:100D70000E94BD16CE018B5A9F4F0E94540B1A83BE
:100D80000983CE0101960E94441583ED91E00E94F3
:100D9000A81D882371F11C821B8288EE93E0A0E0DD
:100DA000B0E08D839E83AF83B88707E911E01A8393
:100DB00009838DEA94E09E878D871A8A1B8A1C8A94
:100DC00065E673E0CE018B5A9F4F0E94B50BBE01C2
:100DD0006B5A7F4FCE0101960E94BD16CE018B5AF1
:100DE0009F4F0E94540B1A830983CE0101960E94E3
:100DF000441589ED91E00E94A81D882309F48FC055
:100E00008CE892E00E9476200E94E920812C912CAF
:100E100054018394512C442443944092870380923C
:100E2000A903109288031092AA030E94DA1F81116D
:100E300051C061E772E08AE395E00E94510C4AE0FC
:100E4000C501B4010E9487208FED91E00E94E72048
:100E500040E1C501B4010E94872085EE91E00E9427
:100E6000E7208401F401B097E830F10570F4EA5A04
:100E7000FF4F0C94A62984E295E005C08EE195E031
:100E800002C08CE095E00E94D920F801F897E83084
:100E9000F10570F4E25AFF4F0C94A62988E195E021
:100EA00005C082E195E002C08CE095E00E94D92067
:100EB000F801E854F109E830F10558F4EA59FF4F18
:100EC0000C94A62988E195E002C08CE095E00E9490
:100ED000D92053948FEF881A980AA80AB80A98E77D
:100EE00089169104A104B10409F097CF8BE692E032
:100EF0000E94762084E692E00E947620652D70E0C4
:100F000080E090E04AE00E94872088E592E00E941D
:100F1000762064E572E081EA94E00E94260B88EE78
:100F200091E00E94A81D882341F064E572E081EA07
:100F300094E00E94260B0E9465058FEF91E00E94CD
:100F4000A81D882341F00E94FC0C64E572E081EA50
:100F500094E00E94260B8DEE91E00E94A81D88234C
:100F600061F030922A03209229030E94F70464E57D
:100F700072E081EA94E00E94260B83EF91E00E94E8
:100F8000A81D882309F4B9C00E94FC0C61E473E039
:100F90008AE395E00E94510C6AE273E08AE395E0EF
:100FA0000E94510C6CE073E08AE395E00E94510CC2
:100FB00068EE72E08AE395E00E94510C64EC72E006
:100FC0008AE395E00E94510C8AE395E00E94C017E5
:100FD00084E592E0A1968FAFA197BC0181EA94E0ED
:100FE0000E94260B8AE395E00E94801780914805B5
:100FF000882309F476C08AE395E00E94C017182F71
:10100000082E000C990BC0970A9728F4612F8BE9E2
:1010100094E00E94BE0A1A3009F05EC08BE994E0A9
:101020000E94850A6F966CAF7DAF8EAF9FAF6F97B2
:101030006BEB72E08AE395E00E94510C6D968EADE9
:101040009FAD6D970E94B41A64E572E08BE994E05D
:101050000E94260B2CE36D968EAD9FAD6D97289F59
:101060002001299F500C112400E010E00415150503
:1010700054F568EE73E080E090E00E946C14C801C3
:101080006CE370E00E947029892B31F469EB72E007
:101090008AE395E00E94510C67EB72E08AE395E0E9
:1010A0000E94510C8AE395E00E94C0178A3041F4F7
:1010B00064E572E081EA94E00E94260B0E946505D7
:1010C0000F5F1F4FD3CF64E572E081EA94E00E9486
:1010D000260B0E94650505C0612F81EA94E00E94FD
:1010E000BE0AA1962FADA1972A3009F07BCF64E507
:1010F00072E081EA94E00E94260B8BEF91E00E945F
:10110000A81D882309F451C064E572E081EA94E0E7
:101110000E94260B0E948D120E9496126AE275E0D0
:1011200087EA94E00E943D0BF092E102E092E00237
:101130001092DF021092DE0281E090E09093DD02D7
:101140008093DC020E94C9106EE175E087EA94E0AA
:101150000E943D0B7092E1026092E002F092DF0289
:10116000E092DE0280E490E09093DD028093DC0266
:101170000E94C91068E175E087EA94E00E943D0B87
:101180000E94990E8AE395E00E94C017A2968FAF45
:10119000A2970E949612A2968FADA2978A3009F06C
:1011A000BDCF0E948D120E949F1284E092E00E94A7
:1011B000A81D8823E1F06AE275E087EA94E00E94C6
:1011C0003D0BF092E102E092E0021092DF021092F9
:1011D000DE0281E090E09093DD028093DC020E94C9
:1011E000C91064E572E081EA94E00E94260B8BE06E
:1011F00092E00E94A81D8823E1F06EE175E087EA85
:1012000094E00E943D0B7092E1026092E002F09245
:10121000DF02E092DE0280E490E09093DD028093B2
:10122000DC020E94C91064E572E081EA94E00E9449
:10123000260B82E192E00E94A81D882371F068E1EC
:1012400075E087EA94E00E943D0B0E94990E64E5E8
:1012500072E081EA94E00E94260B80E090E00E9418
:10126000A81D81110CC064E572E081EA94E00E943F
:10127000260B05C0682F81EA94E00E94BE0AA09662
:101280002FADA0972A3009F01ECDD9CCCF92DF9296
:10129000EF92FF920F931F93CF93DF936C017A012C
:1012A0008B01C0E0D0E0CE15DF0589F0D8016D914B
:1012B0008D01D601ED91FC910190F081E02DC601E8
:1012C0000995892B11F47E0102C02196ECCFC7014C
:1012D000DF91CF911F910F91FF90EF90DF90CF9012
:1012E0000895FC01538D448D252F30E0842F90E02C
:1012F000821B930B541710F0CF9608950197089511
:10130000FC01918D828D981761F0828DDF01A80F0D
:10131000B11D5D968C91928D9F5F9F73928F90E02F
:1013200008958FEF9FEF0895FC01918D828D98179E
:1013300031F0828DE80FF11D858D90E008958FEFDB
:101340009FEF0895FC01918D228D892F90E0805CA4
:101350009F4F821B91098F739927089582EF93E025
:101360000E94A20921E0892B09F420E0822F089530
:101370000E94B72B0F931F93CF93DF93EC018881CB
:101380009981009729F02A813B812617370788F435
:101390008B016F5F7F4F0E94ED2A009761F0998368
:1013A00088831B830A832C813D81232B11F4FC014C
:1013B000108281E001C080E0DF91CF911F910F91F9
:1013C0000895EF92FF920F931F93CF93DF93EC0159
:1013D00081E0888F9B8D8C8D981305C0E889F989F1
:1013E000808185FD24C0F62E0B8D10E00F5F1F4F0E
:1013F0000F731127E02E8C8DE8120CC00FB607FC7E
:10140000FACFE889F989808185FFF5CFCE010E9466
:10141000E813F1CF8B8DFE01E80FF11DE35AFF4F6A
:10142000F0820B8FEA89FB898081806207C0EE8998
:10143000FF896083E889F98980818064808381E005
:1014400090E0DF91CF911F910F91FF90EF90089561
:10145000CF93DF93EC01888D8823C9F0EA89FB895B
:10146000808185FD05C0A889B9898C9186FD0FC052
:101470000FB607FCF5CF808185FFF2CFA889B98927
:101480008C9185FFEDCFCE010E94E813E7CFDF916D
:10149000CF910895409171035091720320916F0391
:1014A0003091700342175307B4F49091E80095709F
:1014B000E1F39091E80092FD19C08093F1008091D2
:1014C00071039091720301968F739927892B19F4F8
:1014D0008EEF8093E80080917103909172030196E2
:1014E000909372038093710381E0089580E00895E2
:1014F000615030F02091F100FC0120830196F8CF7B
:10150000289884E6809376030895FC018081918178
:10151000009711F00C94442460E070E0CB01089532
:10152000EF92FF920F931F93CF93DF93FC012481DF
:1015300035816115710511F480E019C0411551051F
:10154000A9F07B01EC018A01020F131FB8010E9470
:10155000BA09882389F3288139818C819D81B7015B
:10156000820F931F0E94CE2B1D830C8381E0DF919D
:10157000CF911F910F91FF90EF900895CF93DF933C
:1015800000D0CDB7DEB769831A8241E050E0BE01DA
:101590006F5F7F4F0E94900A0F900F90DF91CF9165
:1015A00008956115710551F0FB0101900020E9F7E4
:1015B0003197AF01461B570B0C94900A80E00895B9
:1015C000CF93DF93EC0188819981009711F00E94FD
:1015D000552A198218821D821C821B821A82DF9171
:1015E000CF910895CF93DF93EC01FB0144815581A6
:1015F000608171810E94900A811103C0CE010E9416
:10160000E00ACE01DF91CF910895EF92FF920F9300
:101610001F93CF93DF93EC017B018A01BA010E94F3
:10162000BA09811104C0CE010E94E00A07C01D83DF
:101630000C83B701888199810E94CE2BCE01DF9166
:10164000CF911F910F91FF90EF900895CF93DF936B
:10165000EC016115710559F0FB0101900020E9F7DB
:101660003197AF01461B570B0E94050B02C00E9429
:10167000E00ACE01DF91CF910895CF93DF93EC0183
:10168000FB018617970761F0608171816115710513
:1016900029F0448155810E94050B02C00E94E00A96
:1016A000CE01DF91CF910895FC01808191810C944E
:1016B000552AEF92FF920F931F93CF93DF93CDB7ED
:1016C000DEB7A1970FB6F894DEBF0FBECDBF7C0189
:1016D000CB01BA01F70111821082138212821582A6
:1016E000148242E0420F8E010F5F1F4F0E9424249C
:1016F000BC01C7010E94260BA1960FB6F894DEBF6D
:101700000FBECDBFDF91CF911F910F91FF90EF9052
:1017100008950F931F93CF93DF93CDB7DEB76297F2
:101720000FB6F894DEBF0FBECDBF8C01CB01F80120
:1017300011821082138212821582148250E0BE013F
:101740006F5F7F4F0E947B24BE016F5F7F4FC80198
:101750000E94260B62960FB6F894DEBF0FBECDBF77
:10176000DF91CF911F910F910895EF92FF920F9308
:101770001F93CF93DF93EC01198218821B821A8288
:101780001D821C826115710509F18B01CB010E943C
:1017900072247C01BC01CE010E94BA09811109C0EA
:1017A000CE01DF91CF911F910F91FF90EF900C949C
:1017B000E00AFD82EC82B80188819981DF91CF91A6
:1017C0001F910F91FF90EF900C946B24DF91CF91BC
:1017D0001F910F91FF90EF900895FC0111821082EC
:1017E00013821282158214820C943D0BFC0111822B
:1017F000108213821282158214826115710551F0D4
:10180000FB0101900020E9F73197AF01461B570B10
:101810000C94050B0895BF92CF92DF92EF92FF9246
:101820000F931F93CF93DF937C016B018A01E90132
:101830002417350720F4812F8901C42FD82F64E5A0
:1018400072E0C7010E94F60BD60114968D919C910F
:10185000159708171907D0F48C179D0708F4EC01A9
:10186000D601ED91FC911197EC0FFD1FB080108215
:101870004D915C91BA01600F711FC7010E94260B48
:10188000D601ED91FC91EC0FFD1FB082C701DF91F5
:10189000CF911F910F91FF90EF90DF90CF90BF906D
:1018A0000895EF92FF920F931F93CF93DF938C01D4
:1018B0007B01C0E0D0E0F701EC0FFD1F64916623CF
:1018C00061F0D801ED91FC910190F081E02DC8010B
:1018D0000995892B11F02196EECFCE01DF91CF91A2
:1018E0001F910F91FF90EF9008951F920F920FB6E6
:1018F0000F9211242F933F934F935F936F937F9396
:101900008F939F93AF93BF93EF93FF9382EF93E0F7
:101910000E94E813FF91EF91BF91AF919F918F913A
:101920007F916F915F914F913F912F910F900FBEDB
:101930000F901F9018951F920F920FB60F921124BF
:101940002F938F939F93EF93FF93E0910204F09175
:1019500003048081E0910804F091090482FD12C023
:10196000908180910B048F5F8F7320910C048217FC
:1019700051F0E0910B04F0E0EE50FC4F958F809316
:101980000B0401C08081FF91EF919F918F912F9166
:101990000F900FBE0F901F901895089580E090E073
:1019A0000895E0915003F0915103EE0FFF1FE050B6
:1019B000FF4F80819181019711F40E94F704E0911B
:1019C0005003F0915103EE0FFF1FE050FF4F808155
:1019D00091818A30910561F481E090E09183808368
:1019E00087E292E00E945E2089E392E00C945E2000
:1019F00001969183808308956F927F928F929F9238
:101A0000AF92BF92CF92DF92EF92FF920F931F930C
:101A1000CF93DF93CDB7DEB768970FB6F894DEBFEC
:101A20000FBECDBF88EB94E00E9495168111CBC00C
:101A30006CE372E0CE0101960E94F60B88EB94E015
:101A40000E94441586E090E00E94C0298C01BE01EE
:101A50006F5F7F4F0E94ED0B1093C8040093C70483
:101A6000CE0101960E94540B61E472E0CE01019612
:101A70000E94F60BBE016F5F7F4F88EB94E00E94DF
:101A8000B915CE0101960E94540B88EB94E00E9498
:101A9000661588EB94E00E949516882339F064E679
:101AA00070E080E090E00E946C14F3CF88EB94E04B
:101AB0000E946A1688C0CE0143960E94C82061E544
:101AC00072E0CE0101960E94F60B8F89988D892BCA
:101AD00009F492C00B891C8969817A81C8010E942E
:101AE000D52B009709F488C07C01E01AF10ACE01D9
:101AF00001960E94540B61E572E0CE0101960E94AE
:101B0000F60B8F89988D2D813E818C01021B130B62
:101B10002115310509F074C00FEF1FEFCE010196BA
:101B20000E94540B970140E050E0BE016D5E7F4F74
:101B3000CE010D960E940B0CA7014F5F5F4F9801DD
:101B4000BE016D5E7F4FCE0107960E940B0C2F8960
:101B5000388DA8014F5F5F4FBE016D5E7F4FCE0194
:101B600001960E940B0CCE010D960E94850A70937F
:101B7000650360936403CE0107960E94850A709303
:101B8000630360936203809160039091610390937B
:101B9000170180931601CE0101960E94850A709369
:101BA000610360936003CE0101960E94540BCE0145
:101BB00007960E94540BCE010D960E94540BCE0145
:101BC00043960E94540B88EB94E00E941B1780916F
:101BD000CA04882309F440C064E572E0CE0143964C
:101BE0000E94F60B0E94CC1A97FD65CF682FCE019C
:101BF00043960E94BE0AF6CFEE24EA94FE2C77CFDD
:101C0000009709F489CF8217930708F485CF081746
:101C1000190718F08C01015011098B889C88A98044
:101C2000BA80C40166246A9477247A946401C00E51
:101C3000D11EC816D90670F0B5010E94D52B0097A9
:101C400049F09C01281939090217130708F03901D6
:101C50000196EFCF830162CF2091160130911701D9
:101C600080916003909161032817390709F44CC0F3
:101C700080916403909165030A9724F488E192E0CF
:101C80000E94E7206091640370916503072E000CA9
:101C9000880B990B97FF03C00E940F2103C04AE0F5
:101CA0000E94872081E592E00E94E72080916203F4
:101CB000909163030A9724F488E192E00E94E72060
:101CC0006091620370916303072E000C880B990BDF
:101CD00097FF03C00E940F2103C04AE00E948720A3
:101CE00081E592E00E94E72080916003909161037A
:101CF0000A9724F488E192E00E94E7208091600333
:101D0000909161030E94B41A68960FB6F894DEBFF2
:101D10000FBECDBFDF91CF911F910F91FF90EF903C
:101D2000DF90CF90BF90AF909F908F907F906F90FB
:101D300008954F925F926F927F928F929F92AF928F
:101D4000BF92CF92DF92EF92FF920F931F93CF93A8
:101D5000DF93CDB7DEB768970FB6F894DEBF0FBE3E
:101D6000CDBF60EE74E0CE010D960E94B50B67EA20
:101D700074E0CE0101960E94ED0BBE016F5F7F4FB4
:101D8000CE0107960E94ED0BBE01635F7F4FCE012F
:101D900007960E94F20A0E94C820CE0107960E9470
:101DA000540BCE0101960E94540BCE010D960E9459
:101DB000540B6CEB74E08AE395E00E94510CC12C4B
:101DC000D12C93E0892E912C0E94E30480915E0334
:101DD00090915F03039721F410925F0310925E03CA
:101DE00000E410E0A0905E03B0905F03A114B10482
:101DF00019F485E395E00DC081E0A816B10419F44B
:101E000085E395E00FC0E2E0AE16B10429F480E36B
:101E100095E00E94201508C0F3E0AF16B10491F4DC
:101E200080E395E00E94FC14BC01990F880B990B8C
:101E30000E943D2760934C0370934D0380934E03A3
:101E400090934F0360914C0370914D0380914E032A
:101E500090914F039B01AC010E949C276093480323
:101E60007093490380934A0390934B03209144035A
:101E70003091450340914603509147030E949228B8
:101E80006093440370934503809346039093470304
:101E90000150110909F0A6CF20E030E040E85CE3F2
:101EA0000E949C272B013C0120E030E040E05FE3F2
:101EB0000E949C277B018C01B0E0A0E0F0E0E0E014
:101EC0002B2F3A2F4F2F5E2FB701C8010E943627C4
:101ED0008823C9F09701A801C301B2010E94FE281E
:101EE0009B01AC01B701C8010E94922820E030E0BC
:101EF00040E05FE30E949C27BE2DAF2DF02FE12F25
:101F00007B018C01DDCF20E030E040E05EE3B701F3
:101F1000C8010E949C2720E030E040E950E40E9484
:101F20009C276093400370934103809342039093F6
:101F300043031092440310924503109246031092FB
:101F4000470320E030E048EC52E40E94FE282B01D9
:101F50003C0163E572E0CE0143960E94F60B4AE035
:101F6000B501CE010D960E94890B65E572E0CE01A8
:101F700001960E94F60BBE016F5F7F4FCE01079660
:101F80000E94ED0BBE01635F7F4FCE0107960E945A
:101F9000F20ABE016D5E7F4F0E94F20A0E94C820C5
:101FA000CE0107960E94540BCE0101960E94540B5D
:101FB000CE010D960E94540BCE0143960E94540B05
:101FC0006BE572E0CE0107960E94F60B20E030E050
:101FD00040EF52E4C301B2010E949C27AB01BC0157
:101FE00022E0CE0101960E94590BBE01695F7F4F2E
:101FF000CE0101960E94F20A0E94C820CE010196ED
:102000000E94540BCE0107960E94540B89E592E082
:102010000E94E72062E672E0CE0107960E94F60B6E
:1020200022E0B301A201CE0101960E94590BBE012C
:10203000695F7F4FCE0101960E94F20A0E94D9206B
:10204000CE0101960E94540BCE0107960E94540BBC
:10205000E0915E03F0915F03EE0FFF1FEE0FFF1F95
:10206000EE5AFC4F40825182628273822AE037ED41
:1020700043E25CE3C301B2010E943627181634F133
:1020800090922A0380922903C601089690935103E7
:10209000809350034AE0B601CE0107960E94890B57
:1020A00067ED71E0CE0101960E94F60B6F81788595
:1020B00089819A810E94521FCE0101960E94540B81
:1020C000CE0107960E94540B0E94D10C22E0B3016E
:1020D000A201CE0143960E94590B60915E0370915C
:1020E0005F034AE0CE010D960E94890B68E672E01C
:1020F000CE0101960E94F60BBE016F5F7F4FCE01AD
:1021000007960E94ED0BBE01635F7F4FCE010796DD
:102110000E94F20A6B897C89FC01808191810E9476
:10212000521FCE0107960E94540BCE0101960E94C9
:10213000540BCE010D960E94540BCE0143960E9483
:10214000540B80915E0390915F03019690935F031F
:1021500080935E03FFEFCF1ADF0A83E0C816D10435
:1021600009F032CE68960FB6F894DEBF0FBECDBF31
:10217000DF91CF911F910F91FF90EF90DF90CF9063
:10218000BF90AF909F908F907F906F905F904F9097
:1021900008952F923F924F925F926F927F928F920B
:1021A0009F92AF92BF92CF92DF92EF92FF920F93E6
:1021B0001F93CF93DF93CDB7DEB76A970FB6F8942E
:1021C000DEBF0FBECDBF10923F0310923E036AEBFD
:1021D00074E0CE010F960E94B50B67EA74E08E01A1
:1021E0000F5F1F4FC8010E94ED0BB801CE01099689
:1021F0000E94ED0BBE01615F7F4FCE0109960E94E8
:10220000F20A0E94C820CE0109960E94540BC80110
:102210000E94540BCE010F960E94540B66E974E0A5
:102220008AE395E00E94510CE090DE02F090DF021C
:102230003701660C771CC301855D9C4F2C01C12CB6
:10224000D12CAA24A394B12C62E0262E312C8091AB
:10225000E0029091E102E816F9060CF038C10E9404
:10226000E304E0913E03F0913F03EE0FFF1FE65DB4
:10227000FE4F61E080810E94961F1092860380933A
:102280008503882331F08FE894E00E942F03809328
:102290003D0364E974E0CE0145960E94B50B67EA00
:1022A00074E0CE0109960E94ED0BBE01675F7F4F7F
:1022B000CE010F960E94ED0BBE016B5E7F4FCE01EB
:1022C0000F960E94F20A4C014AE0B801C7010E9431
:1022D0008624F80101900020E9F73197AF01401BF7
:1022E000510BB801C4010E94900A811103C0C401BE
:1022F0000E94E00AC4010E94C820CE010F960E94ED
:10230000540BCE0109960E94540BCE0145960E94B3
:10231000540B83E592E00E94E72090913D03809169
:10232000DC02892380933C03F201EC0DFD1D811139
:1023300040C010923B0311821082F601E60DF71D9A
:10234000E050FF4FB182A0824AE060E070E0CE0131
:1023500045960E94890B4AE0B701CE010F960E9474
:10236000890B6BE672E0C8010E94F60BB801CE0142
:1023700009960E94ED0BBE01615F7F4FCE01099669
:102380000E94F20A6D897E89FC01808191810E9400
:10239000521FCE0109960E94540BC8010E94540B93
:1023A000CE010F960E94540BCE0145960E94540B0D
:1023B00048C081E080933B03B182A0824AE061E0A3
:1023C00070E0CE0145960E94890B4AE0B701CE012C
:1023D0000F960E94890B6BE672E0C8010E94F60B13
:1023E000B801CE0109960E94ED0BBE01615F7F4FDF
:1023F000CE0109960E94F20A6D897E89FC018081D6
:1024000091810E94521FCE0109960E94540BC8016F
:102410000E94540BCE010F960E94540BCE0145969C
:102420000E94540BF6E0EF16F1040CF071C0B0926C
:102430002A03A0922903F0925103E09250030E94D4
:10244000D10C62E974E0CE0145960E94B50B609113
:102450003B0370E04AE0CE010F960E94890B6BE8C7
:1024600074E0C8010E94B50BB801CE0109960E9424
:10247000ED0BBE01615F7F4FCE0109960E94F20A0B
:10248000BE016B5E7F4F0E94F20A0E94C820CE01FF
:1024900009960E94540BC8010E94540BCE010F965E
:1024A0000E94540BCE0145960E94540B8091DC0291
:1024B0009091DD02880F991F9093DD028093DC02DA
:1024C0008FEFE81AF80A92E0C90ED11CC0CE0E9424
:1024D000DA1F67E674E08AE395E00E94510C6A9681
:1024E0000FB6F894DEBF0FBECDBFDF91CF911F9125
:1024F0000F91FF90EF90DF90CF90BF90AF909F90A3
:102500008F907F906F905F904F903F902F900895A5
:1025100030922A03209229038ECF6BE18AE395E063
:102520000E9449138DE692E00C94E7206BE18AE368
:1025300095E00E94491381E792E00C94E7206BE15B
:102540008AE395E00E9449138DE692E00E94E7201D
:102550006BE18AE395E00E94491381E792E00E94D3
:10256000E7208BE494E00E9476208EE294E00C94C5
:10257000762080E090E0892B29F00E94AE0981113D
:102580000C94000008953FB7F89480916B039091EC
:102590006C03A0916D03B0916E0326B5A89B05C096
:1025A0002F3F19F00196A11DB11D3FBFBA2FA92FD2
:1025B000982F8827820F911DA11DB11DBC01CD014F
:1025C00042E0660F771F881F991F4A95D1F708953B
:1025D00008951F93CF93DF93182F81E08093870393
:1025E0001093A903109288031092AA0360E08FE869
:1025F00094E00E947B030E94DA1F62E0812F0E9418
:10260000961F10928603809385038FE894E00E94C2
:102610002F03182F8FE894E00E942F03D12F20E082
:10262000C22F9E01282BC901DF91CF911F910895E0
:10263000CF93DF9300D01F92CDB7DEB729E4298373
:10264000FC0126852A836B8343E050E0BE016F5F67
:102650007F4F848595850E94AA0381E090E00F90CA
:102660000F900F90DF91CF910895CF93DF93FC01EE
:10267000228921110BC0EC01438950E065897689DC
:10268000848595850E94AA0381E08B8BDF91CF9191
:102690000895CF93DF9300D0CDB7DEB7DC0152961B
:1026A0008C915297882379F080E589836A8342E090
:1026B00050E0BE016F5F7F4F1C968D919C911D97DE
:1026C0000E94AA031FC05596ED91FC915697539610
:1026D0008C91539791E0980F53969C935397E80FE2
:1026E000F11D608353969C91539754968C91549707
:1026F000981308C0ED91FC9111970680F781E02DA9
:10270000CD01099581E090E00F900F90DF91CF917E
:1027100008958F929F92AF92BF92CF92DF92EF92E5
:10272000FF920F931F93CF93DF931F92CDB7DEB726
:102730005C019B014A01DC0152968C91811105C01C
:102740007B018B01040F151F31C080E58983C12CEB
:10275000D12CE12CF12C8A0141E050E0BE016F5FE9
:102760007F4FF501848595850E94C81D22C0D50143
:102770005596ED91FC91569753968C91539791E015
:10278000980F53969C93D7019D917D01E80FF11D01
:102790009083F50193898489981308C00190F08192
:1027A000E02D0680F781E02DC5010995E016F106C0
:1027B000F1F6C4010F90DF91CF911F910F91FF901F
:1027C000EF90DF90CF90BF90AF909F908F90089543
:1027D000FC01848DDF01A80FB11DA35ABF4F2C91BE
:1027E000848D90E001968F739927848FA689B7898D
:1027F0002C93A089B1898C9180648C93938D848D66
:10280000981306C00288F389E02D80818F7D808334
:102810000895362F90E0FC01EE50FB4F4491FC01EF
:10282000E15FFB4F2491FC01E051FC4F8491882330
:1028300009F451C04423E1F150E0FA013197EF303F
:10284000F105B0F5E259FF4F0C94A6299091800054
:102850009F7707C0909180009F7D03C0909180007A
:10286000977F9093800024C094B59F7702C094B561
:102870009F7D94BD1DC0909190009F7707C090915F
:1028800090009F7D03C090919000977F909390005F
:102890000FC09091C0009F7703C09091C0009F7DB2
:1028A0009093C00005C09091C200977F9093C200A2
:1028B000E82FF0E0EE0FFF1FEC52FC4FA591B49112
:1028C0008FB7F894EC91311103C020952E2301C0ED
:1028D0002E2B2C938FBF08958F929F92AF92BF9211
:1028E000CF92DF92EF92FF926B017C010E94C312A4
:1028F0004B015C01C114D104E104F104F1F00E9428
:10290000C312DC01CB0188199909AA09BB09883EC9
:102910009340A105B10570F321E0C21AD108E10886
:10292000F10888EE880E83E0981EA11CB11CC1142A
:10293000D104E104F10419F7DDCFFF90EF90DF90AF
:10294000CF90BF90AF909F908F9008952FB7F8943D
:1029500060916703709168038091690390916A03A5
:102960002FBF08951F920F920FB60F9211242F932D
:102970003F938F939F93AF93BF9380916703909101
:102980006803A0916903B0916A033091660323E064
:10299000230F2D3720F40196A11DB11D05C026E897
:1029A000230F0296A11DB11D209366038093670338
:1029B00090936803A0936903B0936A0380916B03BB
:1029C00090916C03A0916D03B0916E030196A11DCF
:1029D000B11D80936B0390936C03A0936D03B09330
:1029E0006E03BF91AF919F918F913F912F910F9067
:1029F0000FBE0F901F901895CF93DF93EC016B8162
:102A00007C816368716B88810E943720698170E0E6
:102A100080E090E00E946C1488810E94E9122A8173
:102A2000022E02C0969587950A94E2F7222329F098
:102A3000811528E0920708F0906FDF91CF910895FB
:102A4000CF93DF93EC016B817C816368716888812F
:102A50000E943720698170E080E090E00E946C1451
:102A600088810E94E9122A81022E02C096958795DC
:102A70000A94E2F7222329F0811528E0920708F052
:102A8000906FDF91CF9108950F931F93CF93DF93B2
:102A900000D0CDB7DEB78C01FC018189882369F0B5
:102AA00087E7898386858A8342E050E0BE016F5FB5
:102AB0007F4F848595850E94AA03F801118A0F90A3
:102AC0000F90DF91CF911F910F910895AF92BF9218
:102AD000CF92DF92EF92FF920F931F93CF93DF93EA
:102AE00000D01F92CDB7DEB75C0182E58B83D501A4
:102AF0001F96ED91FC9150970481158120813181C1
:102B000082E0C82ED12CFE0131967F0141E050E0D9
:102B1000BE016D5F7F4F1C968D919C911D970E9409
:102B2000C81D8A81D5011E968C931E971F960D9104
:102B30001C9150970115110531F0C8010E94540BEA
:102B4000C8010E94552AF501108A178689818111D2
:102B500002C081E0818B0F900F900F90DF91CF9199
:102B60001F910F91FF90EF90DF90CF90BF90AF90AB
:102B700008950F931F93CF93DF93EC018B0164E7CC
:102B800072E08F8598890E94D10AF80144815581AD
:102B9000608171818F859889DF91CF911F910F910D
:102BA0000C94900ACF93DF93EC018A89811108C0BD
:102BB0008D899E89009711F00E94552A81E08A8BA9
:102BC00088899989009721F00E94552A198A188AC4
:102BD000DF91CF910895CF93DF93EC018D819E819A
:102BE000DC01ED91FC910084F185E02D099518162A
:102BF000190654F48D819E81DC01ED91FC910284D3
:102C0000F385E02D0995EACFDF91CF9108958F925A
:102C10009F92AF92BF92CF92DF92EF92FF92CF93AB
:102C2000DF93EC016B010E94A6144B015C01E12CC7
:102C3000F12C8D819E81DC01ED91FC910284F38564
:102C4000E02D099597FF0FC00E94A614DC01CB016F
:102C500088199909AA09BB098C159D05AE05BF0500
:102C600040F38FEF9FEFDF91CF91FF90EF90DF90D8
:102C7000CF90BF90AF909F908F900895FC012381DB
:102C800034812627022E2295207F2025032E322FE5
:102C900022952F700226269532272327220F220FF6
:102CA000220F2025348323830895CF92DF92EF9261
:102CB000FF920F931F936801790100E010E020E07C
:102CC00030E00E94C81D1F910F91FF90EF90DF90A0
:102CD000CF9008950F931F93CF93DF9300D000D030
:102CE000CDB7DEB727E52B83FC0126852C8302E0D8
:102CF00010E09E012F5F3F4F42E050E0BE016D5F4C
:102D00007F4F848595850E945516898190E0982F84
:102D100088272A81820F911D0F900F900F900F909E
:102D2000DF91CF911F910F9108950F931F93CF9330
:102D3000DF9300D01F92CDB7DEB722E72983FC01D5
:102D400026852A8301E010E09E012D5F3F4F42E07F
:102D500050E0BE016F5F7F4F848595850E945516B8
:102D600081E09B81913009F080E00F900F900F90EF
:102D7000DF91CF911F910F910895CF92DF92EF9243
:102D8000FF920F931F93CF93DF9300D000D000D01A
:102D9000CDB7DEB78C016B0166E772E0CE0101961C
:102DA0000E94F60BC8010E94441586E090E00E9444
:102DB000C0297C01BE016F5F7F4F0E94ED0BF801BF
:102DC000F08AE786CE0101960E94540B6FE772E00D
:102DD000CE0101960E94F60BBE016F5F7F4FC801C6
:102DE0000E94B915CE0101960E94540BB601C8018C
:102DF0000E94B915C8010E946615C8010E94951667
:102E0000882339F064E670E080E090E00E946C1462
:102E1000F4CFC8010E946A1626960FB6F894DEBF5A
:102E20000FBECDBFDF91CF911F910F91FF90EF901B
:102E3000DF90CF900895EF92FF920F931F93CF935F
:102E4000DF9300D01F92CDB7DEB7FC01228921119C
:102E500018C07C01138A8FE4898380E48B83868584
:102E60008A839F012C5E3F4F00E410E043E050E076
:102E7000BE016F5F7F4F848595850E945516F701CF
:102E8000828B0F900F900F90DF91CF911F910F9138
:102E9000FF90EF900895CF93DF93EC010E941B17F2
:102EA0008A89882331F08B89C80FD11D8C8990E0E5
:102EB00002C08FEF9FEFDF91CF910895CF93DF9303
:102EC000EC010E941B178A89882359F081508A8B54
:102ED0008B8991E0980F9B8BC80FD11D8C8990E056
:102EE00002C08FEF9FEFDF91CF910895CF93DF93D3
:102EF000EC010E941B178A8990E0DF91CF91089521
:102F0000EF92FF920F931F93CF93DF9300D0CDB733
:102F1000DEB7FC012685211115C07C01178680E7EC
:102F2000898380E28A832089318900E210E042E0CF
:102F300050E0BE016F5F7F4F848595850E945516D6
:102F4000F70186870F900F90DF91CF911F910F911E
:102F5000FF90EF900895CF93DF93EC010E948017CC
:102F60008E85882341F08F85E889F989E80FF11D66
:102F7000808190E002C08FEF9FEFDF91CF910895A5
:102F8000CF93DF93EC010E9480178E85882369F030
:102F900081508E87E889F9898F8591E0980F9F8706
:102FA000E80FF11D808190E002C08FEF9FEFDF916D
:102FB000CF910895CF93DF93EC010E9480178E8507
:102FC00090E0DF91CF910895BF92CF92DF92EF9280
:102FD000FF920F931F93CF93DF93CDB7DEB72E975A
:102FE0000FB6F894DEBF0FBECDBF7C01C7010E94B3
:102FF000EB1568EE73E080E090E00E946C14D7015E
:1030000015968D919C911697DC01ED91FC910084B1
:10301000F185E02D09951816190644F385E0D82EA0
:10302000CC24C39492E3B92EEEE2F1E0DE011196D6
:103030008D2D01900D928A95E1F7F701C08645E04C
:1030400050E0BE016F5F7F4FC7010E94AA03D70106
:1030500015968D919C911697DC01ED91FC91019054
:10306000F081E02D63E009956AEF70E080E090E088
:103070000E946C1460EF74E0F701858196810E94D4
:10308000510C6AEF70E080E090E00E946C146EEEEC
:1030900074E0D70115968D919C9116970E94510C62
:1030A00064EF71E080E090E00E946C1462EE74E0E6
:1030B000F701858196810E94510C64EF71E080E0F8
:1030C00090E00E946C14C7010E94EB15E3E3F1E06D
:1030D000DE0116968D2D01900D928A95E1F7D701AC
:1030E0001896BC9204E010E09E01255F3F4F45E03A
:1030F00050E0BE016A5F7F4FC7010E9455168F3FA7
:10310000BFEF9B0739F468EE73E080E090E00E9427
:103110006C148ACF2B852111FFCF049701F52C85E4
:1031200030E02053310984E6829FA001839F500D37
:1031300011242D8530E0205331096AE0629FC001DF
:10314000639F900D1124840F951F2E8530E020532E
:103150003109820F931FF7019283818307C084E6B0
:1031600090E0D70112969C938E93119782E3F7011A
:1031700080872E960FB6F894DEBF0FBECDBFDF91CD
:10318000CF911F910F91FF90EF90DF90CF90BF9064
:103190000895FC0180917703811103C08FEF9FEFA9
:1031A00008959FB7F89482E08093E9002091F2009F
:1031B00030E01216130614F421E030E02115310539
:1031C00059F0289884E6809376038091F1008083FB
:1031D0008091F200882319F09FBFC90108958BE602
:1031E0008093E800F9CF2FB7F89483E08093E9004B
:1031F0009091E800892F807295FF04C09091F200B1
:1032000080E4891B2FBF089580917D0381110DC03B
:1032100082E08093790384E080937A0310927C03A8
:1032200010927B0381E080937D0389E793E008950A
:10323000CF93DF931F92CDB7DEB76983DC01ED91A9
:10324000FC910280F381E02D41E050E0BE016F5F10
:103250007F4F09950F90DF91CF91089583E0809380
:10326000E9008091F200882319F08AE38093E80056
:1032700008950E94F31890E00895CF93DF931F9272
:10328000CDB7DEB7FC018485958597FD05C02FEF8E
:103290003FEF358724870BC0CE0101960E94C918E5
:1032A000019719F4898190E002C08FEF9FEF0F9092
:1032B000DF91CF9108950F931F93CF93DF931F92C8
:1032C000CDB7DEB78C01FC018485958597FF0EC0D4
:1032D000CE0101960E94C918019719F4298130E0A6
:1032E00002C02FEF3FEFF80135872487F80184856E
:1032F00095850F90DF91CF911F910F910895FC015B
:103300008485958597FD0BC09FB7F89482E08093E4
:10331000E9008091F2009FBF90E0019608959FB769
:10332000F89482E08093E9008091F2009FBF90E0E2
:1033300008958F929F92AF92BF92CF92DF92EF92B9
:10334000FF920F931F93CF93DF935C016B017A0180
:1033500080912301882309F45BC08091770388233F
:1033600009F456C08091750380FF05C08091E0008C
:1033700082608093E000E70110E00AEF83E0882E8E
:103380009AE3992E2097D9F10E94F31881110AC06F
:10339000015009F43DC061E070E080E090E00E94DF
:1033A0006C14F0CF282F30E0C217D3070CF48C2F09
:1033B0004FB7F8948092E9009091E80095FF1DC006
:1033C000282F30E0C21BD30BF601982F915020F02C
:1033D00081918093F100FACFC20ED31E112319F010
:1033E0009092E80009C08091E80085FD06C09092A7
:1033F000E80011E0209709F010E04FBFC3CF111192
:10340000C3CF5D9884E6809378031E141F0444F0B4
:1034100081E090E0F5019383828380E090E001C039
:10342000C701DF91CF911F910F91FF90EF90DF9037
:10343000CF90BF90AF909F908F900895CF92DF92E2
:10344000EF92FF920F931F93CF93DF931F92CDB70D
:10345000DEB7182F062FE42E862F880F8E5F9983F4
:103460000E944A0A83E00E944A0AF12EC12E9981E5
:10347000D92E8C2D8F19801798F4F601E7FE02C023
:10348000849101C080810E944A0A182F80E00E9426
:103490004A0A8123FFEFCF1ADF0A8111EACF01C068
:1034A00081E00F90DF91CF911F910F91FF90EF90EE
:1034B000DF90CF900895DF92EF92FF920F931F93CA
:1034C000CF93DF93D82E8A017B01E40EF51EEB012A
:1034D000CE15DF0571F0D7FE03C0FE01849101C057
:1034E00088810E944A0A21968111F2CF8FEF9FEFC7
:1034F00001C0C801DF91CF911F910F91FF90EF9014
:10350000DF9008950F931F93CF93DF931F92CDB752
:10351000DEB782E0898342E450E061E175E080E853
:103520000E945B1A0E940419DC0112960D911C91F5
:1035300013970115110569F0D801ED91FC910280F6
:10354000F381E02DBE016F5F7F4FC801099597FFA2
:1035500007C089810F90DF91CF911F910F9108953E
:10356000F80100851185E5CFCF93DF93BC01990F5A
:10357000880B990B97FF03C00E940F2103C04AE0FC
:103580000E948720EC0189E392E00E945E208C0F6C
:103590009D1FDF91CF9108950F931F930E94A61452
:1035A0006093C0047093C1048093C2049093C304D9
:1035B000E091B804F091B9040284F385E02D88EB22
:1035C00094E0099597FF1FC00E94A6140091C004C3
:1035D0001091C1042091C2043091C304DC01CB01DD
:1035E000801B910BA20BB30B0091BC041091BD0486
:1035F0002091BE043091BF0480179107A207B30742
:10360000B8F28FEF9FEF1F910F9108951F920F92C5
:103610000FB60F9211248F939F938091E1009091A8
:10362000E100937F9093E10083FF0FC01092E900C7
:1036300091E09093EB001092EC0092E39093ED00F8
:103640001092770398E09093F00082FF20C093E0FF
:103650009093E9009091F200992319F09AE39093E6
:10366000E80090917803992339F090917803915074
:1036700090937803992389F190917603992339F0F7
:1036800090917603915090937603992341F184FFB2
:1036900010C08091E2008E7E81608093E200809174
:1036A000E1008F7E8093E100809175038E7E8061C2
:1036B00011C080FF16C08091E2008E7E80618093F1
:1036C000E2008091E1008E7E8093E100809175039D
:1036D0008E7E81608093750304C05D9ACDCF289A59
:1036E000D6CF9F918F910F900FBE0F901F9018957E
:1036F0001F920F920FB60F921124CF92DF92EF928A
:10370000FF920F931F932F933F934F935F936F936A
:103710007F938F939F93AF93BF93EF93FF93CF9339
:10372000DF93CDB7DEB76C97DEBFCDBF1092E90057
:103730008091E80083FFEDC168E0CE0145960E94CC
:10374000780A82EF8093E8008D8987FF05C0909109
:10375000E80090FFFCCF03C09EEF9093E800982F05
:10376000907609F0C6C09E892F89188D91110CC0E2
:10377000803829F4809174038093F10002C0109284
:10378000F1001092F10048C1422F50E0512B9130CE
:1037900051F4811141C14130510509F03DC1809181
:1037A00074038D7F0BC0933061F4811135C14130BA
:1037B000510509F031C180917403826080937403D4
:1037C0002BC1953041F48091E80080FFFCCF206848
:1037D0002093E30021C1963009F05FC0EB8CFC8C94
:1037E0001092E9001092720310927103123091F559
:1037F0001092700310926F030E94821A99E0BE012A
:103800006F5F7F4FDB01E92F1D92EA95E9F79983FE
:103810001A8391E09E8390EA98879AEF9987209186
:10382000710330917203275F3F4F3C832B838D835D
:103830001092E9001092720310927103F0927003DB
:10384000E0926F0349E050E080E00E945B1A0E9422
:10385000821AE2C0F0927003E0926F030E94041992
:10386000DC011296ED90FC901397E114F10409F439
:10387000C0C0D701ED91FC910480F581E02DBE011F
:103880006B5E7F4FC7010995009719F00CF0C4C01B
:10389000C7C0F701E084F184E8CF973009F4C0C0D5
:1038A000983021F481E08093F100B6C0993009F09E
:1038B000B3C0837009F0B4C0E9E3F1E081E021E036
:1038C00036E39081992361F08093E9002093EB0027
:1038D00091919093EC003093ED008F5F873089F7E2
:1038E0008EE78093EA001092EA008F898093770335
:1038F00093C08B8D9C8D1092E900109272031092F0
:1039000071039093700380936F03898D811156C06A
:103910008E899D89913A59F4813209F081C047E03E
:1039200050E06CE171E080E00E945B1A75C091325A
:1039300009F076C0833289F4888D90E0982F88272B
:103940002F89822BA0E0B0E0809318019093190199
:10395000A0931A01B0931B015FC0803269F480917B
:10396000E80082FFFCCF67E08CE191E00E94780ADA
:103970008BEF8093E80006C0823209F04DC08F893A
:103980008093230180917303882319F0EEEFFAE00E
:1039900002C0E0E0F8E080911C0190911D01A0912F
:1039A0001E01B0911F01803B9440A105B10509F0B3
:1039B0007BC08091230180FF93C076C00E940419D0
:1039C000DC0112960D911C9113970115110541F11F
:1039D000D801ED91FC910190F081E02DBE016B5E6C
:1039E0007F4FC8010995811117C0F8010085118525
:1039F000ECCF113009F44EC0133091F48F89882335
:103A000009F445C0823081F440E86BE085E795E039
:103A10000E941E1A882321F08EEF8093E80079C05F
:103A200081E28093EB0075C0813029F440E86BE0BF
:103A300089E695E0EDCF833099F70E940419DC0107
:103A40001296ED90FC9013978E010F5F1F4F680147
:103A5000E114F10479F0D701ED91FC910680F78132
:103A6000E02DB801C7010995080F111DF701E08489
:103A7000F184EECFD8011C92F60101900020E9F705
:103A80003197BF016C197D0940E0C601C1CF63E5E4
:103A900075E002C067E575E06115710509F2FB018B
:103AA000449150E080E840CF0FB6F894A8958091FB
:103AB0006000886180936000109260000FBEA8953E
:103AC000EE3F2AE0F20739F08091FE0A9091FF0A5A
:103AD00091838083A1CF1092FF0A1092FE0A9CCF9F
:103AE000EE3F8AE0F80731F0808191819093FF0AE0
:103AF0008093FE0A87E797E7918380839BE088E1C4
:103B00000FB6F894A895809360000FBE9093600064
:103B100083CF6C960FB6F894DEBF0FBECDBFDF919A
:103B2000CF91FF91EF91BF91AF919F918F917F9135
:103B30006F915F914F913F912F911F910F91FF9046
:103B4000EF90DF90CF900F900FBE0F901F901895C1
:103B5000FC018091A5049091A604892B21F421E019
:103B6000309749F413C08091A1049091A20430973A
:103B700031F421E0FC018081882341F006C0BF01BF
:103B80000E94C52B21E0892B09F020E0822F0895A7
:103B90002F923F924F925F926F927F928F929F925D
:103BA000AF92BF92CF92DF92EF92FF920F931F934B
:103BB000CF93DF93CDB7DEB72B970FB6F894DEBF68
:103BC0000FBECDBF9B878A875B011901FD82EC8206
:103BD0003A01600E711E872C7B82912C44244A94FA
:103BE000542C9B01240F351F3F832E839101200FFE
:103BF000311F39872887EA85FB858085981608F06C
:103C000036C1AA85BB8514965C924E921397159681
:103C10008D919C911697DC01ED91FC910190F081C2
:103C2000E02D6FEF09956FEF8A859B850E943E1608
:103C3000EA85FB8585819681DC01ED91FC910190FF
:103C4000F081E02DAA85BB856C910995EA85FB85FD
:103C50006081CF010E943E16AA85BB8515968D9185
:103C60009C911697DC01ED91FC910190F081E02D83
:103C7000682D09956B818A859B850E943E16EA8591
:103C8000FB8585819681DC01ED91FC910190F081AD
:103C9000E02D662D0995662D8A859B850E943E162E
:103CA00075012E813F81E216F306B1F0EA85FB85AE
:103CB000858196818701DC01ED91FC910190F08175
:103CC000E02DD7016D917D010995F80160818A850C
:103CD0009B850E943E16E5CF7101AA85BB8515968E
:103CE0008D919C91169728853985E216F30691F0FF
:103CF0008701DC01ED91FC910190F081E02DD7016D
:103D00006D917D010995F80160818A859B850E94EE
:103D10003E16E3CFDC01ED91FC91AA85BB8514969C
:103D20006C910190F081E02D0995EA85FB858581F4
:103D30009681DC01ED91FC910190F081E02DAA8546
:103D4000BB8513966C91099564E670E08A859B8526
:103D50000E9407168F3F910509F07DC0EA85FB851B
:103D6000548243826FEFCF010E943E1665E070E0FF
:103D70008A859B850E940716AA85BB856C91262F94
:103D800030E08217930709F066C0CD010E943E160D
:103D90006AE070E08A859B850E9407167C0197FD8A
:103DA0005AC0682F8A859B850E943E166AE070E0A3
:103DB0008A859B850E9407168C0197FD4CC0682F51
:103DC0008A859B850E943E16EA821982E981FA81E2
:103DD0000E0F1F1FE12CF12C65E070E08A859B859A
:103DE000E016F106A9F0EC14FD0491F00E9407160C
:103DF00097FD0AC0EC81FD81EE0DFF1D8083682FC9
:103E00008A859B850E943E16FFEFEF1AFF0AE4CFDA
:103E10000E9407167C0197FD1EC065E070E08A8550
:103E20009B850E94071697FD16C0FE2CEE248E0D72
:103E30009F1DAA85BB8513962D913C911497281739
:103E4000390749F48C918F5F8C93C801C016D10655
:103E500080F4C6010EC0939464E670E080E090E0C8
:103E60000E946C148A859B850E94EB15C4CE8FEF4F
:103E70009FEF2B960FB6F894DEBF0FBECDBFDF913C
:103E8000CF911F910F91FF90EF90DF90CF90BF9057
:103E9000AF909F908F907F906F905F904F903F90EA
:103EA0002F900895EF92FF920F931F93CF93DF937C
:103EB000CDB7DEB727970FB6F894DEBF0FBECDBFE4
:103EC0007C018B016AED72E0CE0101960E94F60B37
:103ED000B701CE0101960E94D10A64E772E0CE01DB
:103EE00001960E94D10AB801CE0101960E94D10A22
:103EF0004D815E8169817A8101E010E09E01295F38
:103F00003F4F8DEA94E00E945516CE0101960E9423
:103F1000540B27960FB6F894DEBF0FBECDBFDF91CE
:103F2000CF911F910F91FF90EF9008959091F10321
:103F30009111FCCF91E09093F1039093F0032FEF58
:103F40002093EF031092EE03260F2093ED0390933E
:103F5000EC039091EC03880F892B8093EC03809104
:103F6000EB03813061F41092EB038091EC038093BA
:103F7000BB008091BC0083FDF8CF85EC01C085EECD
:103F80008093BC008091F1038130E1F38091EE03D6
:103F9000861710F46091EE03ABECB3E02BEA33E04C
:103FA000F9018E2F821B861718F48D918193F9CF1A
:103FB000862F08952091AA039091A903213208F039
:103FC0004AC08091F1038111FCCF32E03093F103BC
:103FD00031E03093F0033FEF3093EF031092EE03A4
:103FE0002093ED03A9E8B3E04BEC53E0FA013E2F38
:103FF000341B321718F43D913193F9CF1092EC0332
:104000002091EC03990F922B9093EC039091EB038A
:10401000913061F41092EB039091EC039093BB000C
:104020009091BC0093FDF8CF95EC01C095EE909374
:10403000BC009091F1039230E1F39091EF039F3F28
:1040400079F08091EF03803241F08091EF0380336B
:1040500031F084E005C081E003C082E001C083E06C
:10406000109288031092AA031092870308951F9359
:10407000CF93DF931F92CDB7DEB7162F91E09093C9
:1040800087038093A903109288031092AA0361E02A
:104090008FE894E079830E947B037981672F8FE812
:1040A00094E00E947B03612F8FE894E00E947B03E1
:1040B0000F90DF91CF911F910C94DA1FBC010097F4
:1040C00091F0FC0101900020E9F73197AF01481B06
:1040D000590BE0913A05F0913B050280F381E02D08
:1040E0008AE395E0099480E090E00895CF93DF9310
:1040F000BC018AE395E00E94510CEC0189E392E057
:104100000E945E208C0F9D1FDF91CF9108958F92AA
:104110009F92AF92BF920F931F93CF93DF93CDB730
:10412000DEB7A1970FB6F894DEBF0FBECDBF19A2C0
:10413000423008F44AE08E010F5D1F4F842E912C0F
:10414000A12CB12CA50194010E948429E62FB9016C
:10415000CA0101501109EA3014F4E05D01C0E95CC4
:10416000D801EC93232B242B252B61F7C8010E9447
:104170005E20A1960FB6F894DEBF0FBECDBFDF91D3
:10418000CF911F910F91BF90AF909F908F90089506
:10419000E0913A05F0913B05DC0114964D915C915C
:1041A00015976D917C910280F381E02D8AE395E073
:1041B0000994CF93DF930E94C820EC0189E392E039
:1041C0000E945E208C0F9D1FDF91CF9108950C946B
:1041D0005E2010928603109285031092880310923D
:1041E000AA031092F10381E08093F0031092EB0395
:1041F00061E082E00E94091461E083E00E940914FA
:10420000E9EBF0E080818E7F808380818D7F8083E9
:1042100088E48093B80085E48093BC000895CF9231
:10422000DF92EF92FF92CF93DF936B017C01E091DD
:104230003A05F0913B050190F081E02D6DE28AE3B3
:1042400095E00995EC0166277727CB016C197D096C
:104250008E099F094AE00E9487208C0F9D1FDF91E5
:10426000CF91FF90EF90DF90CF900895CF93DF93A1
:10427000CDB7DEB72C970FB6F894DEBF0FBECDBF1B
:10428000789484B5826084BD84B5816084BD85B531
:10429000826085BD85B5816085BD80916E0081603D
:1042A00080936E00109281008091810082608093E3
:1042B00081008091810081608093810080918000E5
:1042C0008160809380008091910082608093910052
:1042D0008091910081608093910080919000816035
:1042E000809390008091C10084608093C100809190
:1042F000C10082608093C1008091C1008160809381
:10430000C1008091C30081608093C3008091C00090
:1043100082608093C0008091C20081608093C2005F
:1043200080917A00846080937A0080917A00826024
:1043300080937A0080917A00816080937A008091E6
:104340007A00806880937A00109277031092740349
:10435000109275038091D70081608093D70080EA26
:104360008093D80089B5806189BD89B5826089BD97
:1043700009B400FEFDCF61E070E080E090E00E94B3
:104380006C148091D8008F7C80618093D8008091DC
:10439000E000807F8093E0008091E1008E7E80933A
:1043A000E1008DE08093E200559A209AEEEFFFE75E
:1043B000859194918B3F9C4D19F481E08093730318
:1043C000ECE1F4E02491EDEFF3E08491882399F09F
:1043D00090E0880F991FFC01EE51FC4FA591B4911C
:1043E000FC01EC52FC4F859194918FB7F894EC91BD
:1043F000E22BEC938FBF0EE110E00E94E30401502A
:104400001109D9F760ED77E080E090E00E946C142C
:10441000E0910204F091030482E08083E091FE03C6
:10442000F091FF031082E0910004F091010480E11B
:10443000808310920A04E0910604F091070486E05C
:104440008083E0910404F091050480818061808381
:10445000E0910404F0910504808188608083E091FC
:104460000404F0910504808180688083E091040455
:10447000F091050480818F7D808382EF93E00E941C
:10448000A209181619062CF482EF93E00E94800905
:10449000F4CF68EE73E080E090E00E946C1482EF4D
:1044A00093E00E94A209181619063CF30E94E92025
:1044B000E091B604F091B704A089B18982E08C93B1
:1044C000A485B5851C92A685B78587E08C93108E50
:1044D000A489B58986E08C93A289B3898C91806187
:1044E0008C93A289B3898C9188608C93A289B389BB
:1044F0008C9180688C930288F389E02D80818F7D78
:1045000080838091B404811107C081E08093B4045A
:104510008DEA94E00E94E41780914605909147054A
:10452000FC012781211104C021E027830E94E417A8
:104530008AE395E00E94D21580E290E00E94C029B3
:1045400090934B0580934A0500E012E010933905E3
:10455000009338050E94E920109334050093330539
:104560000E94E9206091290370912A034AE0CE015C
:1045700001960E94890B67EB71E0CE0107960E94BD
:10458000F60B69817A818F8198850E94521FCE0136
:1045900007960E94540BCE0101960E94540B68E1CD
:1045A00072E0CE0101960E94F60B67ED71E0CE013C
:1045B00007960E94F60B69817A818F8198850E9407
:1045C000521FCE0107960E94540BCE0101960E9405
:1045D000540B4AE061E070E0CE0101960E94890B25
:1045E0006AE172E0CE0107960E94F60B69817A813A
:1045F0008F8198850E94521FCE0107960E94540B0E
:10460000CE0101960E94540B0E9465050E94B912CA
:10461000FBCF8BE994E00E94540B81EA94E00E9466
:10462000540B87EA94E00E94540B87E991E0909341
:10463000B9048093B80488EB94E00E94441581EAA1
:1046400095E00E94540B8CE095E00E94540B82E1AF
:1046500095E00E94540B88E195E00E94540B8EE196
:1046600095E00E94540B84E295E00E94540B8AE28C
:1046700095E00E94540B89EA91E090933B0580936A
:104680003A058AE395E00C94D215CF92DF92EF922F
:10469000FF92CF93DF93E1E5F5E01382128288EE7B
:1046A000C82E83E0D82EE12CF12CC482D582E6827C
:1046B000F78283E491E0918380838FEF9FEF95876A
:1046C0008487E2EFF3E013821282C482D582E6820D
:1046D000F78285E591E0918380838DEC90E095876A
:1046E00084878CEC90E09787868788EC90E0918BAC
:1046F000808B89EC90E0938B828B8AEC90E0958B99
:10470000848B8EEC90E0978B868B118E128E138E9D
:10471000148EAAE3B5E013961C921E92129714967B
:10472000CD92DD92ED92FC92179789EA91E0119675
:104730009C938E93CDEAD4E01D96DC93CE931C9788
:104740001E961C921E971F961C921F9751961C92A4
:104750001E92509781E052968C931882FE83ED83CF
:104760001F821886FA87E987EFE8F4E01382128245
:10477000C482D582E682F78287E691E091838083C6
:10478000E5E3F5E088E480831482138288E0818386
:104790001282E0E3F5E01482138299E4908381832E
:1047A000128262E872E08AE295E00E94F60B61E90B
:1047B00072E084E295E00E94F60B62EA72E08EE11C
:1047C00095E00E94F60B61EB72E088E195E00E94B3
:1047D000F60B6FEB72E082E195E00E94F60B6DEC58
:1047E00072E08CE095E00E94F60B64E572E081EAED
:1047F00095E00E94F60BE8EBF4E013821282C4828B
:10480000D582E682F78287E991E091838083D5871C
:10481000C487118A128A138A64E572E087EA94E0F9
:104820000E94F60B64E572E081EA94E00E94F60BC8
:1048300064E572E08BE994E0DF91CF91FF90EF9017
:10484000DF90CF900C94F60BEF920F931F93CF93C2
:10485000DF93E80147FD02C034E001C034E1E42FFA
:10486000440FFF0BF7FF03C0F195E195F109E32E2B
:10487000022F2E2FAE010E94C024CE01DF91CF91D6
:104880001F910F91EF9008951F93FC01992788279E
:10489000BC01E89411911032E9F3193010F01E3088
:1048A000C8F31B3251F01D3249F4689406C00E94CF
:1048B0009124610F711D811D911D119110531A30AA
:1048C000B0F33EF490958095709561957F4F8F4F32
:1048D0009F4F1F910895FB01DC0105900D92002070
:1048E000E1F70895FC0105900020E9F78095909587
:1048F0008E0F9F1F08954532510520F4423010F06D
:104900000C948624FB011082CB010895BB274A300A
:1049100031F4992322F4BDE2909581959F4F0C9438
:10492000A724592F482F372F262F660F771F881F50
:10493000991F660F771F881F991F620F731F841FAF
:10494000951F660F771F881F991F0895BB27FB01CE
:104950005527AA27880F991FAA1FA41710F0A41B78
:1049600083955051B9F7A05DAA3308F0A95DA193D2
:10497000009779F7B111B1931192CB010C942627CE
:104980004F925F926F927F929F92AF92BF92CF921F
:10499000DF92EF92FF920F931F93CF93DF93CDB7E8
:1049A000DEB729970FB6F894DEBF0FBECDBF6A0100
:1049B000122FB02E2BE3201720F0FF24F394F00EDB
:1049C00002C0BCE3FB2E0F2D27E0AE014F5F5F4F0F
:1049D0000E944E26AC018981982F9970913031F058
:1049E000E1FC06C0E0FE06C090E205C09DE203C007
:1049F0009BE201C090E0EE2DE07183FF3CC091117D
:104A000002C083E001C084E0811718F4212F281B25
:104A100001C020E0E1110BC0F601822F30E28823B3
:104A200019F031938150FBCFC20ED11C20E09923A5
:104A300029F0D6019C93F60131966F01C6010396C9
:104A4000E2FE0AC03EE4D6013C9341E411964C9349
:104A5000119712963C9306C03EE6F601308341E67C
:104A600041833283FC01322F40E2332309F442C0F8
:104A700041933150FACF82FF44C0911102C083E0CC
:104A800001C084E0811718F4212F281B01C020E009
:104A9000E1110BC0F601822F30E2882319F0319327
:104AA0008150FBCFC20ED11C20E0992329F0D60102
:104AB0009C93F60131966F01C6010396E2FE0BC08E
:104AC00039E4D6013C933EE411963C93119736E4C9
:104AD00012963C9307C039E6F60130833EE63183F7
:104AE00036E63283FC01322F40E2332319F0419342
:104AF0003150FBCFFC01E20FF11D10828EEF9FEFD2
:104B0000B7C0F1E0911101C0F0E06F2F70E0141612
:104B1000150624F49A012F5F3F4F02C021E030E0D8
:104B2000260F371FBB2029F06B2D70E06F5F7F4F82
:104B300002C060E070E0260F371F612F70E026177B
:104B400037071CF4121B212F01C020E03E2D3871C5
:104B500059F4D601322F60E2332319F06D933150AE
:104B6000FBCFC20ED11C20E0FF2331F0D6019C9375
:104B7000B6016F5F7F4F6B01E1110BC0F601922F01
:104B800030E3992319F031939150FBCFC20ED11C21
:104B900020E09F2D940F3A81782F7071A72E84FF0B
:104BA00003C0313309F49150191624F4993018F0E8
:104BB00098E001C091E0E42F852F57FF02C0E0E0AC
:104BC00080E06E2F782FE0E0F0E0AEE29A2E3A011E
:104BD000691A71082A01461A570A0B2D10E011951F
:104BE000019511096F3F8FEF780729F4D6019C9248
:104BF000C60101966C014617570784F066167706C2
:104C00006CF47F01E40CF51CA1E0B0E0AC0FBD1F1B
:104C1000EA0EFB1ED7011196BC9002C090E3B92E9C
:104C2000615071093196C60101967C0160177107C8
:104C300024F0D601BC926C01D5CF6417750741F4FE
:104C4000363320F4353321F4A11002C081E3B82EAD
:104C5000F601B082F701822F90E2882319F0919338
:104C60008150FBCFF701E20FF11D108280E090E050
:104C700029960FB6F894DEBF0FBECDBFDF91CF915E
:104C80001F910F91FF90EF90DF90CF90BF90AF906A
:104C90009F907F906F905F904F900895283008F01C
:104CA00027E03327DA01990F311D87FD91600096C7
:104CB0006105710539F432602E5F3D9330E32A952A
:104CC000E1F708959F3F30F080387105610509F0E4
:104CD0003C5F3C5F3D93913008F08068911DDF930D
:104CE000CF931F930F93FF92EF92192F987F969572
:104CF000E92F96959695E90FFF27EC5AFE4F9927D5
:104D00003327EE24FF24A701E701059008940794B8
:104D100028F4360FE71EF81E491F511D660F771F36
:104D2000881F991F0694A1F70590079428F4E70EB1
:104D3000F81E491F561FC11D770F881F991F661F38
:104D40000694A1F70590079428F4F80E491F561F02
:104D5000C71FD11D880F991F661F771F0694A1F7E3
:104D60000590079420F4490F561FC71FD81F990FAD
:104D7000661F771F881F0694A9F7849110951770F6
:104D800041F0D695C79557954795F794E7941A95AE
:104D9000C1F7EAEFF0E068941590159135916591AF
:104DA000959105907FE27395E118F10A430B560B3C
:104DB000C90BD009C0F7E10CF11E431F561FC91FD4
:104DC000D01D7EF4703311F48A95E6CFE89401503B
:104DD00030F0080F0AF40027021708F4202F23955B
:104DE000022F7A3328F079E37D932A95E9F710C0F2
:104DF0007D932A9589F6069497956795379517952B
:104E00001794E118F10A430B560BC90BD00998F01F
:104E100023957E9173957A3308F070E37C93201389
:104E2000B8F77E9170617D9330F0839571E37D9347
:104E300070E32A95E1F71124EF90FF900F911F91F5
:104E4000CF91DF91992787FD90950895DC01FC01B2
:104E5000672F71917723E1F7329704C07C916D93AE
:104E600070836291AE17BF07C8F308950E94782738
:104E700008F481E00895E89409C097FB3EF490950A
:104E80008095709561957F4F8F4F9F4F9923A9F023
:104E9000F92F96E9BB279395F695879577956795B2
:104EA000B795F111F8CFFAF4BB0F11F460FF1BC0F6
:104EB0006F5F7F4F8F4F9F4F16C0882311F096E989
:104EC00011C0772321F09EE8872F762F05C0662337
:104ED00071F096E8862F70E060E02AF09A95660FF0
:104EE000771F881FDAF7880F9695879597F90895A9
:104EF000990F0008550FAA0BE0E8FEEF16161706EB
:104F0000E807F907C0F012161306E407F50798F052
:104F1000621B730B840B950B39F40A2661F0232B6B
:104F2000242B252B21F408950A2609F4A140A695E7
:104F30008FEF811D811D08950E94AF270C942028BA
:104F40000E94122838F00E94192820F0952311F0B1
:104F50000C9409280C940F2811240C9454280E94B6
:104F6000312870F3959FC1F3950F50E0551F629F54
:104F7000F001729FBB27F00DB11D639FAA27F00DB2
:104F8000B11DAA1F649F6627B00DA11D661F829FD9
:104F90002227B00DA11D621F739FB00DA11D621FBE
:104FA000839FA00D611D221F749F3327A00D611DDB
:104FB000231F849F600D211D822F762F6A2F1124BD
:104FC0009F5750409AF0F1F088234AF0EE0FFF1FF0
:104FD000BB1F661F771F881F91505040A9F79E3F47
:104FE000510580F00C9409280C9454285F3FE4F399
:104FF000983ED4F3869577956795B795F795E7959D
:105000009F5FC1F7FE2B880F911D9695879597F9A5
:10501000089597F99F6780E870E060E008959FEF3A
:1050200080EC089500240A9416161706180609063F
:10503000089500240A94121613061406050608950E
:10504000092E0394000C11F4882352F0BB0F40F496
:10505000BF2B11F460FF04C06F5F7F4F8F4F9F4FD6
:10506000089557FD9058440F551F59F05F3F71F058
:105070004795880F97FB991F61F09F3F79F08795BF
:105080000895121613061406551FF2CF4695F1DF48
:1050900008C0161617061806991FF1CF86957105D8
:1050A000610508940895E894BB2766277727CB010C
:1050B00097F908952F923F924F925F926F927F924D
:1050C0008F929F92AF92BF92CF92DF92EF92FF9218
:1050D0000F931F93CF93DF93CDB7DEB7CA1BDB0BC4
:1050E0000FB6F894DEBF0FBECDBF09942A88398869
:1050F00048885F846E847D848C849B84AA84B98470
:10510000C884DF80EE80FD800C811B81AA81B9817B
:10511000CE0FD11D0FB6F894DEBF0FBECDBFED018F
:1051200008955058BB27AA270E94A9280C9420282C
:105130000E94122838F00E94192820F039F49F3F6D
:1051400019F426F40C940F280EF4E095E7FB0C9468
:105150000928E92F0E94312858F3BA17620773070C
:105160008407950720F079F4A6F50C9453280EF4E3
:10517000E0950B2EBA2FA02D0B01B90190010C0167
:10518000CA01A0011124FF27591B99F0593F50F47F
:10519000503E68F11A16F040A22F232F342F4427D7
:1051A000585FF3CF469537952795A795F0405395CF
:1051B000C9F77EF41F16BA0B620B730B840BBAF09F
:1051C0009150A1F0FF0FBB1F661F771F881FC2F70A
:1051D0000EC0BA0F621F731F841F48F4879577951E
:1051E0006795B795F7959E3F08F0B0CF9395880FD8
:1051F00008F09927EE0F9795879508950E94122938
:105200000C9420280E94192858F00E94122840F07F
:1052100029F45F3F29F00C94092851110C9454286B
:105220000C940F280E94312868F39923B1F3552379
:1052300091F3951B550BBB27AA27621773078407A9
:1052400038F09F5F5F4F220F331F441FAA1FA9F33F
:1052500035D00E2E3AF0E0E832D091505040E6952D
:10526000001CCAF72BD0FE2F29D0660F771F881F8E
:10527000BB1F261737074807AB07B0E809F0BB0B81
:10528000802DBF01FF2793585F4F3AF09E3F510595
:1052900078F00C9409280C9454285F3FE4F3983E6E
:1052A000D4F3869577956795B795F7959F5FC9F77E
:1052B000880F911D9695879597F90895E1E0660FFF
:1052C000771F881FBB1F621773078407BA0720F078
:1052D000621B730B840BBA0BEE1F88F7E0950895E1
:1052E00097FB072E16F4009407D077FD09D00E9493
:1052F000AC2907FC05D03EF4909581959F4F089509
:10530000709561957F4F0895A1E21A2EAA1BBB1BD1
:10531000FD010DC0AA1FBB1FEE1FFF1FA217B30781
:10532000E407F50720F0A21BB30BE40BF50B661F97
:10533000771F881F991F1A9469F76095709580955B
:1053400090959B01AC01BD01CF010895EE0FFF1FA9
:105350000590F491E02D0994AA1BBB1B51E107C0F5
:10536000AA1FBB1FA617B70710F0A61BB70B881FF5
:10537000991F5A95A9F780959095BC01CD01089584
:10538000CF93DF938230910510F482E090E0E091BA
:10539000A905F091AA0520E030E0C0E0D0E0309708
:1053A00011F14081518148175907C0F0481759073A
:1053B00061F482819381209719F09B838A832BC0AB
:1053C0009093AA058093A90526C02115310519F0EF
:1053D0004217530718F49A01BE01DF01EF01028062
:1053E000F381E02DDCCF2115310509F1281B390BA4
:1053F0002430310590F412968D919C91139761158C
:10540000710521F0FB019383828304C09093AA0568
:105410008093A905FD01329644C0FD01E20FF31F00
:1054200081939193225031092D933C933AC020915E
:10543000A7053091A805232B41F420912601309136
:1054400027013093A8052093A705209124013091CE
:1054500025012115310541F42DB73EB740912801B2
:1054600050912901241B350BE091A705F091A80567
:10547000E217F307A0F42E1B3F0B2817390778F02B
:10548000AC014E5F5F4F2417350748F04E0F5F1F8A
:105490005093A8054093A7058193919302C0E0E043
:1054A000F0E0CF01DF91CF9108950F931F93CF9339
:1054B000DF93009709F48CC0FC01329713821282AB
:1054C0000091A9051091AA050115110581F420810B
:1054D0003181820F931F2091A7053091A8052817CD
:1054E000390779F5F093A805E093A70571C0D801B5
:1054F00040E050E0AE17BF0750F412962D913C915A
:105500001397AD012115310509F1D901F3CF9D01A3
:10551000DA013383228360817181860F971F82179E
:10552000930769F4EC0128813981260F371F2E5F1C
:105530003F4F318320838A819B8193838283452BD4
:1055400029F4F093AA05E093A90542C01396FC93B1
:10555000EE931297ED01499159919E01240F351F49
:10556000E217F30771F480819181840F951F0296F1
:1055700011969C938E938281938113969C938E9324
:105580001297E0E0F0E0D80112968D919C9113976C
:10559000009719F0F8018C01F6CF8D919C9198013C
:1055A0002E5F3F4F820F931F2091A7053091A805D2
:1055B0002817390769F4309729F41092AA05109238
:1055C000A90502C0138212821093A8050093A705B3
:1055D000DF91CF911F910F910895A0E0B0E0E3EF2C
:1055E000FAE20C945E28EC01009721F4CB010E94B2
:1055F000C029B8C0FC01E60FF71F9C0122503109F9
:10560000E217F30708F4ACC0D9010D911C91119772
:1056100006171707B0F00530110508F49FC0C80140
:1056200004978617970708F499C002501109061BC2
:10563000170B019311936D937C93CF010E94552A10
:105640008DC05B01A01AB10A4C01800E911EA09181
:10565000A905B091AA0540E050E0E12CF12C10978B
:1056600009F44AC0A815B905D1F56D907C90119741
:10567000630182E0C80ED11CCA14DB0480F1A301CF
:105680004A195B096A0182E0C80ED11C1296BC90CF
:1056900012971396AC91B5E0CB16D10440F0B282CC
:1056A000A38351834083D9016D937C930AC00E5F1D
:1056B0001F4FC301800F911FF90191838083EB2D50
:1056C000FA2FE114F10431F0D7011396FC93EE9315
:1056D000129744C0F093AA05E093A9053FC08D91AD
:1056E0009C9111974817590708F4AC017D01129657
:1056F0000D90BC91A02DB3CF8091A7059091A805E6
:1057000088159905E1F446175707C8F480912401DC
:1057100090912501009741F48DB79EB740912801E3
:1057200050912901841B950BE817F907C8F4F093F1
:10573000A805E093A705F901718360830FC0CB0131
:105740000E94C0297C01009759F0A801BE010E9467
:10575000BC2BCE010E94552AC70104C0CE0102C055
:1057600080E090E0CDB7DEB7EEE00C947A2881E0DF
:1057700090E0F8940C94EF2BFB01DC0102C0019047
:105780000D9241505040D8F70895FB01DC018D91F6
:10579000019080190110D9F3990B0895FB01DC01E8
:1057A00001900D920020E1F70895FB0151915523DE
:1057B000A9F0BF01DC014D9145174111E1F759F402
:1057C000CD010190002049F04D9140154111C9F3E0
:1057D000FB014111EFCF81E090E00197089512E0C5
:1057E000C2ECD2E004C0FE010E94A6292196C33C6F
:0857F000D107C9F7F894FFCFBF
:1057F8000100010001000100010001000100010099
:10580800010001000100FFFFFFFFFFFF00E10000B2
:10581800000000000000AB0580002000220058585E
:10582800585858585831303000C180810000000065
:105838000000001819991939192E197F193D195B9B
:105848001900000000E10946097109280AA2098027
:10585800099409000000007B034B03CE0C1F03438F
:10586800032F03200300000000B8094609CE0CCD21
:105878000CB809B809B80900000000B8094609CEF3
:105888000CCD0C0000000018134609CE0CE8127667
:10589800175E174B170000000049138913CE0C350B
:1058A80013DA17C017AB17646576696365456D61D0
:1058B800696C00636C730071756974007265626F5E
:1058C8006F74007265736574007363616E6E006453
:1058D80020283078006829006578697400656D6152
:1058E800696C0073657276696365007265616C74D2
:1058F800696D6500616363657373006469736172E0
:105908006D0070686173650030007374617475733D
:10591800427269646765007265696E69636961727C
:105928002061206365726F0A000D0A006461746566
:10593800002B25542C25412C25642C25422C255937
:10594800003A000900486F6F6B200020576174749B
:10595800730020416D70730050480041005B324A6B
:10596800005B4800FE002F62696E2F617368002D8E
:1059780063007C4163636573732053656E736F7254
:10598800007C4D61676E657469632053656E736F43
:1059980072007C44697361726D2053656E736F7217
:1059A800007C50686173652053656E736F72007C6C
:1059B8004C696768742053656E736F72007C4E6F14
:0C59C8007420646566696E65640044002C
:00000001FF
